{
	"contracts/test/NFTCollection.sol": {
		"NFTCollection": {
			"abi": [
				{
					"inputs": [],
					"stateMutability": "nonpayable",
					"type": "constructor"
				},
				{
					"anonymous": false,
					"inputs": [
						{
							"indexed": true,
							"internalType": "address",
							"name": "owner",
							"type": "address"
						},
						{
							"indexed": true,
							"internalType": "address",
							"name": "approved",
							"type": "address"
						},
						{
							"indexed": true,
							"internalType": "uint256",
							"name": "tokenId",
							"type": "uint256"
						}
					],
					"name": "Approval",
					"type": "event"
				},
				{
					"anonymous": false,
					"inputs": [
						{
							"indexed": true,
							"internalType": "address",
							"name": "owner",
							"type": "address"
						},
						{
							"indexed": true,
							"internalType": "address",
							"name": "operator",
							"type": "address"
						},
						{
							"indexed": false,
							"internalType": "bool",
							"name": "approved",
							"type": "bool"
						}
					],
					"name": "ApprovalForAll",
					"type": "event"
				},
				{
					"anonymous": false,
					"inputs": [
						{
							"indexed": false,
							"internalType": "uint256",
							"name": "index",
							"type": "uint256"
						},
						{
							"indexed": true,
							"internalType": "address",
							"name": "mintedBy",
							"type": "address"
						}
					],
					"name": "Mint",
					"type": "event"
				},
				{
					"anonymous": false,
					"inputs": [
						{
							"indexed": true,
							"internalType": "address",
							"name": "from",
							"type": "address"
						},
						{
							"indexed": true,
							"internalType": "address",
							"name": "to",
							"type": "address"
						},
						{
							"indexed": true,
							"internalType": "uint256",
							"name": "tokenId",
							"type": "uint256"
						}
					],
					"name": "Transfer",
					"type": "event"
				},
				{
					"inputs": [
						{
							"internalType": "address",
							"name": "to",
							"type": "address"
						},
						{
							"internalType": "uint256",
							"name": "tokenId",
							"type": "uint256"
						}
					],
					"name": "approve",
					"outputs": [],
					"stateMutability": "nonpayable",
					"type": "function"
				},
				{
					"inputs": [
						{
							"internalType": "address",
							"name": "owner",
							"type": "address"
						}
					],
					"name": "balanceOf",
					"outputs": [
						{
							"internalType": "uint256",
							"name": "",
							"type": "uint256"
						}
					],
					"stateMutability": "view",
					"type": "function"
				},
				{
					"inputs": [
						{
							"internalType": "uint256",
							"name": "tokenId",
							"type": "uint256"
						}
					],
					"name": "getApproved",
					"outputs": [
						{
							"internalType": "address",
							"name": "",
							"type": "address"
						}
					],
					"stateMutability": "view",
					"type": "function"
				},
				{
					"inputs": [
						{
							"internalType": "address",
							"name": "owner",
							"type": "address"
						},
						{
							"internalType": "address",
							"name": "operator",
							"type": "address"
						}
					],
					"name": "isApprovedForAll",
					"outputs": [
						{
							"internalType": "bool",
							"name": "",
							"type": "bool"
						}
					],
					"stateMutability": "view",
					"type": "function"
				},
				{
					"inputs": [
						{
							"internalType": "string",
							"name": "_nftName",
							"type": "string"
						},
						{
							"internalType": "string",
							"name": "_nftURI",
							"type": "string"
						}
					],
					"name": "mintNFT",
					"outputs": [
						{
							"internalType": "uint256",
							"name": "",
							"type": "uint256"
						}
					],
					"stateMutability": "nonpayable",
					"type": "function"
				},
				{
					"inputs": [],
					"name": "name",
					"outputs": [
						{
							"internalType": "string",
							"name": "",
							"type": "string"
						}
					],
					"stateMutability": "view",
					"type": "function"
				},
				{
					"inputs": [
						{
							"internalType": "uint256",
							"name": "tokenId",
							"type": "uint256"
						}
					],
					"name": "ownerOf",
					"outputs": [
						{
							"internalType": "address",
							"name": "",
							"type": "address"
						}
					],
					"stateMutability": "view",
					"type": "function"
				},
				{
					"inputs": [
						{
							"internalType": "address",
							"name": "from",
							"type": "address"
						},
						{
							"internalType": "address",
							"name": "to",
							"type": "address"
						},
						{
							"internalType": "uint256",
							"name": "tokenId",
							"type": "uint256"
						}
					],
					"name": "safeTransferFrom",
					"outputs": [],
					"stateMutability": "nonpayable",
					"type": "function"
				},
				{
					"inputs": [
						{
							"internalType": "address",
							"name": "from",
							"type": "address"
						},
						{
							"internalType": "address",
							"name": "to",
							"type": "address"
						},
						{
							"internalType": "uint256",
							"name": "tokenId",
							"type": "uint256"
						},
						{
							"internalType": "bytes",
							"name": "_data",
							"type": "bytes"
						}
					],
					"name": "safeTransferFrom",
					"outputs": [],
					"stateMutability": "nonpayable",
					"type": "function"
				},
				{
					"inputs": [
						{
							"internalType": "address",
							"name": "operator",
							"type": "address"
						},
						{
							"internalType": "bool",
							"name": "approved",
							"type": "bool"
						}
					],
					"name": "setApprovalForAll",
					"outputs": [],
					"stateMutability": "nonpayable",
					"type": "function"
				},
				{
					"inputs": [
						{
							"internalType": "bytes4",
							"name": "interfaceId",
							"type": "bytes4"
						}
					],
					"name": "supportsInterface",
					"outputs": [
						{
							"internalType": "bool",
							"name": "",
							"type": "bool"
						}
					],
					"stateMutability": "view",
					"type": "function"
				},
				{
					"inputs": [],
					"name": "symbol",
					"outputs": [
						{
							"internalType": "string",
							"name": "",
							"type": "string"
						}
					],
					"stateMutability": "view",
					"type": "function"
				},
				{
					"inputs": [
						{
							"internalType": "uint256",
							"name": "tokenId",
							"type": "uint256"
						}
					],
					"name": "tokenURI",
					"outputs": [
						{
							"internalType": "string",
							"name": "",
							"type": "string"
						}
					],
					"stateMutability": "view",
					"type": "function"
				},
				{
					"inputs": [
						{
							"internalType": "address",
							"name": "from",
							"type": "address"
						},
						{
							"internalType": "address",
							"name": "to",
							"type": "address"
						},
						{
							"internalType": "uint256",
							"name": "tokenId",
							"type": "uint256"
						}
					],
					"name": "transferFrom",
					"outputs": [],
					"stateMutability": "nonpayable",
					"type": "function"
				},
				{
					"inputs": [
						{
							"internalType": "address",
							"name": "from",
							"type": "address"
						},
						{
							"internalType": "address",
							"name": "to",
							"type": "address"
						},
						{
							"internalType": "uint256",
							"name": "tokenId",
							"type": "uint256"
						}
					],
					"name": "transferNFTFrom",
					"outputs": [
						{
							"internalType": "bool",
							"name": "",
							"type": "bool"
						}
					],
					"stateMutability": "nonpayable",
					"type": "function"
				}
			],
			"devdoc": {
				"kind": "dev",
				"methods": {
					"approve(address,uint256)": {
						"details": "See {IERC721-approve}."
					},
					"balanceOf(address)": {
						"details": "See {IERC721-balanceOf}."
					},
					"getApproved(uint256)": {
						"details": "See {IERC721-getApproved}."
					},
					"isApprovedForAll(address,address)": {
						"details": "See {IERC721-isApprovedForAll}."
					},
					"name()": {
						"details": "See {IERC721Metadata-name}."
					},
					"ownerOf(uint256)": {
						"details": "See {IERC721-ownerOf}."
					},
					"safeTransferFrom(address,address,uint256)": {
						"details": "See {IERC721-safeTransferFrom}."
					},
					"safeTransferFrom(address,address,uint256,bytes)": {
						"details": "See {IERC721-safeTransferFrom}."
					},
					"setApprovalForAll(address,bool)": {
						"details": "See {IERC721-setApprovalForAll}."
					},
					"supportsInterface(bytes4)": {
						"details": "See {IERC165-supportsInterface}."
					},
					"symbol()": {
						"details": "See {IERC721Metadata-symbol}."
					},
					"tokenURI(uint256)": {
						"details": "See {IERC721Metadata-tokenURI}."
					},
					"transferFrom(address,address,uint256)": {
						"details": "See {IERC721-transferFrom}."
					}
				},
				"version": 1
			},
			"evm": {
				"assembly": "    /* \"contracts/test/NFTCollection.sol\":84:891  contract NFTCollection is ERC721 {... */\n  mstore(0x40, 0x80)\n    /* \"contracts/test/NFTCollection.sol\":274:323  constructor() ERC721(\"NFT Collection\", \"NFTC\") {} */\n  callvalue\n  dup1\n  iszero\n  tag_1\n  jumpi\n  0x00\n  dup1\n  revert\ntag_1:\n  pop\n    /* \"@openzeppelin/contracts/token/ERC721/ERC721.sol\":1390:1503  constructor(string memory name_, string memory symbol_) {... */\n  mload(0x40)\n  dup1\n  0x40\n  add\n  0x40\n  mstore\n  dup1\n  0x0e\n  dup2\n  mstore\n  0x20\n  add\n  0x4e465420436f6c6c656374696f6e000000000000000000000000000000000000\n  dup2\n  mstore\n  pop\n  mload(0x40)\n  dup1\n  0x40\n  add\n  0x40\n  mstore\n  dup1\n  0x04\n  dup2\n  mstore\n  0x20\n  add\n  0x4e46544300000000000000000000000000000000000000000000000000000000\n  dup2\n  mstore\n  pop\n    /* \"@openzeppelin/contracts/token/ERC721/ERC721.sol\":1464:1469  name_ */\n  dup2\n    /* \"@openzeppelin/contracts/token/ERC721/ERC721.sol\":1456:1461  _name */\n  0x00\n    /* \"@openzeppelin/contracts/token/ERC721/ERC721.sol\":1456:1469  _name = name_ */\n  swap1\n  dup1\n  mload\n  swap1\n  0x20\n  add\n  swap1\n  tag_5\n  swap3\n  swap2\n  swap1\n  tag_6\n  jump\t// in\ntag_5:\n  pop\n    /* \"@openzeppelin/contracts/token/ERC721/ERC721.sol\":1489:1496  symbol_ */\n  dup1\n    /* \"@openzeppelin/contracts/token/ERC721/ERC721.sol\":1479:1486  _symbol */\n  0x01\n    /* \"@openzeppelin/contracts/token/ERC721/ERC721.sol\":1479:1496  _symbol = symbol_ */\n  swap1\n  dup1\n  mload\n  swap1\n  0x20\n  add\n  swap1\n  tag_7\n  swap3\n  swap2\n  swap1\n  tag_6\n  jump\t// in\ntag_7:\n  pop\n    /* \"@openzeppelin/contracts/token/ERC721/ERC721.sol\":1390:1503  constructor(string memory name_, string memory symbol_) {... */\n  pop\n  pop\n    /* \"contracts/test/NFTCollection.sol\":84:891  contract NFTCollection is ERC721 {... */\n  jump(tag_9)\ntag_6:\n  dup3\n  dup1\n  sload\n  tag_10\n  swap1\n  tag_11\n  jump\t// in\ntag_10:\n  swap1\n  0x00\n  mstore\n  keccak256(0x00, 0x20)\n  swap1\n  0x1f\n  add\n  0x20\n  swap1\n  div\n  dup2\n  add\n  swap3\n  dup3\n  tag_13\n  jumpi\n  0x00\n  dup6\n  sstore\n  jump(tag_12)\ntag_13:\n  dup3\n  0x1f\n  lt\n  tag_14\n  jumpi\n  dup1\n  mload\n  not(0xff)\n  and\n  dup4\n  dup1\n  add\n  or\n  dup6\n  sstore\n  jump(tag_12)\ntag_14:\n  dup3\n  dup1\n  add\n  0x01\n  add\n  dup6\n  sstore\n  dup3\n  iszero\n  tag_12\n  jumpi\n  swap2\n  dup3\n  add\ntag_15:\n  dup3\n  dup2\n  gt\n  iszero\n  tag_16\n  jumpi\n  dup3\n  mload\n  dup3\n  sstore\n  swap2\n  0x20\n  add\n  swap2\n  swap1\n  0x01\n  add\n  swap1\n  jump(tag_15)\ntag_16:\ntag_12:\n  pop\n  swap1\n  pop\n  tag_17\n  swap2\n  swap1\n  tag_18\n  jump\t// in\ntag_17:\n  pop\n  swap1\n  jump\t// out\ntag_18:\ntag_19:\n  dup1\n  dup3\n  gt\n  iszero\n  tag_20\n  jumpi\n  0x00\n  dup2\n  0x00\n  swap1\n  sstore\n  pop\n  0x01\n  add\n  jump(tag_19)\ntag_20:\n  pop\n  swap1\n  jump\t// out\n    /* \"#utility.yul\":7:327   */\ntag_11:\n  0x00\n    /* \"#utility.yul\":88:89   */\n  0x02\n    /* \"#utility.yul\":82:86   */\n  dup3\n    /* \"#utility.yul\":78:90   */\n  div\n    /* \"#utility.yul\":68:90   */\n  swap1\n  pop\n    /* \"#utility.yul\":135:136   */\n  0x01\n    /* \"#utility.yul\":129:133   */\n  dup3\n    /* \"#utility.yul\":125:137   */\n  and\n    /* \"#utility.yul\":156:174   */\n  dup1\n    /* \"#utility.yul\":146:148   */\n  tag_23\n  jumpi\n    /* \"#utility.yul\":212:216   */\n  0x7f\n    /* \"#utility.yul\":204:210   */\n  dup3\n    /* \"#utility.yul\":200:217   */\n  and\n    /* \"#utility.yul\":190:217   */\n  swap2\n  pop\n    /* \"#utility.yul\":146:148   */\ntag_23:\n    /* \"#utility.yul\":274:276   */\n  0x20\n    /* \"#utility.yul\":266:272   */\n  dup3\n    /* \"#utility.yul\":263:277   */\n  lt\n    /* \"#utility.yul\":243:261   */\n  dup2\n    /* \"#utility.yul\":240:278   */\n  eq\n    /* \"#utility.yul\":237:239   */\n  iszero\n  tag_24\n  jumpi\n    /* \"#utility.yul\":293:311   */\n  tag_25\n  tag_26\n  jump\t// in\ntag_25:\n    /* \"#utility.yul\":237:239   */\ntag_24:\n    /* \"#utility.yul\":58:327   */\n  pop\n  swap2\n  swap1\n  pop\n  jump\t// out\n    /* \"#utility.yul\":333:513   */\ntag_26:\n    /* \"#utility.yul\":381:458   */\n  0x4e487b7100000000000000000000000000000000000000000000000000000000\n    /* \"#utility.yul\":378:379   */\n  0x00\n    /* \"#utility.yul\":371:459   */\n  mstore\n    /* \"#utility.yul\":478:482   */\n  0x22\n    /* \"#utility.yul\":475:476   */\n  0x04\n    /* \"#utility.yul\":468:483   */\n  mstore\n    /* \"#utility.yul\":502:506   */\n  0x24\n    /* \"#utility.yul\":499:500   */\n  0x00\n    /* \"#utility.yul\":492:507   */\n  revert\n    /* \"contracts/test/NFTCollection.sol\":84:891  contract NFTCollection is ERC721 {... */\ntag_9:\n  dataSize(sub_0)\n  dup1\n  dataOffset(sub_0)\n  0x00\n  codecopy\n  0x00\n  return\nstop\n\nsub_0: assembly {\n        /* \"contracts/test/NFTCollection.sol\":84:891  contract NFTCollection is ERC721 {... */\n      mstore(0x40, 0x80)\n      callvalue\n      dup1\n      iszero\n      tag_1\n      jumpi\n      0x00\n      dup1\n      revert\n    tag_1:\n      pop\n      jumpi(tag_2, lt(calldatasize, 0x04))\n      shr(0xe0, calldataload(0x00))\n      dup1\n      0x70a08231\n      gt\n      tag_18\n      jumpi\n      dup1\n      0xc87b56dd\n      gt\n      tag_19\n      jumpi\n      dup1\n      0xc87b56dd\n      eq\n      tag_14\n      jumpi\n      dup1\n      0xcde08c40\n      eq\n      tag_15\n      jumpi\n      dup1\n      0xe9605544\n      eq\n      tag_16\n      jumpi\n      dup1\n      0xe985e9c5\n      eq\n      tag_17\n      jumpi\n      jump(tag_2)\n    tag_19:\n      dup1\n      0x70a08231\n      eq\n      tag_10\n      jumpi\n      dup1\n      0x95d89b41\n      eq\n      tag_11\n      jumpi\n      dup1\n      0xa22cb465\n      eq\n      tag_12\n      jumpi\n      dup1\n      0xb88d4fde\n      eq\n      tag_13\n      jumpi\n      jump(tag_2)\n    tag_18:\n      dup1\n      0x095ea7b3\n      gt\n      tag_20\n      jumpi\n      dup1\n      0x095ea7b3\n      eq\n      tag_6\n      jumpi\n      dup1\n      0x23b872dd\n      eq\n      tag_7\n      jumpi\n      dup1\n      0x42842e0e\n      eq\n      tag_8\n      jumpi\n      dup1\n      0x6352211e\n      eq\n      tag_9\n      jumpi\n      jump(tag_2)\n    tag_20:\n      dup1\n      0x01ffc9a7\n      eq\n      tag_3\n      jumpi\n      dup1\n      0x06fdde03\n      eq\n      tag_4\n      jumpi\n      dup1\n      0x081812fc\n      eq\n      tag_5\n      jumpi\n    tag_2:\n      0x00\n      dup1\n      revert\n        /* \"@openzeppelin/contracts/token/ERC721/ERC721.sol\":1570:1870  function supportsInterface(bytes4 interfaceId) public view virtual override(ERC165, IERC165) returns (bool) {... */\n    tag_3:\n      tag_21\n      0x04\n      dup1\n      calldatasize\n      sub\n      dup2\n      add\n      swap1\n      tag_22\n      swap2\n      swap1\n      tag_23\n      jump\t// in\n    tag_22:\n      tag_24\n      jump\t// in\n    tag_21:\n      mload(0x40)\n      tag_25\n      swap2\n      swap1\n      tag_26\n      jump\t// in\n    tag_25:\n      mload(0x40)\n      dup1\n      swap2\n      sub\n      swap1\n      return\n        /* \"@openzeppelin/contracts/token/ERC721/ERC721.sol\":2488:2586  function name() public view virtual override returns (string memory) {... */\n    tag_4:\n      tag_27\n      tag_28\n      jump\t// in\n    tag_27:\n      mload(0x40)\n      tag_29\n      swap2\n      swap1\n      tag_30\n      jump\t// in\n    tag_29:\n      mload(0x40)\n      dup1\n      swap2\n      sub\n      swap1\n      return\n        /* \"@openzeppelin/contracts/token/ERC721/ERC721.sol\":3999:4216  function getApproved(uint256 tokenId) public view virtual override returns (address) {... */\n    tag_5:\n      tag_31\n      0x04\n      dup1\n      calldatasize\n      sub\n      dup2\n      add\n      swap1\n      tag_32\n      swap2\n      swap1\n      tag_33\n      jump\t// in\n    tag_32:\n      tag_34\n      jump\t// in\n    tag_31:\n      mload(0x40)\n      tag_35\n      swap2\n      swap1\n      tag_36\n      jump\t// in\n    tag_35:\n      mload(0x40)\n      dup1\n      swap2\n      sub\n      swap1\n      return\n        /* \"@openzeppelin/contracts/token/ERC721/ERC721.sol\":3537:3938  function approve(address to, uint256 tokenId) public virtual override {... */\n    tag_6:\n      tag_37\n      0x04\n      dup1\n      calldatasize\n      sub\n      dup2\n      add\n      swap1\n      tag_38\n      swap2\n      swap1\n      tag_39\n      jump\t// in\n    tag_38:\n      tag_40\n      jump\t// in\n    tag_37:\n      stop\n        /* \"@openzeppelin/contracts/token/ERC721/ERC721.sol\":4726:5056  function transferFrom(... */\n    tag_7:\n      tag_41\n      0x04\n      dup1\n      calldatasize\n      sub\n      dup2\n      add\n      swap1\n      tag_42\n      swap2\n      swap1\n      tag_43\n      jump\t// in\n    tag_42:\n      tag_44\n      jump\t// in\n    tag_41:\n      stop\n        /* \"@openzeppelin/contracts/token/ERC721/ERC721.sol\":5122:5301  function safeTransferFrom(... */\n    tag_8:\n      tag_45\n      0x04\n      dup1\n      calldatasize\n      sub\n      dup2\n      add\n      swap1\n      tag_46\n      swap2\n      swap1\n      tag_43\n      jump\t// in\n    tag_46:\n      tag_47\n      jump\t// in\n    tag_45:\n      stop\n        /* \"@openzeppelin/contracts/token/ERC721/ERC721.sol\":2191:2426  function ownerOf(uint256 tokenId) public view virtual override returns (address) {... */\n    tag_9:\n      tag_48\n      0x04\n      dup1\n      calldatasize\n      sub\n      dup2\n      add\n      swap1\n      tag_49\n      swap2\n      swap1\n      tag_33\n      jump\t// in\n    tag_49:\n      tag_50\n      jump\t// in\n    tag_48:\n      mload(0x40)\n      tag_51\n      swap2\n      swap1\n      tag_36\n      jump\t// in\n    tag_51:\n      mload(0x40)\n      dup1\n      swap2\n      sub\n      swap1\n      return\n        /* \"@openzeppelin/contracts/token/ERC721/ERC721.sol\":1929:2134  function balanceOf(address owner) public view virtual override returns (uint256) {... */\n    tag_10:\n      tag_52\n      0x04\n      dup1\n      calldatasize\n      sub\n      dup2\n      add\n      swap1\n      tag_53\n      swap2\n      swap1\n      tag_54\n      jump\t// in\n    tag_53:\n      tag_55\n      jump\t// in\n    tag_52:\n      mload(0x40)\n      tag_56\n      swap2\n      swap1\n      tag_57\n      jump\t// in\n    tag_56:\n      mload(0x40)\n      dup1\n      swap2\n      sub\n      swap1\n      return\n        /* \"@openzeppelin/contracts/token/ERC721/ERC721.sol\":2650:2752  function symbol() public view virtual override returns (string memory) {... */\n    tag_11:\n      tag_58\n      tag_59\n      jump\t// in\n    tag_58:\n      mload(0x40)\n      tag_60\n      swap2\n      swap1\n      tag_30\n      jump\t// in\n    tag_60:\n      mload(0x40)\n      dup1\n      swap2\n      sub\n      swap1\n      return\n        /* \"@openzeppelin/contracts/token/ERC721/ERC721.sol\":4283:4436  function setApprovalForAll(address operator, bool approved) public virtual override {... */\n    tag_12:\n      tag_61\n      0x04\n      dup1\n      calldatasize\n      sub\n      dup2\n      add\n      swap1\n      tag_62\n      swap2\n      swap1\n      tag_63\n      jump\t// in\n    tag_62:\n      tag_64\n      jump\t// in\n    tag_61:\n      stop\n        /* \"@openzeppelin/contracts/token/ERC721/ERC721.sol\":5367:5687  function safeTransferFrom(... */\n    tag_13:\n      tag_65\n      0x04\n      dup1\n      calldatasize\n      sub\n      dup2\n      add\n      swap1\n      tag_66\n      swap2\n      swap1\n      tag_67\n      jump\t// in\n    tag_66:\n      tag_68\n      jump\t// in\n    tag_65:\n      stop\n        /* \"@openzeppelin/contracts/token/ERC721/ERC721.sol\":2818:3147  function tokenURI(uint256 tokenId) public view virtual override returns (string memory) {... */\n    tag_14:\n      tag_69\n      0x04\n      dup1\n      calldatasize\n      sub\n      dup2\n      add\n      swap1\n      tag_70\n      swap2\n      swap1\n      tag_33\n      jump\t// in\n    tag_70:\n      tag_71\n      jump\t// in\n    tag_69:\n      mload(0x40)\n      tag_72\n      swap2\n      swap1\n      tag_30\n      jump\t// in\n    tag_72:\n      mload(0x40)\n      dup1\n      swap2\n      sub\n      swap1\n      return\n        /* \"contracts/test/NFTCollection.sol\":688:889  function transferNFTFrom(... */\n    tag_15:\n      tag_73\n      0x04\n      dup1\n      calldatasize\n      sub\n      dup2\n      add\n      swap1\n      tag_74\n      swap2\n      swap1\n      tag_43\n      jump\t// in\n    tag_74:\n      tag_75\n      jump\t// in\n    tag_73:\n      mload(0x40)\n      tag_76\n      swap2\n      swap1\n      tag_26\n      jump\t// in\n    tag_76:\n      mload(0x40)\n      dup1\n      swap2\n      sub\n      swap1\n      return\n        /* \"contracts/test/NFTCollection.sol\":360:682  function mintNFT(string memory _nftName, string memory _nftURI)... */\n    tag_16:\n      tag_77\n      0x04\n      dup1\n      calldatasize\n      sub\n      dup2\n      add\n      swap1\n      tag_78\n      swap2\n      swap1\n      tag_79\n      jump\t// in\n    tag_78:\n      tag_80\n      jump\t// in\n    tag_77:\n      mload(0x40)\n      tag_81\n      swap2\n      swap1\n      tag_57\n      jump\t// in\n    tag_81:\n      mload(0x40)\n      dup1\n      swap2\n      sub\n      swap1\n      return\n        /* \"@openzeppelin/contracts/token/ERC721/ERC721.sol\":4502:4664  function isApprovedForAll(address owner, address operator) public view virtual override returns (bool) {... */\n    tag_17:\n      tag_82\n      0x04\n      dup1\n      calldatasize\n      sub\n      dup2\n      add\n      swap1\n      tag_83\n      swap2\n      swap1\n      tag_84\n      jump\t// in\n    tag_83:\n      tag_85\n      jump\t// in\n    tag_82:\n      mload(0x40)\n      tag_86\n      swap2\n      swap1\n      tag_26\n      jump\t// in\n    tag_86:\n      mload(0x40)\n      dup1\n      swap2\n      sub\n      swap1\n      return\n        /* \"@openzeppelin/contracts/token/ERC721/ERC721.sol\":1570:1870  function supportsInterface(bytes4 interfaceId) public view virtual override(ERC165, IERC165) returns (bool) {... */\n    tag_24:\n        /* \"@openzeppelin/contracts/token/ERC721/ERC721.sol\":1672:1676  bool */\n      0x00\n        /* \"@openzeppelin/contracts/token/ERC721/ERC721.sol\":1722:1747  type(IERC721).interfaceId */\n      0x80ac58cd00000000000000000000000000000000000000000000000000000000\n        /* \"@openzeppelin/contracts/token/ERC721/ERC721.sol\":1707:1747  interfaceId == type(IERC721).interfaceId */\n      not(0xffffffffffffffffffffffffffffffffffffffffffffffffffffffff)\n      and\n        /* \"@openzeppelin/contracts/token/ERC721/ERC721.sol\":1707:1718  interfaceId */\n      dup3\n        /* \"@openzeppelin/contracts/token/ERC721/ERC721.sol\":1707:1747  interfaceId == type(IERC721).interfaceId */\n      not(0xffffffffffffffffffffffffffffffffffffffffffffffffffffffff)\n      and\n      eq\n        /* \"@openzeppelin/contracts/token/ERC721/ERC721.sol\":1707:1811  interfaceId == type(IERC721).interfaceId ||... */\n      dup1\n      tag_88\n      jumpi\n      pop\n        /* \"@openzeppelin/contracts/token/ERC721/ERC721.sol\":1778:1811  type(IERC721Metadata).interfaceId */\n      0x5b5e139f00000000000000000000000000000000000000000000000000000000\n        /* \"@openzeppelin/contracts/token/ERC721/ERC721.sol\":1763:1811  interfaceId == type(IERC721Metadata).interfaceId */\n      not(0xffffffffffffffffffffffffffffffffffffffffffffffffffffffff)\n      and\n        /* \"@openzeppelin/contracts/token/ERC721/ERC721.sol\":1763:1774  interfaceId */\n      dup3\n        /* \"@openzeppelin/contracts/token/ERC721/ERC721.sol\":1763:1811  interfaceId == type(IERC721Metadata).interfaceId */\n      not(0xffffffffffffffffffffffffffffffffffffffffffffffffffffffff)\n      and\n      eq\n        /* \"@openzeppelin/contracts/token/ERC721/ERC721.sol\":1707:1811  interfaceId == type(IERC721).interfaceId ||... */\n    tag_88:\n        /* \"@openzeppelin/contracts/token/ERC721/ERC721.sol\":1707:1863  interfaceId == type(IERC721).interfaceId ||... */\n      dup1\n      tag_89\n      jumpi\n      pop\n        /* \"@openzeppelin/contracts/token/ERC721/ERC721.sol\":1827:1863  super.supportsInterface(interfaceId) */\n      tag_90\n        /* \"@openzeppelin/contracts/token/ERC721/ERC721.sol\":1851:1862  interfaceId */\n      dup3\n        /* \"@openzeppelin/contracts/token/ERC721/ERC721.sol\":1827:1850  super.supportsInterface */\n      tag_91\n        /* \"@openzeppelin/contracts/token/ERC721/ERC721.sol\":1827:1863  super.supportsInterface(interfaceId) */\n      jump\t// in\n    tag_90:\n        /* \"@openzeppelin/contracts/token/ERC721/ERC721.sol\":1707:1863  interfaceId == type(IERC721).interfaceId ||... */\n    tag_89:\n        /* \"@openzeppelin/contracts/token/ERC721/ERC721.sol\":1688:1863  return... */\n      swap1\n      pop\n        /* \"@openzeppelin/contracts/token/ERC721/ERC721.sol\":1570:1870  function supportsInterface(bytes4 interfaceId) public view virtual override(ERC165, IERC165) returns (bool) {... */\n      swap2\n      swap1\n      pop\n      jump\t// out\n        /* \"@openzeppelin/contracts/token/ERC721/ERC721.sol\":2488:2586  function name() public view virtual override returns (string memory) {... */\n    tag_28:\n        /* \"@openzeppelin/contracts/token/ERC721/ERC721.sol\":2542:2555  string memory */\n      0x60\n        /* \"@openzeppelin/contracts/token/ERC721/ERC721.sol\":2574:2579  _name */\n      0x00\n        /* \"@openzeppelin/contracts/token/ERC721/ERC721.sol\":2567:2579  return _name */\n      dup1\n      sload\n      tag_93\n      swap1\n      tag_94\n      jump\t// in\n    tag_93:\n      dup1\n      0x1f\n      add\n      0x20\n      dup1\n      swap2\n      div\n      mul\n      0x20\n      add\n      mload(0x40)\n      swap1\n      dup2\n      add\n      0x40\n      mstore\n      dup1\n      swap3\n      swap2\n      swap1\n      dup2\n      dup2\n      mstore\n      0x20\n      add\n      dup3\n      dup1\n      sload\n      tag_95\n      swap1\n      tag_94\n      jump\t// in\n    tag_95:\n      dup1\n      iszero\n      tag_96\n      jumpi\n      dup1\n      0x1f\n      lt\n      tag_97\n      jumpi\n      0x0100\n      dup1\n      dup4\n      sload\n      div\n      mul\n      dup4\n      mstore\n      swap2\n      0x20\n      add\n      swap2\n      jump(tag_96)\n    tag_97:\n      dup3\n      add\n      swap2\n      swap1\n      0x00\n      mstore\n      keccak256(0x00, 0x20)\n      swap1\n    tag_98:\n      dup2\n      sload\n      dup2\n      mstore\n      swap1\n      0x01\n      add\n      swap1\n      0x20\n      add\n      dup1\n      dup4\n      gt\n      tag_98\n      jumpi\n      dup3\n      swap1\n      sub\n      0x1f\n      and\n      dup3\n      add\n      swap2\n    tag_96:\n      pop\n      pop\n      pop\n      pop\n      pop\n      swap1\n      pop\n        /* \"@openzeppelin/contracts/token/ERC721/ERC721.sol\":2488:2586  function name() public view virtual override returns (string memory) {... */\n      swap1\n      jump\t// out\n        /* \"@openzeppelin/contracts/token/ERC721/ERC721.sol\":3999:4216  function getApproved(uint256 tokenId) public view virtual override returns (address) {... */\n    tag_34:\n        /* \"@openzeppelin/contracts/token/ERC721/ERC721.sol\":4075:4082  address */\n      0x00\n        /* \"@openzeppelin/contracts/token/ERC721/ERC721.sol\":4102:4118  _exists(tokenId) */\n      tag_100\n        /* \"@openzeppelin/contracts/token/ERC721/ERC721.sol\":4110:4117  tokenId */\n      dup3\n        /* \"@openzeppelin/contracts/token/ERC721/ERC721.sol\":4102:4109  _exists */\n      tag_101\n        /* \"@openzeppelin/contracts/token/ERC721/ERC721.sol\":4102:4118  _exists(tokenId) */\n      jump\t// in\n    tag_100:\n        /* \"@openzeppelin/contracts/token/ERC721/ERC721.sol\":4094:4167  require(_exists(tokenId), \"ERC721: approved query for nonexistent token\") */\n      tag_102\n      jumpi\n      mload(0x40)\n      0x08c379a000000000000000000000000000000000000000000000000000000000\n      dup2\n      mstore\n      0x04\n      add\n      tag_103\n      swap1\n      tag_104\n      jump\t// in\n    tag_103:\n      mload(0x40)\n      dup1\n      swap2\n      sub\n      swap1\n      revert\n    tag_102:\n        /* \"@openzeppelin/contracts/token/ERC721/ERC721.sol\":4185:4200  _tokenApprovals */\n      0x04\n        /* \"@openzeppelin/contracts/token/ERC721/ERC721.sol\":4185:4209  _tokenApprovals[tokenId] */\n      0x00\n        /* \"@openzeppelin/contracts/token/ERC721/ERC721.sol\":4201:4208  tokenId */\n      dup4\n        /* \"@openzeppelin/contracts/token/ERC721/ERC721.sol\":4185:4209  _tokenApprovals[tokenId] */\n      dup2\n      mstore\n      0x20\n      add\n      swap1\n      dup2\n      mstore\n      0x20\n      add\n      0x00\n      keccak256\n      0x00\n      swap1\n      sload\n      swap1\n      0x0100\n      exp\n      swap1\n      div\n      0xffffffffffffffffffffffffffffffffffffffff\n      and\n        /* \"@openzeppelin/contracts/token/ERC721/ERC721.sol\":4178:4209  return _tokenApprovals[tokenId] */\n      swap1\n      pop\n        /* \"@openzeppelin/contracts/token/ERC721/ERC721.sol\":3999:4216  function getApproved(uint256 tokenId) public view virtual override returns (address) {... */\n      swap2\n      swap1\n      pop\n      jump\t// out\n        /* \"@openzeppelin/contracts/token/ERC721/ERC721.sol\":3537:3938  function approve(address to, uint256 tokenId) public virtual override {... */\n    tag_40:\n        /* \"@openzeppelin/contracts/token/ERC721/ERC721.sol\":3617:3630  address owner */\n      0x00\n        /* \"@openzeppelin/contracts/token/ERC721/ERC721.sol\":3633:3656  ERC721.ownerOf(tokenId) */\n      tag_106\n        /* \"@openzeppelin/contracts/token/ERC721/ERC721.sol\":3648:3655  tokenId */\n      dup3\n        /* \"@openzeppelin/contracts/token/ERC721/ERC721.sol\":3633:3647  ERC721.ownerOf */\n      tag_50\n        /* \"@openzeppelin/contracts/token/ERC721/ERC721.sol\":3633:3656  ERC721.ownerOf(tokenId) */\n      jump\t// in\n    tag_106:\n        /* \"@openzeppelin/contracts/token/ERC721/ERC721.sol\":3617:3656  address owner = ERC721.ownerOf(tokenId) */\n      swap1\n      pop\n        /* \"@openzeppelin/contracts/token/ERC721/ERC721.sol\":3680:3685  owner */\n      dup1\n        /* \"@openzeppelin/contracts/token/ERC721/ERC721.sol\":3674:3685  to != owner */\n      0xffffffffffffffffffffffffffffffffffffffff\n      and\n        /* \"@openzeppelin/contracts/token/ERC721/ERC721.sol\":3674:3676  to */\n      dup4\n        /* \"@openzeppelin/contracts/token/ERC721/ERC721.sol\":3674:3685  to != owner */\n      0xffffffffffffffffffffffffffffffffffffffff\n      and\n      eq\n      iszero\n        /* \"@openzeppelin/contracts/token/ERC721/ERC721.sol\":3666:3723  require(to != owner, \"ERC721: approval to current owner\") */\n      tag_107\n      jumpi\n      mload(0x40)\n      0x08c379a000000000000000000000000000000000000000000000000000000000\n      dup2\n      mstore\n      0x04\n      add\n      tag_108\n      swap1\n      tag_109\n      jump\t// in\n    tag_108:\n      mload(0x40)\n      dup1\n      swap2\n      sub\n      swap1\n      revert\n    tag_107:\n        /* \"@openzeppelin/contracts/token/ERC721/ERC721.sol\":3771:3776  owner */\n      dup1\n        /* \"@openzeppelin/contracts/token/ERC721/ERC721.sol\":3755:3776  _msgSender() == owner */\n      0xffffffffffffffffffffffffffffffffffffffff\n      and\n        /* \"@openzeppelin/contracts/token/ERC721/ERC721.sol\":3755:3767  _msgSender() */\n      tag_110\n        /* \"@openzeppelin/contracts/token/ERC721/ERC721.sol\":3755:3765  _msgSender */\n      tag_111\n        /* \"@openzeppelin/contracts/token/ERC721/ERC721.sol\":3755:3767  _msgSender() */\n      jump\t// in\n    tag_110:\n        /* \"@openzeppelin/contracts/token/ERC721/ERC721.sol\":3755:3776  _msgSender() == owner */\n      0xffffffffffffffffffffffffffffffffffffffff\n      and\n      eq\n        /* \"@openzeppelin/contracts/token/ERC721/ERC721.sol\":3755:3817  _msgSender() == owner || isApprovedForAll(owner, _msgSender()) */\n      dup1\n      tag_112\n      jumpi\n      pop\n        /* \"@openzeppelin/contracts/token/ERC721/ERC721.sol\":3780:3817  isApprovedForAll(owner, _msgSender()) */\n      tag_113\n        /* \"@openzeppelin/contracts/token/ERC721/ERC721.sol\":3797:3802  owner */\n      dup2\n        /* \"@openzeppelin/contracts/token/ERC721/ERC721.sol\":3804:3816  _msgSender() */\n      tag_114\n        /* \"@openzeppelin/contracts/token/ERC721/ERC721.sol\":3804:3814  _msgSender */\n      tag_111\n        /* \"@openzeppelin/contracts/token/ERC721/ERC721.sol\":3804:3816  _msgSender() */\n      jump\t// in\n    tag_114:\n        /* \"@openzeppelin/contracts/token/ERC721/ERC721.sol\":3780:3796  isApprovedForAll */\n      tag_85\n        /* \"@openzeppelin/contracts/token/ERC721/ERC721.sol\":3780:3817  isApprovedForAll(owner, _msgSender()) */\n      jump\t// in\n    tag_113:\n        /* \"@openzeppelin/contracts/token/ERC721/ERC721.sol\":3755:3817  _msgSender() == owner || isApprovedForAll(owner, _msgSender()) */\n    tag_112:\n        /* \"@openzeppelin/contracts/token/ERC721/ERC721.sol\":3734:3899  require(... */\n      tag_115\n      jumpi\n      mload(0x40)\n      0x08c379a000000000000000000000000000000000000000000000000000000000\n      dup2\n      mstore\n      0x04\n      add\n      tag_116\n      swap1\n      tag_117\n      jump\t// in\n    tag_116:\n      mload(0x40)\n      dup1\n      swap2\n      sub\n      swap1\n      revert\n    tag_115:\n        /* \"@openzeppelin/contracts/token/ERC721/ERC721.sol\":3910:3931  _approve(to, tokenId) */\n      tag_118\n        /* \"@openzeppelin/contracts/token/ERC721/ERC721.sol\":3919:3921  to */\n      dup4\n        /* \"@openzeppelin/contracts/token/ERC721/ERC721.sol\":3923:3930  tokenId */\n      dup4\n        /* \"@openzeppelin/contracts/token/ERC721/ERC721.sol\":3910:3918  _approve */\n      tag_119\n        /* \"@openzeppelin/contracts/token/ERC721/ERC721.sol\":3910:3931  _approve(to, tokenId) */\n      jump\t// in\n    tag_118:\n        /* \"@openzeppelin/contracts/token/ERC721/ERC721.sol\":3537:3938  function approve(address to, uint256 tokenId) public virtual override {... */\n      pop\n      pop\n      pop\n      jump\t// out\n        /* \"@openzeppelin/contracts/token/ERC721/ERC721.sol\":4726:5056  function transferFrom(... */\n    tag_44:\n        /* \"@openzeppelin/contracts/token/ERC721/ERC721.sol\":4915:4956  _isApprovedOrOwner(_msgSender(), tokenId) */\n      tag_121\n        /* \"@openzeppelin/contracts/token/ERC721/ERC721.sol\":4934:4946  _msgSender() */\n      tag_122\n        /* \"@openzeppelin/contracts/token/ERC721/ERC721.sol\":4934:4944  _msgSender */\n      tag_111\n        /* \"@openzeppelin/contracts/token/ERC721/ERC721.sol\":4934:4946  _msgSender() */\n      jump\t// in\n    tag_122:\n        /* \"@openzeppelin/contracts/token/ERC721/ERC721.sol\":4948:4955  tokenId */\n      dup3\n        /* \"@openzeppelin/contracts/token/ERC721/ERC721.sol\":4915:4933  _isApprovedOrOwner */\n      tag_123\n        /* \"@openzeppelin/contracts/token/ERC721/ERC721.sol\":4915:4956  _isApprovedOrOwner(_msgSender(), tokenId) */\n      jump\t// in\n    tag_121:\n        /* \"@openzeppelin/contracts/token/ERC721/ERC721.sol\":4907:5010  require(_isApprovedOrOwner(_msgSender(), tokenId), \"ERC721: transfer caller is not owner nor approved\") */\n      tag_124\n      jumpi\n      mload(0x40)\n      0x08c379a000000000000000000000000000000000000000000000000000000000\n      dup2\n      mstore\n      0x04\n      add\n      tag_125\n      swap1\n      tag_126\n      jump\t// in\n    tag_125:\n      mload(0x40)\n      dup1\n      swap2\n      sub\n      swap1\n      revert\n    tag_124:\n        /* \"@openzeppelin/contracts/token/ERC721/ERC721.sol\":5021:5049  _transfer(from, to, tokenId) */\n      tag_127\n        /* \"@openzeppelin/contracts/token/ERC721/ERC721.sol\":5031:5035  from */\n      dup4\n        /* \"@openzeppelin/contracts/token/ERC721/ERC721.sol\":5037:5039  to */\n      dup4\n        /* \"@openzeppelin/contracts/token/ERC721/ERC721.sol\":5041:5048  tokenId */\n      dup4\n        /* \"@openzeppelin/contracts/token/ERC721/ERC721.sol\":5021:5030  _transfer */\n      tag_128\n        /* \"@openzeppelin/contracts/token/ERC721/ERC721.sol\":5021:5049  _transfer(from, to, tokenId) */\n      jump\t// in\n    tag_127:\n        /* \"@openzeppelin/contracts/token/ERC721/ERC721.sol\":4726:5056  function transferFrom(... */\n      pop\n      pop\n      pop\n      jump\t// out\n        /* \"@openzeppelin/contracts/token/ERC721/ERC721.sol\":5122:5301  function safeTransferFrom(... */\n    tag_47:\n        /* \"@openzeppelin/contracts/token/ERC721/ERC721.sol\":5255:5294  safeTransferFrom(from, to, tokenId, \"\") */\n      tag_130\n        /* \"@openzeppelin/contracts/token/ERC721/ERC721.sol\":5272:5276  from */\n      dup4\n        /* \"@openzeppelin/contracts/token/ERC721/ERC721.sol\":5278:5280  to */\n      dup4\n        /* \"@openzeppelin/contracts/token/ERC721/ERC721.sol\":5282:5289  tokenId */\n      dup4\n        /* \"@openzeppelin/contracts/token/ERC721/ERC721.sol\":5255:5294  safeTransferFrom(from, to, tokenId, \"\") */\n      mload(0x40)\n      dup1\n      0x20\n      add\n      0x40\n      mstore\n      dup1\n      0x00\n      dup2\n      mstore\n      pop\n        /* \"@openzeppelin/contracts/token/ERC721/ERC721.sol\":5255:5271  safeTransferFrom */\n      tag_68\n        /* \"@openzeppelin/contracts/token/ERC721/ERC721.sol\":5255:5294  safeTransferFrom(from, to, tokenId, \"\") */\n      jump\t// in\n    tag_130:\n        /* \"@openzeppelin/contracts/token/ERC721/ERC721.sol\":5122:5301  function safeTransferFrom(... */\n      pop\n      pop\n      pop\n      jump\t// out\n        /* \"@openzeppelin/contracts/token/ERC721/ERC721.sol\":2191:2426  function ownerOf(uint256 tokenId) public view virtual override returns (address) {... */\n    tag_50:\n        /* \"@openzeppelin/contracts/token/ERC721/ERC721.sol\":2263:2270  address */\n      0x00\n        /* \"@openzeppelin/contracts/token/ERC721/ERC721.sol\":2282:2295  address owner */\n      dup1\n        /* \"@openzeppelin/contracts/token/ERC721/ERC721.sol\":2298:2305  _owners */\n      0x02\n        /* \"@openzeppelin/contracts/token/ERC721/ERC721.sol\":2298:2314  _owners[tokenId] */\n      0x00\n        /* \"@openzeppelin/contracts/token/ERC721/ERC721.sol\":2306:2313  tokenId */\n      dup5\n        /* \"@openzeppelin/contracts/token/ERC721/ERC721.sol\":2298:2314  _owners[tokenId] */\n      dup2\n      mstore\n      0x20\n      add\n      swap1\n      dup2\n      mstore\n      0x20\n      add\n      0x00\n      keccak256\n      0x00\n      swap1\n      sload\n      swap1\n      0x0100\n      exp\n      swap1\n      div\n      0xffffffffffffffffffffffffffffffffffffffff\n      and\n        /* \"@openzeppelin/contracts/token/ERC721/ERC721.sol\":2282:2314  address owner = _owners[tokenId] */\n      swap1\n      pop\n        /* \"@openzeppelin/contracts/token/ERC721/ERC721.sol\":2349:2350  0 */\n      0x00\n        /* \"@openzeppelin/contracts/token/ERC721/ERC721.sol\":2332:2351  owner != address(0) */\n      0xffffffffffffffffffffffffffffffffffffffff\n      and\n        /* \"@openzeppelin/contracts/token/ERC721/ERC721.sol\":2332:2337  owner */\n      dup2\n        /* \"@openzeppelin/contracts/token/ERC721/ERC721.sol\":2332:2351  owner != address(0) */\n      0xffffffffffffffffffffffffffffffffffffffff\n      and\n      eq\n      iszero\n        /* \"@openzeppelin/contracts/token/ERC721/ERC721.sol\":2324:2397  require(owner != address(0), \"ERC721: owner query for nonexistent token\") */\n      tag_132\n      jumpi\n      mload(0x40)\n      0x08c379a000000000000000000000000000000000000000000000000000000000\n      dup2\n      mstore\n      0x04\n      add\n      tag_133\n      swap1\n      tag_134\n      jump\t// in\n    tag_133:\n      mload(0x40)\n      dup1\n      swap2\n      sub\n      swap1\n      revert\n    tag_132:\n        /* \"@openzeppelin/contracts/token/ERC721/ERC721.sol\":2414:2419  owner */\n      dup1\n        /* \"@openzeppelin/contracts/token/ERC721/ERC721.sol\":2407:2419  return owner */\n      swap2\n      pop\n      pop\n        /* \"@openzeppelin/contracts/token/ERC721/ERC721.sol\":2191:2426  function ownerOf(uint256 tokenId) public view virtual override returns (address) {... */\n      swap2\n      swap1\n      pop\n      jump\t// out\n        /* \"@openzeppelin/contracts/token/ERC721/ERC721.sol\":1929:2134  function balanceOf(address owner) public view virtual override returns (uint256) {... */\n    tag_55:\n        /* \"@openzeppelin/contracts/token/ERC721/ERC721.sol\":2001:2008  uint256 */\n      0x00\n        /* \"@openzeppelin/contracts/token/ERC721/ERC721.sol\":2045:2046  0 */\n      dup1\n        /* \"@openzeppelin/contracts/token/ERC721/ERC721.sol\":2028:2047  owner != address(0) */\n      0xffffffffffffffffffffffffffffffffffffffff\n      and\n        /* \"@openzeppelin/contracts/token/ERC721/ERC721.sol\":2028:2033  owner */\n      dup3\n        /* \"@openzeppelin/contracts/token/ERC721/ERC721.sol\":2028:2047  owner != address(0) */\n      0xffffffffffffffffffffffffffffffffffffffff\n      and\n      eq\n      iszero\n        /* \"@openzeppelin/contracts/token/ERC721/ERC721.sol\":2020:2094  require(owner != address(0), \"ERC721: balance query for the zero address\") */\n      tag_136\n      jumpi\n      mload(0x40)\n      0x08c379a000000000000000000000000000000000000000000000000000000000\n      dup2\n      mstore\n      0x04\n      add\n      tag_137\n      swap1\n      tag_138\n      jump\t// in\n    tag_137:\n      mload(0x40)\n      dup1\n      swap2\n      sub\n      swap1\n      revert\n    tag_136:\n        /* \"@openzeppelin/contracts/token/ERC721/ERC721.sol\":2111:2120  _balances */\n      0x03\n        /* \"@openzeppelin/contracts/token/ERC721/ERC721.sol\":2111:2127  _balances[owner] */\n      0x00\n        /* \"@openzeppelin/contracts/token/ERC721/ERC721.sol\":2121:2126  owner */\n      dup4\n        /* \"@openzeppelin/contracts/token/ERC721/ERC721.sol\":2111:2127  _balances[owner] */\n      0xffffffffffffffffffffffffffffffffffffffff\n      and\n      0xffffffffffffffffffffffffffffffffffffffff\n      and\n      dup2\n      mstore\n      0x20\n      add\n      swap1\n      dup2\n      mstore\n      0x20\n      add\n      0x00\n      keccak256\n      sload\n        /* \"@openzeppelin/contracts/token/ERC721/ERC721.sol\":2104:2127  return _balances[owner] */\n      swap1\n      pop\n        /* \"@openzeppelin/contracts/token/ERC721/ERC721.sol\":1929:2134  function balanceOf(address owner) public view virtual override returns (uint256) {... */\n      swap2\n      swap1\n      pop\n      jump\t// out\n        /* \"@openzeppelin/contracts/token/ERC721/ERC721.sol\":2650:2752  function symbol() public view virtual override returns (string memory) {... */\n    tag_59:\n        /* \"@openzeppelin/contracts/token/ERC721/ERC721.sol\":2706:2719  string memory */\n      0x60\n        /* \"@openzeppelin/contracts/token/ERC721/ERC721.sol\":2738:2745  _symbol */\n      0x01\n        /* \"@openzeppelin/contracts/token/ERC721/ERC721.sol\":2731:2745  return _symbol */\n      dup1\n      sload\n      tag_140\n      swap1\n      tag_94\n      jump\t// in\n    tag_140:\n      dup1\n      0x1f\n      add\n      0x20\n      dup1\n      swap2\n      div\n      mul\n      0x20\n      add\n      mload(0x40)\n      swap1\n      dup2\n      add\n      0x40\n      mstore\n      dup1\n      swap3\n      swap2\n      swap1\n      dup2\n      dup2\n      mstore\n      0x20\n      add\n      dup3\n      dup1\n      sload\n      tag_141\n      swap1\n      tag_94\n      jump\t// in\n    tag_141:\n      dup1\n      iszero\n      tag_142\n      jumpi\n      dup1\n      0x1f\n      lt\n      tag_143\n      jumpi\n      0x0100\n      dup1\n      dup4\n      sload\n      div\n      mul\n      dup4\n      mstore\n      swap2\n      0x20\n      add\n      swap2\n      jump(tag_142)\n    tag_143:\n      dup3\n      add\n      swap2\n      swap1\n      0x00\n      mstore\n      keccak256(0x00, 0x20)\n      swap1\n    tag_144:\n      dup2\n      sload\n      dup2\n      mstore\n      swap1\n      0x01\n      add\n      swap1\n      0x20\n      add\n      dup1\n      dup4\n      gt\n      tag_144\n      jumpi\n      dup3\n      swap1\n      sub\n      0x1f\n      and\n      dup3\n      add\n      swap2\n    tag_142:\n      pop\n      pop\n      pop\n      pop\n      pop\n      swap1\n      pop\n        /* \"@openzeppelin/contracts/token/ERC721/ERC721.sol\":2650:2752  function symbol() public view virtual override returns (string memory) {... */\n      swap1\n      jump\t// out\n        /* \"@openzeppelin/contracts/token/ERC721/ERC721.sol\":4283:4436  function setApprovalForAll(address operator, bool approved) public virtual override {... */\n    tag_64:\n        /* \"@openzeppelin/contracts/token/ERC721/ERC721.sol\":4377:4429  _setApprovalForAll(_msgSender(), operator, approved) */\n      tag_146\n        /* \"@openzeppelin/contracts/token/ERC721/ERC721.sol\":4396:4408  _msgSender() */\n      tag_147\n        /* \"@openzeppelin/contracts/token/ERC721/ERC721.sol\":4396:4406  _msgSender */\n      tag_111\n        /* \"@openzeppelin/contracts/token/ERC721/ERC721.sol\":4396:4408  _msgSender() */\n      jump\t// in\n    tag_147:\n        /* \"@openzeppelin/contracts/token/ERC721/ERC721.sol\":4410:4418  operator */\n      dup4\n        /* \"@openzeppelin/contracts/token/ERC721/ERC721.sol\":4420:4428  approved */\n      dup4\n        /* \"@openzeppelin/contracts/token/ERC721/ERC721.sol\":4377:4395  _setApprovalForAll */\n      tag_148\n        /* \"@openzeppelin/contracts/token/ERC721/ERC721.sol\":4377:4429  _setApprovalForAll(_msgSender(), operator, approved) */\n      jump\t// in\n    tag_146:\n        /* \"@openzeppelin/contracts/token/ERC721/ERC721.sol\":4283:4436  function setApprovalForAll(address operator, bool approved) public virtual override {... */\n      pop\n      pop\n      jump\t// out\n        /* \"@openzeppelin/contracts/token/ERC721/ERC721.sol\":5367:5687  function safeTransferFrom(... */\n    tag_68:\n        /* \"@openzeppelin/contracts/token/ERC721/ERC721.sol\":5536:5577  _isApprovedOrOwner(_msgSender(), tokenId) */\n      tag_150\n        /* \"@openzeppelin/contracts/token/ERC721/ERC721.sol\":5555:5567  _msgSender() */\n      tag_151\n        /* \"@openzeppelin/contracts/token/ERC721/ERC721.sol\":5555:5565  _msgSender */\n      tag_111\n        /* \"@openzeppelin/contracts/token/ERC721/ERC721.sol\":5555:5567  _msgSender() */\n      jump\t// in\n    tag_151:\n        /* \"@openzeppelin/contracts/token/ERC721/ERC721.sol\":5569:5576  tokenId */\n      dup4\n        /* \"@openzeppelin/contracts/token/ERC721/ERC721.sol\":5536:5554  _isApprovedOrOwner */\n      tag_123\n        /* \"@openzeppelin/contracts/token/ERC721/ERC721.sol\":5536:5577  _isApprovedOrOwner(_msgSender(), tokenId) */\n      jump\t// in\n    tag_150:\n        /* \"@openzeppelin/contracts/token/ERC721/ERC721.sol\":5528:5631  require(_isApprovedOrOwner(_msgSender(), tokenId), \"ERC721: transfer caller is not owner nor approved\") */\n      tag_152\n      jumpi\n      mload(0x40)\n      0x08c379a000000000000000000000000000000000000000000000000000000000\n      dup2\n      mstore\n      0x04\n      add\n      tag_153\n      swap1\n      tag_126\n      jump\t// in\n    tag_153:\n      mload(0x40)\n      dup1\n      swap2\n      sub\n      swap1\n      revert\n    tag_152:\n        /* \"@openzeppelin/contracts/token/ERC721/ERC721.sol\":5641:5680  _safeTransfer(from, to, tokenId, _data) */\n      tag_154\n        /* \"@openzeppelin/contracts/token/ERC721/ERC721.sol\":5655:5659  from */\n      dup5\n        /* \"@openzeppelin/contracts/token/ERC721/ERC721.sol\":5661:5663  to */\n      dup5\n        /* \"@openzeppelin/contracts/token/ERC721/ERC721.sol\":5665:5672  tokenId */\n      dup5\n        /* \"@openzeppelin/contracts/token/ERC721/ERC721.sol\":5674:5679  _data */\n      dup5\n        /* \"@openzeppelin/contracts/token/ERC721/ERC721.sol\":5641:5654  _safeTransfer */\n      tag_155\n        /* \"@openzeppelin/contracts/token/ERC721/ERC721.sol\":5641:5680  _safeTransfer(from, to, tokenId, _data) */\n      jump\t// in\n    tag_154:\n        /* \"@openzeppelin/contracts/token/ERC721/ERC721.sol\":5367:5687  function safeTransferFrom(... */\n      pop\n      pop\n      pop\n      pop\n      jump\t// out\n        /* \"@openzeppelin/contracts/token/ERC721/ERC721.sol\":2818:3147  function tokenURI(uint256 tokenId) public view virtual override returns (string memory) {... */\n    tag_71:\n        /* \"@openzeppelin/contracts/token/ERC721/ERC721.sol\":2891:2904  string memory */\n      0x60\n        /* \"@openzeppelin/contracts/token/ERC721/ERC721.sol\":2924:2940  _exists(tokenId) */\n      tag_157\n        /* \"@openzeppelin/contracts/token/ERC721/ERC721.sol\":2932:2939  tokenId */\n      dup3\n        /* \"@openzeppelin/contracts/token/ERC721/ERC721.sol\":2924:2931  _exists */\n      tag_101\n        /* \"@openzeppelin/contracts/token/ERC721/ERC721.sol\":2924:2940  _exists(tokenId) */\n      jump\t// in\n    tag_157:\n        /* \"@openzeppelin/contracts/token/ERC721/ERC721.sol\":2916:2992  require(_exists(tokenId), \"ERC721Metadata: URI query for nonexistent token\") */\n      tag_158\n      jumpi\n      mload(0x40)\n      0x08c379a000000000000000000000000000000000000000000000000000000000\n      dup2\n      mstore\n      0x04\n      add\n      tag_159\n      swap1\n      tag_160\n      jump\t// in\n    tag_159:\n      mload(0x40)\n      dup1\n      swap2\n      sub\n      swap1\n      revert\n    tag_158:\n        /* \"@openzeppelin/contracts/token/ERC721/ERC721.sol\":3003:3024  string memory baseURI */\n      0x00\n        /* \"@openzeppelin/contracts/token/ERC721/ERC721.sol\":3027:3037  _baseURI() */\n      tag_161\n        /* \"@openzeppelin/contracts/token/ERC721/ERC721.sol\":3027:3035  _baseURI */\n      tag_162\n        /* \"@openzeppelin/contracts/token/ERC721/ERC721.sol\":3027:3037  _baseURI() */\n      jump\t// in\n    tag_161:\n        /* \"@openzeppelin/contracts/token/ERC721/ERC721.sol\":3003:3037  string memory baseURI = _baseURI() */\n      swap1\n      pop\n        /* \"@openzeppelin/contracts/token/ERC721/ERC721.sol\":3078:3079  0 */\n      0x00\n        /* \"@openzeppelin/contracts/token/ERC721/ERC721.sol\":3060:3067  baseURI */\n      dup2\n        /* \"@openzeppelin/contracts/token/ERC721/ERC721.sol\":3054:3075  bytes(baseURI).length */\n      mload\n        /* \"@openzeppelin/contracts/token/ERC721/ERC721.sol\":3054:3079  bytes(baseURI).length > 0 */\n      gt\n        /* \"@openzeppelin/contracts/token/ERC721/ERC721.sol\":3054:3140  bytes(baseURI).length > 0 ? string(abi.encodePacked(baseURI, tokenId.toString())) : \"\" */\n      tag_163\n      jumpi\n      mload(0x40)\n      dup1\n      0x20\n      add\n      0x40\n      mstore\n      dup1\n      0x00\n      dup2\n      mstore\n      pop\n      jump(tag_164)\n    tag_163:\n        /* \"@openzeppelin/contracts/token/ERC721/ERC721.sol\":3106:3113  baseURI */\n      dup1\n        /* \"@openzeppelin/contracts/token/ERC721/ERC721.sol\":3115:3133  tokenId.toString() */\n      tag_165\n        /* \"@openzeppelin/contracts/token/ERC721/ERC721.sol\":3115:3122  tokenId */\n      dup5\n        /* \"@openzeppelin/contracts/token/ERC721/ERC721.sol\":3115:3131  tokenId.toString */\n      tag_166\n        /* \"@openzeppelin/contracts/token/ERC721/ERC721.sol\":3115:3133  tokenId.toString() */\n      jump\t// in\n    tag_165:\n        /* \"@openzeppelin/contracts/token/ERC721/ERC721.sol\":3089:3134  abi.encodePacked(baseURI, tokenId.toString()) */\n      add(0x20, mload(0x40))\n      tag_167\n      swap3\n      swap2\n      swap1\n      tag_168\n      jump\t// in\n    tag_167:\n      mload(0x40)\n      0x20\n      dup2\n      dup4\n      sub\n      sub\n      dup2\n      mstore\n      swap1\n      0x40\n      mstore\n        /* \"@openzeppelin/contracts/token/ERC721/ERC721.sol\":3054:3140  bytes(baseURI).length > 0 ? string(abi.encodePacked(baseURI, tokenId.toString())) : \"\" */\n    tag_164:\n        /* \"@openzeppelin/contracts/token/ERC721/ERC721.sol\":3047:3140  return bytes(baseURI).length > 0 ? string(abi.encodePacked(baseURI, tokenId.toString())) : \"\" */\n      swap2\n      pop\n      pop\n        /* \"@openzeppelin/contracts/token/ERC721/ERC721.sol\":2818:3147  function tokenURI(uint256 tokenId) public view virtual override returns (string memory) {... */\n      swap2\n      swap1\n      pop\n      jump\t// out\n        /* \"contracts/test/NFTCollection.sol\":688:889  function transferNFTFrom(... */\n    tag_75:\n        /* \"contracts/test/NFTCollection.sol\":810:814  bool */\n      0x00\n        /* \"contracts/test/NFTCollection.sol\":826:861  safeTransferFrom(from, to, tokenId) */\n      tag_170\n        /* \"contracts/test/NFTCollection.sol\":843:847  from */\n      dup5\n        /* \"contracts/test/NFTCollection.sol\":849:851  to */\n      dup5\n        /* \"contracts/test/NFTCollection.sol\":853:860  tokenId */\n      dup5\n        /* \"contracts/test/NFTCollection.sol\":826:842  safeTransferFrom */\n      tag_47\n        /* \"contracts/test/NFTCollection.sol\":826:861  safeTransferFrom(from, to, tokenId) */\n      jump\t// in\n    tag_170:\n        /* \"contracts/test/NFTCollection.sol\":878:882  true */\n      0x01\n        /* \"contracts/test/NFTCollection.sol\":871:882  return true */\n      swap1\n      pop\n        /* \"contracts/test/NFTCollection.sol\":688:889  function transferNFTFrom(... */\n      swap4\n      swap3\n      pop\n      pop\n      pop\n      jump\t// out\n        /* \"contracts/test/NFTCollection.sol\":360:682  function mintNFT(string memory _nftName, string memory _nftURI)... */\n    tag_80:\n        /* \"contracts/test/NFTCollection.sol\":458:465  uint256 */\n      0x00\n        /* \"contracts/test/NFTCollection.sol\":481:488  allNFTs */\n      0x06\n        /* \"contracts/test/NFTCollection.sol\":494:529  NFT({name: _nftName, URI: _nftURI}) */\n      mload(0x40)\n      dup1\n      0x40\n      add\n      0x40\n      mstore\n      dup1\n        /* \"contracts/test/NFTCollection.sol\":505:513  _nftName */\n      dup6\n        /* \"contracts/test/NFTCollection.sol\":494:529  NFT({name: _nftName, URI: _nftURI}) */\n      dup2\n      mstore\n      0x20\n      add\n        /* \"contracts/test/NFTCollection.sol\":520:527  _nftURI */\n      dup5\n        /* \"contracts/test/NFTCollection.sol\":494:529  NFT({name: _nftName, URI: _nftURI}) */\n      dup2\n      mstore\n      pop\n        /* \"contracts/test/NFTCollection.sol\":481:530  allNFTs.push(NFT({name: _nftName, URI: _nftURI})) */\n      swap1\n      dup1\n      0x01\n      dup2\n      sload\n      add\n      dup1\n      dup3\n      sstore\n      dup1\n      swap2\n      pop\n      pop\n      0x01\n      swap1\n      sub\n      swap1\n      0x00\n      mstore\n      keccak256(0x00, 0x20)\n      swap1\n      0x02\n      mul\n      add\n      0x00\n      swap1\n      swap2\n      swap1\n      swap2\n      swap1\n      swap2\n      pop\n      0x00\n      dup3\n      add\n      mload\n      dup2\n      0x00\n      add\n      swap1\n      dup1\n      mload\n      swap1\n      0x20\n      add\n      swap1\n      tag_173\n      swap3\n      swap2\n      swap1\n      tag_174\n      jump\t// in\n    tag_173:\n      pop\n      0x20\n      dup3\n      add\n      mload\n      dup2\n      0x01\n      add\n      swap1\n      dup1\n      mload\n      swap1\n      0x20\n      add\n      swap1\n      tag_175\n      swap3\n      swap2\n      swap1\n      tag_174\n      jump\t// in\n    tag_175:\n      pop\n      pop\n      pop\n        /* \"contracts/test/NFTCollection.sol\":541:554  uint256 index */\n      0x00\n        /* \"contracts/test/NFTCollection.sol\":574:575  1 */\n      0x01\n        /* \"contracts/test/NFTCollection.sol\":557:564  allNFTs */\n      0x06\n        /* \"contracts/test/NFTCollection.sol\":557:571  allNFTs.length */\n      dup1\n      sload\n      swap1\n      pop\n        /* \"contracts/test/NFTCollection.sol\":557:575  allNFTs.length - 1 */\n      tag_176\n      swap2\n      swap1\n      tag_177\n      jump\t// in\n    tag_176:\n        /* \"contracts/test/NFTCollection.sol\":541:575  uint256 index = allNFTs.length - 1 */\n      swap1\n      pop\n        /* \"contracts/test/NFTCollection.sol\":586:614  _safeMint(msg.sender, index) */\n      tag_178\n        /* \"contracts/test/NFTCollection.sol\":596:606  msg.sender */\n      caller\n        /* \"contracts/test/NFTCollection.sol\":608:613  index */\n      dup3\n        /* \"contracts/test/NFTCollection.sol\":586:595  _safeMint */\n      tag_179\n        /* \"contracts/test/NFTCollection.sol\":586:614  _safeMint(msg.sender, index) */\n      jump\t// in\n    tag_178:\n        /* \"contracts/test/NFTCollection.sol\":642:652  msg.sender */\n      caller\n        /* \"contracts/test/NFTCollection.sol\":630:653  Mint(index, msg.sender) */\n      0xffffffffffffffffffffffffffffffffffffffff\n      and\n      0xf3cea5493d790af0133817606f7350a91d7f154ea52eaa79d179d4d231e50102\n        /* \"contracts/test/NFTCollection.sol\":635:640  index */\n      dup3\n        /* \"contracts/test/NFTCollection.sol\":630:653  Mint(index, msg.sender) */\n      mload(0x40)\n      tag_180\n      swap2\n      swap1\n      tag_57\n      jump\t// in\n    tag_180:\n      mload(0x40)\n      dup1\n      swap2\n      sub\n      swap1\n      log2\n        /* \"contracts/test/NFTCollection.sol\":670:675  index */\n      dup1\n        /* \"contracts/test/NFTCollection.sol\":663:675  return index */\n      swap2\n      pop\n      pop\n        /* \"contracts/test/NFTCollection.sol\":360:682  function mintNFT(string memory _nftName, string memory _nftURI)... */\n      swap3\n      swap2\n      pop\n      pop\n      jump\t// out\n        /* \"@openzeppelin/contracts/token/ERC721/ERC721.sol\":4502:4664  function isApprovedForAll(address owner, address operator) public view virtual override returns (bool) {... */\n    tag_85:\n        /* \"@openzeppelin/contracts/token/ERC721/ERC721.sol\":4599:4603  bool */\n      0x00\n        /* \"@openzeppelin/contracts/token/ERC721/ERC721.sol\":4622:4640  _operatorApprovals */\n      0x05\n        /* \"@openzeppelin/contracts/token/ERC721/ERC721.sol\":4622:4647  _operatorApprovals[owner] */\n      0x00\n        /* \"@openzeppelin/contracts/token/ERC721/ERC721.sol\":4641:4646  owner */\n      dup5\n        /* \"@openzeppelin/contracts/token/ERC721/ERC721.sol\":4622:4647  _operatorApprovals[owner] */\n      0xffffffffffffffffffffffffffffffffffffffff\n      and\n      0xffffffffffffffffffffffffffffffffffffffff\n      and\n      dup2\n      mstore\n      0x20\n      add\n      swap1\n      dup2\n      mstore\n      0x20\n      add\n      0x00\n      keccak256\n        /* \"@openzeppelin/contracts/token/ERC721/ERC721.sol\":4622:4657  _operatorApprovals[owner][operator] */\n      0x00\n        /* \"@openzeppelin/contracts/token/ERC721/ERC721.sol\":4648:4656  operator */\n      dup4\n        /* \"@openzeppelin/contracts/token/ERC721/ERC721.sol\":4622:4657  _operatorApprovals[owner][operator] */\n      0xffffffffffffffffffffffffffffffffffffffff\n      and\n      0xffffffffffffffffffffffffffffffffffffffff\n      and\n      dup2\n      mstore\n      0x20\n      add\n      swap1\n      dup2\n      mstore\n      0x20\n      add\n      0x00\n      keccak256\n      0x00\n      swap1\n      sload\n      swap1\n      0x0100\n      exp\n      swap1\n      div\n      0xff\n      and\n        /* \"@openzeppelin/contracts/token/ERC721/ERC721.sol\":4615:4657  return _operatorApprovals[owner][operator] */\n      swap1\n      pop\n        /* \"@openzeppelin/contracts/token/ERC721/ERC721.sol\":4502:4664  function isApprovedForAll(address owner, address operator) public view virtual override returns (bool) {... */\n      swap3\n      swap2\n      pop\n      pop\n      jump\t// out\n        /* \"@openzeppelin/contracts/utils/introspection/ERC165.sol\":829:984  function supportsInterface(bytes4 interfaceId) public view virtual override returns (bool) {... */\n    tag_91:\n        /* \"@openzeppelin/contracts/utils/introspection/ERC165.sol\":914:918  bool */\n      0x00\n        /* \"@openzeppelin/contracts/utils/introspection/ERC165.sol\":952:977  type(IERC165).interfaceId */\n      0x01ffc9a700000000000000000000000000000000000000000000000000000000\n        /* \"@openzeppelin/contracts/utils/introspection/ERC165.sol\":937:977  interfaceId == type(IERC165).interfaceId */\n      not(0xffffffffffffffffffffffffffffffffffffffffffffffffffffffff)\n      and\n        /* \"@openzeppelin/contracts/utils/introspection/ERC165.sol\":937:948  interfaceId */\n      dup3\n        /* \"@openzeppelin/contracts/utils/introspection/ERC165.sol\":937:977  interfaceId == type(IERC165).interfaceId */\n      not(0xffffffffffffffffffffffffffffffffffffffffffffffffffffffff)\n      and\n      eq\n        /* \"@openzeppelin/contracts/utils/introspection/ERC165.sol\":930:977  return interfaceId == type(IERC165).interfaceId */\n      swap1\n      pop\n        /* \"@openzeppelin/contracts/utils/introspection/ERC165.sol\":829:984  function supportsInterface(bytes4 interfaceId) public view virtual override returns (bool) {... */\n      swap2\n      swap1\n      pop\n      jump\t// out\n        /* \"@openzeppelin/contracts/token/ERC721/ERC721.sol\":7159:7284  function _exists(uint256 tokenId) internal view virtual returns (bool) {... */\n    tag_101:\n        /* \"@openzeppelin/contracts/token/ERC721/ERC721.sol\":7224:7228  bool */\n      0x00\n        /* \"@openzeppelin/contracts/token/ERC721/ERC721.sol\":7275:7276  0 */\n      dup1\n        /* \"@openzeppelin/contracts/token/ERC721/ERC721.sol\":7247:7277  _owners[tokenId] != address(0) */\n      0xffffffffffffffffffffffffffffffffffffffff\n      and\n        /* \"@openzeppelin/contracts/token/ERC721/ERC721.sol\":7247:7254  _owners */\n      0x02\n        /* \"@openzeppelin/contracts/token/ERC721/ERC721.sol\":7247:7263  _owners[tokenId] */\n      0x00\n        /* \"@openzeppelin/contracts/token/ERC721/ERC721.sol\":7255:7262  tokenId */\n      dup5\n        /* \"@openzeppelin/contracts/token/ERC721/ERC721.sol\":7247:7263  _owners[tokenId] */\n      dup2\n      mstore\n      0x20\n      add\n      swap1\n      dup2\n      mstore\n      0x20\n      add\n      0x00\n      keccak256\n      0x00\n      swap1\n      sload\n      swap1\n      0x0100\n      exp\n      swap1\n      div\n      0xffffffffffffffffffffffffffffffffffffffff\n      and\n        /* \"@openzeppelin/contracts/token/ERC721/ERC721.sol\":7247:7277  _owners[tokenId] != address(0) */\n      0xffffffffffffffffffffffffffffffffffffffff\n      and\n      eq\n      iszero\n        /* \"@openzeppelin/contracts/token/ERC721/ERC721.sol\":7240:7277  return _owners[tokenId] != address(0) */\n      swap1\n      pop\n        /* \"@openzeppelin/contracts/token/ERC721/ERC721.sol\":7159:7284  function _exists(uint256 tokenId) internal view virtual returns (bool) {... */\n      swap2\n      swap1\n      pop\n      jump\t// out\n        /* \"@openzeppelin/contracts/utils/Context.sol\":640:736  function _msgSender() internal view virtual returns (address) {... */\n    tag_111:\n        /* \"@openzeppelin/contracts/utils/Context.sol\":693:700  address */\n      0x00\n        /* \"@openzeppelin/contracts/utils/Context.sol\":719:729  msg.sender */\n      caller\n        /* \"@openzeppelin/contracts/utils/Context.sol\":712:729  return msg.sender */\n      swap1\n      pop\n        /* \"@openzeppelin/contracts/utils/Context.sol\":640:736  function _msgSender() internal view virtual returns (address) {... */\n      swap1\n      jump\t// out\n        /* \"@openzeppelin/contracts/token/ERC721/ERC721.sol\":11168:11339  function _approve(address to, uint256 tokenId) internal virtual {... */\n    tag_119:\n        /* \"@openzeppelin/contracts/token/ERC721/ERC721.sol\":11269:11271  to */\n      dup2\n        /* \"@openzeppelin/contracts/token/ERC721/ERC721.sol\":11242:11257  _tokenApprovals */\n      0x04\n        /* \"@openzeppelin/contracts/token/ERC721/ERC721.sol\":11242:11266  _tokenApprovals[tokenId] */\n      0x00\n        /* \"@openzeppelin/contracts/token/ERC721/ERC721.sol\":11258:11265  tokenId */\n      dup4\n        /* \"@openzeppelin/contracts/token/ERC721/ERC721.sol\":11242:11266  _tokenApprovals[tokenId] */\n      dup2\n      mstore\n      0x20\n      add\n      swap1\n      dup2\n      mstore\n      0x20\n      add\n      0x00\n      keccak256\n      0x00\n        /* \"@openzeppelin/contracts/token/ERC721/ERC721.sol\":11242:11271  _tokenApprovals[tokenId] = to */\n      0x0100\n      exp\n      dup2\n      sload\n      dup2\n      0xffffffffffffffffffffffffffffffffffffffff\n      mul\n      not\n      and\n      swap1\n      dup4\n      0xffffffffffffffffffffffffffffffffffffffff\n      and\n      mul\n      or\n      swap1\n      sstore\n      pop\n        /* \"@openzeppelin/contracts/token/ERC721/ERC721.sol\":11324:11331  tokenId */\n      dup1\n        /* \"@openzeppelin/contracts/token/ERC721/ERC721.sol\":11320:11322  to */\n      dup3\n        /* \"@openzeppelin/contracts/token/ERC721/ERC721.sol\":11286:11332  Approval(ERC721.ownerOf(tokenId), to, tokenId) */\n      0xffffffffffffffffffffffffffffffffffffffff\n      and\n        /* \"@openzeppelin/contracts/token/ERC721/ERC721.sol\":11295:11318  ERC721.ownerOf(tokenId) */\n      tag_186\n        /* \"@openzeppelin/contracts/token/ERC721/ERC721.sol\":11310:11317  tokenId */\n      dup4\n        /* \"@openzeppelin/contracts/token/ERC721/ERC721.sol\":11295:11309  ERC721.ownerOf */\n      tag_50\n        /* \"@openzeppelin/contracts/token/ERC721/ERC721.sol\":11295:11318  ERC721.ownerOf(tokenId) */\n      jump\t// in\n    tag_186:\n        /* \"@openzeppelin/contracts/token/ERC721/ERC721.sol\":11286:11332  Approval(ERC721.ownerOf(tokenId), to, tokenId) */\n      0xffffffffffffffffffffffffffffffffffffffff\n      and\n      0x8c5be1e5ebec7d5bd14f71427d1e84f3dd0314c0f7b2291e5b200ac8c7c3b925\n      mload(0x40)\n      mload(0x40)\n      dup1\n      swap2\n      sub\n      swap1\n      log4\n        /* \"@openzeppelin/contracts/token/ERC721/ERC721.sol\":11168:11339  function _approve(address to, uint256 tokenId) internal virtual {... */\n      pop\n      pop\n      jump\t// out\n        /* \"@openzeppelin/contracts/token/ERC721/ERC721.sol\":7442:7786  function _isApprovedOrOwner(address spender, uint256 tokenId) internal view virtual returns (bool) {... */\n    tag_123:\n        /* \"@openzeppelin/contracts/token/ERC721/ERC721.sol\":7535:7539  bool */\n      0x00\n        /* \"@openzeppelin/contracts/token/ERC721/ERC721.sol\":7559:7575  _exists(tokenId) */\n      tag_188\n        /* \"@openzeppelin/contracts/token/ERC721/ERC721.sol\":7567:7574  tokenId */\n      dup3\n        /* \"@openzeppelin/contracts/token/ERC721/ERC721.sol\":7559:7566  _exists */\n      tag_101\n        /* \"@openzeppelin/contracts/token/ERC721/ERC721.sol\":7559:7575  _exists(tokenId) */\n      jump\t// in\n    tag_188:\n        /* \"@openzeppelin/contracts/token/ERC721/ERC721.sol\":7551:7624  require(_exists(tokenId), \"ERC721: operator query for nonexistent token\") */\n      tag_189\n      jumpi\n      mload(0x40)\n      0x08c379a000000000000000000000000000000000000000000000000000000000\n      dup2\n      mstore\n      0x04\n      add\n      tag_190\n      swap1\n      tag_191\n      jump\t// in\n    tag_190:\n      mload(0x40)\n      dup1\n      swap2\n      sub\n      swap1\n      revert\n    tag_189:\n        /* \"@openzeppelin/contracts/token/ERC721/ERC721.sol\":7634:7647  address owner */\n      0x00\n        /* \"@openzeppelin/contracts/token/ERC721/ERC721.sol\":7650:7673  ERC721.ownerOf(tokenId) */\n      tag_192\n        /* \"@openzeppelin/contracts/token/ERC721/ERC721.sol\":7665:7672  tokenId */\n      dup4\n        /* \"@openzeppelin/contracts/token/ERC721/ERC721.sol\":7650:7664  ERC721.ownerOf */\n      tag_50\n        /* \"@openzeppelin/contracts/token/ERC721/ERC721.sol\":7650:7673  ERC721.ownerOf(tokenId) */\n      jump\t// in\n    tag_192:\n        /* \"@openzeppelin/contracts/token/ERC721/ERC721.sol\":7634:7673  address owner = ERC721.ownerOf(tokenId) */\n      swap1\n      pop\n        /* \"@openzeppelin/contracts/token/ERC721/ERC721.sol\":7702:7707  owner */\n      dup1\n        /* \"@openzeppelin/contracts/token/ERC721/ERC721.sol\":7691:7707  spender == owner */\n      0xffffffffffffffffffffffffffffffffffffffff\n      and\n        /* \"@openzeppelin/contracts/token/ERC721/ERC721.sol\":7691:7698  spender */\n      dup5\n        /* \"@openzeppelin/contracts/token/ERC721/ERC721.sol\":7691:7707  spender == owner */\n      0xffffffffffffffffffffffffffffffffffffffff\n      and\n      eq\n        /* \"@openzeppelin/contracts/token/ERC721/ERC721.sol\":7691:7742  spender == owner || getApproved(tokenId) == spender */\n      dup1\n      tag_193\n      jumpi\n      pop\n        /* \"@openzeppelin/contracts/token/ERC721/ERC721.sol\":7735:7742  spender */\n      dup4\n        /* \"@openzeppelin/contracts/token/ERC721/ERC721.sol\":7711:7742  getApproved(tokenId) == spender */\n      0xffffffffffffffffffffffffffffffffffffffff\n      and\n        /* \"@openzeppelin/contracts/token/ERC721/ERC721.sol\":7711:7731  getApproved(tokenId) */\n      tag_194\n        /* \"@openzeppelin/contracts/token/ERC721/ERC721.sol\":7723:7730  tokenId */\n      dup5\n        /* \"@openzeppelin/contracts/token/ERC721/ERC721.sol\":7711:7722  getApproved */\n      tag_34\n        /* \"@openzeppelin/contracts/token/ERC721/ERC721.sol\":7711:7731  getApproved(tokenId) */\n      jump\t// in\n    tag_194:\n        /* \"@openzeppelin/contracts/token/ERC721/ERC721.sol\":7711:7742  getApproved(tokenId) == spender */\n      0xffffffffffffffffffffffffffffffffffffffff\n      and\n      eq\n        /* \"@openzeppelin/contracts/token/ERC721/ERC721.sol\":7691:7742  spender == owner || getApproved(tokenId) == spender */\n    tag_193:\n        /* \"@openzeppelin/contracts/token/ERC721/ERC721.sol\":7691:7778  spender == owner || getApproved(tokenId) == spender || isApprovedForAll(owner, spender) */\n      dup1\n      tag_195\n      jumpi\n      pop\n        /* \"@openzeppelin/contracts/token/ERC721/ERC721.sol\":7746:7778  isApprovedForAll(owner, spender) */\n      tag_196\n        /* \"@openzeppelin/contracts/token/ERC721/ERC721.sol\":7763:7768  owner */\n      dup2\n        /* \"@openzeppelin/contracts/token/ERC721/ERC721.sol\":7770:7777  spender */\n      dup6\n        /* \"@openzeppelin/contracts/token/ERC721/ERC721.sol\":7746:7762  isApprovedForAll */\n      tag_85\n        /* \"@openzeppelin/contracts/token/ERC721/ERC721.sol\":7746:7778  isApprovedForAll(owner, spender) */\n      jump\t// in\n    tag_196:\n        /* \"@openzeppelin/contracts/token/ERC721/ERC721.sol\":7691:7778  spender == owner || getApproved(tokenId) == spender || isApprovedForAll(owner, spender) */\n    tag_195:\n        /* \"@openzeppelin/contracts/token/ERC721/ERC721.sol\":7683:7779  return (spender == owner || getApproved(tokenId) == spender || isApprovedForAll(owner, spender)) */\n      swap2\n      pop\n      pop\n        /* \"@openzeppelin/contracts/token/ERC721/ERC721.sol\":7442:7786  function _isApprovedOrOwner(address spender, uint256 tokenId) internal view virtual returns (bool) {... */\n      swap3\n      swap2\n      pop\n      pop\n      jump\t// out\n        /* \"@openzeppelin/contracts/token/ERC721/ERC721.sol\":10452:11057  function _transfer(... */\n    tag_128:\n        /* \"@openzeppelin/contracts/token/ERC721/ERC721.sol\":10606:10610  from */\n      dup3\n        /* \"@openzeppelin/contracts/token/ERC721/ERC721.sol\":10579:10610  ERC721.ownerOf(tokenId) == from */\n      0xffffffffffffffffffffffffffffffffffffffff\n      and\n        /* \"@openzeppelin/contracts/token/ERC721/ERC721.sol\":10579:10602  ERC721.ownerOf(tokenId) */\n      tag_198\n        /* \"@openzeppelin/contracts/token/ERC721/ERC721.sol\":10594:10601  tokenId */\n      dup3\n        /* \"@openzeppelin/contracts/token/ERC721/ERC721.sol\":10579:10593  ERC721.ownerOf */\n      tag_50\n        /* \"@openzeppelin/contracts/token/ERC721/ERC721.sol\":10579:10602  ERC721.ownerOf(tokenId) */\n      jump\t// in\n    tag_198:\n        /* \"@openzeppelin/contracts/token/ERC721/ERC721.sol\":10579:10610  ERC721.ownerOf(tokenId) == from */\n      0xffffffffffffffffffffffffffffffffffffffff\n      and\n      eq\n        /* \"@openzeppelin/contracts/token/ERC721/ERC721.sol\":10571:10652  require(ERC721.ownerOf(tokenId) == from, \"ERC721: transfer from incorrect owner\") */\n      tag_199\n      jumpi\n      mload(0x40)\n      0x08c379a000000000000000000000000000000000000000000000000000000000\n      dup2\n      mstore\n      0x04\n      add\n      tag_200\n      swap1\n      tag_201\n      jump\t// in\n    tag_200:\n      mload(0x40)\n      dup1\n      swap2\n      sub\n      swap1\n      revert\n    tag_199:\n        /* \"@openzeppelin/contracts/token/ERC721/ERC721.sol\":10684:10685  0 */\n      0x00\n        /* \"@openzeppelin/contracts/token/ERC721/ERC721.sol\":10670:10686  to != address(0) */\n      0xffffffffffffffffffffffffffffffffffffffff\n      and\n        /* \"@openzeppelin/contracts/token/ERC721/ERC721.sol\":10670:10672  to */\n      dup3\n        /* \"@openzeppelin/contracts/token/ERC721/ERC721.sol\":10670:10686  to != address(0) */\n      0xffffffffffffffffffffffffffffffffffffffff\n      and\n      eq\n      iszero\n        /* \"@openzeppelin/contracts/token/ERC721/ERC721.sol\":10662:10727  require(to != address(0), \"ERC721: transfer to the zero address\") */\n      tag_202\n      jumpi\n      mload(0x40)\n      0x08c379a000000000000000000000000000000000000000000000000000000000\n      dup2\n      mstore\n      0x04\n      add\n      tag_203\n      swap1\n      tag_204\n      jump\t// in\n    tag_203:\n      mload(0x40)\n      dup1\n      swap2\n      sub\n      swap1\n      revert\n    tag_202:\n        /* \"@openzeppelin/contracts/token/ERC721/ERC721.sol\":10738:10777  _beforeTokenTransfer(from, to, tokenId) */\n      tag_205\n        /* \"@openzeppelin/contracts/token/ERC721/ERC721.sol\":10759:10763  from */\n      dup4\n        /* \"@openzeppelin/contracts/token/ERC721/ERC721.sol\":10765:10767  to */\n      dup4\n        /* \"@openzeppelin/contracts/token/ERC721/ERC721.sol\":10769:10776  tokenId */\n      dup4\n        /* \"@openzeppelin/contracts/token/ERC721/ERC721.sol\":10738:10758  _beforeTokenTransfer */\n      tag_206\n        /* \"@openzeppelin/contracts/token/ERC721/ERC721.sol\":10738:10777  _beforeTokenTransfer(from, to, tokenId) */\n      jump\t// in\n    tag_205:\n        /* \"@openzeppelin/contracts/token/ERC721/ERC721.sol\":10839:10868  _approve(address(0), tokenId) */\n      tag_207\n        /* \"@openzeppelin/contracts/token/ERC721/ERC721.sol\":10856:10857  0 */\n      0x00\n        /* \"@openzeppelin/contracts/token/ERC721/ERC721.sol\":10860:10867  tokenId */\n      dup3\n        /* \"@openzeppelin/contracts/token/ERC721/ERC721.sol\":10839:10847  _approve */\n      tag_119\n        /* \"@openzeppelin/contracts/token/ERC721/ERC721.sol\":10839:10868  _approve(address(0), tokenId) */\n      jump\t// in\n    tag_207:\n        /* \"@openzeppelin/contracts/token/ERC721/ERC721.sol\":10898:10899  1 */\n      0x01\n        /* \"@openzeppelin/contracts/token/ERC721/ERC721.sol\":10879:10888  _balances */\n      0x03\n        /* \"@openzeppelin/contracts/token/ERC721/ERC721.sol\":10879:10894  _balances[from] */\n      0x00\n        /* \"@openzeppelin/contracts/token/ERC721/ERC721.sol\":10889:10893  from */\n      dup6\n        /* \"@openzeppelin/contracts/token/ERC721/ERC721.sol\":10879:10894  _balances[from] */\n      0xffffffffffffffffffffffffffffffffffffffff\n      and\n      0xffffffffffffffffffffffffffffffffffffffff\n      and\n      dup2\n      mstore\n      0x20\n      add\n      swap1\n      dup2\n      mstore\n      0x20\n      add\n      0x00\n      keccak256\n      0x00\n        /* \"@openzeppelin/contracts/token/ERC721/ERC721.sol\":10879:10899  _balances[from] -= 1 */\n      dup3\n      dup3\n      sload\n      tag_208\n      swap2\n      swap1\n      tag_177\n      jump\t// in\n    tag_208:\n      swap3\n      pop\n      pop\n      dup2\n      swap1\n      sstore\n      pop\n        /* \"@openzeppelin/contracts/token/ERC721/ERC721.sol\":10926:10927  1 */\n      0x01\n        /* \"@openzeppelin/contracts/token/ERC721/ERC721.sol\":10909:10918  _balances */\n      0x03\n        /* \"@openzeppelin/contracts/token/ERC721/ERC721.sol\":10909:10922  _balances[to] */\n      0x00\n        /* \"@openzeppelin/contracts/token/ERC721/ERC721.sol\":10919:10921  to */\n      dup5\n        /* \"@openzeppelin/contracts/token/ERC721/ERC721.sol\":10909:10922  _balances[to] */\n      0xffffffffffffffffffffffffffffffffffffffff\n      and\n      0xffffffffffffffffffffffffffffffffffffffff\n      and\n      dup2\n      mstore\n      0x20\n      add\n      swap1\n      dup2\n      mstore\n      0x20\n      add\n      0x00\n      keccak256\n      0x00\n        /* \"@openzeppelin/contracts/token/ERC721/ERC721.sol\":10909:10927  _balances[to] += 1 */\n      dup3\n      dup3\n      sload\n      tag_209\n      swap2\n      swap1\n      tag_210\n      jump\t// in\n    tag_209:\n      swap3\n      pop\n      pop\n      dup2\n      swap1\n      sstore\n      pop\n        /* \"@openzeppelin/contracts/token/ERC721/ERC721.sol\":10956:10958  to */\n      dup2\n        /* \"@openzeppelin/contracts/token/ERC721/ERC721.sol\":10937:10944  _owners */\n      0x02\n        /* \"@openzeppelin/contracts/token/ERC721/ERC721.sol\":10937:10953  _owners[tokenId] */\n      0x00\n        /* \"@openzeppelin/contracts/token/ERC721/ERC721.sol\":10945:10952  tokenId */\n      dup4\n        /* \"@openzeppelin/contracts/token/ERC721/ERC721.sol\":10937:10953  _owners[tokenId] */\n      dup2\n      mstore\n      0x20\n      add\n      swap1\n      dup2\n      mstore\n      0x20\n      add\n      0x00\n      keccak256\n      0x00\n        /* \"@openzeppelin/contracts/token/ERC721/ERC721.sol\":10937:10958  _owners[tokenId] = to */\n      0x0100\n      exp\n      dup2\n      sload\n      dup2\n      0xffffffffffffffffffffffffffffffffffffffff\n      mul\n      not\n      and\n      swap1\n      dup4\n      0xffffffffffffffffffffffffffffffffffffffff\n      and\n      mul\n      or\n      swap1\n      sstore\n      pop\n        /* \"@openzeppelin/contracts/token/ERC721/ERC721.sol\":10993:11000  tokenId */\n      dup1\n        /* \"@openzeppelin/contracts/token/ERC721/ERC721.sol\":10989:10991  to */\n      dup3\n        /* \"@openzeppelin/contracts/token/ERC721/ERC721.sol\":10974:11001  Transfer(from, to, tokenId) */\n      0xffffffffffffffffffffffffffffffffffffffff\n      and\n        /* \"@openzeppelin/contracts/token/ERC721/ERC721.sol\":10983:10987  from */\n      dup5\n        /* \"@openzeppelin/contracts/token/ERC721/ERC721.sol\":10974:11001  Transfer(from, to, tokenId) */\n      0xffffffffffffffffffffffffffffffffffffffff\n      and\n      0xddf252ad1be2c89b69c2b068fc378daa952ba7f163c4a11628f55a4df523b3ef\n      mload(0x40)\n      mload(0x40)\n      dup1\n      swap2\n      sub\n      swap1\n      log4\n        /* \"@openzeppelin/contracts/token/ERC721/ERC721.sol\":11012:11050  _afterTokenTransfer(from, to, tokenId) */\n      tag_211\n        /* \"@openzeppelin/contracts/token/ERC721/ERC721.sol\":11032:11036  from */\n      dup4\n        /* \"@openzeppelin/contracts/token/ERC721/ERC721.sol\":11038:11040  to */\n      dup4\n        /* \"@openzeppelin/contracts/token/ERC721/ERC721.sol\":11042:11049  tokenId */\n      dup4\n        /* \"@openzeppelin/contracts/token/ERC721/ERC721.sol\":11012:11031  _afterTokenTransfer */\n      tag_212\n        /* \"@openzeppelin/contracts/token/ERC721/ERC721.sol\":11012:11050  _afterTokenTransfer(from, to, tokenId) */\n      jump\t// in\n    tag_211:\n        /* \"@openzeppelin/contracts/token/ERC721/ERC721.sol\":10452:11057  function _transfer(... */\n      pop\n      pop\n      pop\n      jump\t// out\n        /* \"@openzeppelin/contracts/token/ERC721/ERC721.sol\":11474:11781  function _setApprovalForAll(... */\n    tag_148:\n        /* \"@openzeppelin/contracts/token/ERC721/ERC721.sol\":11624:11632  operator */\n      dup2\n        /* \"@openzeppelin/contracts/token/ERC721/ERC721.sol\":11615:11632  owner != operator */\n      0xffffffffffffffffffffffffffffffffffffffff\n      and\n        /* \"@openzeppelin/contracts/token/ERC721/ERC721.sol\":11615:11620  owner */\n      dup4\n        /* \"@openzeppelin/contracts/token/ERC721/ERC721.sol\":11615:11632  owner != operator */\n      0xffffffffffffffffffffffffffffffffffffffff\n      and\n      eq\n      iszero\n        /* \"@openzeppelin/contracts/token/ERC721/ERC721.sol\":11607:11662  require(owner != operator, \"ERC721: approve to caller\") */\n      tag_214\n      jumpi\n      mload(0x40)\n      0x08c379a000000000000000000000000000000000000000000000000000000000\n      dup2\n      mstore\n      0x04\n      add\n      tag_215\n      swap1\n      tag_216\n      jump\t// in\n    tag_215:\n      mload(0x40)\n      dup1\n      swap2\n      sub\n      swap1\n      revert\n    tag_214:\n        /* \"@openzeppelin/contracts/token/ERC721/ERC721.sol\":11710:11718  approved */\n      dup1\n        /* \"@openzeppelin/contracts/token/ERC721/ERC721.sol\":11672:11690  _operatorApprovals */\n      0x05\n        /* \"@openzeppelin/contracts/token/ERC721/ERC721.sol\":11672:11697  _operatorApprovals[owner] */\n      0x00\n        /* \"@openzeppelin/contracts/token/ERC721/ERC721.sol\":11691:11696  owner */\n      dup6\n        /* \"@openzeppelin/contracts/token/ERC721/ERC721.sol\":11672:11697  _operatorApprovals[owner] */\n      0xffffffffffffffffffffffffffffffffffffffff\n      and\n      0xffffffffffffffffffffffffffffffffffffffff\n      and\n      dup2\n      mstore\n      0x20\n      add\n      swap1\n      dup2\n      mstore\n      0x20\n      add\n      0x00\n      keccak256\n        /* \"@openzeppelin/contracts/token/ERC721/ERC721.sol\":11672:11707  _operatorApprovals[owner][operator] */\n      0x00\n        /* \"@openzeppelin/contracts/token/ERC721/ERC721.sol\":11698:11706  operator */\n      dup5\n        /* \"@openzeppelin/contracts/token/ERC721/ERC721.sol\":11672:11707  _operatorApprovals[owner][operator] */\n      0xffffffffffffffffffffffffffffffffffffffff\n      and\n      0xffffffffffffffffffffffffffffffffffffffff\n      and\n      dup2\n      mstore\n      0x20\n      add\n      swap1\n      dup2\n      mstore\n      0x20\n      add\n      0x00\n      keccak256\n      0x00\n        /* \"@openzeppelin/contracts/token/ERC721/ERC721.sol\":11672:11718  _operatorApprovals[owner][operator] = approved */\n      0x0100\n      exp\n      dup2\n      sload\n      dup2\n      0xff\n      mul\n      not\n      and\n      swap1\n      dup4\n      iszero\n      iszero\n      mul\n      or\n      swap1\n      sstore\n      pop\n        /* \"@openzeppelin/contracts/token/ERC721/ERC721.sol\":11755:11763  operator */\n      dup2\n        /* \"@openzeppelin/contracts/token/ERC721/ERC721.sol\":11733:11774  ApprovalForAll(owner, operator, approved) */\n      0xffffffffffffffffffffffffffffffffffffffff\n      and\n        /* \"@openzeppelin/contracts/token/ERC721/ERC721.sol\":11748:11753  owner */\n      dup4\n        /* \"@openzeppelin/contracts/token/ERC721/ERC721.sol\":11733:11774  ApprovalForAll(owner, operator, approved) */\n      0xffffffffffffffffffffffffffffffffffffffff\n      and\n      0x17307eab39ab6107e8899845ad3d59bd9653f200f220920489ca2b5937696c31\n        /* \"@openzeppelin/contracts/token/ERC721/ERC721.sol\":11765:11773  approved */\n      dup4\n        /* \"@openzeppelin/contracts/token/ERC721/ERC721.sol\":11733:11774  ApprovalForAll(owner, operator, approved) */\n      mload(0x40)\n      tag_217\n      swap2\n      swap1\n      tag_26\n      jump\t// in\n    tag_217:\n      mload(0x40)\n      dup1\n      swap2\n      sub\n      swap1\n      log3\n        /* \"@openzeppelin/contracts/token/ERC721/ERC721.sol\":11474:11781  function _setApprovalForAll(... */\n      pop\n      pop\n      pop\n      jump\t// out\n        /* \"@openzeppelin/contracts/token/ERC721/ERC721.sol\":6549:6856  function _safeTransfer(... */\n    tag_155:\n        /* \"@openzeppelin/contracts/token/ERC721/ERC721.sol\":6700:6728  _transfer(from, to, tokenId) */\n      tag_219\n        /* \"@openzeppelin/contracts/token/ERC721/ERC721.sol\":6710:6714  from */\n      dup5\n        /* \"@openzeppelin/contracts/token/ERC721/ERC721.sol\":6716:6718  to */\n      dup5\n        /* \"@openzeppelin/contracts/token/ERC721/ERC721.sol\":6720:6727  tokenId */\n      dup5\n        /* \"@openzeppelin/contracts/token/ERC721/ERC721.sol\":6700:6709  _transfer */\n      tag_128\n        /* \"@openzeppelin/contracts/token/ERC721/ERC721.sol\":6700:6728  _transfer(from, to, tokenId) */\n      jump\t// in\n    tag_219:\n        /* \"@openzeppelin/contracts/token/ERC721/ERC721.sol\":6746:6794  _checkOnERC721Received(from, to, tokenId, _data) */\n      tag_220\n        /* \"@openzeppelin/contracts/token/ERC721/ERC721.sol\":6769:6773  from */\n      dup5\n        /* \"@openzeppelin/contracts/token/ERC721/ERC721.sol\":6775:6777  to */\n      dup5\n        /* \"@openzeppelin/contracts/token/ERC721/ERC721.sol\":6779:6786  tokenId */\n      dup5\n        /* \"@openzeppelin/contracts/token/ERC721/ERC721.sol\":6788:6793  _data */\n      dup5\n        /* \"@openzeppelin/contracts/token/ERC721/ERC721.sol\":6746:6768  _checkOnERC721Received */\n      tag_221\n        /* \"@openzeppelin/contracts/token/ERC721/ERC721.sol\":6746:6794  _checkOnERC721Received(from, to, tokenId, _data) */\n      jump\t// in\n    tag_220:\n        /* \"@openzeppelin/contracts/token/ERC721/ERC721.sol\":6738:6849  require(_checkOnERC721Received(from, to, tokenId, _data), \"ERC721: transfer to non ERC721Receiver implementer\") */\n      tag_222\n      jumpi\n      mload(0x40)\n      0x08c379a000000000000000000000000000000000000000000000000000000000\n      dup2\n      mstore\n      0x04\n      add\n      tag_223\n      swap1\n      tag_224\n      jump\t// in\n    tag_223:\n      mload(0x40)\n      dup1\n      swap2\n      sub\n      swap1\n      revert\n    tag_222:\n        /* \"@openzeppelin/contracts/token/ERC721/ERC721.sol\":6549:6856  function _safeTransfer(... */\n      pop\n      pop\n      pop\n      pop\n      jump\t// out\n        /* \"@openzeppelin/contracts/token/ERC721/ERC721.sol\":3388:3480  function _baseURI() internal view virtual returns (string memory) {... */\n    tag_162:\n        /* \"@openzeppelin/contracts/token/ERC721/ERC721.sol\":3439:3452  string memory */\n      0x60\n        /* \"@openzeppelin/contracts/token/ERC721/ERC721.sol\":3464:3473  return \"\" */\n      mload(0x40)\n      dup1\n      0x20\n      add\n      0x40\n      mstore\n      dup1\n      0x00\n      dup2\n      mstore\n      pop\n      swap1\n      pop\n        /* \"@openzeppelin/contracts/token/ERC721/ERC721.sol\":3388:3480  function _baseURI() internal view virtual returns (string memory) {... */\n      swap1\n      jump\t// out\n        /* \"@openzeppelin/contracts/utils/Strings.sol\":328:1031  function toString(uint256 value) internal pure returns (string memory) {... */\n    tag_166:\n        /* \"@openzeppelin/contracts/utils/Strings.sol\":384:397  string memory */\n      0x60\n        /* \"@openzeppelin/contracts/utils/Strings.sol\":610:611  0 */\n      0x00\n        /* \"@openzeppelin/contracts/utils/Strings.sol\":601:606  value */\n      dup3\n        /* \"@openzeppelin/contracts/utils/Strings.sol\":601:611  value == 0 */\n      eq\n        /* \"@openzeppelin/contracts/utils/Strings.sol\":597:648  if (value == 0) {... */\n      iszero\n      tag_227\n      jumpi\n        /* \"@openzeppelin/contracts/utils/Strings.sol\":627:637  return \"0\" */\n      mload(0x40)\n      dup1\n      0x40\n      add\n      0x40\n      mstore\n      dup1\n      0x01\n      dup2\n      mstore\n      0x20\n      add\n      0x3000000000000000000000000000000000000000000000000000000000000000\n      dup2\n      mstore\n      pop\n      swap1\n      pop\n      jump(tag_226)\n        /* \"@openzeppelin/contracts/utils/Strings.sol\":597:648  if (value == 0) {... */\n    tag_227:\n        /* \"@openzeppelin/contracts/utils/Strings.sol\":657:669  uint256 temp */\n      0x00\n        /* \"@openzeppelin/contracts/utils/Strings.sol\":672:677  value */\n      dup3\n        /* \"@openzeppelin/contracts/utils/Strings.sol\":657:677  uint256 temp = value */\n      swap1\n      pop\n        /* \"@openzeppelin/contracts/utils/Strings.sol\":687:701  uint256 digits */\n      0x00\n        /* \"@openzeppelin/contracts/utils/Strings.sol\":711:786  while (temp != 0) {... */\n    tag_228:\n        /* \"@openzeppelin/contracts/utils/Strings.sol\":726:727  0 */\n      0x00\n        /* \"@openzeppelin/contracts/utils/Strings.sol\":718:722  temp */\n      dup3\n        /* \"@openzeppelin/contracts/utils/Strings.sol\":718:727  temp != 0 */\n      eq\n        /* \"@openzeppelin/contracts/utils/Strings.sol\":711:786  while (temp != 0) {... */\n      tag_229\n      jumpi\n        /* \"@openzeppelin/contracts/utils/Strings.sol\":743:751  digits++ */\n      dup1\n      dup1\n      tag_230\n      swap1\n      tag_231\n      jump\t// in\n    tag_230:\n      swap2\n      pop\n      pop\n        /* \"@openzeppelin/contracts/utils/Strings.sol\":773:775  10 */\n      0x0a\n        /* \"@openzeppelin/contracts/utils/Strings.sol\":765:775  temp /= 10 */\n      dup3\n      tag_232\n      swap2\n      swap1\n      tag_233\n      jump\t// in\n    tag_232:\n      swap2\n      pop\n        /* \"@openzeppelin/contracts/utils/Strings.sol\":711:786  while (temp != 0) {... */\n      jump(tag_228)\n    tag_229:\n        /* \"@openzeppelin/contracts/utils/Strings.sol\":795:814  bytes memory buffer */\n      0x00\n        /* \"@openzeppelin/contracts/utils/Strings.sol\":827:833  digits */\n      dup2\n        /* \"@openzeppelin/contracts/utils/Strings.sol\":817:834  new bytes(digits) */\n      0xffffffffffffffff\n      dup2\n      gt\n      iszero\n      tag_234\n      jumpi\n      mstore(0x00, 0x4e487b7100000000000000000000000000000000000000000000000000000000)\n      mstore(0x04, 0x41)\n      revert(0x00, 0x24)\n    tag_234:\n      mload(0x40)\n      swap1\n      dup1\n      dup3\n      mstore\n      dup1\n      0x1f\n      add\n      not(0x1f)\n      and\n      0x20\n      add\n      dup3\n      add\n      0x40\n      mstore\n      dup1\n      iszero\n      tag_235\n      jumpi\n      dup2\n      0x20\n      add\n      0x01\n      dup3\n      mul\n      dup1\n      calldatasize\n      dup4\n      calldatacopy\n      dup1\n      dup3\n      add\n      swap2\n      pop\n      pop\n      swap1\n      pop\n    tag_235:\n      pop\n        /* \"@openzeppelin/contracts/utils/Strings.sol\":795:834  bytes memory buffer = new bytes(digits) */\n      swap1\n      pop\n        /* \"@openzeppelin/contracts/utils/Strings.sol\":844:994  while (value != 0) {... */\n    tag_236:\n        /* \"@openzeppelin/contracts/utils/Strings.sol\":860:861  0 */\n      0x00\n        /* \"@openzeppelin/contracts/utils/Strings.sol\":851:856  value */\n      dup6\n        /* \"@openzeppelin/contracts/utils/Strings.sol\":851:861  value != 0 */\n      eq\n        /* \"@openzeppelin/contracts/utils/Strings.sol\":844:994  while (value != 0) {... */\n      tag_237\n      jumpi\n        /* \"@openzeppelin/contracts/utils/Strings.sol\":887:888  1 */\n      0x01\n        /* \"@openzeppelin/contracts/utils/Strings.sol\":877:888  digits -= 1 */\n      dup3\n      tag_238\n      swap2\n      swap1\n      tag_177\n      jump\t// in\n    tag_238:\n      swap2\n      pop\n        /* \"@openzeppelin/contracts/utils/Strings.sol\":953:955  10 */\n      0x0a\n        /* \"@openzeppelin/contracts/utils/Strings.sol\":945:950  value */\n      dup6\n        /* \"@openzeppelin/contracts/utils/Strings.sol\":945:955  value % 10 */\n      tag_239\n      swap2\n      swap1\n      tag_240\n      jump\t// in\n    tag_239:\n        /* \"@openzeppelin/contracts/utils/Strings.sol\":932:934  48 */\n      0x30\n        /* \"@openzeppelin/contracts/utils/Strings.sol\":932:956  48 + uint256(value % 10) */\n      tag_241\n      swap2\n      swap1\n      tag_210\n      jump\t// in\n    tag_241:\n        /* \"@openzeppelin/contracts/utils/Strings.sol\":919:958  bytes1(uint8(48 + uint256(value % 10))) */\n      0xf8\n      shl\n        /* \"@openzeppelin/contracts/utils/Strings.sol\":902:908  buffer */\n      dup2\n        /* \"@openzeppelin/contracts/utils/Strings.sol\":909:915  digits */\n      dup4\n        /* \"@openzeppelin/contracts/utils/Strings.sol\":902:916  buffer[digits] */\n      dup2\n      mload\n      dup2\n      lt\n      tag_242\n      jumpi\n      mstore(0x00, 0x4e487b7100000000000000000000000000000000000000000000000000000000)\n      mstore(0x04, 0x32)\n      revert(0x00, 0x24)\n    tag_242:\n      0x20\n      add\n      add\n        /* \"@openzeppelin/contracts/utils/Strings.sol\":902:958  buffer[digits] = bytes1(uint8(48 + uint256(value % 10))) */\n      swap1\n      not(0xffffffffffffffffffffffffffffffffffffffffffffffffffffffffffffff)\n      and\n      swap1\n      dup2\n      0x00\n      byte\n      swap1\n      mstore8\n      pop\n        /* \"@openzeppelin/contracts/utils/Strings.sol\":981:983  10 */\n      0x0a\n        /* \"@openzeppelin/contracts/utils/Strings.sol\":972:983  value /= 10 */\n      dup6\n      tag_243\n      swap2\n      swap1\n      tag_233\n      jump\t// in\n    tag_243:\n      swap5\n      pop\n        /* \"@openzeppelin/contracts/utils/Strings.sol\":844:994  while (value != 0) {... */\n      jump(tag_236)\n    tag_237:\n        /* \"@openzeppelin/contracts/utils/Strings.sol\":1017:1023  buffer */\n      dup1\n        /* \"@openzeppelin/contracts/utils/Strings.sol\":1003:1024  return string(buffer) */\n      swap4\n      pop\n      pop\n      pop\n      pop\n        /* \"@openzeppelin/contracts/utils/Strings.sol\":328:1031  function toString(uint256 value) internal pure returns (string memory) {... */\n    tag_226:\n      swap2\n      swap1\n      pop\n      jump\t// out\n        /* \"@openzeppelin/contracts/token/ERC721/ERC721.sol\":8116:8224  function _safeMint(address to, uint256 tokenId) internal virtual {... */\n    tag_179:\n        /* \"@openzeppelin/contracts/token/ERC721/ERC721.sol\":8191:8217  _safeMint(to, tokenId, \"\") */\n      tag_245\n        /* \"@openzeppelin/contracts/token/ERC721/ERC721.sol\":8201:8203  to */\n      dup3\n        /* \"@openzeppelin/contracts/token/ERC721/ERC721.sol\":8205:8212  tokenId */\n      dup3\n        /* \"@openzeppelin/contracts/token/ERC721/ERC721.sol\":8191:8217  _safeMint(to, tokenId, \"\") */\n      mload(0x40)\n      dup1\n      0x20\n      add\n      0x40\n      mstore\n      dup1\n      0x00\n      dup2\n      mstore\n      pop\n        /* \"@openzeppelin/contracts/token/ERC721/ERC721.sol\":8191:8200  _safeMint */\n      tag_246\n        /* \"@openzeppelin/contracts/token/ERC721/ERC721.sol\":8191:8217  _safeMint(to, tokenId, \"\") */\n      jump\t// in\n    tag_245:\n        /* \"@openzeppelin/contracts/token/ERC721/ERC721.sol\":8116:8224  function _safeMint(address to, uint256 tokenId) internal virtual {... */\n      pop\n      pop\n      jump\t// out\n        /* \"@openzeppelin/contracts/token/ERC721/ERC721.sol\":13668:13790  function _beforeTokenTransfer(... */\n    tag_206:\n      pop\n      pop\n      pop\n      jump\t// out\n        /* \"@openzeppelin/contracts/token/ERC721/ERC721.sol\":14162:14283  function _afterTokenTransfer(... */\n    tag_212:\n      pop\n      pop\n      pop\n      jump\t// out\n        /* \"@openzeppelin/contracts/token/ERC721/ERC721.sol\":12334:13112  function _checkOnERC721Received(... */\n    tag_221:\n        /* \"@openzeppelin/contracts/token/ERC721/ERC721.sol\":12484:12488  bool */\n      0x00\n        /* \"@openzeppelin/contracts/token/ERC721/ERC721.sol\":12504:12519  to.isContract() */\n      tag_250\n        /* \"@openzeppelin/contracts/token/ERC721/ERC721.sol\":12504:12506  to */\n      dup5\n        /* \"@openzeppelin/contracts/token/ERC721/ERC721.sol\":12504:12517  to.isContract */\n      0xffffffffffffffffffffffffffffffffffffffff\n      and\n      tag_251\n        /* \"@openzeppelin/contracts/token/ERC721/ERC721.sol\":12504:12519  to.isContract() */\n      jump\t// in\n    tag_250:\n        /* \"@openzeppelin/contracts/token/ERC721/ERC721.sol\":12500:13106  if (to.isContract()) {... */\n      iszero\n      tag_252\n      jumpi\n        /* \"@openzeppelin/contracts/token/ERC721/ERC721.sol\":12555:12557  to */\n      dup4\n        /* \"@openzeppelin/contracts/token/ERC721/ERC721.sol\":12539:12575  IERC721Receiver(to).onERC721Received */\n      0xffffffffffffffffffffffffffffffffffffffff\n      and\n      0x150b7a02\n        /* \"@openzeppelin/contracts/token/ERC721/ERC721.sol\":12576:12588  _msgSender() */\n      tag_253\n        /* \"@openzeppelin/contracts/token/ERC721/ERC721.sol\":12576:12586  _msgSender */\n      tag_111\n        /* \"@openzeppelin/contracts/token/ERC721/ERC721.sol\":12576:12588  _msgSender() */\n      jump\t// in\n    tag_253:\n        /* \"@openzeppelin/contracts/token/ERC721/ERC721.sol\":12590:12594  from */\n      dup8\n        /* \"@openzeppelin/contracts/token/ERC721/ERC721.sol\":12596:12603  tokenId */\n      dup7\n        /* \"@openzeppelin/contracts/token/ERC721/ERC721.sol\":12605:12610  _data */\n      dup7\n        /* \"@openzeppelin/contracts/token/ERC721/ERC721.sol\":12539:12611  IERC721Receiver(to).onERC721Received(_msgSender(), from, tokenId, _data) */\n      mload(0x40)\n      dup6\n      0xffffffff\n      and\n      0xe0\n      shl\n      dup2\n      mstore\n      0x04\n      add\n      tag_254\n      swap5\n      swap4\n      swap3\n      swap2\n      swap1\n      tag_255\n      jump\t// in\n    tag_254:\n      0x20\n      mload(0x40)\n      dup1\n      dup4\n      sub\n      dup2\n      0x00\n      dup8\n      dup1\n      extcodesize\n      iszero\n      dup1\n      iszero\n      tag_256\n      jumpi\n      0x00\n      dup1\n      revert\n    tag_256:\n      pop\n      gas\n      call\n      swap3\n      pop\n      pop\n      pop\n      dup1\n      iszero\n      tag_257\n      jumpi\n      pop\n      mload(0x40)\n      returndatasize\n      not(0x1f)\n      0x1f\n      dup3\n      add\n      and\n      dup3\n      add\n      dup1\n      0x40\n      mstore\n      pop\n      dup2\n      add\n      swap1\n      tag_258\n      swap2\n      swap1\n      tag_259\n      jump\t// in\n    tag_258:\n      0x01\n    tag_257:\n        /* \"@openzeppelin/contracts/token/ERC721/ERC721.sol\":12535:13054  try IERC721Receiver(to).onERC721Received(_msgSender(), from, tokenId, _data) returns (bytes4 retval) {... */\n      tag_260\n      jumpi\n      returndatasize\n      dup1\n      0x00\n      dup2\n      eq\n      tag_265\n      jumpi\n      mload(0x40)\n      swap2\n      pop\n      and(add(returndatasize, 0x3f), not(0x1f))\n      dup3\n      add\n      0x40\n      mstore\n      returndatasize\n      dup3\n      mstore\n      returndatasize\n      0x00\n      0x20\n      dup5\n      add\n      returndatacopy\n      jump(tag_264)\n    tag_265:\n      0x60\n      swap2\n      pop\n    tag_264:\n      pop\n        /* \"@openzeppelin/contracts/token/ERC721/ERC721.sol\":12795:12796  0 */\n      0x00\n        /* \"@openzeppelin/contracts/token/ERC721/ERC721.sol\":12778:12784  reason */\n      dup2\n        /* \"@openzeppelin/contracts/token/ERC721/ERC721.sol\":12778:12791  reason.length */\n      mload\n        /* \"@openzeppelin/contracts/token/ERC721/ERC721.sol\":12778:12796  reason.length == 0 */\n      eq\n        /* \"@openzeppelin/contracts/token/ERC721/ERC721.sol\":12774:13040  if (reason.length == 0) {... */\n      iszero\n      tag_266\n      jumpi\n        /* \"@openzeppelin/contracts/token/ERC721/ERC721.sol\":12820:12880  revert(\"ERC721: transfer to non ERC721Receiver implementer\") */\n      mload(0x40)\n      0x08c379a000000000000000000000000000000000000000000000000000000000\n      dup2\n      mstore\n      0x04\n      add\n      tag_267\n      swap1\n      tag_224\n      jump\t// in\n    tag_267:\n      mload(0x40)\n      dup1\n      swap2\n      sub\n      swap1\n      revert\n        /* \"@openzeppelin/contracts/token/ERC721/ERC721.sol\":12774:13040  if (reason.length == 0) {... */\n    tag_266:\n        /* \"@openzeppelin/contracts/token/ERC721/ERC721.sol\":12992:12998  reason */\n      dup1\n        /* \"@openzeppelin/contracts/token/ERC721/ERC721.sol\":12986:12999  mload(reason) */\n      mload\n        /* \"@openzeppelin/contracts/token/ERC721/ERC721.sol\":12977:12983  reason */\n      dup2\n        /* \"@openzeppelin/contracts/token/ERC721/ERC721.sol\":12973:12975  32 */\n      0x20\n        /* \"@openzeppelin/contracts/token/ERC721/ERC721.sol\":12969:12984  add(32, reason) */\n      add\n        /* \"@openzeppelin/contracts/token/ERC721/ERC721.sol\":12962:13000  revert(add(32, reason), mload(reason)) */\n      revert\n        /* \"@openzeppelin/contracts/token/ERC721/ERC721.sol\":12535:13054  try IERC721Receiver(to).onERC721Received(_msgSender(), from, tokenId, _data) returns (bytes4 retval) {... */\n    tag_260:\n        /* \"@openzeppelin/contracts/token/ERC721/ERC721.sol\":12671:12712  IERC721Receiver.onERC721Received.selector */\n      shl(0xe0, 0x150b7a02)\n        /* \"@openzeppelin/contracts/token/ERC721/ERC721.sol\":12661:12712  retval == IERC721Receiver.onERC721Received.selector */\n      not(0xffffffffffffffffffffffffffffffffffffffffffffffffffffffff)\n      and\n        /* \"@openzeppelin/contracts/token/ERC721/ERC721.sol\":12661:12667  retval */\n      dup2\n        /* \"@openzeppelin/contracts/token/ERC721/ERC721.sol\":12661:12712  retval == IERC721Receiver.onERC721Received.selector */\n      not(0xffffffffffffffffffffffffffffffffffffffffffffffffffffffff)\n      and\n      eq\n        /* \"@openzeppelin/contracts/token/ERC721/ERC721.sol\":12654:12712  return retval == IERC721Receiver.onERC721Received.selector */\n      swap2\n      pop\n      pop\n      jump(tag_249)\n        /* \"@openzeppelin/contracts/token/ERC721/ERC721.sol\":12500:13106  if (to.isContract()) {... */\n    tag_252:\n        /* \"@openzeppelin/contracts/token/ERC721/ERC721.sol\":13091:13095  true */\n      0x01\n        /* \"@openzeppelin/contracts/token/ERC721/ERC721.sol\":13084:13095  return true */\n      swap1\n      pop\n        /* \"@openzeppelin/contracts/token/ERC721/ERC721.sol\":12334:13112  function _checkOnERC721Received(... */\n    tag_249:\n      swap5\n      swap4\n      pop\n      pop\n      pop\n      pop\n      jump\t// out\n        /* \"@openzeppelin/contracts/token/ERC721/ERC721.sol\":8445:8756  function _safeMint(... */\n    tag_246:\n        /* \"@openzeppelin/contracts/token/ERC721/ERC721.sol\":8570:8588  _mint(to, tokenId) */\n      tag_272\n        /* \"@openzeppelin/contracts/token/ERC721/ERC721.sol\":8576:8578  to */\n      dup4\n        /* \"@openzeppelin/contracts/token/ERC721/ERC721.sol\":8580:8587  tokenId */\n      dup4\n        /* \"@openzeppelin/contracts/token/ERC721/ERC721.sol\":8570:8575  _mint */\n      tag_273\n        /* \"@openzeppelin/contracts/token/ERC721/ERC721.sol\":8570:8588  _mint(to, tokenId) */\n      jump\t// in\n    tag_272:\n        /* \"@openzeppelin/contracts/token/ERC721/ERC721.sol\":8619:8673  _checkOnERC721Received(address(0), to, tokenId, _data) */\n      tag_274\n        /* \"@openzeppelin/contracts/token/ERC721/ERC721.sol\":8650:8651  0 */\n      0x00\n        /* \"@openzeppelin/contracts/token/ERC721/ERC721.sol\":8654:8656  to */\n      dup5\n        /* \"@openzeppelin/contracts/token/ERC721/ERC721.sol\":8658:8665  tokenId */\n      dup5\n        /* \"@openzeppelin/contracts/token/ERC721/ERC721.sol\":8667:8672  _data */\n      dup5\n        /* \"@openzeppelin/contracts/token/ERC721/ERC721.sol\":8619:8641  _checkOnERC721Received */\n      tag_221\n        /* \"@openzeppelin/contracts/token/ERC721/ERC721.sol\":8619:8673  _checkOnERC721Received(address(0), to, tokenId, _data) */\n      jump\t// in\n    tag_274:\n        /* \"@openzeppelin/contracts/token/ERC721/ERC721.sol\":8598:8749  require(... */\n      tag_275\n      jumpi\n      mload(0x40)\n      0x08c379a000000000000000000000000000000000000000000000000000000000\n      dup2\n      mstore\n      0x04\n      add\n      tag_276\n      swap1\n      tag_224\n      jump\t// in\n    tag_276:\n      mload(0x40)\n      dup1\n      swap2\n      sub\n      swap1\n      revert\n    tag_275:\n        /* \"@openzeppelin/contracts/token/ERC721/ERC721.sol\":8445:8756  function _safeMint(... */\n      pop\n      pop\n      pop\n      jump\t// out\n        /* \"@openzeppelin/contracts/utils/Address.sol\":1175:1495  function isContract(address account) internal view returns (bool) {... */\n    tag_251:\n        /* \"@openzeppelin/contracts/utils/Address.sol\":1235:1239  bool */\n      0x00\n        /* \"@openzeppelin/contracts/utils/Address.sol\":1487:1488  0 */\n      dup1\n        /* \"@openzeppelin/contracts/utils/Address.sol\":1465:1472  account */\n      dup3\n        /* \"@openzeppelin/contracts/utils/Address.sol\":1465:1484  account.code.length */\n      0xffffffffffffffffffffffffffffffffffffffff\n      and\n      extcodesize\n        /* \"@openzeppelin/contracts/utils/Address.sol\":1465:1488  account.code.length > 0 */\n      gt\n        /* \"@openzeppelin/contracts/utils/Address.sol\":1458:1488  return account.code.length > 0 */\n      swap1\n      pop\n        /* \"@openzeppelin/contracts/utils/Address.sol\":1175:1495  function isContract(address account) internal view returns (bool) {... */\n      swap2\n      swap1\n      pop\n      jump\t// out\n        /* \"@openzeppelin/contracts/token/ERC721/ERC721.sol\":9078:9505  function _mint(address to, uint256 tokenId) internal virtual {... */\n    tag_273:\n        /* \"@openzeppelin/contracts/token/ERC721/ERC721.sol\":9171:9172  0 */\n      0x00\n        /* \"@openzeppelin/contracts/token/ERC721/ERC721.sol\":9157:9173  to != address(0) */\n      0xffffffffffffffffffffffffffffffffffffffff\n      and\n        /* \"@openzeppelin/contracts/token/ERC721/ERC721.sol\":9157:9159  to */\n      dup3\n        /* \"@openzeppelin/contracts/token/ERC721/ERC721.sol\":9157:9173  to != address(0) */\n      0xffffffffffffffffffffffffffffffffffffffff\n      and\n      eq\n      iszero\n        /* \"@openzeppelin/contracts/token/ERC721/ERC721.sol\":9149:9210  require(to != address(0), \"ERC721: mint to the zero address\") */\n      tag_279\n      jumpi\n      mload(0x40)\n      0x08c379a000000000000000000000000000000000000000000000000000000000\n      dup2\n      mstore\n      0x04\n      add\n      tag_280\n      swap1\n      tag_281\n      jump\t// in\n    tag_280:\n      mload(0x40)\n      dup1\n      swap2\n      sub\n      swap1\n      revert\n    tag_279:\n        /* \"@openzeppelin/contracts/token/ERC721/ERC721.sol\":9229:9245  _exists(tokenId) */\n      tag_282\n        /* \"@openzeppelin/contracts/token/ERC721/ERC721.sol\":9237:9244  tokenId */\n      dup2\n        /* \"@openzeppelin/contracts/token/ERC721/ERC721.sol\":9229:9236  _exists */\n      tag_101\n        /* \"@openzeppelin/contracts/token/ERC721/ERC721.sol\":9229:9245  _exists(tokenId) */\n      jump\t// in\n    tag_282:\n        /* \"@openzeppelin/contracts/token/ERC721/ERC721.sol\":9228:9245  !_exists(tokenId) */\n      iszero\n        /* \"@openzeppelin/contracts/token/ERC721/ERC721.sol\":9220:9278  require(!_exists(tokenId), \"ERC721: token already minted\") */\n      tag_283\n      jumpi\n      mload(0x40)\n      0x08c379a000000000000000000000000000000000000000000000000000000000\n      dup2\n      mstore\n      0x04\n      add\n      tag_284\n      swap1\n      tag_285\n      jump\t// in\n    tag_284:\n      mload(0x40)\n      dup1\n      swap2\n      sub\n      swap1\n      revert\n    tag_283:\n        /* \"@openzeppelin/contracts/token/ERC721/ERC721.sol\":9289:9334  _beforeTokenTransfer(address(0), to, tokenId) */\n      tag_286\n        /* \"@openzeppelin/contracts/token/ERC721/ERC721.sol\":9318:9319  0 */\n      0x00\n        /* \"@openzeppelin/contracts/token/ERC721/ERC721.sol\":9322:9324  to */\n      dup4\n        /* \"@openzeppelin/contracts/token/ERC721/ERC721.sol\":9326:9333  tokenId */\n      dup4\n        /* \"@openzeppelin/contracts/token/ERC721/ERC721.sol\":9289:9309  _beforeTokenTransfer */\n      tag_206\n        /* \"@openzeppelin/contracts/token/ERC721/ERC721.sol\":9289:9334  _beforeTokenTransfer(address(0), to, tokenId) */\n      jump\t// in\n    tag_286:\n        /* \"@openzeppelin/contracts/token/ERC721/ERC721.sol\":9362:9363  1 */\n      0x01\n        /* \"@openzeppelin/contracts/token/ERC721/ERC721.sol\":9345:9354  _balances */\n      0x03\n        /* \"@openzeppelin/contracts/token/ERC721/ERC721.sol\":9345:9358  _balances[to] */\n      0x00\n        /* \"@openzeppelin/contracts/token/ERC721/ERC721.sol\":9355:9357  to */\n      dup5\n        /* \"@openzeppelin/contracts/token/ERC721/ERC721.sol\":9345:9358  _balances[to] */\n      0xffffffffffffffffffffffffffffffffffffffff\n      and\n      0xffffffffffffffffffffffffffffffffffffffff\n      and\n      dup2\n      mstore\n      0x20\n      add\n      swap1\n      dup2\n      mstore\n      0x20\n      add\n      0x00\n      keccak256\n      0x00\n        /* \"@openzeppelin/contracts/token/ERC721/ERC721.sol\":9345:9363  _balances[to] += 1 */\n      dup3\n      dup3\n      sload\n      tag_287\n      swap2\n      swap1\n      tag_210\n      jump\t// in\n    tag_287:\n      swap3\n      pop\n      pop\n      dup2\n      swap1\n      sstore\n      pop\n        /* \"@openzeppelin/contracts/token/ERC721/ERC721.sol\":9392:9394  to */\n      dup2\n        /* \"@openzeppelin/contracts/token/ERC721/ERC721.sol\":9373:9380  _owners */\n      0x02\n        /* \"@openzeppelin/contracts/token/ERC721/ERC721.sol\":9373:9389  _owners[tokenId] */\n      0x00\n        /* \"@openzeppelin/contracts/token/ERC721/ERC721.sol\":9381:9388  tokenId */\n      dup4\n        /* \"@openzeppelin/contracts/token/ERC721/ERC721.sol\":9373:9389  _owners[tokenId] */\n      dup2\n      mstore\n      0x20\n      add\n      swap1\n      dup2\n      mstore\n      0x20\n      add\n      0x00\n      keccak256\n      0x00\n        /* \"@openzeppelin/contracts/token/ERC721/ERC721.sol\":9373:9394  _owners[tokenId] = to */\n      0x0100\n      exp\n      dup2\n      sload\n      dup2\n      0xffffffffffffffffffffffffffffffffffffffff\n      mul\n      not\n      and\n      swap1\n      dup4\n      0xffffffffffffffffffffffffffffffffffffffff\n      and\n      mul\n      or\n      swap1\n      sstore\n      pop\n        /* \"@openzeppelin/contracts/token/ERC721/ERC721.sol\":9435:9442  tokenId */\n      dup1\n        /* \"@openzeppelin/contracts/token/ERC721/ERC721.sol\":9431:9433  to */\n      dup3\n        /* \"@openzeppelin/contracts/token/ERC721/ERC721.sol\":9410:9443  Transfer(address(0), to, tokenId) */\n      0xffffffffffffffffffffffffffffffffffffffff\n      and\n        /* \"@openzeppelin/contracts/token/ERC721/ERC721.sol\":9427:9428  0 */\n      0x00\n        /* \"@openzeppelin/contracts/token/ERC721/ERC721.sol\":9410:9443  Transfer(address(0), to, tokenId) */\n      0xffffffffffffffffffffffffffffffffffffffff\n      and\n      0xddf252ad1be2c89b69c2b068fc378daa952ba7f163c4a11628f55a4df523b3ef\n      mload(0x40)\n      mload(0x40)\n      dup1\n      swap2\n      sub\n      swap1\n      log4\n        /* \"@openzeppelin/contracts/token/ERC721/ERC721.sol\":9454:9498  _afterTokenTransfer(address(0), to, tokenId) */\n      tag_288\n        /* \"@openzeppelin/contracts/token/ERC721/ERC721.sol\":9482:9483  0 */\n      0x00\n        /* \"@openzeppelin/contracts/token/ERC721/ERC721.sol\":9486:9488  to */\n      dup4\n        /* \"@openzeppelin/contracts/token/ERC721/ERC721.sol\":9490:9497  tokenId */\n      dup4\n        /* \"@openzeppelin/contracts/token/ERC721/ERC721.sol\":9454:9473  _afterTokenTransfer */\n      tag_212\n        /* \"@openzeppelin/contracts/token/ERC721/ERC721.sol\":9454:9498  _afterTokenTransfer(address(0), to, tokenId) */\n      jump\t// in\n    tag_288:\n        /* \"@openzeppelin/contracts/token/ERC721/ERC721.sol\":9078:9505  function _mint(address to, uint256 tokenId) internal virtual {... */\n      pop\n      pop\n      jump\t// out\n    tag_174:\n      dup3\n      dup1\n      sload\n      tag_289\n      swap1\n      tag_94\n      jump\t// in\n    tag_289:\n      swap1\n      0x00\n      mstore\n      keccak256(0x00, 0x20)\n      swap1\n      0x1f\n      add\n      0x20\n      swap1\n      div\n      dup2\n      add\n      swap3\n      dup3\n      tag_291\n      jumpi\n      0x00\n      dup6\n      sstore\n      jump(tag_290)\n    tag_291:\n      dup3\n      0x1f\n      lt\n      tag_292\n      jumpi\n      dup1\n      mload\n      not(0xff)\n      and\n      dup4\n      dup1\n      add\n      or\n      dup6\n      sstore\n      jump(tag_290)\n    tag_292:\n      dup3\n      dup1\n      add\n      0x01\n      add\n      dup6\n      sstore\n      dup3\n      iszero\n      tag_290\n      jumpi\n      swap2\n      dup3\n      add\n    tag_293:\n      dup3\n      dup2\n      gt\n      iszero\n      tag_294\n      jumpi\n      dup3\n      mload\n      dup3\n      sstore\n      swap2\n      0x20\n      add\n      swap2\n      swap1\n      0x01\n      add\n      swap1\n      jump(tag_293)\n    tag_294:\n    tag_290:\n      pop\n      swap1\n      pop\n      tag_295\n      swap2\n      swap1\n      tag_296\n      jump\t// in\n    tag_295:\n      pop\n      swap1\n      jump\t// out\n    tag_296:\n    tag_297:\n      dup1\n      dup3\n      gt\n      iszero\n      tag_298\n      jumpi\n      0x00\n      dup2\n      0x00\n      swap1\n      sstore\n      pop\n      0x01\n      add\n      jump(tag_297)\n    tag_298:\n      pop\n      swap1\n      jump\t// out\n        /* \"#utility.yul\":7:350   */\n    tag_300:\n      0x00\n        /* \"#utility.yul\":109:174   */\n      tag_302\n        /* \"#utility.yul\":125:173   */\n      tag_303\n        /* \"#utility.yul\":166:172   */\n      dup5\n        /* \"#utility.yul\":125:173   */\n      tag_304\n      jump\t// in\n    tag_303:\n        /* \"#utility.yul\":109:174   */\n      tag_305\n      jump\t// in\n    tag_302:\n        /* \"#utility.yul\":100:174   */\n      swap1\n      pop\n        /* \"#utility.yul\":197:203   */\n      dup3\n        /* \"#utility.yul\":190:195   */\n      dup2\n        /* \"#utility.yul\":183:204   */\n      mstore\n        /* \"#utility.yul\":235:239   */\n      0x20\n        /* \"#utility.yul\":228:233   */\n      dup2\n        /* \"#utility.yul\":224:240   */\n      add\n        /* \"#utility.yul\":273:276   */\n      dup5\n        /* \"#utility.yul\":264:270   */\n      dup5\n        /* \"#utility.yul\":259:262   */\n      dup5\n        /* \"#utility.yul\":255:271   */\n      add\n        /* \"#utility.yul\":252:277   */\n      gt\n        /* \"#utility.yul\":249:251   */\n      iszero\n      tag_306\n      jumpi\n        /* \"#utility.yul\":290:291   */\n      0x00\n        /* \"#utility.yul\":287:288   */\n      dup1\n        /* \"#utility.yul\":280:292   */\n      revert\n        /* \"#utility.yul\":249:251   */\n    tag_306:\n        /* \"#utility.yul\":303:344   */\n      tag_307\n        /* \"#utility.yul\":337:343   */\n      dup5\n        /* \"#utility.yul\":332:335   */\n      dup3\n        /* \"#utility.yul\":327:330   */\n      dup6\n        /* \"#utility.yul\":303:344   */\n      tag_308\n      jump\t// in\n    tag_307:\n        /* \"#utility.yul\":90:350   */\n      pop\n      swap4\n      swap3\n      pop\n      pop\n      pop\n      jump\t// out\n        /* \"#utility.yul\":356:701   */\n    tag_309:\n      0x00\n        /* \"#utility.yul\":459:525   */\n      tag_311\n        /* \"#utility.yul\":475:524   */\n      tag_312\n        /* \"#utility.yul\":517:523   */\n      dup5\n        /* \"#utility.yul\":475:524   */\n      tag_313\n      jump\t// in\n    tag_312:\n        /* \"#utility.yul\":459:525   */\n      tag_305\n      jump\t// in\n    tag_311:\n        /* \"#utility.yul\":450:525   */\n      swap1\n      pop\n        /* \"#utility.yul\":548:554   */\n      dup3\n        /* \"#utility.yul\":541:546   */\n      dup2\n        /* \"#utility.yul\":534:555   */\n      mstore\n        /* \"#utility.yul\":586:590   */\n      0x20\n        /* \"#utility.yul\":579:584   */\n      dup2\n        /* \"#utility.yul\":575:591   */\n      add\n        /* \"#utility.yul\":624:627   */\n      dup5\n        /* \"#utility.yul\":615:621   */\n      dup5\n        /* \"#utility.yul\":610:613   */\n      dup5\n        /* \"#utility.yul\":606:622   */\n      add\n        /* \"#utility.yul\":603:628   */\n      gt\n        /* \"#utility.yul\":600:602   */\n      iszero\n      tag_314\n      jumpi\n        /* \"#utility.yul\":641:642   */\n      0x00\n        /* \"#utility.yul\":638:639   */\n      dup1\n        /* \"#utility.yul\":631:643   */\n      revert\n        /* \"#utility.yul\":600:602   */\n    tag_314:\n        /* \"#utility.yul\":654:695   */\n      tag_315\n        /* \"#utility.yul\":688:694   */\n      dup5\n        /* \"#utility.yul\":683:686   */\n      dup3\n        /* \"#utility.yul\":678:681   */\n      dup6\n        /* \"#utility.yul\":654:695   */\n      tag_308\n      jump\t// in\n    tag_315:\n        /* \"#utility.yul\":440:701   */\n      pop\n      swap4\n      swap3\n      pop\n      pop\n      pop\n      jump\t// out\n        /* \"#utility.yul\":707:846   */\n    tag_316:\n      0x00\n        /* \"#utility.yul\":791:797   */\n      dup2\n        /* \"#utility.yul\":778:798   */\n      calldataload\n        /* \"#utility.yul\":769:798   */\n      swap1\n      pop\n        /* \"#utility.yul\":807:840   */\n      tag_318\n        /* \"#utility.yul\":834:839   */\n      dup2\n        /* \"#utility.yul\":807:840   */\n      tag_319\n      jump\t// in\n    tag_318:\n        /* \"#utility.yul\":759:846   */\n      swap3\n      swap2\n      pop\n      pop\n      jump\t// out\n        /* \"#utility.yul\":852:985   */\n    tag_320:\n      0x00\n        /* \"#utility.yul\":933:939   */\n      dup2\n        /* \"#utility.yul\":920:940   */\n      calldataload\n        /* \"#utility.yul\":911:940   */\n      swap1\n      pop\n        /* \"#utility.yul\":949:979   */\n      tag_322\n        /* \"#utility.yul\":973:978   */\n      dup2\n        /* \"#utility.yul\":949:979   */\n      tag_323\n      jump\t// in\n    tag_322:\n        /* \"#utility.yul\":901:985   */\n      swap3\n      swap2\n      pop\n      pop\n      jump\t// out\n        /* \"#utility.yul\":991:1128   */\n    tag_324:\n      0x00\n        /* \"#utility.yul\":1074:1080   */\n      dup2\n        /* \"#utility.yul\":1061:1081   */\n      calldataload\n        /* \"#utility.yul\":1052:1081   */\n      swap1\n      pop\n        /* \"#utility.yul\":1090:1122   */\n      tag_326\n        /* \"#utility.yul\":1116:1121   */\n      dup2\n        /* \"#utility.yul\":1090:1122   */\n      tag_327\n      jump\t// in\n    tag_326:\n        /* \"#utility.yul\":1042:1128   */\n      swap3\n      swap2\n      pop\n      pop\n      jump\t// out\n        /* \"#utility.yul\":1134:1275   */\n    tag_328:\n      0x00\n        /* \"#utility.yul\":1221:1227   */\n      dup2\n        /* \"#utility.yul\":1215:1228   */\n      mload\n        /* \"#utility.yul\":1206:1228   */\n      swap1\n      pop\n        /* \"#utility.yul\":1237:1269   */\n      tag_330\n        /* \"#utility.yul\":1263:1268   */\n      dup2\n        /* \"#utility.yul\":1237:1269   */\n      tag_327\n      jump\t// in\n    tag_330:\n        /* \"#utility.yul\":1196:1275   */\n      swap3\n      swap2\n      pop\n      pop\n      jump\t// out\n        /* \"#utility.yul\":1294:1565   */\n    tag_331:\n      0x00\n        /* \"#utility.yul\":1398:1401   */\n      dup3\n        /* \"#utility.yul\":1391:1395   */\n      0x1f\n        /* \"#utility.yul\":1383:1389   */\n      dup4\n        /* \"#utility.yul\":1379:1396   */\n      add\n        /* \"#utility.yul\":1375:1402   */\n      slt\n        /* \"#utility.yul\":1365:1367   */\n      tag_333\n      jumpi\n        /* \"#utility.yul\":1416:1417   */\n      0x00\n        /* \"#utility.yul\":1413:1414   */\n      dup1\n        /* \"#utility.yul\":1406:1418   */\n      revert\n        /* \"#utility.yul\":1365:1367   */\n    tag_333:\n        /* \"#utility.yul\":1456:1462   */\n      dup2\n        /* \"#utility.yul\":1443:1463   */\n      calldataload\n        /* \"#utility.yul\":1481:1559   */\n      tag_334\n        /* \"#utility.yul\":1555:1558   */\n      dup5\n        /* \"#utility.yul\":1547:1553   */\n      dup3\n        /* \"#utility.yul\":1540:1544   */\n      0x20\n        /* \"#utility.yul\":1532:1538   */\n      dup7\n        /* \"#utility.yul\":1528:1545   */\n      add\n        /* \"#utility.yul\":1481:1559   */\n      tag_300\n      jump\t// in\n    tag_334:\n        /* \"#utility.yul\":1472:1559   */\n      swap2\n      pop\n        /* \"#utility.yul\":1355:1565   */\n      pop\n      swap3\n      swap2\n      pop\n      pop\n      jump\t// out\n        /* \"#utility.yul\":1585:1858   */\n    tag_335:\n      0x00\n        /* \"#utility.yul\":1690:1693   */\n      dup3\n        /* \"#utility.yul\":1683:1687   */\n      0x1f\n        /* \"#utility.yul\":1675:1681   */\n      dup4\n        /* \"#utility.yul\":1671:1688   */\n      add\n        /* \"#utility.yul\":1667:1694   */\n      slt\n        /* \"#utility.yul\":1657:1659   */\n      tag_337\n      jumpi\n        /* \"#utility.yul\":1708:1709   */\n      0x00\n        /* \"#utility.yul\":1705:1706   */\n      dup1\n        /* \"#utility.yul\":1698:1710   */\n      revert\n        /* \"#utility.yul\":1657:1659   */\n    tag_337:\n        /* \"#utility.yul\":1748:1754   */\n      dup2\n        /* \"#utility.yul\":1735:1755   */\n      calldataload\n        /* \"#utility.yul\":1773:1852   */\n      tag_338\n        /* \"#utility.yul\":1848:1851   */\n      dup5\n        /* \"#utility.yul\":1840:1846   */\n      dup3\n        /* \"#utility.yul\":1833:1837   */\n      0x20\n        /* \"#utility.yul\":1825:1831   */\n      dup7\n        /* \"#utility.yul\":1821:1838   */\n      add\n        /* \"#utility.yul\":1773:1852   */\n      tag_309\n      jump\t// in\n    tag_338:\n        /* \"#utility.yul\":1764:1852   */\n      swap2\n      pop\n        /* \"#utility.yul\":1647:1858   */\n      pop\n      swap3\n      swap2\n      pop\n      pop\n      jump\t// out\n        /* \"#utility.yul\":1864:2003   */\n    tag_339:\n      0x00\n        /* \"#utility.yul\":1948:1954   */\n      dup2\n        /* \"#utility.yul\":1935:1955   */\n      calldataload\n        /* \"#utility.yul\":1926:1955   */\n      swap1\n      pop\n        /* \"#utility.yul\":1964:1997   */\n      tag_341\n        /* \"#utility.yul\":1991:1996   */\n      dup2\n        /* \"#utility.yul\":1964:1997   */\n      tag_342\n      jump\t// in\n    tag_341:\n        /* \"#utility.yul\":1916:2003   */\n      swap3\n      swap2\n      pop\n      pop\n      jump\t// out\n        /* \"#utility.yul\":2009:2271   */\n    tag_54:\n      0x00\n        /* \"#utility.yul\":2117:2119   */\n      0x20\n        /* \"#utility.yul\":2105:2114   */\n      dup3\n        /* \"#utility.yul\":2096:2103   */\n      dup5\n        /* \"#utility.yul\":2092:2115   */\n      sub\n        /* \"#utility.yul\":2088:2120   */\n      slt\n        /* \"#utility.yul\":2085:2087   */\n      iszero\n      tag_344\n      jumpi\n        /* \"#utility.yul\":2133:2134   */\n      0x00\n        /* \"#utility.yul\":2130:2131   */\n      dup1\n        /* \"#utility.yul\":2123:2135   */\n      revert\n        /* \"#utility.yul\":2085:2087   */\n    tag_344:\n        /* \"#utility.yul\":2176:2177   */\n      0x00\n        /* \"#utility.yul\":2201:2254   */\n      tag_345\n        /* \"#utility.yul\":2246:2253   */\n      dup5\n        /* \"#utility.yul\":2237:2243   */\n      dup3\n        /* \"#utility.yul\":2226:2235   */\n      dup6\n        /* \"#utility.yul\":2222:2244   */\n      add\n        /* \"#utility.yul\":2201:2254   */\n      tag_316\n      jump\t// in\n    tag_345:\n        /* \"#utility.yul\":2191:2254   */\n      swap2\n      pop\n        /* \"#utility.yul\":2147:2264   */\n      pop\n        /* \"#utility.yul\":2075:2271   */\n      swap3\n      swap2\n      pop\n      pop\n      jump\t// out\n        /* \"#utility.yul\":2277:2684   */\n    tag_84:\n      0x00\n      dup1\n        /* \"#utility.yul\":2402:2404   */\n      0x40\n        /* \"#utility.yul\":2390:2399   */\n      dup4\n        /* \"#utility.yul\":2381:2388   */\n      dup6\n        /* \"#utility.yul\":2377:2400   */\n      sub\n        /* \"#utility.yul\":2373:2405   */\n      slt\n        /* \"#utility.yul\":2370:2372   */\n      iszero\n      tag_347\n      jumpi\n        /* \"#utility.yul\":2418:2419   */\n      0x00\n        /* \"#utility.yul\":2415:2416   */\n      dup1\n        /* \"#utility.yul\":2408:2420   */\n      revert\n        /* \"#utility.yul\":2370:2372   */\n    tag_347:\n        /* \"#utility.yul\":2461:2462   */\n      0x00\n        /* \"#utility.yul\":2486:2539   */\n      tag_348\n        /* \"#utility.yul\":2531:2538   */\n      dup6\n        /* \"#utility.yul\":2522:2528   */\n      dup3\n        /* \"#utility.yul\":2511:2520   */\n      dup7\n        /* \"#utility.yul\":2507:2529   */\n      add\n        /* \"#utility.yul\":2486:2539   */\n      tag_316\n      jump\t// in\n    tag_348:\n        /* \"#utility.yul\":2476:2539   */\n      swap3\n      pop\n        /* \"#utility.yul\":2432:2549   */\n      pop\n        /* \"#utility.yul\":2588:2590   */\n      0x20\n        /* \"#utility.yul\":2614:2667   */\n      tag_349\n        /* \"#utility.yul\":2659:2666   */\n      dup6\n        /* \"#utility.yul\":2650:2656   */\n      dup3\n        /* \"#utility.yul\":2639:2648   */\n      dup7\n        /* \"#utility.yul\":2635:2657   */\n      add\n        /* \"#utility.yul\":2614:2667   */\n      tag_316\n      jump\t// in\n    tag_349:\n        /* \"#utility.yul\":2604:2667   */\n      swap2\n      pop\n        /* \"#utility.yul\":2559:2677   */\n      pop\n        /* \"#utility.yul\":2360:2684   */\n      swap3\n      pop\n      swap3\n      swap1\n      pop\n      jump\t// out\n        /* \"#utility.yul\":2690:3242   */\n    tag_43:\n      0x00\n      dup1\n      0x00\n        /* \"#utility.yul\":2832:2834   */\n      0x60\n        /* \"#utility.yul\":2820:2829   */\n      dup5\n        /* \"#utility.yul\":2811:2818   */\n      dup7\n        /* \"#utility.yul\":2807:2830   */\n      sub\n        /* \"#utility.yul\":2803:2835   */\n      slt\n        /* \"#utility.yul\":2800:2802   */\n      iszero\n      tag_351\n      jumpi\n        /* \"#utility.yul\":2848:2849   */\n      0x00\n        /* \"#utility.yul\":2845:2846   */\n      dup1\n        /* \"#utility.yul\":2838:2850   */\n      revert\n        /* \"#utility.yul\":2800:2802   */\n    tag_351:\n        /* \"#utility.yul\":2891:2892   */\n      0x00\n        /* \"#utility.yul\":2916:2969   */\n      tag_352\n        /* \"#utility.yul\":2961:2968   */\n      dup7\n        /* \"#utility.yul\":2952:2958   */\n      dup3\n        /* \"#utility.yul\":2941:2950   */\n      dup8\n        /* \"#utility.yul\":2937:2959   */\n      add\n        /* \"#utility.yul\":2916:2969   */\n      tag_316\n      jump\t// in\n    tag_352:\n        /* \"#utility.yul\":2906:2969   */\n      swap4\n      pop\n        /* \"#utility.yul\":2862:2979   */\n      pop\n        /* \"#utility.yul\":3018:3020   */\n      0x20\n        /* \"#utility.yul\":3044:3097   */\n      tag_353\n        /* \"#utility.yul\":3089:3096   */\n      dup7\n        /* \"#utility.yul\":3080:3086   */\n      dup3\n        /* \"#utility.yul\":3069:3078   */\n      dup8\n        /* \"#utility.yul\":3065:3087   */\n      add\n        /* \"#utility.yul\":3044:3097   */\n      tag_316\n      jump\t// in\n    tag_353:\n        /* \"#utility.yul\":3034:3097   */\n      swap3\n      pop\n        /* \"#utility.yul\":2989:3107   */\n      pop\n        /* \"#utility.yul\":3146:3148   */\n      0x40\n        /* \"#utility.yul\":3172:3225   */\n      tag_354\n        /* \"#utility.yul\":3217:3224   */\n      dup7\n        /* \"#utility.yul\":3208:3214   */\n      dup3\n        /* \"#utility.yul\":3197:3206   */\n      dup8\n        /* \"#utility.yul\":3193:3215   */\n      add\n        /* \"#utility.yul\":3172:3225   */\n      tag_339\n      jump\t// in\n    tag_354:\n        /* \"#utility.yul\":3162:3225   */\n      swap2\n      pop\n        /* \"#utility.yul\":3117:3235   */\n      pop\n        /* \"#utility.yul\":2790:3242   */\n      swap3\n      pop\n      swap3\n      pop\n      swap3\n      jump\t// out\n        /* \"#utility.yul\":3248:4057   */\n    tag_67:\n      0x00\n      dup1\n      0x00\n      dup1\n        /* \"#utility.yul\":3416:3419   */\n      0x80\n        /* \"#utility.yul\":3404:3413   */\n      dup6\n        /* \"#utility.yul\":3395:3402   */\n      dup8\n        /* \"#utility.yul\":3391:3414   */\n      sub\n        /* \"#utility.yul\":3387:3420   */\n      slt\n        /* \"#utility.yul\":3384:3386   */\n      iszero\n      tag_356\n      jumpi\n        /* \"#utility.yul\":3433:3434   */\n      0x00\n        /* \"#utility.yul\":3430:3431   */\n      dup1\n        /* \"#utility.yul\":3423:3435   */\n      revert\n        /* \"#utility.yul\":3384:3386   */\n    tag_356:\n        /* \"#utility.yul\":3476:3477   */\n      0x00\n        /* \"#utility.yul\":3501:3554   */\n      tag_357\n        /* \"#utility.yul\":3546:3553   */\n      dup8\n        /* \"#utility.yul\":3537:3543   */\n      dup3\n        /* \"#utility.yul\":3526:3535   */\n      dup9\n        /* \"#utility.yul\":3522:3544   */\n      add\n        /* \"#utility.yul\":3501:3554   */\n      tag_316\n      jump\t// in\n    tag_357:\n        /* \"#utility.yul\":3491:3554   */\n      swap5\n      pop\n        /* \"#utility.yul\":3447:3564   */\n      pop\n        /* \"#utility.yul\":3603:3605   */\n      0x20\n        /* \"#utility.yul\":3629:3682   */\n      tag_358\n        /* \"#utility.yul\":3674:3681   */\n      dup8\n        /* \"#utility.yul\":3665:3671   */\n      dup3\n        /* \"#utility.yul\":3654:3663   */\n      dup9\n        /* \"#utility.yul\":3650:3672   */\n      add\n        /* \"#utility.yul\":3629:3682   */\n      tag_316\n      jump\t// in\n    tag_358:\n        /* \"#utility.yul\":3619:3682   */\n      swap4\n      pop\n        /* \"#utility.yul\":3574:3692   */\n      pop\n        /* \"#utility.yul\":3731:3733   */\n      0x40\n        /* \"#utility.yul\":3757:3810   */\n      tag_359\n        /* \"#utility.yul\":3802:3809   */\n      dup8\n        /* \"#utility.yul\":3793:3799   */\n      dup3\n        /* \"#utility.yul\":3782:3791   */\n      dup9\n        /* \"#utility.yul\":3778:3800   */\n      add\n        /* \"#utility.yul\":3757:3810   */\n      tag_339\n      jump\t// in\n    tag_359:\n        /* \"#utility.yul\":3747:3810   */\n      swap3\n      pop\n        /* \"#utility.yul\":3702:3820   */\n      pop\n        /* \"#utility.yul\":3887:3889   */\n      0x60\n        /* \"#utility.yul\":3876:3885   */\n      dup6\n        /* \"#utility.yul\":3872:3890   */\n      add\n        /* \"#utility.yul\":3859:3891   */\n      calldataload\n        /* \"#utility.yul\":3918:3936   */\n      0xffffffffffffffff\n        /* \"#utility.yul\":3910:3916   */\n      dup2\n        /* \"#utility.yul\":3907:3937   */\n      gt\n        /* \"#utility.yul\":3904:3906   */\n      iszero\n      tag_360\n      jumpi\n        /* \"#utility.yul\":3950:3951   */\n      0x00\n        /* \"#utility.yul\":3947:3948   */\n      dup1\n        /* \"#utility.yul\":3940:3952   */\n      revert\n        /* \"#utility.yul\":3904:3906   */\n    tag_360:\n        /* \"#utility.yul\":3978:4040   */\n      tag_361\n        /* \"#utility.yul\":4032:4039   */\n      dup8\n        /* \"#utility.yul\":4023:4029   */\n      dup3\n        /* \"#utility.yul\":4012:4021   */\n      dup9\n        /* \"#utility.yul\":4008:4030   */\n      add\n        /* \"#utility.yul\":3978:4040   */\n      tag_331\n      jump\t// in\n    tag_361:\n        /* \"#utility.yul\":3968:4040   */\n      swap2\n      pop\n        /* \"#utility.yul\":3830:4050   */\n      pop\n        /* \"#utility.yul\":3374:4057   */\n      swap3\n      swap6\n      swap2\n      swap5\n      pop\n      swap3\n      pop\n      jump\t// out\n        /* \"#utility.yul\":4063:4464   */\n    tag_63:\n      0x00\n      dup1\n        /* \"#utility.yul\":4185:4187   */\n      0x40\n        /* \"#utility.yul\":4173:4182   */\n      dup4\n        /* \"#utility.yul\":4164:4171   */\n      dup6\n        /* \"#utility.yul\":4160:4183   */\n      sub\n        /* \"#utility.yul\":4156:4188   */\n      slt\n        /* \"#utility.yul\":4153:4155   */\n      iszero\n      tag_363\n      jumpi\n        /* \"#utility.yul\":4201:4202   */\n      0x00\n        /* \"#utility.yul\":4198:4199   */\n      dup1\n        /* \"#utility.yul\":4191:4203   */\n      revert\n        /* \"#utility.yul\":4153:4155   */\n    tag_363:\n        /* \"#utility.yul\":4244:4245   */\n      0x00\n        /* \"#utility.yul\":4269:4322   */\n      tag_364\n        /* \"#utility.yul\":4314:4321   */\n      dup6\n        /* \"#utility.yul\":4305:4311   */\n      dup3\n        /* \"#utility.yul\":4294:4303   */\n      dup7\n        /* \"#utility.yul\":4290:4312   */\n      add\n        /* \"#utility.yul\":4269:4322   */\n      tag_316\n      jump\t// in\n    tag_364:\n        /* \"#utility.yul\":4259:4322   */\n      swap3\n      pop\n        /* \"#utility.yul\":4215:4332   */\n      pop\n        /* \"#utility.yul\":4371:4373   */\n      0x20\n        /* \"#utility.yul\":4397:4447   */\n      tag_365\n        /* \"#utility.yul\":4439:4446   */\n      dup6\n        /* \"#utility.yul\":4430:4436   */\n      dup3\n        /* \"#utility.yul\":4419:4428   */\n      dup7\n        /* \"#utility.yul\":4415:4437   */\n      add\n        /* \"#utility.yul\":4397:4447   */\n      tag_320\n      jump\t// in\n    tag_365:\n        /* \"#utility.yul\":4387:4447   */\n      swap2\n      pop\n        /* \"#utility.yul\":4342:4457   */\n      pop\n        /* \"#utility.yul\":4143:4464   */\n      swap3\n      pop\n      swap3\n      swap1\n      pop\n      jump\t// out\n        /* \"#utility.yul\":4470:4877   */\n    tag_39:\n      0x00\n      dup1\n        /* \"#utility.yul\":4595:4597   */\n      0x40\n        /* \"#utility.yul\":4583:4592   */\n      dup4\n        /* \"#utility.yul\":4574:4581   */\n      dup6\n        /* \"#utility.yul\":4570:4593   */\n      sub\n        /* \"#utility.yul\":4566:4598   */\n      slt\n        /* \"#utility.yul\":4563:4565   */\n      iszero\n      tag_367\n      jumpi\n        /* \"#utility.yul\":4611:4612   */\n      0x00\n        /* \"#utility.yul\":4608:4609   */\n      dup1\n        /* \"#utility.yul\":4601:4613   */\n      revert\n        /* \"#utility.yul\":4563:4565   */\n    tag_367:\n        /* \"#utility.yul\":4654:4655   */\n      0x00\n        /* \"#utility.yul\":4679:4732   */\n      tag_368\n        /* \"#utility.yul\":4724:4731   */\n      dup6\n        /* \"#utility.yul\":4715:4721   */\n      dup3\n        /* \"#utility.yul\":4704:4713   */\n      dup7\n        /* \"#utility.yul\":4700:4722   */\n      add\n        /* \"#utility.yul\":4679:4732   */\n      tag_316\n      jump\t// in\n    tag_368:\n        /* \"#utility.yul\":4669:4732   */\n      swap3\n      pop\n        /* \"#utility.yul\":4625:4742   */\n      pop\n        /* \"#utility.yul\":4781:4783   */\n      0x20\n        /* \"#utility.yul\":4807:4860   */\n      tag_369\n        /* \"#utility.yul\":4852:4859   */\n      dup6\n        /* \"#utility.yul\":4843:4849   */\n      dup3\n        /* \"#utility.yul\":4832:4841   */\n      dup7\n        /* \"#utility.yul\":4828:4850   */\n      add\n        /* \"#utility.yul\":4807:4860   */\n      tag_339\n      jump\t// in\n    tag_369:\n        /* \"#utility.yul\":4797:4860   */\n      swap2\n      pop\n        /* \"#utility.yul\":4752:4870   */\n      pop\n        /* \"#utility.yul\":4553:4877   */\n      swap3\n      pop\n      swap3\n      swap1\n      pop\n      jump\t// out\n        /* \"#utility.yul\":4883:5143   */\n    tag_23:\n      0x00\n        /* \"#utility.yul\":4990:4992   */\n      0x20\n        /* \"#utility.yul\":4978:4987   */\n      dup3\n        /* \"#utility.yul\":4969:4976   */\n      dup5\n        /* \"#utility.yul\":4965:4988   */\n      sub\n        /* \"#utility.yul\":4961:4993   */\n      slt\n        /* \"#utility.yul\":4958:4960   */\n      iszero\n      tag_371\n      jumpi\n        /* \"#utility.yul\":5006:5007   */\n      0x00\n        /* \"#utility.yul\":5003:5004   */\n      dup1\n        /* \"#utility.yul\":4996:5008   */\n      revert\n        /* \"#utility.yul\":4958:4960   */\n    tag_371:\n        /* \"#utility.yul\":5049:5050   */\n      0x00\n        /* \"#utility.yul\":5074:5126   */\n      tag_372\n        /* \"#utility.yul\":5118:5125   */\n      dup5\n        /* \"#utility.yul\":5109:5115   */\n      dup3\n        /* \"#utility.yul\":5098:5107   */\n      dup6\n        /* \"#utility.yul\":5094:5116   */\n      add\n        /* \"#utility.yul\":5074:5126   */\n      tag_324\n      jump\t// in\n    tag_372:\n        /* \"#utility.yul\":5064:5126   */\n      swap2\n      pop\n        /* \"#utility.yul\":5020:5136   */\n      pop\n        /* \"#utility.yul\":4948:5143   */\n      swap3\n      swap2\n      pop\n      pop\n      jump\t// out\n        /* \"#utility.yul\":5149:5431   */\n    tag_259:\n      0x00\n        /* \"#utility.yul\":5267:5269   */\n      0x20\n        /* \"#utility.yul\":5255:5264   */\n      dup3\n        /* \"#utility.yul\":5246:5253   */\n      dup5\n        /* \"#utility.yul\":5242:5265   */\n      sub\n        /* \"#utility.yul\":5238:5270   */\n      slt\n        /* \"#utility.yul\":5235:5237   */\n      iszero\n      tag_374\n      jumpi\n        /* \"#utility.yul\":5283:5284   */\n      0x00\n        /* \"#utility.yul\":5280:5281   */\n      dup1\n        /* \"#utility.yul\":5273:5285   */\n      revert\n        /* \"#utility.yul\":5235:5237   */\n    tag_374:\n        /* \"#utility.yul\":5326:5327   */\n      0x00\n        /* \"#utility.yul\":5351:5414   */\n      tag_375\n        /* \"#utility.yul\":5406:5413   */\n      dup5\n        /* \"#utility.yul\":5397:5403   */\n      dup3\n        /* \"#utility.yul\":5386:5395   */\n      dup6\n        /* \"#utility.yul\":5382:5404   */\n      add\n        /* \"#utility.yul\":5351:5414   */\n      tag_328\n      jump\t// in\n    tag_375:\n        /* \"#utility.yul\":5341:5414   */\n      swap2\n      pop\n        /* \"#utility.yul\":5297:5424   */\n      pop\n        /* \"#utility.yul\":5225:5431   */\n      swap3\n      swap2\n      pop\n      pop\n      jump\t// out\n        /* \"#utility.yul\":5437:6070   */\n    tag_79:\n      0x00\n      dup1\n        /* \"#utility.yul\":5582:5584   */\n      0x40\n        /* \"#utility.yul\":5570:5579   */\n      dup4\n        /* \"#utility.yul\":5561:5568   */\n      dup6\n        /* \"#utility.yul\":5557:5580   */\n      sub\n        /* \"#utility.yul\":5553:5585   */\n      slt\n        /* \"#utility.yul\":5550:5552   */\n      iszero\n      tag_377\n      jumpi\n        /* \"#utility.yul\":5598:5599   */\n      0x00\n        /* \"#utility.yul\":5595:5596   */\n      dup1\n        /* \"#utility.yul\":5588:5600   */\n      revert\n        /* \"#utility.yul\":5550:5552   */\n    tag_377:\n        /* \"#utility.yul\":5669:5670   */\n      0x00\n        /* \"#utility.yul\":5658:5667   */\n      dup4\n        /* \"#utility.yul\":5654:5671   */\n      add\n        /* \"#utility.yul\":5641:5672   */\n      calldataload\n        /* \"#utility.yul\":5699:5717   */\n      0xffffffffffffffff\n        /* \"#utility.yul\":5691:5697   */\n      dup2\n        /* \"#utility.yul\":5688:5718   */\n      gt\n        /* \"#utility.yul\":5685:5687   */\n      iszero\n      tag_378\n      jumpi\n        /* \"#utility.yul\":5731:5732   */\n      0x00\n        /* \"#utility.yul\":5728:5729   */\n      dup1\n        /* \"#utility.yul\":5721:5733   */\n      revert\n        /* \"#utility.yul\":5685:5687   */\n    tag_378:\n        /* \"#utility.yul\":5759:5822   */\n      tag_379\n        /* \"#utility.yul\":5814:5821   */\n      dup6\n        /* \"#utility.yul\":5805:5811   */\n      dup3\n        /* \"#utility.yul\":5794:5803   */\n      dup7\n        /* \"#utility.yul\":5790:5812   */\n      add\n        /* \"#utility.yul\":5759:5822   */\n      tag_335\n      jump\t// in\n    tag_379:\n        /* \"#utility.yul\":5749:5822   */\n      swap3\n      pop\n        /* \"#utility.yul\":5612:5832   */\n      pop\n        /* \"#utility.yul\":5899:5901   */\n      0x20\n        /* \"#utility.yul\":5888:5897   */\n      dup4\n        /* \"#utility.yul\":5884:5902   */\n      add\n        /* \"#utility.yul\":5871:5903   */\n      calldataload\n        /* \"#utility.yul\":5930:5948   */\n      0xffffffffffffffff\n        /* \"#utility.yul\":5922:5928   */\n      dup2\n        /* \"#utility.yul\":5919:5949   */\n      gt\n        /* \"#utility.yul\":5916:5918   */\n      iszero\n      tag_380\n      jumpi\n        /* \"#utility.yul\":5962:5963   */\n      0x00\n        /* \"#utility.yul\":5959:5960   */\n      dup1\n        /* \"#utility.yul\":5952:5964   */\n      revert\n        /* \"#utility.yul\":5916:5918   */\n    tag_380:\n        /* \"#utility.yul\":5990:6053   */\n      tag_381\n        /* \"#utility.yul\":6045:6052   */\n      dup6\n        /* \"#utility.yul\":6036:6042   */\n      dup3\n        /* \"#utility.yul\":6025:6034   */\n      dup7\n        /* \"#utility.yul\":6021:6043   */\n      add\n        /* \"#utility.yul\":5990:6053   */\n      tag_335\n      jump\t// in\n    tag_381:\n        /* \"#utility.yul\":5980:6053   */\n      swap2\n      pop\n        /* \"#utility.yul\":5842:6063   */\n      pop\n        /* \"#utility.yul\":5540:6070   */\n      swap3\n      pop\n      swap3\n      swap1\n      pop\n      jump\t// out\n        /* \"#utility.yul\":6076:6338   */\n    tag_33:\n      0x00\n        /* \"#utility.yul\":6184:6186   */\n      0x20\n        /* \"#utility.yul\":6172:6181   */\n      dup3\n        /* \"#utility.yul\":6163:6170   */\n      dup5\n        /* \"#utility.yul\":6159:6182   */\n      sub\n        /* \"#utility.yul\":6155:6187   */\n      slt\n        /* \"#utility.yul\":6152:6154   */\n      iszero\n      tag_383\n      jumpi\n        /* \"#utility.yul\":6200:6201   */\n      0x00\n        /* \"#utility.yul\":6197:6198   */\n      dup1\n        /* \"#utility.yul\":6190:6202   */\n      revert\n        /* \"#utility.yul\":6152:6154   */\n    tag_383:\n        /* \"#utility.yul\":6243:6244   */\n      0x00\n        /* \"#utility.yul\":6268:6321   */\n      tag_384\n        /* \"#utility.yul\":6313:6320   */\n      dup5\n        /* \"#utility.yul\":6304:6310   */\n      dup3\n        /* \"#utility.yul\":6293:6302   */\n      dup6\n        /* \"#utility.yul\":6289:6311   */\n      add\n        /* \"#utility.yul\":6268:6321   */\n      tag_339\n      jump\t// in\n    tag_384:\n        /* \"#utility.yul\":6258:6321   */\n      swap2\n      pop\n        /* \"#utility.yul\":6214:6331   */\n      pop\n        /* \"#utility.yul\":6142:6338   */\n      swap3\n      swap2\n      pop\n      pop\n      jump\t// out\n        /* \"#utility.yul\":6344:6462   */\n    tag_385:\n        /* \"#utility.yul\":6431:6455   */\n      tag_387\n        /* \"#utility.yul\":6449:6454   */\n      dup2\n        /* \"#utility.yul\":6431:6455   */\n      tag_388\n      jump\t// in\n    tag_387:\n        /* \"#utility.yul\":6426:6429   */\n      dup3\n        /* \"#utility.yul\":6419:6456   */\n      mstore\n        /* \"#utility.yul\":6409:6462   */\n      pop\n      pop\n      jump\t// out\n        /* \"#utility.yul\":6468:6577   */\n    tag_389:\n        /* \"#utility.yul\":6549:6570   */\n      tag_391\n        /* \"#utility.yul\":6564:6569   */\n      dup2\n        /* \"#utility.yul\":6549:6570   */\n      tag_392\n      jump\t// in\n    tag_391:\n        /* \"#utility.yul\":6544:6547   */\n      dup3\n        /* \"#utility.yul\":6537:6571   */\n      mstore\n        /* \"#utility.yul\":6527:6577   */\n      pop\n      pop\n      jump\t// out\n        /* \"#utility.yul\":6583:6943   */\n    tag_393:\n      0x00\n        /* \"#utility.yul\":6697:6735   */\n      tag_395\n        /* \"#utility.yul\":6729:6734   */\n      dup3\n        /* \"#utility.yul\":6697:6735   */\n      tag_396\n      jump\t// in\n    tag_395:\n        /* \"#utility.yul\":6751:6821   */\n      tag_397\n        /* \"#utility.yul\":6814:6820   */\n      dup2\n        /* \"#utility.yul\":6809:6812   */\n      dup6\n        /* \"#utility.yul\":6751:6821   */\n      tag_398\n      jump\t// in\n    tag_397:\n        /* \"#utility.yul\":6744:6821   */\n      swap4\n      pop\n        /* \"#utility.yul\":6830:6882   */\n      tag_399\n        /* \"#utility.yul\":6875:6881   */\n      dup2\n        /* \"#utility.yul\":6870:6873   */\n      dup6\n        /* \"#utility.yul\":6863:6867   */\n      0x20\n        /* \"#utility.yul\":6856:6861   */\n      dup7\n        /* \"#utility.yul\":6852:6868   */\n      add\n        /* \"#utility.yul\":6830:6882   */\n      tag_400\n      jump\t// in\n    tag_399:\n        /* \"#utility.yul\":6907:6936   */\n      tag_401\n        /* \"#utility.yul\":6929:6935   */\n      dup2\n        /* \"#utility.yul\":6907:6936   */\n      tag_402\n      jump\t// in\n    tag_401:\n        /* \"#utility.yul\":6902:6905   */\n      dup5\n        /* \"#utility.yul\":6898:6937   */\n      add\n        /* \"#utility.yul\":6891:6937   */\n      swap2\n      pop\n        /* \"#utility.yul\":6673:6943   */\n      pop\n      swap3\n      swap2\n      pop\n      pop\n      jump\t// out\n        /* \"#utility.yul\":6949:7313   */\n    tag_403:\n      0x00\n        /* \"#utility.yul\":7065:7104   */\n      tag_405\n        /* \"#utility.yul\":7098:7103   */\n      dup3\n        /* \"#utility.yul\":7065:7104   */\n      tag_406\n      jump\t// in\n    tag_405:\n        /* \"#utility.yul\":7120:7191   */\n      tag_407\n        /* \"#utility.yul\":7184:7190   */\n      dup2\n        /* \"#utility.yul\":7179:7182   */\n      dup6\n        /* \"#utility.yul\":7120:7191   */\n      tag_408\n      jump\t// in\n    tag_407:\n        /* \"#utility.yul\":7113:7191   */\n      swap4\n      pop\n        /* \"#utility.yul\":7200:7252   */\n      tag_409\n        /* \"#utility.yul\":7245:7251   */\n      dup2\n        /* \"#utility.yul\":7240:7243   */\n      dup6\n        /* \"#utility.yul\":7233:7237   */\n      0x20\n        /* \"#utility.yul\":7226:7231   */\n      dup7\n        /* \"#utility.yul\":7222:7238   */\n      add\n        /* \"#utility.yul\":7200:7252   */\n      tag_400\n      jump\t// in\n    tag_409:\n        /* \"#utility.yul\":7277:7306   */\n      tag_410\n        /* \"#utility.yul\":7299:7305   */\n      dup2\n        /* \"#utility.yul\":7277:7306   */\n      tag_402\n      jump\t// in\n    tag_410:\n        /* \"#utility.yul\":7272:7275   */\n      dup5\n        /* \"#utility.yul\":7268:7307   */\n      add\n        /* \"#utility.yul\":7261:7307   */\n      swap2\n      pop\n        /* \"#utility.yul\":7041:7313   */\n      pop\n      swap3\n      swap2\n      pop\n      pop\n      jump\t// out\n        /* \"#utility.yul\":7319:7696   */\n    tag_411:\n      0x00\n        /* \"#utility.yul\":7453:7492   */\n      tag_413\n        /* \"#utility.yul\":7486:7491   */\n      dup3\n        /* \"#utility.yul\":7453:7492   */\n      tag_406\n      jump\t// in\n    tag_413:\n        /* \"#utility.yul\":7508:7597   */\n      tag_414\n        /* \"#utility.yul\":7590:7596   */\n      dup2\n        /* \"#utility.yul\":7585:7588   */\n      dup6\n        /* \"#utility.yul\":7508:7597   */\n      tag_415\n      jump\t// in\n    tag_414:\n        /* \"#utility.yul\":7501:7597   */\n      swap4\n      pop\n        /* \"#utility.yul\":7606:7658   */\n      tag_416\n        /* \"#utility.yul\":7651:7657   */\n      dup2\n        /* \"#utility.yul\":7646:7649   */\n      dup6\n        /* \"#utility.yul\":7639:7643   */\n      0x20\n        /* \"#utility.yul\":7632:7637   */\n      dup7\n        /* \"#utility.yul\":7628:7644   */\n      add\n        /* \"#utility.yul\":7606:7658   */\n      tag_400\n      jump\t// in\n    tag_416:\n        /* \"#utility.yul\":7683:7689   */\n      dup1\n        /* \"#utility.yul\":7678:7681   */\n      dup5\n        /* \"#utility.yul\":7674:7690   */\n      add\n        /* \"#utility.yul\":7667:7690   */\n      swap2\n      pop\n        /* \"#utility.yul\":7429:7696   */\n      pop\n      swap3\n      swap2\n      pop\n      pop\n      jump\t// out\n        /* \"#utility.yul\":7702:8068   */\n    tag_417:\n      0x00\n        /* \"#utility.yul\":7865:7932   */\n      tag_419\n        /* \"#utility.yul\":7929:7931   */\n      0x32\n        /* \"#utility.yul\":7924:7927   */\n      dup4\n        /* \"#utility.yul\":7865:7932   */\n      tag_408\n      jump\t// in\n    tag_419:\n        /* \"#utility.yul\":7858:7932   */\n      swap2\n      pop\n        /* \"#utility.yul\":7941:8034   */\n      tag_420\n        /* \"#utility.yul\":8030:8033   */\n      dup3\n        /* \"#utility.yul\":7941:8034   */\n      tag_421\n      jump\t// in\n    tag_420:\n        /* \"#utility.yul\":8059:8061   */\n      0x40\n        /* \"#utility.yul\":8054:8057   */\n      dup3\n        /* \"#utility.yul\":8050:8062   */\n      add\n        /* \"#utility.yul\":8043:8062   */\n      swap1\n      pop\n        /* \"#utility.yul\":7848:8068   */\n      swap2\n      swap1\n      pop\n      jump\t// out\n        /* \"#utility.yul\":8074:8440   */\n    tag_422:\n      0x00\n        /* \"#utility.yul\":8237:8304   */\n      tag_424\n        /* \"#utility.yul\":8301:8303   */\n      0x25\n        /* \"#utility.yul\":8296:8299   */\n      dup4\n        /* \"#utility.yul\":8237:8304   */\n      tag_408\n      jump\t// in\n    tag_424:\n        /* \"#utility.yul\":8230:8304   */\n      swap2\n      pop\n        /* \"#utility.yul\":8313:8406   */\n      tag_425\n        /* \"#utility.yul\":8402:8405   */\n      dup3\n        /* \"#utility.yul\":8313:8406   */\n      tag_426\n      jump\t// in\n    tag_425:\n        /* \"#utility.yul\":8431:8433   */\n      0x40\n        /* \"#utility.yul\":8426:8429   */\n      dup3\n        /* \"#utility.yul\":8422:8434   */\n      add\n        /* \"#utility.yul\":8415:8434   */\n      swap1\n      pop\n        /* \"#utility.yul\":8220:8440   */\n      swap2\n      swap1\n      pop\n      jump\t// out\n        /* \"#utility.yul\":8446:8812   */\n    tag_427:\n      0x00\n        /* \"#utility.yul\":8609:8676   */\n      tag_429\n        /* \"#utility.yul\":8673:8675   */\n      0x1c\n        /* \"#utility.yul\":8668:8671   */\n      dup4\n        /* \"#utility.yul\":8609:8676   */\n      tag_408\n      jump\t// in\n    tag_429:\n        /* \"#utility.yul\":8602:8676   */\n      swap2\n      pop\n        /* \"#utility.yul\":8685:8778   */\n      tag_430\n        /* \"#utility.yul\":8774:8777   */\n      dup3\n        /* \"#utility.yul\":8685:8778   */\n      tag_431\n      jump\t// in\n    tag_430:\n        /* \"#utility.yul\":8803:8805   */\n      0x20\n        /* \"#utility.yul\":8798:8801   */\n      dup3\n        /* \"#utility.yul\":8794:8806   */\n      add\n        /* \"#utility.yul\":8787:8806   */\n      swap1\n      pop\n        /* \"#utility.yul\":8592:8812   */\n      swap2\n      swap1\n      pop\n      jump\t// out\n        /* \"#utility.yul\":8818:9184   */\n    tag_432:\n      0x00\n        /* \"#utility.yul\":8981:9048   */\n      tag_434\n        /* \"#utility.yul\":9045:9047   */\n      0x24\n        /* \"#utility.yul\":9040:9043   */\n      dup4\n        /* \"#utility.yul\":8981:9048   */\n      tag_408\n      jump\t// in\n    tag_434:\n        /* \"#utility.yul\":8974:9048   */\n      swap2\n      pop\n        /* \"#utility.yul\":9057:9150   */\n      tag_435\n        /* \"#utility.yul\":9146:9149   */\n      dup3\n        /* \"#utility.yul\":9057:9150   */\n      tag_436\n      jump\t// in\n    tag_435:\n        /* \"#utility.yul\":9175:9177   */\n      0x40\n        /* \"#utility.yul\":9170:9173   */\n      dup3\n        /* \"#utility.yul\":9166:9178   */\n      add\n        /* \"#utility.yul\":9159:9178   */\n      swap1\n      pop\n        /* \"#utility.yul\":8964:9184   */\n      swap2\n      swap1\n      pop\n      jump\t// out\n        /* \"#utility.yul\":9190:9556   */\n    tag_437:\n      0x00\n        /* \"#utility.yul\":9353:9420   */\n      tag_439\n        /* \"#utility.yul\":9417:9419   */\n      0x19\n        /* \"#utility.yul\":9412:9415   */\n      dup4\n        /* \"#utility.yul\":9353:9420   */\n      tag_408\n      jump\t// in\n    tag_439:\n        /* \"#utility.yul\":9346:9420   */\n      swap2\n      pop\n        /* \"#utility.yul\":9429:9522   */\n      tag_440\n        /* \"#utility.yul\":9518:9521   */\n      dup3\n        /* \"#utility.yul\":9429:9522   */\n      tag_441\n      jump\t// in\n    tag_440:\n        /* \"#utility.yul\":9547:9549   */\n      0x20\n        /* \"#utility.yul\":9542:9545   */\n      dup3\n        /* \"#utility.yul\":9538:9550   */\n      add\n        /* \"#utility.yul\":9531:9550   */\n      swap1\n      pop\n        /* \"#utility.yul\":9336:9556   */\n      swap2\n      swap1\n      pop\n      jump\t// out\n        /* \"#utility.yul\":9562:9928   */\n    tag_442:\n      0x00\n        /* \"#utility.yul\":9725:9792   */\n      tag_444\n        /* \"#utility.yul\":9789:9791   */\n      0x2c\n        /* \"#utility.yul\":9784:9787   */\n      dup4\n        /* \"#utility.yul\":9725:9792   */\n      tag_408\n      jump\t// in\n    tag_444:\n        /* \"#utility.yul\":9718:9792   */\n      swap2\n      pop\n        /* \"#utility.yul\":9801:9894   */\n      tag_445\n        /* \"#utility.yul\":9890:9893   */\n      dup3\n        /* \"#utility.yul\":9801:9894   */\n      tag_446\n      jump\t// in\n    tag_445:\n        /* \"#utility.yul\":9919:9921   */\n      0x40\n        /* \"#utility.yul\":9914:9917   */\n      dup3\n        /* \"#utility.yul\":9910:9922   */\n      add\n        /* \"#utility.yul\":9903:9922   */\n      swap1\n      pop\n        /* \"#utility.yul\":9708:9928   */\n      swap2\n      swap1\n      pop\n      jump\t// out\n        /* \"#utility.yul\":9934:10300   */\n    tag_447:\n      0x00\n        /* \"#utility.yul\":10097:10164   */\n      tag_449\n        /* \"#utility.yul\":10161:10163   */\n      0x38\n        /* \"#utility.yul\":10156:10159   */\n      dup4\n        /* \"#utility.yul\":10097:10164   */\n      tag_408\n      jump\t// in\n    tag_449:\n        /* \"#utility.yul\":10090:10164   */\n      swap2\n      pop\n        /* \"#utility.yul\":10173:10266   */\n      tag_450\n        /* \"#utility.yul\":10262:10265   */\n      dup3\n        /* \"#utility.yul\":10173:10266   */\n      tag_451\n      jump\t// in\n    tag_450:\n        /* \"#utility.yul\":10291:10293   */\n      0x40\n        /* \"#utility.yul\":10286:10289   */\n      dup3\n        /* \"#utility.yul\":10282:10294   */\n      add\n        /* \"#utility.yul\":10275:10294   */\n      swap1\n      pop\n        /* \"#utility.yul\":10080:10300   */\n      swap2\n      swap1\n      pop\n      jump\t// out\n        /* \"#utility.yul\":10306:10672   */\n    tag_452:\n      0x00\n        /* \"#utility.yul\":10469:10536   */\n      tag_454\n        /* \"#utility.yul\":10533:10535   */\n      0x2a\n        /* \"#utility.yul\":10528:10531   */\n      dup4\n        /* \"#utility.yul\":10469:10536   */\n      tag_408\n      jump\t// in\n    tag_454:\n        /* \"#utility.yul\":10462:10536   */\n      swap2\n      pop\n        /* \"#utility.yul\":10545:10638   */\n      tag_455\n        /* \"#utility.yul\":10634:10637   */\n      dup3\n        /* \"#utility.yul\":10545:10638   */\n      tag_456\n      jump\t// in\n    tag_455:\n        /* \"#utility.yul\":10663:10665   */\n      0x40\n        /* \"#utility.yul\":10658:10661   */\n      dup3\n        /* \"#utility.yul\":10654:10666   */\n      add\n        /* \"#utility.yul\":10647:10666   */\n      swap1\n      pop\n        /* \"#utility.yul\":10452:10672   */\n      swap2\n      swap1\n      pop\n      jump\t// out\n        /* \"#utility.yul\":10678:11044   */\n    tag_457:\n      0x00\n        /* \"#utility.yul\":10841:10908   */\n      tag_459\n        /* \"#utility.yul\":10905:10907   */\n      0x29\n        /* \"#utility.yul\":10900:10903   */\n      dup4\n        /* \"#utility.yul\":10841:10908   */\n      tag_408\n      jump\t// in\n    tag_459:\n        /* \"#utility.yul\":10834:10908   */\n      swap2\n      pop\n        /* \"#utility.yul\":10917:11010   */\n      tag_460\n        /* \"#utility.yul\":11006:11009   */\n      dup3\n        /* \"#utility.yul\":10917:11010   */\n      tag_461\n      jump\t// in\n    tag_460:\n        /* \"#utility.yul\":11035:11037   */\n      0x40\n        /* \"#utility.yul\":11030:11033   */\n      dup3\n        /* \"#utility.yul\":11026:11038   */\n      add\n        /* \"#utility.yul\":11019:11038   */\n      swap1\n      pop\n        /* \"#utility.yul\":10824:11044   */\n      swap2\n      swap1\n      pop\n      jump\t// out\n        /* \"#utility.yul\":11050:11416   */\n    tag_462:\n      0x00\n        /* \"#utility.yul\":11213:11280   */\n      tag_464\n        /* \"#utility.yul\":11277:11279   */\n      0x20\n        /* \"#utility.yul\":11272:11275   */\n      dup4\n        /* \"#utility.yul\":11213:11280   */\n      tag_408\n      jump\t// in\n    tag_464:\n        /* \"#utility.yul\":11206:11280   */\n      swap2\n      pop\n        /* \"#utility.yul\":11289:11382   */\n      tag_465\n        /* \"#utility.yul\":11378:11381   */\n      dup3\n        /* \"#utility.yul\":11289:11382   */\n      tag_466\n      jump\t// in\n    tag_465:\n        /* \"#utility.yul\":11407:11409   */\n      0x20\n        /* \"#utility.yul\":11402:11405   */\n      dup3\n        /* \"#utility.yul\":11398:11410   */\n      add\n        /* \"#utility.yul\":11391:11410   */\n      swap1\n      pop\n        /* \"#utility.yul\":11196:11416   */\n      swap2\n      swap1\n      pop\n      jump\t// out\n        /* \"#utility.yul\":11422:11788   */\n    tag_467:\n      0x00\n        /* \"#utility.yul\":11585:11652   */\n      tag_469\n        /* \"#utility.yul\":11649:11651   */\n      0x2c\n        /* \"#utility.yul\":11644:11647   */\n      dup4\n        /* \"#utility.yul\":11585:11652   */\n      tag_408\n      jump\t// in\n    tag_469:\n        /* \"#utility.yul\":11578:11652   */\n      swap2\n      pop\n        /* \"#utility.yul\":11661:11754   */\n      tag_470\n        /* \"#utility.yul\":11750:11753   */\n      dup3\n        /* \"#utility.yul\":11661:11754   */\n      tag_471\n      jump\t// in\n    tag_470:\n        /* \"#utility.yul\":11779:11781   */\n      0x40\n        /* \"#utility.yul\":11774:11777   */\n      dup3\n        /* \"#utility.yul\":11770:11782   */\n      add\n        /* \"#utility.yul\":11763:11782   */\n      swap1\n      pop\n        /* \"#utility.yul\":11568:11788   */\n      swap2\n      swap1\n      pop\n      jump\t// out\n        /* \"#utility.yul\":11794:12160   */\n    tag_472:\n      0x00\n        /* \"#utility.yul\":11957:12024   */\n      tag_474\n        /* \"#utility.yul\":12021:12023   */\n      0x2f\n        /* \"#utility.yul\":12016:12019   */\n      dup4\n        /* \"#utility.yul\":11957:12024   */\n      tag_408\n      jump\t// in\n    tag_474:\n        /* \"#utility.yul\":11950:12024   */\n      swap2\n      pop\n        /* \"#utility.yul\":12033:12126   */\n      tag_475\n        /* \"#utility.yul\":12122:12125   */\n      dup3\n        /* \"#utility.yul\":12033:12126   */\n      tag_476\n      jump\t// in\n    tag_475:\n        /* \"#utility.yul\":12151:12153   */\n      0x40\n        /* \"#utility.yul\":12146:12149   */\n      dup3\n        /* \"#utility.yul\":12142:12154   */\n      add\n        /* \"#utility.yul\":12135:12154   */\n      swap1\n      pop\n        /* \"#utility.yul\":11940:12160   */\n      swap2\n      swap1\n      pop\n      jump\t// out\n        /* \"#utility.yul\":12166:12532   */\n    tag_477:\n      0x00\n        /* \"#utility.yul\":12329:12396   */\n      tag_479\n        /* \"#utility.yul\":12393:12395   */\n      0x21\n        /* \"#utility.yul\":12388:12391   */\n      dup4\n        /* \"#utility.yul\":12329:12396   */\n      tag_408\n      jump\t// in\n    tag_479:\n        /* \"#utility.yul\":12322:12396   */\n      swap2\n      pop\n        /* \"#utility.yul\":12405:12498   */\n      tag_480\n        /* \"#utility.yul\":12494:12497   */\n      dup3\n        /* \"#utility.yul\":12405:12498   */\n      tag_481\n      jump\t// in\n    tag_480:\n        /* \"#utility.yul\":12523:12525   */\n      0x40\n        /* \"#utility.yul\":12518:12521   */\n      dup3\n        /* \"#utility.yul\":12514:12526   */\n      add\n        /* \"#utility.yul\":12507:12526   */\n      swap1\n      pop\n        /* \"#utility.yul\":12312:12532   */\n      swap2\n      swap1\n      pop\n      jump\t// out\n        /* \"#utility.yul\":12538:12904   */\n    tag_482:\n      0x00\n        /* \"#utility.yul\":12701:12768   */\n      tag_484\n        /* \"#utility.yul\":12765:12767   */\n      0x31\n        /* \"#utility.yul\":12760:12763   */\n      dup4\n        /* \"#utility.yul\":12701:12768   */\n      tag_408\n      jump\t// in\n    tag_484:\n        /* \"#utility.yul\":12694:12768   */\n      swap2\n      pop\n        /* \"#utility.yul\":12777:12870   */\n      tag_485\n        /* \"#utility.yul\":12866:12869   */\n      dup3\n        /* \"#utility.yul\":12777:12870   */\n      tag_486\n      jump\t// in\n    tag_485:\n        /* \"#utility.yul\":12895:12897   */\n      0x40\n        /* \"#utility.yul\":12890:12893   */\n      dup3\n        /* \"#utility.yul\":12886:12898   */\n      add\n        /* \"#utility.yul\":12879:12898   */\n      swap1\n      pop\n        /* \"#utility.yul\":12684:12904   */\n      swap2\n      swap1\n      pop\n      jump\t// out\n        /* \"#utility.yul\":12910:13028   */\n    tag_487:\n        /* \"#utility.yul\":12997:13021   */\n      tag_489\n        /* \"#utility.yul\":13015:13020   */\n      dup2\n        /* \"#utility.yul\":12997:13021   */\n      tag_490\n      jump\t// in\n    tag_489:\n        /* \"#utility.yul\":12992:12995   */\n      dup3\n        /* \"#utility.yul\":12985:13022   */\n      mstore\n        /* \"#utility.yul\":12975:13028   */\n      pop\n      pop\n      jump\t// out\n        /* \"#utility.yul\":13034:13469   */\n    tag_168:\n      0x00\n        /* \"#utility.yul\":13236:13331   */\n      tag_492\n        /* \"#utility.yul\":13327:13330   */\n      dup3\n        /* \"#utility.yul\":13318:13324   */\n      dup6\n        /* \"#utility.yul\":13236:13331   */\n      tag_411\n      jump\t// in\n    tag_492:\n        /* \"#utility.yul\":13229:13331   */\n      swap2\n      pop\n        /* \"#utility.yul\":13348:13443   */\n      tag_493\n        /* \"#utility.yul\":13439:13442   */\n      dup3\n        /* \"#utility.yul\":13430:13436   */\n      dup5\n        /* \"#utility.yul\":13348:13443   */\n      tag_411\n      jump\t// in\n    tag_493:\n        /* \"#utility.yul\":13341:13443   */\n      swap2\n      pop\n        /* \"#utility.yul\":13460:13463   */\n      dup2\n        /* \"#utility.yul\":13453:13463   */\n      swap1\n      pop\n        /* \"#utility.yul\":13218:13469   */\n      swap4\n      swap3\n      pop\n      pop\n      pop\n      jump\t// out\n        /* \"#utility.yul\":13475:13697   */\n    tag_36:\n      0x00\n        /* \"#utility.yul\":13606:13608   */\n      0x20\n        /* \"#utility.yul\":13595:13604   */\n      dup3\n        /* \"#utility.yul\":13591:13609   */\n      add\n        /* \"#utility.yul\":13583:13609   */\n      swap1\n      pop\n        /* \"#utility.yul\":13619:13690   */\n      tag_495\n        /* \"#utility.yul\":13687:13688   */\n      0x00\n        /* \"#utility.yul\":13676:13685   */\n      dup4\n        /* \"#utility.yul\":13672:13689   */\n      add\n        /* \"#utility.yul\":13663:13669   */\n      dup5\n        /* \"#utility.yul\":13619:13690   */\n      tag_385\n      jump\t// in\n    tag_495:\n        /* \"#utility.yul\":13573:13697   */\n      swap3\n      swap2\n      pop\n      pop\n      jump\t// out\n        /* \"#utility.yul\":13703:14343   */\n    tag_255:\n      0x00\n        /* \"#utility.yul\":13936:13939   */\n      0x80\n        /* \"#utility.yul\":13925:13934   */\n      dup3\n        /* \"#utility.yul\":13921:13940   */\n      add\n        /* \"#utility.yul\":13913:13940   */\n      swap1\n      pop\n        /* \"#utility.yul\":13950:14021   */\n      tag_497\n        /* \"#utility.yul\":14018:14019   */\n      0x00\n        /* \"#utility.yul\":14007:14016   */\n      dup4\n        /* \"#utility.yul\":14003:14020   */\n      add\n        /* \"#utility.yul\":13994:14000   */\n      dup8\n        /* \"#utility.yul\":13950:14021   */\n      tag_385\n      jump\t// in\n    tag_497:\n        /* \"#utility.yul\":14031:14103   */\n      tag_498\n        /* \"#utility.yul\":14099:14101   */\n      0x20\n        /* \"#utility.yul\":14088:14097   */\n      dup4\n        /* \"#utility.yul\":14084:14102   */\n      add\n        /* \"#utility.yul\":14075:14081   */\n      dup7\n        /* \"#utility.yul\":14031:14103   */\n      tag_385\n      jump\t// in\n    tag_498:\n        /* \"#utility.yul\":14113:14185   */\n      tag_499\n        /* \"#utility.yul\":14181:14183   */\n      0x40\n        /* \"#utility.yul\":14170:14179   */\n      dup4\n        /* \"#utility.yul\":14166:14184   */\n      add\n        /* \"#utility.yul\":14157:14163   */\n      dup6\n        /* \"#utility.yul\":14113:14185   */\n      tag_487\n      jump\t// in\n    tag_499:\n        /* \"#utility.yul\":14232:14241   */\n      dup2\n        /* \"#utility.yul\":14226:14230   */\n      dup2\n        /* \"#utility.yul\":14222:14242   */\n      sub\n        /* \"#utility.yul\":14217:14219   */\n      0x60\n        /* \"#utility.yul\":14206:14215   */\n      dup4\n        /* \"#utility.yul\":14202:14220   */\n      add\n        /* \"#utility.yul\":14195:14243   */\n      mstore\n        /* \"#utility.yul\":14260:14336   */\n      tag_500\n        /* \"#utility.yul\":14331:14335   */\n      dup2\n        /* \"#utility.yul\":14322:14328   */\n      dup5\n        /* \"#utility.yul\":14260:14336   */\n      tag_393\n      jump\t// in\n    tag_500:\n        /* \"#utility.yul\":14252:14336   */\n      swap1\n      pop\n        /* \"#utility.yul\":13903:14343   */\n      swap6\n      swap5\n      pop\n      pop\n      pop\n      pop\n      pop\n      jump\t// out\n        /* \"#utility.yul\":14349:14559   */\n    tag_26:\n      0x00\n        /* \"#utility.yul\":14474:14476   */\n      0x20\n        /* \"#utility.yul\":14463:14472   */\n      dup3\n        /* \"#utility.yul\":14459:14477   */\n      add\n        /* \"#utility.yul\":14451:14477   */\n      swap1\n      pop\n        /* \"#utility.yul\":14487:14552   */\n      tag_502\n        /* \"#utility.yul\":14549:14550   */\n      0x00\n        /* \"#utility.yul\":14538:14547   */\n      dup4\n        /* \"#utility.yul\":14534:14551   */\n      add\n        /* \"#utility.yul\":14525:14531   */\n      dup5\n        /* \"#utility.yul\":14487:14552   */\n      tag_389\n      jump\t// in\n    tag_502:\n        /* \"#utility.yul\":14441:14559   */\n      swap3\n      swap2\n      pop\n      pop\n      jump\t// out\n        /* \"#utility.yul\":14565:14878   */\n    tag_30:\n      0x00\n        /* \"#utility.yul\":14716:14718   */\n      0x20\n        /* \"#utility.yul\":14705:14714   */\n      dup3\n        /* \"#utility.yul\":14701:14719   */\n      add\n        /* \"#utility.yul\":14693:14719   */\n      swap1\n      pop\n        /* \"#utility.yul\":14765:14774   */\n      dup2\n        /* \"#utility.yul\":14759:14763   */\n      dup2\n        /* \"#utility.yul\":14755:14775   */\n      sub\n        /* \"#utility.yul\":14751:14752   */\n      0x00\n        /* \"#utility.yul\":14740:14749   */\n      dup4\n        /* \"#utility.yul\":14736:14753   */\n      add\n        /* \"#utility.yul\":14729:14776   */\n      mstore\n        /* \"#utility.yul\":14793:14871   */\n      tag_504\n        /* \"#utility.yul\":14866:14870   */\n      dup2\n        /* \"#utility.yul\":14857:14863   */\n      dup5\n        /* \"#utility.yul\":14793:14871   */\n      tag_403\n      jump\t// in\n    tag_504:\n        /* \"#utility.yul\":14785:14871   */\n      swap1\n      pop\n        /* \"#utility.yul\":14683:14878   */\n      swap3\n      swap2\n      pop\n      pop\n      jump\t// out\n        /* \"#utility.yul\":14884:15303   */\n    tag_224:\n      0x00\n        /* \"#utility.yul\":15088:15090   */\n      0x20\n        /* \"#utility.yul\":15077:15086   */\n      dup3\n        /* \"#utility.yul\":15073:15091   */\n      add\n        /* \"#utility.yul\":15065:15091   */\n      swap1\n      pop\n        /* \"#utility.yul\":15137:15146   */\n      dup2\n        /* \"#utility.yul\":15131:15135   */\n      dup2\n        /* \"#utility.yul\":15127:15147   */\n      sub\n        /* \"#utility.yul\":15123:15124   */\n      0x00\n        /* \"#utility.yul\":15112:15121   */\n      dup4\n        /* \"#utility.yul\":15108:15125   */\n      add\n        /* \"#utility.yul\":15101:15148   */\n      mstore\n        /* \"#utility.yul\":15165:15296   */\n      tag_506\n        /* \"#utility.yul\":15291:15295   */\n      dup2\n        /* \"#utility.yul\":15165:15296   */\n      tag_417\n      jump\t// in\n    tag_506:\n        /* \"#utility.yul\":15157:15296   */\n      swap1\n      pop\n        /* \"#utility.yul\":15055:15303   */\n      swap2\n      swap1\n      pop\n      jump\t// out\n        /* \"#utility.yul\":15309:15728   */\n    tag_201:\n      0x00\n        /* \"#utility.yul\":15513:15515   */\n      0x20\n        /* \"#utility.yul\":15502:15511   */\n      dup3\n        /* \"#utility.yul\":15498:15516   */\n      add\n        /* \"#utility.yul\":15490:15516   */\n      swap1\n      pop\n        /* \"#utility.yul\":15562:15571   */\n      dup2\n        /* \"#utility.yul\":15556:15560   */\n      dup2\n        /* \"#utility.yul\":15552:15572   */\n      sub\n        /* \"#utility.yul\":15548:15549   */\n      0x00\n        /* \"#utility.yul\":15537:15546   */\n      dup4\n        /* \"#utility.yul\":15533:15550   */\n      add\n        /* \"#utility.yul\":15526:15573   */\n      mstore\n        /* \"#utility.yul\":15590:15721   */\n      tag_508\n        /* \"#utility.yul\":15716:15720   */\n      dup2\n        /* \"#utility.yul\":15590:15721   */\n      tag_422\n      jump\t// in\n    tag_508:\n        /* \"#utility.yul\":15582:15721   */\n      swap1\n      pop\n        /* \"#utility.yul\":15480:15728   */\n      swap2\n      swap1\n      pop\n      jump\t// out\n        /* \"#utility.yul\":15734:16153   */\n    tag_285:\n      0x00\n        /* \"#utility.yul\":15938:15940   */\n      0x20\n        /* \"#utility.yul\":15927:15936   */\n      dup3\n        /* \"#utility.yul\":15923:15941   */\n      add\n        /* \"#utility.yul\":15915:15941   */\n      swap1\n      pop\n        /* \"#utility.yul\":15987:15996   */\n      dup2\n        /* \"#utility.yul\":15981:15985   */\n      dup2\n        /* \"#utility.yul\":15977:15997   */\n      sub\n        /* \"#utility.yul\":15973:15974   */\n      0x00\n        /* \"#utility.yul\":15962:15971   */\n      dup4\n        /* \"#utility.yul\":15958:15975   */\n      add\n        /* \"#utility.yul\":15951:15998   */\n      mstore\n        /* \"#utility.yul\":16015:16146   */\n      tag_510\n        /* \"#utility.yul\":16141:16145   */\n      dup2\n        /* \"#utility.yul\":16015:16146   */\n      tag_427\n      jump\t// in\n    tag_510:\n        /* \"#utility.yul\":16007:16146   */\n      swap1\n      pop\n        /* \"#utility.yul\":15905:16153   */\n      swap2\n      swap1\n      pop\n      jump\t// out\n        /* \"#utility.yul\":16159:16578   */\n    tag_204:\n      0x00\n        /* \"#utility.yul\":16363:16365   */\n      0x20\n        /* \"#utility.yul\":16352:16361   */\n      dup3\n        /* \"#utility.yul\":16348:16366   */\n      add\n        /* \"#utility.yul\":16340:16366   */\n      swap1\n      pop\n        /* \"#utility.yul\":16412:16421   */\n      dup2\n        /* \"#utility.yul\":16406:16410   */\n      dup2\n        /* \"#utility.yul\":16402:16422   */\n      sub\n        /* \"#utility.yul\":16398:16399   */\n      0x00\n        /* \"#utility.yul\":16387:16396   */\n      dup4\n        /* \"#utility.yul\":16383:16400   */\n      add\n        /* \"#utility.yul\":16376:16423   */\n      mstore\n        /* \"#utility.yul\":16440:16571   */\n      tag_512\n        /* \"#utility.yul\":16566:16570   */\n      dup2\n        /* \"#utility.yul\":16440:16571   */\n      tag_432\n      jump\t// in\n    tag_512:\n        /* \"#utility.yul\":16432:16571   */\n      swap1\n      pop\n        /* \"#utility.yul\":16330:16578   */\n      swap2\n      swap1\n      pop\n      jump\t// out\n        /* \"#utility.yul\":16584:17003   */\n    tag_216:\n      0x00\n        /* \"#utility.yul\":16788:16790   */\n      0x20\n        /* \"#utility.yul\":16777:16786   */\n      dup3\n        /* \"#utility.yul\":16773:16791   */\n      add\n        /* \"#utility.yul\":16765:16791   */\n      swap1\n      pop\n        /* \"#utility.yul\":16837:16846   */\n      dup2\n        /* \"#utility.yul\":16831:16835   */\n      dup2\n        /* \"#utility.yul\":16827:16847   */\n      sub\n        /* \"#utility.yul\":16823:16824   */\n      0x00\n        /* \"#utility.yul\":16812:16821   */\n      dup4\n        /* \"#utility.yul\":16808:16825   */\n      add\n        /* \"#utility.yul\":16801:16848   */\n      mstore\n        /* \"#utility.yul\":16865:16996   */\n      tag_514\n        /* \"#utility.yul\":16991:16995   */\n      dup2\n        /* \"#utility.yul\":16865:16996   */\n      tag_437\n      jump\t// in\n    tag_514:\n        /* \"#utility.yul\":16857:16996   */\n      swap1\n      pop\n        /* \"#utility.yul\":16755:17003   */\n      swap2\n      swap1\n      pop\n      jump\t// out\n        /* \"#utility.yul\":17009:17428   */\n    tag_191:\n      0x00\n        /* \"#utility.yul\":17213:17215   */\n      0x20\n        /* \"#utility.yul\":17202:17211   */\n      dup3\n        /* \"#utility.yul\":17198:17216   */\n      add\n        /* \"#utility.yul\":17190:17216   */\n      swap1\n      pop\n        /* \"#utility.yul\":17262:17271   */\n      dup2\n        /* \"#utility.yul\":17256:17260   */\n      dup2\n        /* \"#utility.yul\":17252:17272   */\n      sub\n        /* \"#utility.yul\":17248:17249   */\n      0x00\n        /* \"#utility.yul\":17237:17246   */\n      dup4\n        /* \"#utility.yul\":17233:17250   */\n      add\n        /* \"#utility.yul\":17226:17273   */\n      mstore\n        /* \"#utility.yul\":17290:17421   */\n      tag_516\n        /* \"#utility.yul\":17416:17420   */\n      dup2\n        /* \"#utility.yul\":17290:17421   */\n      tag_442\n      jump\t// in\n    tag_516:\n        /* \"#utility.yul\":17282:17421   */\n      swap1\n      pop\n        /* \"#utility.yul\":17180:17428   */\n      swap2\n      swap1\n      pop\n      jump\t// out\n        /* \"#utility.yul\":17434:17853   */\n    tag_117:\n      0x00\n        /* \"#utility.yul\":17638:17640   */\n      0x20\n        /* \"#utility.yul\":17627:17636   */\n      dup3\n        /* \"#utility.yul\":17623:17641   */\n      add\n        /* \"#utility.yul\":17615:17641   */\n      swap1\n      pop\n        /* \"#utility.yul\":17687:17696   */\n      dup2\n        /* \"#utility.yul\":17681:17685   */\n      dup2\n        /* \"#utility.yul\":17677:17697   */\n      sub\n        /* \"#utility.yul\":17673:17674   */\n      0x00\n        /* \"#utility.yul\":17662:17671   */\n      dup4\n        /* \"#utility.yul\":17658:17675   */\n      add\n        /* \"#utility.yul\":17651:17698   */\n      mstore\n        /* \"#utility.yul\":17715:17846   */\n      tag_518\n        /* \"#utility.yul\":17841:17845   */\n      dup2\n        /* \"#utility.yul\":17715:17846   */\n      tag_447\n      jump\t// in\n    tag_518:\n        /* \"#utility.yul\":17707:17846   */\n      swap1\n      pop\n        /* \"#utility.yul\":17605:17853   */\n      swap2\n      swap1\n      pop\n      jump\t// out\n        /* \"#utility.yul\":17859:18278   */\n    tag_138:\n      0x00\n        /* \"#utility.yul\":18063:18065   */\n      0x20\n        /* \"#utility.yul\":18052:18061   */\n      dup3\n        /* \"#utility.yul\":18048:18066   */\n      add\n        /* \"#utility.yul\":18040:18066   */\n      swap1\n      pop\n        /* \"#utility.yul\":18112:18121   */\n      dup2\n        /* \"#utility.yul\":18106:18110   */\n      dup2\n        /* \"#utility.yul\":18102:18122   */\n      sub\n        /* \"#utility.yul\":18098:18099   */\n      0x00\n        /* \"#utility.yul\":18087:18096   */\n      dup4\n        /* \"#utility.yul\":18083:18100   */\n      add\n        /* \"#utility.yul\":18076:18123   */\n      mstore\n        /* \"#utility.yul\":18140:18271   */\n      tag_520\n        /* \"#utility.yul\":18266:18270   */\n      dup2\n        /* \"#utility.yul\":18140:18271   */\n      tag_452\n      jump\t// in\n    tag_520:\n        /* \"#utility.yul\":18132:18271   */\n      swap1\n      pop\n        /* \"#utility.yul\":18030:18278   */\n      swap2\n      swap1\n      pop\n      jump\t// out\n        /* \"#utility.yul\":18284:18703   */\n    tag_134:\n      0x00\n        /* \"#utility.yul\":18488:18490   */\n      0x20\n        /* \"#utility.yul\":18477:18486   */\n      dup3\n        /* \"#utility.yul\":18473:18491   */\n      add\n        /* \"#utility.yul\":18465:18491   */\n      swap1\n      pop\n        /* \"#utility.yul\":18537:18546   */\n      dup2\n        /* \"#utility.yul\":18531:18535   */\n      dup2\n        /* \"#utility.yul\":18527:18547   */\n      sub\n        /* \"#utility.yul\":18523:18524   */\n      0x00\n        /* \"#utility.yul\":18512:18521   */\n      dup4\n        /* \"#utility.yul\":18508:18525   */\n      add\n        /* \"#utility.yul\":18501:18548   */\n      mstore\n        /* \"#utility.yul\":18565:18696   */\n      tag_522\n        /* \"#utility.yul\":18691:18695   */\n      dup2\n        /* \"#utility.yul\":18565:18696   */\n      tag_457\n      jump\t// in\n    tag_522:\n        /* \"#utility.yul\":18557:18696   */\n      swap1\n      pop\n        /* \"#utility.yul\":18455:18703   */\n      swap2\n      swap1\n      pop\n      jump\t// out\n        /* \"#utility.yul\":18709:19128   */\n    tag_281:\n      0x00\n        /* \"#utility.yul\":18913:18915   */\n      0x20\n        /* \"#utility.yul\":18902:18911   */\n      dup3\n        /* \"#utility.yul\":18898:18916   */\n      add\n        /* \"#utility.yul\":18890:18916   */\n      swap1\n      pop\n        /* \"#utility.yul\":18962:18971   */\n      dup2\n        /* \"#utility.yul\":18956:18960   */\n      dup2\n        /* \"#utility.yul\":18952:18972   */\n      sub\n        /* \"#utility.yul\":18948:18949   */\n      0x00\n        /* \"#utility.yul\":18937:18946   */\n      dup4\n        /* \"#utility.yul\":18933:18950   */\n      add\n        /* \"#utility.yul\":18926:18973   */\n      mstore\n        /* \"#utility.yul\":18990:19121   */\n      tag_524\n        /* \"#utility.yul\":19116:19120   */\n      dup2\n        /* \"#utility.yul\":18990:19121   */\n      tag_462\n      jump\t// in\n    tag_524:\n        /* \"#utility.yul\":18982:19121   */\n      swap1\n      pop\n        /* \"#utility.yul\":18880:19128   */\n      swap2\n      swap1\n      pop\n      jump\t// out\n        /* \"#utility.yul\":19134:19553   */\n    tag_104:\n      0x00\n        /* \"#utility.yul\":19338:19340   */\n      0x20\n        /* \"#utility.yul\":19327:19336   */\n      dup3\n        /* \"#utility.yul\":19323:19341   */\n      add\n        /* \"#utility.yul\":19315:19341   */\n      swap1\n      pop\n        /* \"#utility.yul\":19387:19396   */\n      dup2\n        /* \"#utility.yul\":19381:19385   */\n      dup2\n        /* \"#utility.yul\":19377:19397   */\n      sub\n        /* \"#utility.yul\":19373:19374   */\n      0x00\n        /* \"#utility.yul\":19362:19371   */\n      dup4\n        /* \"#utility.yul\":19358:19375   */\n      add\n        /* \"#utility.yul\":19351:19398   */\n      mstore\n        /* \"#utility.yul\":19415:19546   */\n      tag_526\n        /* \"#utility.yul\":19541:19545   */\n      dup2\n        /* \"#utility.yul\":19415:19546   */\n      tag_467\n      jump\t// in\n    tag_526:\n        /* \"#utility.yul\":19407:19546   */\n      swap1\n      pop\n        /* \"#utility.yul\":19305:19553   */\n      swap2\n      swap1\n      pop\n      jump\t// out\n        /* \"#utility.yul\":19559:19978   */\n    tag_160:\n      0x00\n        /* \"#utility.yul\":19763:19765   */\n      0x20\n        /* \"#utility.yul\":19752:19761   */\n      dup3\n        /* \"#utility.yul\":19748:19766   */\n      add\n        /* \"#utility.yul\":19740:19766   */\n      swap1\n      pop\n        /* \"#utility.yul\":19812:19821   */\n      dup2\n        /* \"#utility.yul\":19806:19810   */\n      dup2\n        /* \"#utility.yul\":19802:19822   */\n      sub\n        /* \"#utility.yul\":19798:19799   */\n      0x00\n        /* \"#utility.yul\":19787:19796   */\n      dup4\n        /* \"#utility.yul\":19783:19800   */\n      add\n        /* \"#utility.yul\":19776:19823   */\n      mstore\n        /* \"#utility.yul\":19840:19971   */\n      tag_528\n        /* \"#utility.yul\":19966:19970   */\n      dup2\n        /* \"#utility.yul\":19840:19971   */\n      tag_472\n      jump\t// in\n    tag_528:\n        /* \"#utility.yul\":19832:19971   */\n      swap1\n      pop\n        /* \"#utility.yul\":19730:19978   */\n      swap2\n      swap1\n      pop\n      jump\t// out\n        /* \"#utility.yul\":19984:20403   */\n    tag_109:\n      0x00\n        /* \"#utility.yul\":20188:20190   */\n      0x20\n        /* \"#utility.yul\":20177:20186   */\n      dup3\n        /* \"#utility.yul\":20173:20191   */\n      add\n        /* \"#utility.yul\":20165:20191   */\n      swap1\n      pop\n        /* \"#utility.yul\":20237:20246   */\n      dup2\n        /* \"#utility.yul\":20231:20235   */\n      dup2\n        /* \"#utility.yul\":20227:20247   */\n      sub\n        /* \"#utility.yul\":20223:20224   */\n      0x00\n        /* \"#utility.yul\":20212:20221   */\n      dup4\n        /* \"#utility.yul\":20208:20225   */\n      add\n        /* \"#utility.yul\":20201:20248   */\n      mstore\n        /* \"#utility.yul\":20265:20396   */\n      tag_530\n        /* \"#utility.yul\":20391:20395   */\n      dup2\n        /* \"#utility.yul\":20265:20396   */\n      tag_477\n      jump\t// in\n    tag_530:\n        /* \"#utility.yul\":20257:20396   */\n      swap1\n      pop\n        /* \"#utility.yul\":20155:20403   */\n      swap2\n      swap1\n      pop\n      jump\t// out\n        /* \"#utility.yul\":20409:20828   */\n    tag_126:\n      0x00\n        /* \"#utility.yul\":20613:20615   */\n      0x20\n        /* \"#utility.yul\":20602:20611   */\n      dup3\n        /* \"#utility.yul\":20598:20616   */\n      add\n        /* \"#utility.yul\":20590:20616   */\n      swap1\n      pop\n        /* \"#utility.yul\":20662:20671   */\n      dup2\n        /* \"#utility.yul\":20656:20660   */\n      dup2\n        /* \"#utility.yul\":20652:20672   */\n      sub\n        /* \"#utility.yul\":20648:20649   */\n      0x00\n        /* \"#utility.yul\":20637:20646   */\n      dup4\n        /* \"#utility.yul\":20633:20650   */\n      add\n        /* \"#utility.yul\":20626:20673   */\n      mstore\n        /* \"#utility.yul\":20690:20821   */\n      tag_532\n        /* \"#utility.yul\":20816:20820   */\n      dup2\n        /* \"#utility.yul\":20690:20821   */\n      tag_482\n      jump\t// in\n    tag_532:\n        /* \"#utility.yul\":20682:20821   */\n      swap1\n      pop\n        /* \"#utility.yul\":20580:20828   */\n      swap2\n      swap1\n      pop\n      jump\t// out\n        /* \"#utility.yul\":20834:21056   */\n    tag_57:\n      0x00\n        /* \"#utility.yul\":20965:20967   */\n      0x20\n        /* \"#utility.yul\":20954:20963   */\n      dup3\n        /* \"#utility.yul\":20950:20968   */\n      add\n        /* \"#utility.yul\":20942:20968   */\n      swap1\n      pop\n        /* \"#utility.yul\":20978:21049   */\n      tag_534\n        /* \"#utility.yul\":21046:21047   */\n      0x00\n        /* \"#utility.yul\":21035:21044   */\n      dup4\n        /* \"#utility.yul\":21031:21048   */\n      add\n        /* \"#utility.yul\":21022:21028   */\n      dup5\n        /* \"#utility.yul\":20978:21049   */\n      tag_487\n      jump\t// in\n    tag_534:\n        /* \"#utility.yul\":20932:21056   */\n      swap3\n      swap2\n      pop\n      pop\n      jump\t// out\n        /* \"#utility.yul\":21062:21191   */\n    tag_305:\n      0x00\n        /* \"#utility.yul\":21123:21143   */\n      tag_536\n      tag_537\n      jump\t// in\n    tag_536:\n        /* \"#utility.yul\":21113:21143   */\n      swap1\n      pop\n        /* \"#utility.yul\":21152:21185   */\n      tag_538\n        /* \"#utility.yul\":21180:21184   */\n      dup3\n        /* \"#utility.yul\":21172:21178   */\n      dup3\n        /* \"#utility.yul\":21152:21185   */\n      tag_539\n      jump\t// in\n    tag_538:\n        /* \"#utility.yul\":21103:21191   */\n      swap2\n      swap1\n      pop\n      jump\t// out\n        /* \"#utility.yul\":21197:21272   */\n    tag_537:\n      0x00\n        /* \"#utility.yul\":21263:21265   */\n      0x40\n        /* \"#utility.yul\":21257:21266   */\n      mload\n        /* \"#utility.yul\":21247:21266   */\n      swap1\n      pop\n        /* \"#utility.yul\":21237:21272   */\n      swap1\n      jump\t// out\n        /* \"#utility.yul\":21278:21585   */\n    tag_304:\n      0x00\n        /* \"#utility.yul\":21429:21447   */\n      0xffffffffffffffff\n        /* \"#utility.yul\":21421:21427   */\n      dup3\n        /* \"#utility.yul\":21418:21448   */\n      gt\n        /* \"#utility.yul\":21415:21417   */\n      iszero\n      tag_542\n      jumpi\n        /* \"#utility.yul\":21451:21469   */\n      tag_543\n      tag_544\n      jump\t// in\n    tag_543:\n        /* \"#utility.yul\":21415:21417   */\n    tag_542:\n        /* \"#utility.yul\":21489:21518   */\n      tag_545\n        /* \"#utility.yul\":21511:21517   */\n      dup3\n        /* \"#utility.yul\":21489:21518   */\n      tag_402\n      jump\t// in\n    tag_545:\n        /* \"#utility.yul\":21481:21518   */\n      swap1\n      pop\n        /* \"#utility.yul\":21573:21577   */\n      0x20\n        /* \"#utility.yul\":21567:21571   */\n      dup2\n        /* \"#utility.yul\":21563:21578   */\n      add\n        /* \"#utility.yul\":21555:21578   */\n      swap1\n      pop\n        /* \"#utility.yul\":21344:21585   */\n      swap2\n      swap1\n      pop\n      jump\t// out\n        /* \"#utility.yul\":21591:21899   */\n    tag_313:\n      0x00\n        /* \"#utility.yul\":21743:21761   */\n      0xffffffffffffffff\n        /* \"#utility.yul\":21735:21741   */\n      dup3\n        /* \"#utility.yul\":21732:21762   */\n      gt\n        /* \"#utility.yul\":21729:21731   */\n      iszero\n      tag_547\n      jumpi\n        /* \"#utility.yul\":21765:21783   */\n      tag_548\n      tag_544\n      jump\t// in\n    tag_548:\n        /* \"#utility.yul\":21729:21731   */\n    tag_547:\n        /* \"#utility.yul\":21803:21832   */\n      tag_549\n        /* \"#utility.yul\":21825:21831   */\n      dup3\n        /* \"#utility.yul\":21803:21832   */\n      tag_402\n      jump\t// in\n    tag_549:\n        /* \"#utility.yul\":21795:21832   */\n      swap1\n      pop\n        /* \"#utility.yul\":21887:21891   */\n      0x20\n        /* \"#utility.yul\":21881:21885   */\n      dup2\n        /* \"#utility.yul\":21877:21892   */\n      add\n        /* \"#utility.yul\":21869:21892   */\n      swap1\n      pop\n        /* \"#utility.yul\":21658:21899   */\n      swap2\n      swap1\n      pop\n      jump\t// out\n        /* \"#utility.yul\":21905:22003   */\n    tag_396:\n      0x00\n        /* \"#utility.yul\":21990:21995   */\n      dup2\n        /* \"#utility.yul\":21984:21996   */\n      mload\n        /* \"#utility.yul\":21974:21996   */\n      swap1\n      pop\n        /* \"#utility.yul\":21963:22003   */\n      swap2\n      swap1\n      pop\n      jump\t// out\n        /* \"#utility.yul\":22009:22108   */\n    tag_406:\n      0x00\n        /* \"#utility.yul\":22095:22100   */\n      dup2\n        /* \"#utility.yul\":22089:22101   */\n      mload\n        /* \"#utility.yul\":22079:22101   */\n      swap1\n      pop\n        /* \"#utility.yul\":22068:22108   */\n      swap2\n      swap1\n      pop\n      jump\t// out\n        /* \"#utility.yul\":22114:22282   */\n    tag_398:\n      0x00\n        /* \"#utility.yul\":22231:22237   */\n      dup3\n        /* \"#utility.yul\":22226:22229   */\n      dup3\n        /* \"#utility.yul\":22219:22238   */\n      mstore\n        /* \"#utility.yul\":22271:22275   */\n      0x20\n        /* \"#utility.yul\":22266:22269   */\n      dup3\n        /* \"#utility.yul\":22262:22276   */\n      add\n        /* \"#utility.yul\":22247:22276   */\n      swap1\n      pop\n        /* \"#utility.yul\":22209:22282   */\n      swap3\n      swap2\n      pop\n      pop\n      jump\t// out\n        /* \"#utility.yul\":22288:22457   */\n    tag_408:\n      0x00\n        /* \"#utility.yul\":22406:22412   */\n      dup3\n        /* \"#utility.yul\":22401:22404   */\n      dup3\n        /* \"#utility.yul\":22394:22413   */\n      mstore\n        /* \"#utility.yul\":22446:22450   */\n      0x20\n        /* \"#utility.yul\":22441:22444   */\n      dup3\n        /* \"#utility.yul\":22437:22451   */\n      add\n        /* \"#utility.yul\":22422:22451   */\n      swap1\n      pop\n        /* \"#utility.yul\":22384:22457   */\n      swap3\n      swap2\n      pop\n      pop\n      jump\t// out\n        /* \"#utility.yul\":22463:22611   */\n    tag_415:\n      0x00\n        /* \"#utility.yul\":22602:22605   */\n      dup2\n        /* \"#utility.yul\":22587:22605   */\n      swap1\n      pop\n        /* \"#utility.yul\":22577:22611   */\n      swap3\n      swap2\n      pop\n      pop\n      jump\t// out\n        /* \"#utility.yul\":22617:22922   */\n    tag_210:\n      0x00\n        /* \"#utility.yul\":22676:22696   */\n      tag_556\n        /* \"#utility.yul\":22694:22695   */\n      dup3\n        /* \"#utility.yul\":22676:22696   */\n      tag_490\n      jump\t// in\n    tag_556:\n        /* \"#utility.yul\":22671:22696   */\n      swap2\n      pop\n        /* \"#utility.yul\":22710:22730   */\n      tag_557\n        /* \"#utility.yul\":22728:22729   */\n      dup4\n        /* \"#utility.yul\":22710:22730   */\n      tag_490\n      jump\t// in\n    tag_557:\n        /* \"#utility.yul\":22705:22730   */\n      swap3\n      pop\n        /* \"#utility.yul\":22864:22865   */\n      dup3\n        /* \"#utility.yul\":22796:22862   */\n      0xffffffffffffffffffffffffffffffffffffffffffffffffffffffffffffffff\n        /* \"#utility.yul\":22792:22866   */\n      sub\n        /* \"#utility.yul\":22789:22790   */\n      dup3\n        /* \"#utility.yul\":22786:22867   */\n      gt\n        /* \"#utility.yul\":22783:22785   */\n      iszero\n      tag_558\n      jumpi\n        /* \"#utility.yul\":22870:22888   */\n      tag_559\n      tag_560\n      jump\t// in\n    tag_559:\n        /* \"#utility.yul\":22783:22785   */\n    tag_558:\n        /* \"#utility.yul\":22914:22915   */\n      dup3\n        /* \"#utility.yul\":22911:22912   */\n      dup3\n        /* \"#utility.yul\":22907:22916   */\n      add\n        /* \"#utility.yul\":22900:22916   */\n      swap1\n      pop\n        /* \"#utility.yul\":22661:22922   */\n      swap3\n      swap2\n      pop\n      pop\n      jump\t// out\n        /* \"#utility.yul\":22928:23113   */\n    tag_233:\n      0x00\n        /* \"#utility.yul\":22985:23005   */\n      tag_562\n        /* \"#utility.yul\":23003:23004   */\n      dup3\n        /* \"#utility.yul\":22985:23005   */\n      tag_490\n      jump\t// in\n    tag_562:\n        /* \"#utility.yul\":22980:23005   */\n      swap2\n      pop\n        /* \"#utility.yul\":23019:23039   */\n      tag_563\n        /* \"#utility.yul\":23037:23038   */\n      dup4\n        /* \"#utility.yul\":23019:23039   */\n      tag_490\n      jump\t// in\n    tag_563:\n        /* \"#utility.yul\":23014:23039   */\n      swap3\n      pop\n        /* \"#utility.yul\":23058:23059   */\n      dup3\n        /* \"#utility.yul\":23048:23050   */\n      tag_564\n      jumpi\n        /* \"#utility.yul\":23063:23081   */\n      tag_565\n      tag_566\n      jump\t// in\n    tag_565:\n        /* \"#utility.yul\":23048:23050   */\n    tag_564:\n        /* \"#utility.yul\":23105:23106   */\n      dup3\n        /* \"#utility.yul\":23102:23103   */\n      dup3\n        /* \"#utility.yul\":23098:23107   */\n      div\n        /* \"#utility.yul\":23093:23107   */\n      swap1\n      pop\n        /* \"#utility.yul\":22970:23113   */\n      swap3\n      swap2\n      pop\n      pop\n      jump\t// out\n        /* \"#utility.yul\":23119:23310   */\n    tag_177:\n      0x00\n        /* \"#utility.yul\":23179:23199   */\n      tag_568\n        /* \"#utility.yul\":23197:23198   */\n      dup3\n        /* \"#utility.yul\":23179:23199   */\n      tag_490\n      jump\t// in\n    tag_568:\n        /* \"#utility.yul\":23174:23199   */\n      swap2\n      pop\n        /* \"#utility.yul\":23213:23233   */\n      tag_569\n        /* \"#utility.yul\":23231:23232   */\n      dup4\n        /* \"#utility.yul\":23213:23233   */\n      tag_490\n      jump\t// in\n    tag_569:\n        /* \"#utility.yul\":23208:23233   */\n      swap3\n      pop\n        /* \"#utility.yul\":23252:23253   */\n      dup3\n        /* \"#utility.yul\":23249:23250   */\n      dup3\n        /* \"#utility.yul\":23246:23254   */\n      lt\n        /* \"#utility.yul\":23243:23245   */\n      iszero\n      tag_570\n      jumpi\n        /* \"#utility.yul\":23257:23275   */\n      tag_571\n      tag_560\n      jump\t// in\n    tag_571:\n        /* \"#utility.yul\":23243:23245   */\n    tag_570:\n        /* \"#utility.yul\":23302:23303   */\n      dup3\n        /* \"#utility.yul\":23299:23300   */\n      dup3\n        /* \"#utility.yul\":23295:23304   */\n      sub\n        /* \"#utility.yul\":23287:23304   */\n      swap1\n      pop\n        /* \"#utility.yul\":23164:23310   */\n      swap3\n      swap2\n      pop\n      pop\n      jump\t// out\n        /* \"#utility.yul\":23316:23412   */\n    tag_388:\n      0x00\n        /* \"#utility.yul\":23382:23406   */\n      tag_573\n        /* \"#utility.yul\":23400:23405   */\n      dup3\n        /* \"#utility.yul\":23382:23406   */\n      tag_574\n      jump\t// in\n    tag_573:\n        /* \"#utility.yul\":23371:23406   */\n      swap1\n      pop\n        /* \"#utility.yul\":23361:23412   */\n      swap2\n      swap1\n      pop\n      jump\t// out\n        /* \"#utility.yul\":23418:23508   */\n    tag_392:\n      0x00\n        /* \"#utility.yul\":23495:23500   */\n      dup2\n        /* \"#utility.yul\":23488:23501   */\n      iszero\n        /* \"#utility.yul\":23481:23502   */\n      iszero\n        /* \"#utility.yul\":23470:23502   */\n      swap1\n      pop\n        /* \"#utility.yul\":23460:23508   */\n      swap2\n      swap1\n      pop\n      jump\t// out\n        /* \"#utility.yul\":23514:23663   */\n    tag_576:\n      0x00\n        /* \"#utility.yul\":23590:23656   */\n      0xffffffff00000000000000000000000000000000000000000000000000000000\n        /* \"#utility.yul\":23583:23588   */\n      dup3\n        /* \"#utility.yul\":23579:23657   */\n      and\n        /* \"#utility.yul\":23568:23657   */\n      swap1\n      pop\n        /* \"#utility.yul\":23558:23663   */\n      swap2\n      swap1\n      pop\n      jump\t// out\n        /* \"#utility.yul\":23669:23795   */\n    tag_574:\n      0x00\n        /* \"#utility.yul\":23746:23788   */\n      0xffffffffffffffffffffffffffffffffffffffff\n        /* \"#utility.yul\":23739:23744   */\n      dup3\n        /* \"#utility.yul\":23735:23789   */\n      and\n        /* \"#utility.yul\":23724:23789   */\n      swap1\n      pop\n        /* \"#utility.yul\":23714:23795   */\n      swap2\n      swap1\n      pop\n      jump\t// out\n        /* \"#utility.yul\":23801:23878   */\n    tag_490:\n      0x00\n        /* \"#utility.yul\":23867:23872   */\n      dup2\n        /* \"#utility.yul\":23856:23872   */\n      swap1\n      pop\n        /* \"#utility.yul\":23846:23878   */\n      swap2\n      swap1\n      pop\n      jump\t// out\n        /* \"#utility.yul\":23884:24038   */\n    tag_308:\n        /* \"#utility.yul\":23968:23974   */\n      dup3\n        /* \"#utility.yul\":23963:23966   */\n      dup2\n        /* \"#utility.yul\":23958:23961   */\n      dup4\n        /* \"#utility.yul\":23945:23975   */\n      calldatacopy\n        /* \"#utility.yul\":24030:24031   */\n      0x00\n        /* \"#utility.yul\":24021:24027   */\n      dup4\n        /* \"#utility.yul\":24016:24019   */\n      dup4\n        /* \"#utility.yul\":24012:24028   */\n      add\n        /* \"#utility.yul\":24005:24032   */\n      mstore\n        /* \"#utility.yul\":23935:24038   */\n      pop\n      pop\n      pop\n      jump\t// out\n        /* \"#utility.yul\":24044:24351   */\n    tag_400:\n        /* \"#utility.yul\":24112:24113   */\n      0x00\n        /* \"#utility.yul\":24122:24235   */\n    tag_582:\n        /* \"#utility.yul\":24136:24142   */\n      dup4\n        /* \"#utility.yul\":24133:24134   */\n      dup2\n        /* \"#utility.yul\":24130:24143   */\n      lt\n        /* \"#utility.yul\":24122:24235   */\n      iszero\n      tag_584\n      jumpi\n        /* \"#utility.yul\":24221:24222   */\n      dup1\n        /* \"#utility.yul\":24216:24219   */\n      dup3\n        /* \"#utility.yul\":24212:24223   */\n      add\n        /* \"#utility.yul\":24206:24224   */\n      mload\n        /* \"#utility.yul\":24202:24203   */\n      dup2\n        /* \"#utility.yul\":24197:24200   */\n      dup5\n        /* \"#utility.yul\":24193:24204   */\n      add\n        /* \"#utility.yul\":24186:24225   */\n      mstore\n        /* \"#utility.yul\":24158:24160   */\n      0x20\n        /* \"#utility.yul\":24155:24156   */\n      dup2\n        /* \"#utility.yul\":24151:24161   */\n      add\n        /* \"#utility.yul\":24146:24161   */\n      swap1\n      pop\n        /* \"#utility.yul\":24122:24235   */\n      jump(tag_582)\n    tag_584:\n        /* \"#utility.yul\":24253:24259   */\n      dup4\n        /* \"#utility.yul\":24250:24251   */\n      dup2\n        /* \"#utility.yul\":24247:24260   */\n      gt\n        /* \"#utility.yul\":24244:24246   */\n      iszero\n      tag_585\n      jumpi\n        /* \"#utility.yul\":24333:24334   */\n      0x00\n        /* \"#utility.yul\":24324:24330   */\n      dup5\n        /* \"#utility.yul\":24319:24322   */\n      dup5\n        /* \"#utility.yul\":24315:24331   */\n      add\n        /* \"#utility.yul\":24308:24335   */\n      mstore\n        /* \"#utility.yul\":24244:24246   */\n    tag_585:\n        /* \"#utility.yul\":24093:24351   */\n      pop\n      pop\n      pop\n      pop\n      jump\t// out\n        /* \"#utility.yul\":24357:24677   */\n    tag_94:\n      0x00\n        /* \"#utility.yul\":24438:24439   */\n      0x02\n        /* \"#utility.yul\":24432:24436   */\n      dup3\n        /* \"#utility.yul\":24428:24440   */\n      div\n        /* \"#utility.yul\":24418:24440   */\n      swap1\n      pop\n        /* \"#utility.yul\":24485:24486   */\n      0x01\n        /* \"#utility.yul\":24479:24483   */\n      dup3\n        /* \"#utility.yul\":24475:24487   */\n      and\n        /* \"#utility.yul\":24506:24524   */\n      dup1\n        /* \"#utility.yul\":24496:24498   */\n      tag_587\n      jumpi\n        /* \"#utility.yul\":24562:24566   */\n      0x7f\n        /* \"#utility.yul\":24554:24560   */\n      dup3\n        /* \"#utility.yul\":24550:24567   */\n      and\n        /* \"#utility.yul\":24540:24567   */\n      swap2\n      pop\n        /* \"#utility.yul\":24496:24498   */\n    tag_587:\n        /* \"#utility.yul\":24624:24626   */\n      0x20\n        /* \"#utility.yul\":24616:24622   */\n      dup3\n        /* \"#utility.yul\":24613:24627   */\n      lt\n        /* \"#utility.yul\":24593:24611   */\n      dup2\n        /* \"#utility.yul\":24590:24628   */\n      eq\n        /* \"#utility.yul\":24587:24589   */\n      iszero\n      tag_588\n      jumpi\n        /* \"#utility.yul\":24643:24661   */\n      tag_589\n      tag_590\n      jump\t// in\n    tag_589:\n        /* \"#utility.yul\":24587:24589   */\n    tag_588:\n        /* \"#utility.yul\":24408:24677   */\n      pop\n      swap2\n      swap1\n      pop\n      jump\t// out\n        /* \"#utility.yul\":24683:24964   */\n    tag_539:\n        /* \"#utility.yul\":24766:24793   */\n      tag_592\n        /* \"#utility.yul\":24788:24792   */\n      dup3\n        /* \"#utility.yul\":24766:24793   */\n      tag_402\n      jump\t// in\n    tag_592:\n        /* \"#utility.yul\":24758:24764   */\n      dup2\n        /* \"#utility.yul\":24754:24794   */\n      add\n        /* \"#utility.yul\":24896:24902   */\n      dup2\n        /* \"#utility.yul\":24884:24894   */\n      dup2\n        /* \"#utility.yul\":24881:24903   */\n      lt\n        /* \"#utility.yul\":24860:24878   */\n      0xffffffffffffffff\n        /* \"#utility.yul\":24848:24858   */\n      dup3\n        /* \"#utility.yul\":24845:24879   */\n      gt\n        /* \"#utility.yul\":24842:24904   */\n      or\n        /* \"#utility.yul\":24839:24841   */\n      iszero\n      tag_593\n      jumpi\n        /* \"#utility.yul\":24907:24925   */\n      tag_594\n      tag_544\n      jump\t// in\n    tag_594:\n        /* \"#utility.yul\":24839:24841   */\n    tag_593:\n        /* \"#utility.yul\":24947:24957   */\n      dup1\n        /* \"#utility.yul\":24943:24945   */\n      0x40\n        /* \"#utility.yul\":24936:24958   */\n      mstore\n        /* \"#utility.yul\":24726:24964   */\n      pop\n      pop\n      pop\n      jump\t// out\n        /* \"#utility.yul\":24970:25203   */\n    tag_231:\n      0x00\n        /* \"#utility.yul\":25032:25056   */\n      tag_596\n        /* \"#utility.yul\":25050:25055   */\n      dup3\n        /* \"#utility.yul\":25032:25056   */\n      tag_490\n      jump\t// in\n    tag_596:\n        /* \"#utility.yul\":25023:25056   */\n      swap2\n      pop\n        /* \"#utility.yul\":25078:25144   */\n      0xffffffffffffffffffffffffffffffffffffffffffffffffffffffffffffffff\n        /* \"#utility.yul\":25071:25076   */\n      dup3\n        /* \"#utility.yul\":25068:25145   */\n      eq\n        /* \"#utility.yul\":25065:25067   */\n      iszero\n      tag_597\n      jumpi\n        /* \"#utility.yul\":25148:25166   */\n      tag_598\n      tag_560\n      jump\t// in\n    tag_598:\n        /* \"#utility.yul\":25065:25067   */\n    tag_597:\n        /* \"#utility.yul\":25195:25196   */\n      0x01\n        /* \"#utility.yul\":25188:25193   */\n      dup3\n        /* \"#utility.yul\":25184:25197   */\n      add\n        /* \"#utility.yul\":25177:25197   */\n      swap1\n      pop\n        /* \"#utility.yul\":25013:25203   */\n      swap2\n      swap1\n      pop\n      jump\t// out\n        /* \"#utility.yul\":25209:25385   */\n    tag_240:\n      0x00\n        /* \"#utility.yul\":25258:25278   */\n      tag_600\n        /* \"#utility.yul\":25276:25277   */\n      dup3\n        /* \"#utility.yul\":25258:25278   */\n      tag_490\n      jump\t// in\n    tag_600:\n        /* \"#utility.yul\":25253:25278   */\n      swap2\n      pop\n        /* \"#utility.yul\":25292:25312   */\n      tag_601\n        /* \"#utility.yul\":25310:25311   */\n      dup4\n        /* \"#utility.yul\":25292:25312   */\n      tag_490\n      jump\t// in\n    tag_601:\n        /* \"#utility.yul\":25287:25312   */\n      swap3\n      pop\n        /* \"#utility.yul\":25331:25332   */\n      dup3\n        /* \"#utility.yul\":25321:25323   */\n      tag_602\n      jumpi\n        /* \"#utility.yul\":25336:25354   */\n      tag_603\n      tag_566\n      jump\t// in\n    tag_603:\n        /* \"#utility.yul\":25321:25323   */\n    tag_602:\n        /* \"#utility.yul\":25377:25378   */\n      dup3\n        /* \"#utility.yul\":25374:25375   */\n      dup3\n        /* \"#utility.yul\":25370:25379   */\n      mod\n        /* \"#utility.yul\":25365:25379   */\n      swap1\n      pop\n        /* \"#utility.yul\":25243:25385   */\n      swap3\n      swap2\n      pop\n      pop\n      jump\t// out\n        /* \"#utility.yul\":25391:25571   */\n    tag_560:\n        /* \"#utility.yul\":25439:25516   */\n      0x4e487b7100000000000000000000000000000000000000000000000000000000\n        /* \"#utility.yul\":25436:25437   */\n      0x00\n        /* \"#utility.yul\":25429:25517   */\n      mstore\n        /* \"#utility.yul\":25536:25540   */\n      0x11\n        /* \"#utility.yul\":25533:25534   */\n      0x04\n        /* \"#utility.yul\":25526:25541   */\n      mstore\n        /* \"#utility.yul\":25560:25564   */\n      0x24\n        /* \"#utility.yul\":25557:25558   */\n      0x00\n        /* \"#utility.yul\":25550:25565   */\n      revert\n        /* \"#utility.yul\":25577:25757   */\n    tag_566:\n        /* \"#utility.yul\":25625:25702   */\n      0x4e487b7100000000000000000000000000000000000000000000000000000000\n        /* \"#utility.yul\":25622:25623   */\n      0x00\n        /* \"#utility.yul\":25615:25703   */\n      mstore\n        /* \"#utility.yul\":25722:25726   */\n      0x12\n        /* \"#utility.yul\":25719:25720   */\n      0x04\n        /* \"#utility.yul\":25712:25727   */\n      mstore\n        /* \"#utility.yul\":25746:25750   */\n      0x24\n        /* \"#utility.yul\":25743:25744   */\n      0x00\n        /* \"#utility.yul\":25736:25751   */\n      revert\n        /* \"#utility.yul\":25763:25943   */\n    tag_590:\n        /* \"#utility.yul\":25811:25888   */\n      0x4e487b7100000000000000000000000000000000000000000000000000000000\n        /* \"#utility.yul\":25808:25809   */\n      0x00\n        /* \"#utility.yul\":25801:25889   */\n      mstore\n        /* \"#utility.yul\":25908:25912   */\n      0x22\n        /* \"#utility.yul\":25905:25906   */\n      0x04\n        /* \"#utility.yul\":25898:25913   */\n      mstore\n        /* \"#utility.yul\":25932:25936   */\n      0x24\n        /* \"#utility.yul\":25929:25930   */\n      0x00\n        /* \"#utility.yul\":25922:25937   */\n      revert\n        /* \"#utility.yul\":25949:26129   */\n    tag_544:\n        /* \"#utility.yul\":25997:26074   */\n      0x4e487b7100000000000000000000000000000000000000000000000000000000\n        /* \"#utility.yul\":25994:25995   */\n      0x00\n        /* \"#utility.yul\":25987:26075   */\n      mstore\n        /* \"#utility.yul\":26094:26098   */\n      0x41\n        /* \"#utility.yul\":26091:26092   */\n      0x04\n        /* \"#utility.yul\":26084:26099   */\n      mstore\n        /* \"#utility.yul\":26118:26122   */\n      0x24\n        /* \"#utility.yul\":26115:26116   */\n      0x00\n        /* \"#utility.yul\":26108:26123   */\n      revert\n        /* \"#utility.yul\":26135:26237   */\n    tag_402:\n      0x00\n        /* \"#utility.yul\":26227:26229   */\n      0x1f\n        /* \"#utility.yul\":26223:26230   */\n      not\n        /* \"#utility.yul\":26218:26220   */\n      0x1f\n        /* \"#utility.yul\":26211:26216   */\n      dup4\n        /* \"#utility.yul\":26207:26221   */\n      add\n        /* \"#utility.yul\":26203:26231   */\n      and\n        /* \"#utility.yul\":26193:26231   */\n      swap1\n      pop\n        /* \"#utility.yul\":26183:26237   */\n      swap2\n      swap1\n      pop\n      jump\t// out\n        /* \"#utility.yul\":26243:26480   */\n    tag_421:\n        /* \"#utility.yul\":26383:26417   */\n      0x4552433732313a207472616e7366657220746f206e6f6e204552433732315265\n        /* \"#utility.yul\":26379:26380   */\n      0x00\n        /* \"#utility.yul\":26371:26377   */\n      dup3\n        /* \"#utility.yul\":26367:26381   */\n      add\n        /* \"#utility.yul\":26360:26418   */\n      mstore\n        /* \"#utility.yul\":26452:26472   */\n      0x63656976657220696d706c656d656e7465720000000000000000000000000000\n        /* \"#utility.yul\":26447:26449   */\n      0x20\n        /* \"#utility.yul\":26439:26445   */\n      dup3\n        /* \"#utility.yul\":26435:26450   */\n      add\n        /* \"#utility.yul\":26428:26473   */\n      mstore\n        /* \"#utility.yul\":26349:26480   */\n      pop\n      jump\t// out\n        /* \"#utility.yul\":26486:26710   */\n    tag_426:\n        /* \"#utility.yul\":26626:26660   */\n      0x4552433732313a207472616e736665722066726f6d20696e636f727265637420\n        /* \"#utility.yul\":26622:26623   */\n      0x00\n        /* \"#utility.yul\":26614:26620   */\n      dup3\n        /* \"#utility.yul\":26610:26624   */\n      add\n        /* \"#utility.yul\":26603:26661   */\n      mstore\n        /* \"#utility.yul\":26695:26702   */\n      0x6f776e6572000000000000000000000000000000000000000000000000000000\n        /* \"#utility.yul\":26690:26692   */\n      0x20\n        /* \"#utility.yul\":26682:26688   */\n      dup3\n        /* \"#utility.yul\":26678:26693   */\n      add\n        /* \"#utility.yul\":26671:26703   */\n      mstore\n        /* \"#utility.yul\":26592:26710   */\n      pop\n      jump\t// out\n        /* \"#utility.yul\":26716:26894   */\n    tag_431:\n        /* \"#utility.yul\":26856:26886   */\n      0x4552433732313a20746f6b656e20616c7265616479206d696e74656400000000\n        /* \"#utility.yul\":26852:26853   */\n      0x00\n        /* \"#utility.yul\":26844:26850   */\n      dup3\n        /* \"#utility.yul\":26840:26854   */\n      add\n        /* \"#utility.yul\":26833:26887   */\n      mstore\n        /* \"#utility.yul\":26822:26894   */\n      pop\n      jump\t// out\n        /* \"#utility.yul\":26900:27123   */\n    tag_436:\n        /* \"#utility.yul\":27040:27074   */\n      0x4552433732313a207472616e7366657220746f20746865207a65726f20616464\n        /* \"#utility.yul\":27036:27037   */\n      0x00\n        /* \"#utility.yul\":27028:27034   */\n      dup3\n        /* \"#utility.yul\":27024:27038   */\n      add\n        /* \"#utility.yul\":27017:27075   */\n      mstore\n        /* \"#utility.yul\":27109:27115   */\n      0x7265737300000000000000000000000000000000000000000000000000000000\n        /* \"#utility.yul\":27104:27106   */\n      0x20\n        /* \"#utility.yul\":27096:27102   */\n      dup3\n        /* \"#utility.yul\":27092:27107   */\n      add\n        /* \"#utility.yul\":27085:27116   */\n      mstore\n        /* \"#utility.yul\":27006:27123   */\n      pop\n      jump\t// out\n        /* \"#utility.yul\":27129:27304   */\n    tag_441:\n        /* \"#utility.yul\":27269:27296   */\n      0x4552433732313a20617070726f766520746f2063616c6c657200000000000000\n        /* \"#utility.yul\":27265:27266   */\n      0x00\n        /* \"#utility.yul\":27257:27263   */\n      dup3\n        /* \"#utility.yul\":27253:27267   */\n      add\n        /* \"#utility.yul\":27246:27297   */\n      mstore\n        /* \"#utility.yul\":27235:27304   */\n      pop\n      jump\t// out\n        /* \"#utility.yul\":27310:27541   */\n    tag_446:\n        /* \"#utility.yul\":27450:27484   */\n      0x4552433732313a206f70657261746f7220717565727920666f72206e6f6e6578\n        /* \"#utility.yul\":27446:27447   */\n      0x00\n        /* \"#utility.yul\":27438:27444   */\n      dup3\n        /* \"#utility.yul\":27434:27448   */\n      add\n        /* \"#utility.yul\":27427:27485   */\n      mstore\n        /* \"#utility.yul\":27519:27533   */\n      0x697374656e7420746f6b656e0000000000000000000000000000000000000000\n        /* \"#utility.yul\":27514:27516   */\n      0x20\n        /* \"#utility.yul\":27506:27512   */\n      dup3\n        /* \"#utility.yul\":27502:27517   */\n      add\n        /* \"#utility.yul\":27495:27534   */\n      mstore\n        /* \"#utility.yul\":27416:27541   */\n      pop\n      jump\t// out\n        /* \"#utility.yul\":27547:27790   */\n    tag_451:\n        /* \"#utility.yul\":27687:27721   */\n      0x4552433732313a20617070726f76652063616c6c6572206973206e6f74206f77\n        /* \"#utility.yul\":27683:27684   */\n      0x00\n        /* \"#utility.yul\":27675:27681   */\n      dup3\n        /* \"#utility.yul\":27671:27685   */\n      add\n        /* \"#utility.yul\":27664:27722   */\n      mstore\n        /* \"#utility.yul\":27756:27782   */\n      0x6e6572206e6f7220617070726f76656420666f7220616c6c0000000000000000\n        /* \"#utility.yul\":27751:27753   */\n      0x20\n        /* \"#utility.yul\":27743:27749   */\n      dup3\n        /* \"#utility.yul\":27739:27754   */\n      add\n        /* \"#utility.yul\":27732:27783   */\n      mstore\n        /* \"#utility.yul\":27653:27790   */\n      pop\n      jump\t// out\n        /* \"#utility.yul\":27796:28025   */\n    tag_456:\n        /* \"#utility.yul\":27936:27970   */\n      0x4552433732313a2062616c616e636520717565727920666f7220746865207a65\n        /* \"#utility.yul\":27932:27933   */\n      0x00\n        /* \"#utility.yul\":27924:27930   */\n      dup3\n        /* \"#utility.yul\":27920:27934   */\n      add\n        /* \"#utility.yul\":27913:27971   */\n      mstore\n        /* \"#utility.yul\":28005:28017   */\n      0x726f206164647265737300000000000000000000000000000000000000000000\n        /* \"#utility.yul\":28000:28002   */\n      0x20\n        /* \"#utility.yul\":27992:27998   */\n      dup3\n        /* \"#utility.yul\":27988:28003   */\n      add\n        /* \"#utility.yul\":27981:28018   */\n      mstore\n        /* \"#utility.yul\":27902:28025   */\n      pop\n      jump\t// out\n        /* \"#utility.yul\":28031:28259   */\n    tag_461:\n        /* \"#utility.yul\":28171:28205   */\n      0x4552433732313a206f776e657220717565727920666f72206e6f6e6578697374\n        /* \"#utility.yul\":28167:28168   */\n      0x00\n        /* \"#utility.yul\":28159:28165   */\n      dup3\n        /* \"#utility.yul\":28155:28169   */\n      add\n        /* \"#utility.yul\":28148:28206   */\n      mstore\n        /* \"#utility.yul\":28240:28251   */\n      0x656e7420746f6b656e0000000000000000000000000000000000000000000000\n        /* \"#utility.yul\":28235:28237   */\n      0x20\n        /* \"#utility.yul\":28227:28233   */\n      dup3\n        /* \"#utility.yul\":28223:28238   */\n      add\n        /* \"#utility.yul\":28216:28252   */\n      mstore\n        /* \"#utility.yul\":28137:28259   */\n      pop\n      jump\t// out\n        /* \"#utility.yul\":28265:28447   */\n    tag_466:\n        /* \"#utility.yul\":28405:28439   */\n      0x4552433732313a206d696e7420746f20746865207a65726f2061646472657373\n        /* \"#utility.yul\":28401:28402   */\n      0x00\n        /* \"#utility.yul\":28393:28399   */\n      dup3\n        /* \"#utility.yul\":28389:28403   */\n      add\n        /* \"#utility.yul\":28382:28440   */\n      mstore\n        /* \"#utility.yul\":28371:28447   */\n      pop\n      jump\t// out\n        /* \"#utility.yul\":28453:28684   */\n    tag_471:\n        /* \"#utility.yul\":28593:28627   */\n      0x4552433732313a20617070726f76656420717565727920666f72206e6f6e6578\n        /* \"#utility.yul\":28589:28590   */\n      0x00\n        /* \"#utility.yul\":28581:28587   */\n      dup3\n        /* \"#utility.yul\":28577:28591   */\n      add\n        /* \"#utility.yul\":28570:28628   */\n      mstore\n        /* \"#utility.yul\":28662:28676   */\n      0x697374656e7420746f6b656e0000000000000000000000000000000000000000\n        /* \"#utility.yul\":28657:28659   */\n      0x20\n        /* \"#utility.yul\":28649:28655   */\n      dup3\n        /* \"#utility.yul\":28645:28660   */\n      add\n        /* \"#utility.yul\":28638:28677   */\n      mstore\n        /* \"#utility.yul\":28559:28684   */\n      pop\n      jump\t// out\n        /* \"#utility.yul\":28690:28924   */\n    tag_476:\n        /* \"#utility.yul\":28830:28864   */\n      0x4552433732314d657461646174613a2055524920717565727920666f72206e6f\n        /* \"#utility.yul\":28826:28827   */\n      0x00\n        /* \"#utility.yul\":28818:28824   */\n      dup3\n        /* \"#utility.yul\":28814:28828   */\n      add\n        /* \"#utility.yul\":28807:28865   */\n      mstore\n        /* \"#utility.yul\":28899:28916   */\n      0x6e6578697374656e7420746f6b656e0000000000000000000000000000000000\n        /* \"#utility.yul\":28894:28896   */\n      0x20\n        /* \"#utility.yul\":28886:28892   */\n      dup3\n        /* \"#utility.yul\":28882:28897   */\n      add\n        /* \"#utility.yul\":28875:28917   */\n      mstore\n        /* \"#utility.yul\":28796:28924   */\n      pop\n      jump\t// out\n        /* \"#utility.yul\":28930:29150   */\n    tag_481:\n        /* \"#utility.yul\":29070:29104   */\n      0x4552433732313a20617070726f76616c20746f2063757272656e74206f776e65\n        /* \"#utility.yul\":29066:29067   */\n      0x00\n        /* \"#utility.yul\":29058:29064   */\n      dup3\n        /* \"#utility.yul\":29054:29068   */\n      add\n        /* \"#utility.yul\":29047:29105   */\n      mstore\n        /* \"#utility.yul\":29139:29142   */\n      0x7200000000000000000000000000000000000000000000000000000000000000\n        /* \"#utility.yul\":29134:29136   */\n      0x20\n        /* \"#utility.yul\":29126:29132   */\n      dup3\n        /* \"#utility.yul\":29122:29137   */\n      add\n        /* \"#utility.yul\":29115:29143   */\n      mstore\n        /* \"#utility.yul\":29036:29150   */\n      pop\n      jump\t// out\n        /* \"#utility.yul\":29156:29392   */\n    tag_486:\n        /* \"#utility.yul\":29296:29330   */\n      0x4552433732313a207472616e736665722063616c6c6572206973206e6f74206f\n        /* \"#utility.yul\":29292:29293   */\n      0x00\n        /* \"#utility.yul\":29284:29290   */\n      dup3\n        /* \"#utility.yul\":29280:29294   */\n      add\n        /* \"#utility.yul\":29273:29331   */\n      mstore\n        /* \"#utility.yul\":29365:29384   */\n      0x776e6572206e6f7220617070726f766564000000000000000000000000000000\n        /* \"#utility.yul\":29360:29362   */\n      0x20\n        /* \"#utility.yul\":29352:29358   */\n      dup3\n        /* \"#utility.yul\":29348:29363   */\n      add\n        /* \"#utility.yul\":29341:29385   */\n      mstore\n        /* \"#utility.yul\":29262:29392   */\n      pop\n      jump\t// out\n        /* \"#utility.yul\":29398:29520   */\n    tag_319:\n        /* \"#utility.yul\":29471:29495   */\n      tag_624\n        /* \"#utility.yul\":29489:29494   */\n      dup2\n        /* \"#utility.yul\":29471:29495   */\n      tag_388\n      jump\t// in\n    tag_624:\n        /* \"#utility.yul\":29464:29469   */\n      dup2\n        /* \"#utility.yul\":29461:29496   */\n      eq\n        /* \"#utility.yul\":29451:29453   */\n      tag_625\n      jumpi\n        /* \"#utility.yul\":29510:29511   */\n      0x00\n        /* \"#utility.yul\":29507:29508   */\n      dup1\n        /* \"#utility.yul\":29500:29512   */\n      revert\n        /* \"#utility.yul\":29451:29453   */\n    tag_625:\n        /* \"#utility.yul\":29441:29520   */\n      pop\n      jump\t// out\n        /* \"#utility.yul\":29526:29642   */\n    tag_323:\n        /* \"#utility.yul\":29596:29617   */\n      tag_627\n        /* \"#utility.yul\":29611:29616   */\n      dup2\n        /* \"#utility.yul\":29596:29617   */\n      tag_392\n      jump\t// in\n    tag_627:\n        /* \"#utility.yul\":29589:29594   */\n      dup2\n        /* \"#utility.yul\":29586:29618   */\n      eq\n        /* \"#utility.yul\":29576:29578   */\n      tag_628\n      jumpi\n        /* \"#utility.yul\":29632:29633   */\n      0x00\n        /* \"#utility.yul\":29629:29630   */\n      dup1\n        /* \"#utility.yul\":29622:29634   */\n      revert\n        /* \"#utility.yul\":29576:29578   */\n    tag_628:\n        /* \"#utility.yul\":29566:29642   */\n      pop\n      jump\t// out\n        /* \"#utility.yul\":29648:29768   */\n    tag_327:\n        /* \"#utility.yul\":29720:29743   */\n      tag_630\n        /* \"#utility.yul\":29737:29742   */\n      dup2\n        /* \"#utility.yul\":29720:29743   */\n      tag_576\n      jump\t// in\n    tag_630:\n        /* \"#utility.yul\":29713:29718   */\n      dup2\n        /* \"#utility.yul\":29710:29744   */\n      eq\n        /* \"#utility.yul\":29700:29702   */\n      tag_631\n      jumpi\n        /* \"#utility.yul\":29758:29759   */\n      0x00\n        /* \"#utility.yul\":29755:29756   */\n      dup1\n        /* \"#utility.yul\":29748:29760   */\n      revert\n        /* \"#utility.yul\":29700:29702   */\n    tag_631:\n        /* \"#utility.yul\":29690:29768   */\n      pop\n      jump\t// out\n        /* \"#utility.yul\":29774:29896   */\n    tag_342:\n        /* \"#utility.yul\":29847:29871   */\n      tag_633\n        /* \"#utility.yul\":29865:29870   */\n      dup2\n        /* \"#utility.yul\":29847:29871   */\n      tag_490\n      jump\t// in\n    tag_633:\n        /* \"#utility.yul\":29840:29845   */\n      dup2\n        /* \"#utility.yul\":29837:29872   */\n      eq\n        /* \"#utility.yul\":29827:29829   */\n      tag_634\n      jumpi\n        /* \"#utility.yul\":29886:29887   */\n      0x00\n        /* \"#utility.yul\":29883:29884   */\n      dup1\n        /* \"#utility.yul\":29876:29888   */\n      revert\n        /* \"#utility.yul\":29827:29829   */\n    tag_634:\n        /* \"#utility.yul\":29817:29896   */\n      pop\n      jump\t// out\n\n    auxdata: 0xa2646970667358221220448bc0d9748b3323259a53b348665b1f5c30c49fe76de8231efaa34577f32c5764736f6c63430008010033\n}\n",
				"bytecode": {
					"linkReferences": {},
					"object": "60806040523480156200001157600080fd5b506040518060400160405280600e81526020017f4e465420436f6c6c656374696f6e0000000000000000000000000000000000008152506040518060400160405280600481526020017f4e46544300000000000000000000000000000000000000000000000000000000815250816000908051906020019062000096929190620000b8565b508060019080519060200190620000af929190620000b8565b505050620001cd565b828054620000c69062000168565b90600052602060002090601f016020900481019282620000ea576000855562000136565b82601f106200010557805160ff191683800117855562000136565b8280016001018555821562000136579182015b828111156200013557825182559160200191906001019062000118565b5b50905062000145919062000149565b5090565b5b80821115620001645760008160009055506001016200014a565b5090565b600060028204905060018216806200018157607f821691505b602082108114156200019857620001976200019e565b5b50919050565b7f4e487b7100000000000000000000000000000000000000000000000000000000600052602260045260246000fd5b612a2e80620001dd6000396000f3fe608060405234801561001057600080fd5b50600436106100f55760003560e01c806370a0823111610097578063c87b56dd11610066578063c87b56dd14610282578063cde08c40146102b2578063e9605544146102e2578063e985e9c514610312576100f5565b806370a08231146101fc57806395d89b411461022c578063a22cb4651461024a578063b88d4fde14610266576100f5565b8063095ea7b3116100d3578063095ea7b31461017857806323b872dd1461019457806342842e0e146101b05780636352211e146101cc576100f5565b806301ffc9a7146100fa57806306fdde031461012a578063081812fc14610148575b600080fd5b610114600480360381019061010f9190611b93565b610342565b6040516101219190611fbf565b60405180910390f35b610132610424565b60405161013f9190611fda565b60405180910390f35b610162600480360381019061015d9190611c51565b6104b6565b60405161016f9190611f58565b60405180910390f35b610192600480360381019061018d9190611b57565b61053b565b005b6101ae60048036038101906101a99190611a51565b610653565b005b6101ca60048036038101906101c59190611a51565b6106b3565b005b6101e660048036038101906101e19190611c51565b6106d3565b6040516101f39190611f58565b60405180910390f35b610216600480360381019061021191906119ec565b610785565b60405161022391906121bc565b60405180910390f35b61023461083d565b6040516102419190611fda565b60405180910390f35b610264600480360381019061025f9190611b1b565b6108cf565b005b610280600480360381019061027b9190611aa0565b6108e5565b005b61029c60048036038101906102979190611c51565b610947565b6040516102a99190611fda565b60405180910390f35b6102cc60048036038101906102c79190611a51565b6109ee565b6040516102d99190611fbf565b60405180910390f35b6102fc60048036038101906102f79190611be5565b610a06565b60405161030991906121bc565b60405180910390f35b61032c60048036038101906103279190611a15565b610afc565b6040516103399190611fbf565b60405180910390f35b60007f80ac58cd000000000000000000000000000000000000000000000000000000007bffffffffffffffffffffffffffffffffffffffffffffffffffffffff1916827bffffffffffffffffffffffffffffffffffffffffffffffffffffffff1916148061040d57507f5b5e139f000000000000000000000000000000000000000000000000000000007bffffffffffffffffffffffffffffffffffffffffffffffffffffffff1916827bffffffffffffffffffffffffffffffffffffffffffffffffffffffff1916145b8061041d575061041c82610b90565b5b9050919050565b60606000805461043390612412565b80601f016020809104026020016040519081016040528092919081815260200182805461045f90612412565b80156104ac5780601f10610481576101008083540402835291602001916104ac565b820191906000526020600020905b81548152906001019060200180831161048f57829003601f168201915b5050505050905090565b60006104c182610bfa565b610500576040517f08c379a00000000000000000000000000000000000000000000000000000000081526004016104f79061213c565b60405180910390fd5b6004600083815260200190815260200160002060009054906101000a900473ffffffffffffffffffffffffffffffffffffffff169050919050565b6000610546826106d3565b90508073ffffffffffffffffffffffffffffffffffffffff168373ffffffffffffffffffffffffffffffffffffffff1614156105b7576040517f08c379a00000000000000000000000000000000000000000000000000000000081526004016105ae9061217c565b60405180910390fd5b8073ffffffffffffffffffffffffffffffffffffffff166105d6610c66565b73ffffffffffffffffffffffffffffffffffffffff1614806106055750610604816105ff610c66565b610afc565b5b610644576040517f08c379a000000000000000000000000000000000000000000000000000000000815260040161063b906120bc565b60405180910390fd5b61064e8383610c6e565b505050565b61066461065e610c66565b82610d27565b6106a3576040517f08c379a000000000000000000000000000000000000000000000000000000000815260040161069a9061219c565b60405180910390fd5b6106ae838383610e05565b505050565b6106ce838383604051806020016040528060008152506108e5565b505050565b6000806002600084815260200190815260200160002060009054906101000a900473ffffffffffffffffffffffffffffffffffffffff169050600073ffffffffffffffffffffffffffffffffffffffff168173ffffffffffffffffffffffffffffffffffffffff16141561077c576040517f08c379a0000000000000000000000000000000000000000000000000000000008152600401610773906120fc565b60405180910390fd5b80915050919050565b60008073ffffffffffffffffffffffffffffffffffffffff168273ffffffffffffffffffffffffffffffffffffffff1614156107f6576040517f08c379a00000000000000000000000000000000000000000000000000000000081526004016107ed906120dc565b60405180910390fd5b600360008373ffffffffffffffffffffffffffffffffffffffff1673ffffffffffffffffffffffffffffffffffffffff168152602001908152602001600020549050919050565b60606001805461084c90612412565b80601f016020809104026020016040519081016040528092919081815260200182805461087890612412565b80156108c55780601f1061089a576101008083540402835291602001916108c5565b820191906000526020600020905b8154815290600101906020018083116108a857829003601f168201915b5050505050905090565b6108e16108da610c66565b838361106c565b5050565b6108f66108f0610c66565b83610d27565b610935576040517f08c379a000000000000000000000000000000000000000000000000000000000815260040161092c9061219c565b60405180910390fd5b610941848484846111d9565b50505050565b606061095282610bfa565b610991576040517f08c379a00000000000000000000000000000000000000000000000000000000081526004016109889061215c565b60405180910390fd5b600061099b611235565b905060008151116109bb57604051806020016040528060008152506109e6565b806109c58461124c565b6040516020016109d6929190611f34565b6040516020818303038152906040525b915050919050565b60006109fb8484846106b3565b600190509392505050565b6000600660405180604001604052808581526020018481525090806001815401808255809150506001900390600052602060002090600202016000909190919091506000820151816000019080519060200190610a64929190611810565b506020820151816001019080519060200190610a81929190611810565b50505060006001600680549050610a989190612328565b9050610aa433826113f9565b3373ffffffffffffffffffffffffffffffffffffffff167ff3cea5493d790af0133817606f7350a91d7f154ea52eaa79d179d4d231e5010282604051610aea91906121bc565b60405180910390a28091505092915050565b6000600560008473ffffffffffffffffffffffffffffffffffffffff1673ffffffffffffffffffffffffffffffffffffffff16815260200190815260200160002060008373ffffffffffffffffffffffffffffffffffffffff1673ffffffffffffffffffffffffffffffffffffffff16815260200190815260200160002060009054906101000a900460ff16905092915050565b60007f01ffc9a7000000000000000000000000000000000000000000000000000000007bffffffffffffffffffffffffffffffffffffffffffffffffffffffff1916827bffffffffffffffffffffffffffffffffffffffffffffffffffffffff1916149050919050565b60008073ffffffffffffffffffffffffffffffffffffffff166002600084815260200190815260200160002060009054906101000a900473ffffffffffffffffffffffffffffffffffffffff1673ffffffffffffffffffffffffffffffffffffffff1614159050919050565b600033905090565b816004600083815260200190815260200160002060006101000a81548173ffffffffffffffffffffffffffffffffffffffff021916908373ffffffffffffffffffffffffffffffffffffffff160217905550808273ffffffffffffffffffffffffffffffffffffffff16610ce1836106d3565b73ffffffffffffffffffffffffffffffffffffffff167f8c5be1e5ebec7d5bd14f71427d1e84f3dd0314c0f7b2291e5b200ac8c7c3b92560405160405180910390a45050565b6000610d3282610bfa565b610d71576040517f08c379a0000000000000000000000000000000000000000000000000000000008152600401610d689061209c565b60405180910390fd5b6000610d7c836106d3565b90508073ffffffffffffffffffffffffffffffffffffffff168473ffffffffffffffffffffffffffffffffffffffff161480610deb57508373ffffffffffffffffffffffffffffffffffffffff16610dd3846104b6565b73ffffffffffffffffffffffffffffffffffffffff16145b80610dfc5750610dfb8185610afc565b5b91505092915050565b8273ffffffffffffffffffffffffffffffffffffffff16610e25826106d3565b73ffffffffffffffffffffffffffffffffffffffff1614610e7b576040517f08c379a0000000000000000000000000000000000000000000000000000000008152600401610e729061201c565b60405180910390fd5b600073ffffffffffffffffffffffffffffffffffffffff168273ffffffffffffffffffffffffffffffffffffffff161415610eeb576040517f08c379a0000000000000000000000000000000000000000000000000000000008152600401610ee29061205c565b60405180910390fd5b610ef6838383611417565b610f01600082610c6e565b6001600360008573ffffffffffffffffffffffffffffffffffffffff1673ffffffffffffffffffffffffffffffffffffffff1681526020019081526020016000206000828254610f519190612328565b925050819055506001600360008473ffffffffffffffffffffffffffffffffffffffff1673ffffffffffffffffffffffffffffffffffffffff1681526020019081526020016000206000828254610fa891906122a1565b92505081905550816002600083815260200190815260200160002060006101000a81548173ffffffffffffffffffffffffffffffffffffffff021916908373ffffffffffffffffffffffffffffffffffffffff160217905550808273ffffffffffffffffffffffffffffffffffffffff168473ffffffffffffffffffffffffffffffffffffffff167fddf252ad1be2c89b69c2b068fc378daa952ba7f163c4a11628f55a4df523b3ef60405160405180910390a461106783838361141c565b505050565b8173ffffffffffffffffffffffffffffffffffffffff168373ffffffffffffffffffffffffffffffffffffffff1614156110db576040517f08c379a00000000000000000000000000000000000000000000000000000000081526004016110d29061207c565b60405180910390fd5b80600560008573ffffffffffffffffffffffffffffffffffffffff1673ffffffffffffffffffffffffffffffffffffffff16815260200190815260200160002060008473ffffffffffffffffffffffffffffffffffffffff1673ffffffffffffffffffffffffffffffffffffffff16815260200190815260200160002060006101000a81548160ff0219169083151502179055508173ffffffffffffffffffffffffffffffffffffffff168373ffffffffffffffffffffffffffffffffffffffff167f17307eab39ab6107e8899845ad3d59bd9653f200f220920489ca2b5937696c31836040516111cc9190611fbf565b60405180910390a3505050565b6111e4848484610e05565b6111f084848484611421565b61122f576040517f08c379a000000000000000000000000000000000000000000000000000000000815260040161122690611ffc565b60405180910390fd5b50505050565b606060405180602001604052806000815250905090565b60606000821415611294576040518060400160405280600181526020017f300000000000000000000000000000000000000000000000000000000000000081525090506113f4565b600082905060005b600082146112c65780806112af90612475565b915050600a826112bf91906122f7565b915061129c565b60008167ffffffffffffffff811115611308577f4e487b7100000000000000000000000000000000000000000000000000000000600052604160045260246000fd5b6040519080825280601f01601f19166020018201604052801561133a5781602001600182028036833780820191505090505b5090505b600085146113ed576001826113539190612328565b9150600a8561136291906124be565b603061136e91906122a1565b60f81b8183815181106113aa577f4e487b7100000000000000000000000000000000000000000000000000000000600052603260045260246000fd5b60200101907effffffffffffffffffffffffffffffffffffffffffffffffffffffffffffff1916908160001a905350600a856113e691906122f7565b945061133e565b8093505050505b919050565b6114138282604051806020016040528060008152506115b8565b5050565b505050565b505050565b60006114428473ffffffffffffffffffffffffffffffffffffffff16611613565b156115ab578373ffffffffffffffffffffffffffffffffffffffff1663150b7a0261146b610c66565b8786866040518563ffffffff1660e01b815260040161148d9493929190611f73565b602060405180830381600087803b1580156114a757600080fd5b505af19250505080156114d857506040513d601f19601f820116820180604052508101906114d59190611bbc565b60015b61155b573d8060008114611508576040519150601f19603f3d011682016040523d82523d6000602084013e61150d565b606091505b50600081511415611553576040517f08c379a000000000000000000000000000000000000000000000000000000000815260040161154a90611ffc565b60405180910390fd5b805181602001fd5b63150b7a0260e01b7bffffffffffffffffffffffffffffffffffffffffffffffffffffffff1916817bffffffffffffffffffffffffffffffffffffffffffffffffffffffff1916149150506115b0565b600190505b949350505050565b6115c28383611636565b6115cf6000848484611421565b61160e576040517f08c379a000000000000000000000000000000000000000000000000000000000815260040161160590611ffc565b60405180910390fd5b505050565b6000808273ffffffffffffffffffffffffffffffffffffffff163b119050919050565b600073ffffffffffffffffffffffffffffffffffffffff168273ffffffffffffffffffffffffffffffffffffffff1614156116a6576040517f08c379a000000000000000000000000000000000000000000000000000000000815260040161169d9061211c565b60405180910390fd5b6116af81610bfa565b156116ef576040517f08c379a00000000000000000000000000000000000000000000000000000000081526004016116e69061203c565b60405180910390fd5b6116fb60008383611417565b6001600360008473ffffffffffffffffffffffffffffffffffffffff1673ffffffffffffffffffffffffffffffffffffffff168152602001908152602001600020600082825461174b91906122a1565b92505081905550816002600083815260200190815260200160002060006101000a81548173ffffffffffffffffffffffffffffffffffffffff021916908373ffffffffffffffffffffffffffffffffffffffff160217905550808273ffffffffffffffffffffffffffffffffffffffff16600073ffffffffffffffffffffffffffffffffffffffff167fddf252ad1be2c89b69c2b068fc378daa952ba7f163c4a11628f55a4df523b3ef60405160405180910390a461180c6000838361141c565b5050565b82805461181c90612412565b90600052602060002090601f01602090048101928261183e5760008555611885565b82601f1061185757805160ff1916838001178555611885565b82800160010185558215611885579182015b82811115611884578251825591602001919060010190611869565b5b5090506118929190611896565b5090565b5b808211156118af576000816000905550600101611897565b5090565b60006118c66118c1846121fc565b6121d7565b9050828152602081018484840111156118de57600080fd5b6118e98482856123d0565b509392505050565b60006119046118ff8461222d565b6121d7565b90508281526020810184848401111561191c57600080fd5b6119278482856123d0565b509392505050565b60008135905061193e8161299c565b92915050565b600081359050611953816129b3565b92915050565b600081359050611968816129ca565b92915050565b60008151905061197d816129ca565b92915050565b600082601f83011261199457600080fd5b81356119a48482602086016118b3565b91505092915050565b600082601f8301126119be57600080fd5b81356119ce8482602086016118f1565b91505092915050565b6000813590506119e6816129e1565b92915050565b6000602082840312156119fe57600080fd5b6000611a0c8482850161192f565b91505092915050565b60008060408385031215611a2857600080fd5b6000611a368582860161192f565b9250506020611a478582860161192f565b9150509250929050565b600080600060608486031215611a6657600080fd5b6000611a748682870161192f565b9350506020611a858682870161192f565b9250506040611a96868287016119d7565b9150509250925092565b60008060008060808587031215611ab657600080fd5b6000611ac48782880161192f565b9450506020611ad58782880161192f565b9350506040611ae6878288016119d7565b925050606085013567ffffffffffffffff811115611b0357600080fd5b611b0f87828801611983565b91505092959194509250565b60008060408385031215611b2e57600080fd5b6000611b3c8582860161192f565b9250506020611b4d85828601611944565b9150509250929050565b60008060408385031215611b6a57600080fd5b6000611b788582860161192f565b9250506020611b89858286016119d7565b9150509250929050565b600060208284031215611ba557600080fd5b6000611bb384828501611959565b91505092915050565b600060208284031215611bce57600080fd5b6000611bdc8482850161196e565b91505092915050565b60008060408385031215611bf857600080fd5b600083013567ffffffffffffffff811115611c1257600080fd5b611c1e858286016119ad565b925050602083013567ffffffffffffffff811115611c3b57600080fd5b611c47858286016119ad565b9150509250929050565b600060208284031215611c6357600080fd5b6000611c71848285016119d7565b91505092915050565b611c838161235c565b82525050565b611c928161236e565b82525050565b6000611ca38261225e565b611cad8185612274565b9350611cbd8185602086016123df565b611cc6816125ab565b840191505092915050565b6000611cdc82612269565b611ce68185612285565b9350611cf68185602086016123df565b611cff816125ab565b840191505092915050565b6000611d1582612269565b611d1f8185612296565b9350611d2f8185602086016123df565b80840191505092915050565b6000611d48603283612285565b9150611d53826125bc565b604082019050919050565b6000611d6b602583612285565b9150611d768261260b565b604082019050919050565b6000611d8e601c83612285565b9150611d998261265a565b602082019050919050565b6000611db1602483612285565b9150611dbc82612683565b604082019050919050565b6000611dd4601983612285565b9150611ddf826126d2565b602082019050919050565b6000611df7602c83612285565b9150611e02826126fb565b604082019050919050565b6000611e1a603883612285565b9150611e258261274a565b604082019050919050565b6000611e3d602a83612285565b9150611e4882612799565b604082019050919050565b6000611e60602983612285565b9150611e6b826127e8565b604082019050919050565b6000611e83602083612285565b9150611e8e82612837565b602082019050919050565b6000611ea6602c83612285565b9150611eb182612860565b604082019050919050565b6000611ec9602f83612285565b9150611ed4826128af565b604082019050919050565b6000611eec602183612285565b9150611ef7826128fe565b604082019050919050565b6000611f0f603183612285565b9150611f1a8261294d565b604082019050919050565b611f2e816123c6565b82525050565b6000611f408285611d0a565b9150611f4c8284611d0a565b91508190509392505050565b6000602082019050611f6d6000830184611c7a565b92915050565b6000608082019050611f886000830187611c7a565b611f956020830186611c7a565b611fa26040830185611f25565b8181036060830152611fb48184611c98565b905095945050505050565b6000602082019050611fd46000830184611c89565b92915050565b60006020820190508181036000830152611ff48184611cd1565b905092915050565b6000602082019050818103600083015261201581611d3b565b9050919050565b6000602082019050818103600083015261203581611d5e565b9050919050565b6000602082019050818103600083015261205581611d81565b9050919050565b6000602082019050818103600083015261207581611da4565b9050919050565b6000602082019050818103600083015261209581611dc7565b9050919050565b600060208201905081810360008301526120b581611dea565b9050919050565b600060208201905081810360008301526120d581611e0d565b9050919050565b600060208201905081810360008301526120f581611e30565b9050919050565b6000602082019050818103600083015261211581611e53565b9050919050565b6000602082019050818103600083015261213581611e76565b9050919050565b6000602082019050818103600083015261215581611e99565b9050919050565b6000602082019050818103600083015261217581611ebc565b9050919050565b6000602082019050818103600083015261219581611edf565b9050919050565b600060208201905081810360008301526121b581611f02565b9050919050565b60006020820190506121d16000830184611f25565b92915050565b60006121e16121f2565b90506121ed8282612444565b919050565b6000604051905090565b600067ffffffffffffffff8211156122175761221661257c565b5b612220826125ab565b9050602081019050919050565b600067ffffffffffffffff8211156122485761224761257c565b5b612251826125ab565b9050602081019050919050565b600081519050919050565b600081519050919050565b600082825260208201905092915050565b600082825260208201905092915050565b600081905092915050565b60006122ac826123c6565b91506122b7836123c6565b9250827fffffffffffffffffffffffffffffffffffffffffffffffffffffffffffffffff038211156122ec576122eb6124ef565b5b828201905092915050565b6000612302826123c6565b915061230d836123c6565b92508261231d5761231c61251e565b5b828204905092915050565b6000612333826123c6565b915061233e836123c6565b925082821015612351576123506124ef565b5b828203905092915050565b6000612367826123a6565b9050919050565b60008115159050919050565b60007fffffffff0000000000000000000000000000000000000000000000000000000082169050919050565b600073ffffffffffffffffffffffffffffffffffffffff82169050919050565b6000819050919050565b82818337600083830152505050565b60005b838110156123fd5780820151818401526020810190506123e2565b8381111561240c576000848401525b50505050565b6000600282049050600182168061242a57607f821691505b6020821081141561243e5761243d61254d565b5b50919050565b61244d826125ab565b810181811067ffffffffffffffff8211171561246c5761246b61257c565b5b80604052505050565b6000612480826123c6565b91507fffffffffffffffffffffffffffffffffffffffffffffffffffffffffffffffff8214156124b3576124b26124ef565b5b600182019050919050565b60006124c9826123c6565b91506124d4836123c6565b9250826124e4576124e361251e565b5b828206905092915050565b7f4e487b7100000000000000000000000000000000000000000000000000000000600052601160045260246000fd5b7f4e487b7100000000000000000000000000000000000000000000000000000000600052601260045260246000fd5b7f4e487b7100000000000000000000000000000000000000000000000000000000600052602260045260246000fd5b7f4e487b7100000000000000000000000000000000000000000000000000000000600052604160045260246000fd5b6000601f19601f8301169050919050565b7f4552433732313a207472616e7366657220746f206e6f6e20455243373231526560008201527f63656976657220696d706c656d656e7465720000000000000000000000000000602082015250565b7f4552433732313a207472616e736665722066726f6d20696e636f72726563742060008201527f6f776e6572000000000000000000000000000000000000000000000000000000602082015250565b7f4552433732313a20746f6b656e20616c7265616479206d696e74656400000000600082015250565b7f4552433732313a207472616e7366657220746f20746865207a65726f2061646460008201527f7265737300000000000000000000000000000000000000000000000000000000602082015250565b7f4552433732313a20617070726f766520746f2063616c6c657200000000000000600082015250565b7f4552433732313a206f70657261746f7220717565727920666f72206e6f6e657860008201527f697374656e7420746f6b656e0000000000000000000000000000000000000000602082015250565b7f4552433732313a20617070726f76652063616c6c6572206973206e6f74206f7760008201527f6e6572206e6f7220617070726f76656420666f7220616c6c0000000000000000602082015250565b7f4552433732313a2062616c616e636520717565727920666f7220746865207a6560008201527f726f206164647265737300000000000000000000000000000000000000000000602082015250565b7f4552433732313a206f776e657220717565727920666f72206e6f6e657869737460008201527f656e7420746f6b656e0000000000000000000000000000000000000000000000602082015250565b7f4552433732313a206d696e7420746f20746865207a65726f2061646472657373600082015250565b7f4552433732313a20617070726f76656420717565727920666f72206e6f6e657860008201527f697374656e7420746f6b656e0000000000000000000000000000000000000000602082015250565b7f4552433732314d657461646174613a2055524920717565727920666f72206e6f60008201527f6e6578697374656e7420746f6b656e0000000000000000000000000000000000602082015250565b7f4552433732313a20617070726f76616c20746f2063757272656e74206f776e6560008201527f7200000000000000000000000000000000000000000000000000000000000000602082015250565b7f4552433732313a207472616e736665722063616c6c6572206973206e6f74206f60008201527f776e6572206e6f7220617070726f766564000000000000000000000000000000602082015250565b6129a58161235c565b81146129b057600080fd5b50565b6129bc8161236e565b81146129c757600080fd5b50565b6129d38161237a565b81146129de57600080fd5b50565b6129ea816123c6565b81146129f557600080fd5b5056fea2646970667358221220448bc0d9748b3323259a53b348665b1f5c30c49fe76de8231efaa34577f32c5764736f6c63430008010033",
					"opcodes": "PUSH1 0x80 PUSH1 0x40 MSTORE CALLVALUE DUP1 ISZERO PUSH3 0x11 JUMPI PUSH1 0x0 DUP1 REVERT JUMPDEST POP PUSH1 0x40 MLOAD DUP1 PUSH1 0x40 ADD PUSH1 0x40 MSTORE DUP1 PUSH1 0xE DUP2 MSTORE PUSH1 0x20 ADD PUSH32 0x4E465420436F6C6C656374696F6E000000000000000000000000000000000000 DUP2 MSTORE POP PUSH1 0x40 MLOAD DUP1 PUSH1 0x40 ADD PUSH1 0x40 MSTORE DUP1 PUSH1 0x4 DUP2 MSTORE PUSH1 0x20 ADD PUSH32 0x4E46544300000000000000000000000000000000000000000000000000000000 DUP2 MSTORE POP DUP2 PUSH1 0x0 SWAP1 DUP1 MLOAD SWAP1 PUSH1 0x20 ADD SWAP1 PUSH3 0x96 SWAP3 SWAP2 SWAP1 PUSH3 0xB8 JUMP JUMPDEST POP DUP1 PUSH1 0x1 SWAP1 DUP1 MLOAD SWAP1 PUSH1 0x20 ADD SWAP1 PUSH3 0xAF SWAP3 SWAP2 SWAP1 PUSH3 0xB8 JUMP JUMPDEST POP POP POP PUSH3 0x1CD JUMP JUMPDEST DUP3 DUP1 SLOAD PUSH3 0xC6 SWAP1 PUSH3 0x168 JUMP JUMPDEST SWAP1 PUSH1 0x0 MSTORE PUSH1 0x20 PUSH1 0x0 KECCAK256 SWAP1 PUSH1 0x1F ADD PUSH1 0x20 SWAP1 DIV DUP2 ADD SWAP3 DUP3 PUSH3 0xEA JUMPI PUSH1 0x0 DUP6 SSTORE PUSH3 0x136 JUMP JUMPDEST DUP3 PUSH1 0x1F LT PUSH3 0x105 JUMPI DUP1 MLOAD PUSH1 0xFF NOT AND DUP4 DUP1 ADD OR DUP6 SSTORE PUSH3 0x136 JUMP JUMPDEST DUP3 DUP1 ADD PUSH1 0x1 ADD DUP6 SSTORE DUP3 ISZERO PUSH3 0x136 JUMPI SWAP2 DUP3 ADD JUMPDEST DUP3 DUP2 GT ISZERO PUSH3 0x135 JUMPI DUP3 MLOAD DUP3 SSTORE SWAP2 PUSH1 0x20 ADD SWAP2 SWAP1 PUSH1 0x1 ADD SWAP1 PUSH3 0x118 JUMP JUMPDEST JUMPDEST POP SWAP1 POP PUSH3 0x145 SWAP2 SWAP1 PUSH3 0x149 JUMP JUMPDEST POP SWAP1 JUMP JUMPDEST JUMPDEST DUP1 DUP3 GT ISZERO PUSH3 0x164 JUMPI PUSH1 0x0 DUP2 PUSH1 0x0 SWAP1 SSTORE POP PUSH1 0x1 ADD PUSH3 0x14A JUMP JUMPDEST POP SWAP1 JUMP JUMPDEST PUSH1 0x0 PUSH1 0x2 DUP3 DIV SWAP1 POP PUSH1 0x1 DUP3 AND DUP1 PUSH3 0x181 JUMPI PUSH1 0x7F DUP3 AND SWAP2 POP JUMPDEST PUSH1 0x20 DUP3 LT DUP2 EQ ISZERO PUSH3 0x198 JUMPI PUSH3 0x197 PUSH3 0x19E JUMP JUMPDEST JUMPDEST POP SWAP2 SWAP1 POP JUMP JUMPDEST PUSH32 0x4E487B7100000000000000000000000000000000000000000000000000000000 PUSH1 0x0 MSTORE PUSH1 0x22 PUSH1 0x4 MSTORE PUSH1 0x24 PUSH1 0x0 REVERT JUMPDEST PUSH2 0x2A2E DUP1 PUSH3 0x1DD PUSH1 0x0 CODECOPY PUSH1 0x0 RETURN INVALID PUSH1 0x80 PUSH1 0x40 MSTORE CALLVALUE DUP1 ISZERO PUSH2 0x10 JUMPI PUSH1 0x0 DUP1 REVERT JUMPDEST POP PUSH1 0x4 CALLDATASIZE LT PUSH2 0xF5 JUMPI PUSH1 0x0 CALLDATALOAD PUSH1 0xE0 SHR DUP1 PUSH4 0x70A08231 GT PUSH2 0x97 JUMPI DUP1 PUSH4 0xC87B56DD GT PUSH2 0x66 JUMPI DUP1 PUSH4 0xC87B56DD EQ PUSH2 0x282 JUMPI DUP1 PUSH4 0xCDE08C40 EQ PUSH2 0x2B2 JUMPI DUP1 PUSH4 0xE9605544 EQ PUSH2 0x2E2 JUMPI DUP1 PUSH4 0xE985E9C5 EQ PUSH2 0x312 JUMPI PUSH2 0xF5 JUMP JUMPDEST DUP1 PUSH4 0x70A08231 EQ PUSH2 0x1FC JUMPI DUP1 PUSH4 0x95D89B41 EQ PUSH2 0x22C JUMPI DUP1 PUSH4 0xA22CB465 EQ PUSH2 0x24A JUMPI DUP1 PUSH4 0xB88D4FDE EQ PUSH2 0x266 JUMPI PUSH2 0xF5 JUMP JUMPDEST DUP1 PUSH4 0x95EA7B3 GT PUSH2 0xD3 JUMPI DUP1 PUSH4 0x95EA7B3 EQ PUSH2 0x178 JUMPI DUP1 PUSH4 0x23B872DD EQ PUSH2 0x194 JUMPI DUP1 PUSH4 0x42842E0E EQ PUSH2 0x1B0 JUMPI DUP1 PUSH4 0x6352211E EQ PUSH2 0x1CC JUMPI PUSH2 0xF5 JUMP JUMPDEST DUP1 PUSH4 0x1FFC9A7 EQ PUSH2 0xFA JUMPI DUP1 PUSH4 0x6FDDE03 EQ PUSH2 0x12A JUMPI DUP1 PUSH4 0x81812FC EQ PUSH2 0x148 JUMPI JUMPDEST PUSH1 0x0 DUP1 REVERT JUMPDEST PUSH2 0x114 PUSH1 0x4 DUP1 CALLDATASIZE SUB DUP2 ADD SWAP1 PUSH2 0x10F SWAP2 SWAP1 PUSH2 0x1B93 JUMP JUMPDEST PUSH2 0x342 JUMP JUMPDEST PUSH1 0x40 MLOAD PUSH2 0x121 SWAP2 SWAP1 PUSH2 0x1FBF JUMP JUMPDEST PUSH1 0x40 MLOAD DUP1 SWAP2 SUB SWAP1 RETURN JUMPDEST PUSH2 0x132 PUSH2 0x424 JUMP JUMPDEST PUSH1 0x40 MLOAD PUSH2 0x13F SWAP2 SWAP1 PUSH2 0x1FDA JUMP JUMPDEST PUSH1 0x40 MLOAD DUP1 SWAP2 SUB SWAP1 RETURN JUMPDEST PUSH2 0x162 PUSH1 0x4 DUP1 CALLDATASIZE SUB DUP2 ADD SWAP1 PUSH2 0x15D SWAP2 SWAP1 PUSH2 0x1C51 JUMP JUMPDEST PUSH2 0x4B6 JUMP JUMPDEST PUSH1 0x40 MLOAD PUSH2 0x16F SWAP2 SWAP1 PUSH2 0x1F58 JUMP JUMPDEST PUSH1 0x40 MLOAD DUP1 SWAP2 SUB SWAP1 RETURN JUMPDEST PUSH2 0x192 PUSH1 0x4 DUP1 CALLDATASIZE SUB DUP2 ADD SWAP1 PUSH2 0x18D SWAP2 SWAP1 PUSH2 0x1B57 JUMP JUMPDEST PUSH2 0x53B JUMP JUMPDEST STOP JUMPDEST PUSH2 0x1AE PUSH1 0x4 DUP1 CALLDATASIZE SUB DUP2 ADD SWAP1 PUSH2 0x1A9 SWAP2 SWAP1 PUSH2 0x1A51 JUMP JUMPDEST PUSH2 0x653 JUMP JUMPDEST STOP JUMPDEST PUSH2 0x1CA PUSH1 0x4 DUP1 CALLDATASIZE SUB DUP2 ADD SWAP1 PUSH2 0x1C5 SWAP2 SWAP1 PUSH2 0x1A51 JUMP JUMPDEST PUSH2 0x6B3 JUMP JUMPDEST STOP JUMPDEST PUSH2 0x1E6 PUSH1 0x4 DUP1 CALLDATASIZE SUB DUP2 ADD SWAP1 PUSH2 0x1E1 SWAP2 SWAP1 PUSH2 0x1C51 JUMP JUMPDEST PUSH2 0x6D3 JUMP JUMPDEST PUSH1 0x40 MLOAD PUSH2 0x1F3 SWAP2 SWAP1 PUSH2 0x1F58 JUMP JUMPDEST PUSH1 0x40 MLOAD DUP1 SWAP2 SUB SWAP1 RETURN JUMPDEST PUSH2 0x216 PUSH1 0x4 DUP1 CALLDATASIZE SUB DUP2 ADD SWAP1 PUSH2 0x211 SWAP2 SWAP1 PUSH2 0x19EC JUMP JUMPDEST PUSH2 0x785 JUMP JUMPDEST PUSH1 0x40 MLOAD PUSH2 0x223 SWAP2 SWAP1 PUSH2 0x21BC JUMP JUMPDEST PUSH1 0x40 MLOAD DUP1 SWAP2 SUB SWAP1 RETURN JUMPDEST PUSH2 0x234 PUSH2 0x83D JUMP JUMPDEST PUSH1 0x40 MLOAD PUSH2 0x241 SWAP2 SWAP1 PUSH2 0x1FDA JUMP JUMPDEST PUSH1 0x40 MLOAD DUP1 SWAP2 SUB SWAP1 RETURN JUMPDEST PUSH2 0x264 PUSH1 0x4 DUP1 CALLDATASIZE SUB DUP2 ADD SWAP1 PUSH2 0x25F SWAP2 SWAP1 PUSH2 0x1B1B JUMP JUMPDEST PUSH2 0x8CF JUMP JUMPDEST STOP JUMPDEST PUSH2 0x280 PUSH1 0x4 DUP1 CALLDATASIZE SUB DUP2 ADD SWAP1 PUSH2 0x27B SWAP2 SWAP1 PUSH2 0x1AA0 JUMP JUMPDEST PUSH2 0x8E5 JUMP JUMPDEST STOP JUMPDEST PUSH2 0x29C PUSH1 0x4 DUP1 CALLDATASIZE SUB DUP2 ADD SWAP1 PUSH2 0x297 SWAP2 SWAP1 PUSH2 0x1C51 JUMP JUMPDEST PUSH2 0x947 JUMP JUMPDEST PUSH1 0x40 MLOAD PUSH2 0x2A9 SWAP2 SWAP1 PUSH2 0x1FDA JUMP JUMPDEST PUSH1 0x40 MLOAD DUP1 SWAP2 SUB SWAP1 RETURN JUMPDEST PUSH2 0x2CC PUSH1 0x4 DUP1 CALLDATASIZE SUB DUP2 ADD SWAP1 PUSH2 0x2C7 SWAP2 SWAP1 PUSH2 0x1A51 JUMP JUMPDEST PUSH2 0x9EE JUMP JUMPDEST PUSH1 0x40 MLOAD PUSH2 0x2D9 SWAP2 SWAP1 PUSH2 0x1FBF JUMP JUMPDEST PUSH1 0x40 MLOAD DUP1 SWAP2 SUB SWAP1 RETURN JUMPDEST PUSH2 0x2FC PUSH1 0x4 DUP1 CALLDATASIZE SUB DUP2 ADD SWAP1 PUSH2 0x2F7 SWAP2 SWAP1 PUSH2 0x1BE5 JUMP JUMPDEST PUSH2 0xA06 JUMP JUMPDEST PUSH1 0x40 MLOAD PUSH2 0x309 SWAP2 SWAP1 PUSH2 0x21BC JUMP JUMPDEST PUSH1 0x40 MLOAD DUP1 SWAP2 SUB SWAP1 RETURN JUMPDEST PUSH2 0x32C PUSH1 0x4 DUP1 CALLDATASIZE SUB DUP2 ADD SWAP1 PUSH2 0x327 SWAP2 SWAP1 PUSH2 0x1A15 JUMP JUMPDEST PUSH2 0xAFC JUMP JUMPDEST PUSH1 0x40 MLOAD PUSH2 0x339 SWAP2 SWAP1 PUSH2 0x1FBF JUMP JUMPDEST PUSH1 0x40 MLOAD DUP1 SWAP2 SUB SWAP1 RETURN JUMPDEST PUSH1 0x0 PUSH32 0x80AC58CD00000000000000000000000000000000000000000000000000000000 PUSH28 0xFFFFFFFFFFFFFFFFFFFFFFFFFFFFFFFFFFFFFFFFFFFFFFFFFFFFFFFF NOT AND DUP3 PUSH28 0xFFFFFFFFFFFFFFFFFFFFFFFFFFFFFFFFFFFFFFFFFFFFFFFFFFFFFFFF NOT AND EQ DUP1 PUSH2 0x40D JUMPI POP PUSH32 0x5B5E139F00000000000000000000000000000000000000000000000000000000 PUSH28 0xFFFFFFFFFFFFFFFFFFFFFFFFFFFFFFFFFFFFFFFFFFFFFFFFFFFFFFFF NOT AND DUP3 PUSH28 0xFFFFFFFFFFFFFFFFFFFFFFFFFFFFFFFFFFFFFFFFFFFFFFFFFFFFFFFF NOT AND EQ JUMPDEST DUP1 PUSH2 0x41D JUMPI POP PUSH2 0x41C DUP3 PUSH2 0xB90 JUMP JUMPDEST JUMPDEST SWAP1 POP SWAP2 SWAP1 POP JUMP JUMPDEST PUSH1 0x60 PUSH1 0x0 DUP1 SLOAD PUSH2 0x433 SWAP1 PUSH2 0x2412 JUMP JUMPDEST DUP1 PUSH1 0x1F ADD PUSH1 0x20 DUP1 SWAP2 DIV MUL PUSH1 0x20 ADD PUSH1 0x40 MLOAD SWAP1 DUP2 ADD PUSH1 0x40 MSTORE DUP1 SWAP3 SWAP2 SWAP1 DUP2 DUP2 MSTORE PUSH1 0x20 ADD DUP3 DUP1 SLOAD PUSH2 0x45F SWAP1 PUSH2 0x2412 JUMP JUMPDEST DUP1 ISZERO PUSH2 0x4AC JUMPI DUP1 PUSH1 0x1F LT PUSH2 0x481 JUMPI PUSH2 0x100 DUP1 DUP4 SLOAD DIV MUL DUP4 MSTORE SWAP2 PUSH1 0x20 ADD SWAP2 PUSH2 0x4AC JUMP JUMPDEST DUP3 ADD SWAP2 SWAP1 PUSH1 0x0 MSTORE PUSH1 0x20 PUSH1 0x0 KECCAK256 SWAP1 JUMPDEST DUP2 SLOAD DUP2 MSTORE SWAP1 PUSH1 0x1 ADD SWAP1 PUSH1 0x20 ADD DUP1 DUP4 GT PUSH2 0x48F JUMPI DUP3 SWAP1 SUB PUSH1 0x1F AND DUP3 ADD SWAP2 JUMPDEST POP POP POP POP POP SWAP1 POP SWAP1 JUMP JUMPDEST PUSH1 0x0 PUSH2 0x4C1 DUP3 PUSH2 0xBFA JUMP JUMPDEST PUSH2 0x500 JUMPI PUSH1 0x40 MLOAD PUSH32 0x8C379A000000000000000000000000000000000000000000000000000000000 DUP2 MSTORE PUSH1 0x4 ADD PUSH2 0x4F7 SWAP1 PUSH2 0x213C JUMP JUMPDEST PUSH1 0x40 MLOAD DUP1 SWAP2 SUB SWAP1 REVERT JUMPDEST PUSH1 0x4 PUSH1 0x0 DUP4 DUP2 MSTORE PUSH1 0x20 ADD SWAP1 DUP2 MSTORE PUSH1 0x20 ADD PUSH1 0x0 KECCAK256 PUSH1 0x0 SWAP1 SLOAD SWAP1 PUSH2 0x100 EXP SWAP1 DIV PUSH20 0xFFFFFFFFFFFFFFFFFFFFFFFFFFFFFFFFFFFFFFFF AND SWAP1 POP SWAP2 SWAP1 POP JUMP JUMPDEST PUSH1 0x0 PUSH2 0x546 DUP3 PUSH2 0x6D3 JUMP JUMPDEST SWAP1 POP DUP1 PUSH20 0xFFFFFFFFFFFFFFFFFFFFFFFFFFFFFFFFFFFFFFFF AND DUP4 PUSH20 0xFFFFFFFFFFFFFFFFFFFFFFFFFFFFFFFFFFFFFFFF AND EQ ISZERO PUSH2 0x5B7 JUMPI PUSH1 0x40 MLOAD PUSH32 0x8C379A000000000000000000000000000000000000000000000000000000000 DUP2 MSTORE PUSH1 0x4 ADD PUSH2 0x5AE SWAP1 PUSH2 0x217C JUMP JUMPDEST PUSH1 0x40 MLOAD DUP1 SWAP2 SUB SWAP1 REVERT JUMPDEST DUP1 PUSH20 0xFFFFFFFFFFFFFFFFFFFFFFFFFFFFFFFFFFFFFFFF AND PUSH2 0x5D6 PUSH2 0xC66 JUMP JUMPDEST PUSH20 0xFFFFFFFFFFFFFFFFFFFFFFFFFFFFFFFFFFFFFFFF AND EQ DUP1 PUSH2 0x605 JUMPI POP PUSH2 0x604 DUP2 PUSH2 0x5FF PUSH2 0xC66 JUMP JUMPDEST PUSH2 0xAFC JUMP JUMPDEST JUMPDEST PUSH2 0x644 JUMPI PUSH1 0x40 MLOAD PUSH32 0x8C379A000000000000000000000000000000000000000000000000000000000 DUP2 MSTORE PUSH1 0x4 ADD PUSH2 0x63B SWAP1 PUSH2 0x20BC JUMP JUMPDEST PUSH1 0x40 MLOAD DUP1 SWAP2 SUB SWAP1 REVERT JUMPDEST PUSH2 0x64E DUP4 DUP4 PUSH2 0xC6E JUMP JUMPDEST POP POP POP JUMP JUMPDEST PUSH2 0x664 PUSH2 0x65E PUSH2 0xC66 JUMP JUMPDEST DUP3 PUSH2 0xD27 JUMP JUMPDEST PUSH2 0x6A3 JUMPI PUSH1 0x40 MLOAD PUSH32 0x8C379A000000000000000000000000000000000000000000000000000000000 DUP2 MSTORE PUSH1 0x4 ADD PUSH2 0x69A SWAP1 PUSH2 0x219C JUMP JUMPDEST PUSH1 0x40 MLOAD DUP1 SWAP2 SUB SWAP1 REVERT JUMPDEST PUSH2 0x6AE DUP4 DUP4 DUP4 PUSH2 0xE05 JUMP JUMPDEST POP POP POP JUMP JUMPDEST PUSH2 0x6CE DUP4 DUP4 DUP4 PUSH1 0x40 MLOAD DUP1 PUSH1 0x20 ADD PUSH1 0x40 MSTORE DUP1 PUSH1 0x0 DUP2 MSTORE POP PUSH2 0x8E5 JUMP JUMPDEST POP POP POP JUMP JUMPDEST PUSH1 0x0 DUP1 PUSH1 0x2 PUSH1 0x0 DUP5 DUP2 MSTORE PUSH1 0x20 ADD SWAP1 DUP2 MSTORE PUSH1 0x20 ADD PUSH1 0x0 KECCAK256 PUSH1 0x0 SWAP1 SLOAD SWAP1 PUSH2 0x100 EXP SWAP1 DIV PUSH20 0xFFFFFFFFFFFFFFFFFFFFFFFFFFFFFFFFFFFFFFFF AND SWAP1 POP PUSH1 0x0 PUSH20 0xFFFFFFFFFFFFFFFFFFFFFFFFFFFFFFFFFFFFFFFF AND DUP2 PUSH20 0xFFFFFFFFFFFFFFFFFFFFFFFFFFFFFFFFFFFFFFFF AND EQ ISZERO PUSH2 0x77C JUMPI PUSH1 0x40 MLOAD PUSH32 0x8C379A000000000000000000000000000000000000000000000000000000000 DUP2 MSTORE PUSH1 0x4 ADD PUSH2 0x773 SWAP1 PUSH2 0x20FC JUMP JUMPDEST PUSH1 0x40 MLOAD DUP1 SWAP2 SUB SWAP1 REVERT JUMPDEST DUP1 SWAP2 POP POP SWAP2 SWAP1 POP JUMP JUMPDEST PUSH1 0x0 DUP1 PUSH20 0xFFFFFFFFFFFFFFFFFFFFFFFFFFFFFFFFFFFFFFFF AND DUP3 PUSH20 0xFFFFFFFFFFFFFFFFFFFFFFFFFFFFFFFFFFFFFFFF AND EQ ISZERO PUSH2 0x7F6 JUMPI PUSH1 0x40 MLOAD PUSH32 0x8C379A000000000000000000000000000000000000000000000000000000000 DUP2 MSTORE PUSH1 0x4 ADD PUSH2 0x7ED SWAP1 PUSH2 0x20DC JUMP JUMPDEST PUSH1 0x40 MLOAD DUP1 SWAP2 SUB SWAP1 REVERT JUMPDEST PUSH1 0x3 PUSH1 0x0 DUP4 PUSH20 0xFFFFFFFFFFFFFFFFFFFFFFFFFFFFFFFFFFFFFFFF AND PUSH20 0xFFFFFFFFFFFFFFFFFFFFFFFFFFFFFFFFFFFFFFFF AND DUP2 MSTORE PUSH1 0x20 ADD SWAP1 DUP2 MSTORE PUSH1 0x20 ADD PUSH1 0x0 KECCAK256 SLOAD SWAP1 POP SWAP2 SWAP1 POP JUMP JUMPDEST PUSH1 0x60 PUSH1 0x1 DUP1 SLOAD PUSH2 0x84C SWAP1 PUSH2 0x2412 JUMP JUMPDEST DUP1 PUSH1 0x1F ADD PUSH1 0x20 DUP1 SWAP2 DIV MUL PUSH1 0x20 ADD PUSH1 0x40 MLOAD SWAP1 DUP2 ADD PUSH1 0x40 MSTORE DUP1 SWAP3 SWAP2 SWAP1 DUP2 DUP2 MSTORE PUSH1 0x20 ADD DUP3 DUP1 SLOAD PUSH2 0x878 SWAP1 PUSH2 0x2412 JUMP JUMPDEST DUP1 ISZERO PUSH2 0x8C5 JUMPI DUP1 PUSH1 0x1F LT PUSH2 0x89A JUMPI PUSH2 0x100 DUP1 DUP4 SLOAD DIV MUL DUP4 MSTORE SWAP2 PUSH1 0x20 ADD SWAP2 PUSH2 0x8C5 JUMP JUMPDEST DUP3 ADD SWAP2 SWAP1 PUSH1 0x0 MSTORE PUSH1 0x20 PUSH1 0x0 KECCAK256 SWAP1 JUMPDEST DUP2 SLOAD DUP2 MSTORE SWAP1 PUSH1 0x1 ADD SWAP1 PUSH1 0x20 ADD DUP1 DUP4 GT PUSH2 0x8A8 JUMPI DUP3 SWAP1 SUB PUSH1 0x1F AND DUP3 ADD SWAP2 JUMPDEST POP POP POP POP POP SWAP1 POP SWAP1 JUMP JUMPDEST PUSH2 0x8E1 PUSH2 0x8DA PUSH2 0xC66 JUMP JUMPDEST DUP4 DUP4 PUSH2 0x106C JUMP JUMPDEST POP POP JUMP JUMPDEST PUSH2 0x8F6 PUSH2 0x8F0 PUSH2 0xC66 JUMP JUMPDEST DUP4 PUSH2 0xD27 JUMP JUMPDEST PUSH2 0x935 JUMPI PUSH1 0x40 MLOAD PUSH32 0x8C379A000000000000000000000000000000000000000000000000000000000 DUP2 MSTORE PUSH1 0x4 ADD PUSH2 0x92C SWAP1 PUSH2 0x219C JUMP JUMPDEST PUSH1 0x40 MLOAD DUP1 SWAP2 SUB SWAP1 REVERT JUMPDEST PUSH2 0x941 DUP5 DUP5 DUP5 DUP5 PUSH2 0x11D9 JUMP JUMPDEST POP POP POP POP JUMP JUMPDEST PUSH1 0x60 PUSH2 0x952 DUP3 PUSH2 0xBFA JUMP JUMPDEST PUSH2 0x991 JUMPI PUSH1 0x40 MLOAD PUSH32 0x8C379A000000000000000000000000000000000000000000000000000000000 DUP2 MSTORE PUSH1 0x4 ADD PUSH2 0x988 SWAP1 PUSH2 0x215C JUMP JUMPDEST PUSH1 0x40 MLOAD DUP1 SWAP2 SUB SWAP1 REVERT JUMPDEST PUSH1 0x0 PUSH2 0x99B PUSH2 0x1235 JUMP JUMPDEST SWAP1 POP PUSH1 0x0 DUP2 MLOAD GT PUSH2 0x9BB JUMPI PUSH1 0x40 MLOAD DUP1 PUSH1 0x20 ADD PUSH1 0x40 MSTORE DUP1 PUSH1 0x0 DUP2 MSTORE POP PUSH2 0x9E6 JUMP JUMPDEST DUP1 PUSH2 0x9C5 DUP5 PUSH2 0x124C JUMP JUMPDEST PUSH1 0x40 MLOAD PUSH1 0x20 ADD PUSH2 0x9D6 SWAP3 SWAP2 SWAP1 PUSH2 0x1F34 JUMP JUMPDEST PUSH1 0x40 MLOAD PUSH1 0x20 DUP2 DUP4 SUB SUB DUP2 MSTORE SWAP1 PUSH1 0x40 MSTORE JUMPDEST SWAP2 POP POP SWAP2 SWAP1 POP JUMP JUMPDEST PUSH1 0x0 PUSH2 0x9FB DUP5 DUP5 DUP5 PUSH2 0x6B3 JUMP JUMPDEST PUSH1 0x1 SWAP1 POP SWAP4 SWAP3 POP POP POP JUMP JUMPDEST PUSH1 0x0 PUSH1 0x6 PUSH1 0x40 MLOAD DUP1 PUSH1 0x40 ADD PUSH1 0x40 MSTORE DUP1 DUP6 DUP2 MSTORE PUSH1 0x20 ADD DUP5 DUP2 MSTORE POP SWAP1 DUP1 PUSH1 0x1 DUP2 SLOAD ADD DUP1 DUP3 SSTORE DUP1 SWAP2 POP POP PUSH1 0x1 SWAP1 SUB SWAP1 PUSH1 0x0 MSTORE PUSH1 0x20 PUSH1 0x0 KECCAK256 SWAP1 PUSH1 0x2 MUL ADD PUSH1 0x0 SWAP1 SWAP2 SWAP1 SWAP2 SWAP1 SWAP2 POP PUSH1 0x0 DUP3 ADD MLOAD DUP2 PUSH1 0x0 ADD SWAP1 DUP1 MLOAD SWAP1 PUSH1 0x20 ADD SWAP1 PUSH2 0xA64 SWAP3 SWAP2 SWAP1 PUSH2 0x1810 JUMP JUMPDEST POP PUSH1 0x20 DUP3 ADD MLOAD DUP2 PUSH1 0x1 ADD SWAP1 DUP1 MLOAD SWAP1 PUSH1 0x20 ADD SWAP1 PUSH2 0xA81 SWAP3 SWAP2 SWAP1 PUSH2 0x1810 JUMP JUMPDEST POP POP POP PUSH1 0x0 PUSH1 0x1 PUSH1 0x6 DUP1 SLOAD SWAP1 POP PUSH2 0xA98 SWAP2 SWAP1 PUSH2 0x2328 JUMP JUMPDEST SWAP1 POP PUSH2 0xAA4 CALLER DUP3 PUSH2 0x13F9 JUMP JUMPDEST CALLER PUSH20 0xFFFFFFFFFFFFFFFFFFFFFFFFFFFFFFFFFFFFFFFF AND PUSH32 0xF3CEA5493D790AF0133817606F7350A91D7F154EA52EAA79D179D4D231E50102 DUP3 PUSH1 0x40 MLOAD PUSH2 0xAEA SWAP2 SWAP1 PUSH2 0x21BC JUMP JUMPDEST PUSH1 0x40 MLOAD DUP1 SWAP2 SUB SWAP1 LOG2 DUP1 SWAP2 POP POP SWAP3 SWAP2 POP POP JUMP JUMPDEST PUSH1 0x0 PUSH1 0x5 PUSH1 0x0 DUP5 PUSH20 0xFFFFFFFFFFFFFFFFFFFFFFFFFFFFFFFFFFFFFFFF AND PUSH20 0xFFFFFFFFFFFFFFFFFFFFFFFFFFFFFFFFFFFFFFFF AND DUP2 MSTORE PUSH1 0x20 ADD SWAP1 DUP2 MSTORE PUSH1 0x20 ADD PUSH1 0x0 KECCAK256 PUSH1 0x0 DUP4 PUSH20 0xFFFFFFFFFFFFFFFFFFFFFFFFFFFFFFFFFFFFFFFF AND PUSH20 0xFFFFFFFFFFFFFFFFFFFFFFFFFFFFFFFFFFFFFFFF AND DUP2 MSTORE PUSH1 0x20 ADD SWAP1 DUP2 MSTORE PUSH1 0x20 ADD PUSH1 0x0 KECCAK256 PUSH1 0x0 SWAP1 SLOAD SWAP1 PUSH2 0x100 EXP SWAP1 DIV PUSH1 0xFF AND SWAP1 POP SWAP3 SWAP2 POP POP JUMP JUMPDEST PUSH1 0x0 PUSH32 0x1FFC9A700000000000000000000000000000000000000000000000000000000 PUSH28 0xFFFFFFFFFFFFFFFFFFFFFFFFFFFFFFFFFFFFFFFFFFFFFFFFFFFFFFFF NOT AND DUP3 PUSH28 0xFFFFFFFFFFFFFFFFFFFFFFFFFFFFFFFFFFFFFFFFFFFFFFFFFFFFFFFF NOT AND EQ SWAP1 POP SWAP2 SWAP1 POP JUMP JUMPDEST PUSH1 0x0 DUP1 PUSH20 0xFFFFFFFFFFFFFFFFFFFFFFFFFFFFFFFFFFFFFFFF AND PUSH1 0x2 PUSH1 0x0 DUP5 DUP2 MSTORE PUSH1 0x20 ADD SWAP1 DUP2 MSTORE PUSH1 0x20 ADD PUSH1 0x0 KECCAK256 PUSH1 0x0 SWAP1 SLOAD SWAP1 PUSH2 0x100 EXP SWAP1 DIV PUSH20 0xFFFFFFFFFFFFFFFFFFFFFFFFFFFFFFFFFFFFFFFF AND PUSH20 0xFFFFFFFFFFFFFFFFFFFFFFFFFFFFFFFFFFFFFFFF AND EQ ISZERO SWAP1 POP SWAP2 SWAP1 POP JUMP JUMPDEST PUSH1 0x0 CALLER SWAP1 POP SWAP1 JUMP JUMPDEST DUP2 PUSH1 0x4 PUSH1 0x0 DUP4 DUP2 MSTORE PUSH1 0x20 ADD SWAP1 DUP2 MSTORE PUSH1 0x20 ADD PUSH1 0x0 KECCAK256 PUSH1 0x0 PUSH2 0x100 EXP DUP2 SLOAD DUP2 PUSH20 0xFFFFFFFFFFFFFFFFFFFFFFFFFFFFFFFFFFFFFFFF MUL NOT AND SWAP1 DUP4 PUSH20 0xFFFFFFFFFFFFFFFFFFFFFFFFFFFFFFFFFFFFFFFF AND MUL OR SWAP1 SSTORE POP DUP1 DUP3 PUSH20 0xFFFFFFFFFFFFFFFFFFFFFFFFFFFFFFFFFFFFFFFF AND PUSH2 0xCE1 DUP4 PUSH2 0x6D3 JUMP JUMPDEST PUSH20 0xFFFFFFFFFFFFFFFFFFFFFFFFFFFFFFFFFFFFFFFF AND PUSH32 0x8C5BE1E5EBEC7D5BD14F71427D1E84F3DD0314C0F7B2291E5B200AC8C7C3B925 PUSH1 0x40 MLOAD PUSH1 0x40 MLOAD DUP1 SWAP2 SUB SWAP1 LOG4 POP POP JUMP JUMPDEST PUSH1 0x0 PUSH2 0xD32 DUP3 PUSH2 0xBFA JUMP JUMPDEST PUSH2 0xD71 JUMPI PUSH1 0x40 MLOAD PUSH32 0x8C379A000000000000000000000000000000000000000000000000000000000 DUP2 MSTORE PUSH1 0x4 ADD PUSH2 0xD68 SWAP1 PUSH2 0x209C JUMP JUMPDEST PUSH1 0x40 MLOAD DUP1 SWAP2 SUB SWAP1 REVERT JUMPDEST PUSH1 0x0 PUSH2 0xD7C DUP4 PUSH2 0x6D3 JUMP JUMPDEST SWAP1 POP DUP1 PUSH20 0xFFFFFFFFFFFFFFFFFFFFFFFFFFFFFFFFFFFFFFFF AND DUP5 PUSH20 0xFFFFFFFFFFFFFFFFFFFFFFFFFFFFFFFFFFFFFFFF AND EQ DUP1 PUSH2 0xDEB JUMPI POP DUP4 PUSH20 0xFFFFFFFFFFFFFFFFFFFFFFFFFFFFFFFFFFFFFFFF AND PUSH2 0xDD3 DUP5 PUSH2 0x4B6 JUMP JUMPDEST PUSH20 0xFFFFFFFFFFFFFFFFFFFFFFFFFFFFFFFFFFFFFFFF AND EQ JUMPDEST DUP1 PUSH2 0xDFC JUMPI POP PUSH2 0xDFB DUP2 DUP6 PUSH2 0xAFC JUMP JUMPDEST JUMPDEST SWAP2 POP POP SWAP3 SWAP2 POP POP JUMP JUMPDEST DUP3 PUSH20 0xFFFFFFFFFFFFFFFFFFFFFFFFFFFFFFFFFFFFFFFF AND PUSH2 0xE25 DUP3 PUSH2 0x6D3 JUMP JUMPDEST PUSH20 0xFFFFFFFFFFFFFFFFFFFFFFFFFFFFFFFFFFFFFFFF AND EQ PUSH2 0xE7B JUMPI PUSH1 0x40 MLOAD PUSH32 0x8C379A000000000000000000000000000000000000000000000000000000000 DUP2 MSTORE PUSH1 0x4 ADD PUSH2 0xE72 SWAP1 PUSH2 0x201C JUMP JUMPDEST PUSH1 0x40 MLOAD DUP1 SWAP2 SUB SWAP1 REVERT JUMPDEST PUSH1 0x0 PUSH20 0xFFFFFFFFFFFFFFFFFFFFFFFFFFFFFFFFFFFFFFFF AND DUP3 PUSH20 0xFFFFFFFFFFFFFFFFFFFFFFFFFFFFFFFFFFFFFFFF AND EQ ISZERO PUSH2 0xEEB JUMPI PUSH1 0x40 MLOAD PUSH32 0x8C379A000000000000000000000000000000000000000000000000000000000 DUP2 MSTORE PUSH1 0x4 ADD PUSH2 0xEE2 SWAP1 PUSH2 0x205C JUMP JUMPDEST PUSH1 0x40 MLOAD DUP1 SWAP2 SUB SWAP1 REVERT JUMPDEST PUSH2 0xEF6 DUP4 DUP4 DUP4 PUSH2 0x1417 JUMP JUMPDEST PUSH2 0xF01 PUSH1 0x0 DUP3 PUSH2 0xC6E JUMP JUMPDEST PUSH1 0x1 PUSH1 0x3 PUSH1 0x0 DUP6 PUSH20 0xFFFFFFFFFFFFFFFFFFFFFFFFFFFFFFFFFFFFFFFF AND PUSH20 0xFFFFFFFFFFFFFFFFFFFFFFFFFFFFFFFFFFFFFFFF AND DUP2 MSTORE PUSH1 0x20 ADD SWAP1 DUP2 MSTORE PUSH1 0x20 ADD PUSH1 0x0 KECCAK256 PUSH1 0x0 DUP3 DUP3 SLOAD PUSH2 0xF51 SWAP2 SWAP1 PUSH2 0x2328 JUMP JUMPDEST SWAP3 POP POP DUP2 SWAP1 SSTORE POP PUSH1 0x1 PUSH1 0x3 PUSH1 0x0 DUP5 PUSH20 0xFFFFFFFFFFFFFFFFFFFFFFFFFFFFFFFFFFFFFFFF AND PUSH20 0xFFFFFFFFFFFFFFFFFFFFFFFFFFFFFFFFFFFFFFFF AND DUP2 MSTORE PUSH1 0x20 ADD SWAP1 DUP2 MSTORE PUSH1 0x20 ADD PUSH1 0x0 KECCAK256 PUSH1 0x0 DUP3 DUP3 SLOAD PUSH2 0xFA8 SWAP2 SWAP1 PUSH2 0x22A1 JUMP JUMPDEST SWAP3 POP POP DUP2 SWAP1 SSTORE POP DUP2 PUSH1 0x2 PUSH1 0x0 DUP4 DUP2 MSTORE PUSH1 0x20 ADD SWAP1 DUP2 MSTORE PUSH1 0x20 ADD PUSH1 0x0 KECCAK256 PUSH1 0x0 PUSH2 0x100 EXP DUP2 SLOAD DUP2 PUSH20 0xFFFFFFFFFFFFFFFFFFFFFFFFFFFFFFFFFFFFFFFF MUL NOT AND SWAP1 DUP4 PUSH20 0xFFFFFFFFFFFFFFFFFFFFFFFFFFFFFFFFFFFFFFFF AND MUL OR SWAP1 SSTORE POP DUP1 DUP3 PUSH20 0xFFFFFFFFFFFFFFFFFFFFFFFFFFFFFFFFFFFFFFFF AND DUP5 PUSH20 0xFFFFFFFFFFFFFFFFFFFFFFFFFFFFFFFFFFFFFFFF AND PUSH32 0xDDF252AD1BE2C89B69C2B068FC378DAA952BA7F163C4A11628F55A4DF523B3EF PUSH1 0x40 MLOAD PUSH1 0x40 MLOAD DUP1 SWAP2 SUB SWAP1 LOG4 PUSH2 0x1067 DUP4 DUP4 DUP4 PUSH2 0x141C JUMP JUMPDEST POP POP POP JUMP JUMPDEST DUP2 PUSH20 0xFFFFFFFFFFFFFFFFFFFFFFFFFFFFFFFFFFFFFFFF AND DUP4 PUSH20 0xFFFFFFFFFFFFFFFFFFFFFFFFFFFFFFFFFFFFFFFF AND EQ ISZERO PUSH2 0x10DB JUMPI PUSH1 0x40 MLOAD PUSH32 0x8C379A000000000000000000000000000000000000000000000000000000000 DUP2 MSTORE PUSH1 0x4 ADD PUSH2 0x10D2 SWAP1 PUSH2 0x207C JUMP JUMPDEST PUSH1 0x40 MLOAD DUP1 SWAP2 SUB SWAP1 REVERT JUMPDEST DUP1 PUSH1 0x5 PUSH1 0x0 DUP6 PUSH20 0xFFFFFFFFFFFFFFFFFFFFFFFFFFFFFFFFFFFFFFFF AND PUSH20 0xFFFFFFFFFFFFFFFFFFFFFFFFFFFFFFFFFFFFFFFF AND DUP2 MSTORE PUSH1 0x20 ADD SWAP1 DUP2 MSTORE PUSH1 0x20 ADD PUSH1 0x0 KECCAK256 PUSH1 0x0 DUP5 PUSH20 0xFFFFFFFFFFFFFFFFFFFFFFFFFFFFFFFFFFFFFFFF AND PUSH20 0xFFFFFFFFFFFFFFFFFFFFFFFFFFFFFFFFFFFFFFFF AND DUP2 MSTORE PUSH1 0x20 ADD SWAP1 DUP2 MSTORE PUSH1 0x20 ADD PUSH1 0x0 KECCAK256 PUSH1 0x0 PUSH2 0x100 EXP DUP2 SLOAD DUP2 PUSH1 0xFF MUL NOT AND SWAP1 DUP4 ISZERO ISZERO MUL OR SWAP1 SSTORE POP DUP2 PUSH20 0xFFFFFFFFFFFFFFFFFFFFFFFFFFFFFFFFFFFFFFFF AND DUP4 PUSH20 0xFFFFFFFFFFFFFFFFFFFFFFFFFFFFFFFFFFFFFFFF AND PUSH32 0x17307EAB39AB6107E8899845AD3D59BD9653F200F220920489CA2B5937696C31 DUP4 PUSH1 0x40 MLOAD PUSH2 0x11CC SWAP2 SWAP1 PUSH2 0x1FBF JUMP JUMPDEST PUSH1 0x40 MLOAD DUP1 SWAP2 SUB SWAP1 LOG3 POP POP POP JUMP JUMPDEST PUSH2 0x11E4 DUP5 DUP5 DUP5 PUSH2 0xE05 JUMP JUMPDEST PUSH2 0x11F0 DUP5 DUP5 DUP5 DUP5 PUSH2 0x1421 JUMP JUMPDEST PUSH2 0x122F JUMPI PUSH1 0x40 MLOAD PUSH32 0x8C379A000000000000000000000000000000000000000000000000000000000 DUP2 MSTORE PUSH1 0x4 ADD PUSH2 0x1226 SWAP1 PUSH2 0x1FFC JUMP JUMPDEST PUSH1 0x40 MLOAD DUP1 SWAP2 SUB SWAP1 REVERT JUMPDEST POP POP POP POP JUMP JUMPDEST PUSH1 0x60 PUSH1 0x40 MLOAD DUP1 PUSH1 0x20 ADD PUSH1 0x40 MSTORE DUP1 PUSH1 0x0 DUP2 MSTORE POP SWAP1 POP SWAP1 JUMP JUMPDEST PUSH1 0x60 PUSH1 0x0 DUP3 EQ ISZERO PUSH2 0x1294 JUMPI PUSH1 0x40 MLOAD DUP1 PUSH1 0x40 ADD PUSH1 0x40 MSTORE DUP1 PUSH1 0x1 DUP2 MSTORE PUSH1 0x20 ADD PUSH32 0x3000000000000000000000000000000000000000000000000000000000000000 DUP2 MSTORE POP SWAP1 POP PUSH2 0x13F4 JUMP JUMPDEST PUSH1 0x0 DUP3 SWAP1 POP PUSH1 0x0 JUMPDEST PUSH1 0x0 DUP3 EQ PUSH2 0x12C6 JUMPI DUP1 DUP1 PUSH2 0x12AF SWAP1 PUSH2 0x2475 JUMP JUMPDEST SWAP2 POP POP PUSH1 0xA DUP3 PUSH2 0x12BF SWAP2 SWAP1 PUSH2 0x22F7 JUMP JUMPDEST SWAP2 POP PUSH2 0x129C JUMP JUMPDEST PUSH1 0x0 DUP2 PUSH8 0xFFFFFFFFFFFFFFFF DUP2 GT ISZERO PUSH2 0x1308 JUMPI PUSH32 0x4E487B7100000000000000000000000000000000000000000000000000000000 PUSH1 0x0 MSTORE PUSH1 0x41 PUSH1 0x4 MSTORE PUSH1 0x24 PUSH1 0x0 REVERT JUMPDEST PUSH1 0x40 MLOAD SWAP1 DUP1 DUP3 MSTORE DUP1 PUSH1 0x1F ADD PUSH1 0x1F NOT AND PUSH1 0x20 ADD DUP3 ADD PUSH1 0x40 MSTORE DUP1 ISZERO PUSH2 0x133A JUMPI DUP2 PUSH1 0x20 ADD PUSH1 0x1 DUP3 MUL DUP1 CALLDATASIZE DUP4 CALLDATACOPY DUP1 DUP3 ADD SWAP2 POP POP SWAP1 POP JUMPDEST POP SWAP1 POP JUMPDEST PUSH1 0x0 DUP6 EQ PUSH2 0x13ED JUMPI PUSH1 0x1 DUP3 PUSH2 0x1353 SWAP2 SWAP1 PUSH2 0x2328 JUMP JUMPDEST SWAP2 POP PUSH1 0xA DUP6 PUSH2 0x1362 SWAP2 SWAP1 PUSH2 0x24BE JUMP JUMPDEST PUSH1 0x30 PUSH2 0x136E SWAP2 SWAP1 PUSH2 0x22A1 JUMP JUMPDEST PUSH1 0xF8 SHL DUP2 DUP4 DUP2 MLOAD DUP2 LT PUSH2 0x13AA JUMPI PUSH32 0x4E487B7100000000000000000000000000000000000000000000000000000000 PUSH1 0x0 MSTORE PUSH1 0x32 PUSH1 0x4 MSTORE PUSH1 0x24 PUSH1 0x0 REVERT JUMPDEST PUSH1 0x20 ADD ADD SWAP1 PUSH31 0xFFFFFFFFFFFFFFFFFFFFFFFFFFFFFFFFFFFFFFFFFFFFFFFFFFFFFFFFFFFFFF NOT AND SWAP1 DUP2 PUSH1 0x0 BYTE SWAP1 MSTORE8 POP PUSH1 0xA DUP6 PUSH2 0x13E6 SWAP2 SWAP1 PUSH2 0x22F7 JUMP JUMPDEST SWAP5 POP PUSH2 0x133E JUMP JUMPDEST DUP1 SWAP4 POP POP POP POP JUMPDEST SWAP2 SWAP1 POP JUMP JUMPDEST PUSH2 0x1413 DUP3 DUP3 PUSH1 0x40 MLOAD DUP1 PUSH1 0x20 ADD PUSH1 0x40 MSTORE DUP1 PUSH1 0x0 DUP2 MSTORE POP PUSH2 0x15B8 JUMP JUMPDEST POP POP JUMP JUMPDEST POP POP POP JUMP JUMPDEST POP POP POP JUMP JUMPDEST PUSH1 0x0 PUSH2 0x1442 DUP5 PUSH20 0xFFFFFFFFFFFFFFFFFFFFFFFFFFFFFFFFFFFFFFFF AND PUSH2 0x1613 JUMP JUMPDEST ISZERO PUSH2 0x15AB JUMPI DUP4 PUSH20 0xFFFFFFFFFFFFFFFFFFFFFFFFFFFFFFFFFFFFFFFF AND PUSH4 0x150B7A02 PUSH2 0x146B PUSH2 0xC66 JUMP JUMPDEST DUP8 DUP7 DUP7 PUSH1 0x40 MLOAD DUP6 PUSH4 0xFFFFFFFF AND PUSH1 0xE0 SHL DUP2 MSTORE PUSH1 0x4 ADD PUSH2 0x148D SWAP5 SWAP4 SWAP3 SWAP2 SWAP1 PUSH2 0x1F73 JUMP JUMPDEST PUSH1 0x20 PUSH1 0x40 MLOAD DUP1 DUP4 SUB DUP2 PUSH1 0x0 DUP8 DUP1 EXTCODESIZE ISZERO DUP1 ISZERO PUSH2 0x14A7 JUMPI PUSH1 0x0 DUP1 REVERT JUMPDEST POP GAS CALL SWAP3 POP POP POP DUP1 ISZERO PUSH2 0x14D8 JUMPI POP PUSH1 0x40 MLOAD RETURNDATASIZE PUSH1 0x1F NOT PUSH1 0x1F DUP3 ADD AND DUP3 ADD DUP1 PUSH1 0x40 MSTORE POP DUP2 ADD SWAP1 PUSH2 0x14D5 SWAP2 SWAP1 PUSH2 0x1BBC JUMP JUMPDEST PUSH1 0x1 JUMPDEST PUSH2 0x155B JUMPI RETURNDATASIZE DUP1 PUSH1 0x0 DUP2 EQ PUSH2 0x1508 JUMPI PUSH1 0x40 MLOAD SWAP2 POP PUSH1 0x1F NOT PUSH1 0x3F RETURNDATASIZE ADD AND DUP3 ADD PUSH1 0x40 MSTORE RETURNDATASIZE DUP3 MSTORE RETURNDATASIZE PUSH1 0x0 PUSH1 0x20 DUP5 ADD RETURNDATACOPY PUSH2 0x150D JUMP JUMPDEST PUSH1 0x60 SWAP2 POP JUMPDEST POP PUSH1 0x0 DUP2 MLOAD EQ ISZERO PUSH2 0x1553 JUMPI PUSH1 0x40 MLOAD PUSH32 0x8C379A000000000000000000000000000000000000000000000000000000000 DUP2 MSTORE PUSH1 0x4 ADD PUSH2 0x154A SWAP1 PUSH2 0x1FFC JUMP JUMPDEST PUSH1 0x40 MLOAD DUP1 SWAP2 SUB SWAP1 REVERT JUMPDEST DUP1 MLOAD DUP2 PUSH1 0x20 ADD REVERT JUMPDEST PUSH4 0x150B7A02 PUSH1 0xE0 SHL PUSH28 0xFFFFFFFFFFFFFFFFFFFFFFFFFFFFFFFFFFFFFFFFFFFFFFFFFFFFFFFF NOT AND DUP2 PUSH28 0xFFFFFFFFFFFFFFFFFFFFFFFFFFFFFFFFFFFFFFFFFFFFFFFFFFFFFFFF NOT AND EQ SWAP2 POP POP PUSH2 0x15B0 JUMP JUMPDEST PUSH1 0x1 SWAP1 POP JUMPDEST SWAP5 SWAP4 POP POP POP POP JUMP JUMPDEST PUSH2 0x15C2 DUP4 DUP4 PUSH2 0x1636 JUMP JUMPDEST PUSH2 0x15CF PUSH1 0x0 DUP5 DUP5 DUP5 PUSH2 0x1421 JUMP JUMPDEST PUSH2 0x160E JUMPI PUSH1 0x40 MLOAD PUSH32 0x8C379A000000000000000000000000000000000000000000000000000000000 DUP2 MSTORE PUSH1 0x4 ADD PUSH2 0x1605 SWAP1 PUSH2 0x1FFC JUMP JUMPDEST PUSH1 0x40 MLOAD DUP1 SWAP2 SUB SWAP1 REVERT JUMPDEST POP POP POP JUMP JUMPDEST PUSH1 0x0 DUP1 DUP3 PUSH20 0xFFFFFFFFFFFFFFFFFFFFFFFFFFFFFFFFFFFFFFFF AND EXTCODESIZE GT SWAP1 POP SWAP2 SWAP1 POP JUMP JUMPDEST PUSH1 0x0 PUSH20 0xFFFFFFFFFFFFFFFFFFFFFFFFFFFFFFFFFFFFFFFF AND DUP3 PUSH20 0xFFFFFFFFFFFFFFFFFFFFFFFFFFFFFFFFFFFFFFFF AND EQ ISZERO PUSH2 0x16A6 JUMPI PUSH1 0x40 MLOAD PUSH32 0x8C379A000000000000000000000000000000000000000000000000000000000 DUP2 MSTORE PUSH1 0x4 ADD PUSH2 0x169D SWAP1 PUSH2 0x211C JUMP JUMPDEST PUSH1 0x40 MLOAD DUP1 SWAP2 SUB SWAP1 REVERT JUMPDEST PUSH2 0x16AF DUP2 PUSH2 0xBFA JUMP JUMPDEST ISZERO PUSH2 0x16EF JUMPI PUSH1 0x40 MLOAD PUSH32 0x8C379A000000000000000000000000000000000000000000000000000000000 DUP2 MSTORE PUSH1 0x4 ADD PUSH2 0x16E6 SWAP1 PUSH2 0x203C JUMP JUMPDEST PUSH1 0x40 MLOAD DUP1 SWAP2 SUB SWAP1 REVERT JUMPDEST PUSH2 0x16FB PUSH1 0x0 DUP4 DUP4 PUSH2 0x1417 JUMP JUMPDEST PUSH1 0x1 PUSH1 0x3 PUSH1 0x0 DUP5 PUSH20 0xFFFFFFFFFFFFFFFFFFFFFFFFFFFFFFFFFFFFFFFF AND PUSH20 0xFFFFFFFFFFFFFFFFFFFFFFFFFFFFFFFFFFFFFFFF AND DUP2 MSTORE PUSH1 0x20 ADD SWAP1 DUP2 MSTORE PUSH1 0x20 ADD PUSH1 0x0 KECCAK256 PUSH1 0x0 DUP3 DUP3 SLOAD PUSH2 0x174B SWAP2 SWAP1 PUSH2 0x22A1 JUMP JUMPDEST SWAP3 POP POP DUP2 SWAP1 SSTORE POP DUP2 PUSH1 0x2 PUSH1 0x0 DUP4 DUP2 MSTORE PUSH1 0x20 ADD SWAP1 DUP2 MSTORE PUSH1 0x20 ADD PUSH1 0x0 KECCAK256 PUSH1 0x0 PUSH2 0x100 EXP DUP2 SLOAD DUP2 PUSH20 0xFFFFFFFFFFFFFFFFFFFFFFFFFFFFFFFFFFFFFFFF MUL NOT AND SWAP1 DUP4 PUSH20 0xFFFFFFFFFFFFFFFFFFFFFFFFFFFFFFFFFFFFFFFF AND MUL OR SWAP1 SSTORE POP DUP1 DUP3 PUSH20 0xFFFFFFFFFFFFFFFFFFFFFFFFFFFFFFFFFFFFFFFF AND PUSH1 0x0 PUSH20 0xFFFFFFFFFFFFFFFFFFFFFFFFFFFFFFFFFFFFFFFF AND PUSH32 0xDDF252AD1BE2C89B69C2B068FC378DAA952BA7F163C4A11628F55A4DF523B3EF PUSH1 0x40 MLOAD PUSH1 0x40 MLOAD DUP1 SWAP2 SUB SWAP1 LOG4 PUSH2 0x180C PUSH1 0x0 DUP4 DUP4 PUSH2 0x141C JUMP JUMPDEST POP POP JUMP JUMPDEST DUP3 DUP1 SLOAD PUSH2 0x181C SWAP1 PUSH2 0x2412 JUMP JUMPDEST SWAP1 PUSH1 0x0 MSTORE PUSH1 0x20 PUSH1 0x0 KECCAK256 SWAP1 PUSH1 0x1F ADD PUSH1 0x20 SWAP1 DIV DUP2 ADD SWAP3 DUP3 PUSH2 0x183E JUMPI PUSH1 0x0 DUP6 SSTORE PUSH2 0x1885 JUMP JUMPDEST DUP3 PUSH1 0x1F LT PUSH2 0x1857 JUMPI DUP1 MLOAD PUSH1 0xFF NOT AND DUP4 DUP1 ADD OR DUP6 SSTORE PUSH2 0x1885 JUMP JUMPDEST DUP3 DUP1 ADD PUSH1 0x1 ADD DUP6 SSTORE DUP3 ISZERO PUSH2 0x1885 JUMPI SWAP2 DUP3 ADD JUMPDEST DUP3 DUP2 GT ISZERO PUSH2 0x1884 JUMPI DUP3 MLOAD DUP3 SSTORE SWAP2 PUSH1 0x20 ADD SWAP2 SWAP1 PUSH1 0x1 ADD SWAP1 PUSH2 0x1869 JUMP JUMPDEST JUMPDEST POP SWAP1 POP PUSH2 0x1892 SWAP2 SWAP1 PUSH2 0x1896 JUMP JUMPDEST POP SWAP1 JUMP JUMPDEST JUMPDEST DUP1 DUP3 GT ISZERO PUSH2 0x18AF JUMPI PUSH1 0x0 DUP2 PUSH1 0x0 SWAP1 SSTORE POP PUSH1 0x1 ADD PUSH2 0x1897 JUMP JUMPDEST POP SWAP1 JUMP JUMPDEST PUSH1 0x0 PUSH2 0x18C6 PUSH2 0x18C1 DUP5 PUSH2 0x21FC JUMP JUMPDEST PUSH2 0x21D7 JUMP JUMPDEST SWAP1 POP DUP3 DUP2 MSTORE PUSH1 0x20 DUP2 ADD DUP5 DUP5 DUP5 ADD GT ISZERO PUSH2 0x18DE JUMPI PUSH1 0x0 DUP1 REVERT JUMPDEST PUSH2 0x18E9 DUP5 DUP3 DUP6 PUSH2 0x23D0 JUMP JUMPDEST POP SWAP4 SWAP3 POP POP POP JUMP JUMPDEST PUSH1 0x0 PUSH2 0x1904 PUSH2 0x18FF DUP5 PUSH2 0x222D JUMP JUMPDEST PUSH2 0x21D7 JUMP JUMPDEST SWAP1 POP DUP3 DUP2 MSTORE PUSH1 0x20 DUP2 ADD DUP5 DUP5 DUP5 ADD GT ISZERO PUSH2 0x191C JUMPI PUSH1 0x0 DUP1 REVERT JUMPDEST PUSH2 0x1927 DUP5 DUP3 DUP6 PUSH2 0x23D0 JUMP JUMPDEST POP SWAP4 SWAP3 POP POP POP JUMP JUMPDEST PUSH1 0x0 DUP2 CALLDATALOAD SWAP1 POP PUSH2 0x193E DUP2 PUSH2 0x299C JUMP JUMPDEST SWAP3 SWAP2 POP POP JUMP JUMPDEST PUSH1 0x0 DUP2 CALLDATALOAD SWAP1 POP PUSH2 0x1953 DUP2 PUSH2 0x29B3 JUMP JUMPDEST SWAP3 SWAP2 POP POP JUMP JUMPDEST PUSH1 0x0 DUP2 CALLDATALOAD SWAP1 POP PUSH2 0x1968 DUP2 PUSH2 0x29CA JUMP JUMPDEST SWAP3 SWAP2 POP POP JUMP JUMPDEST PUSH1 0x0 DUP2 MLOAD SWAP1 POP PUSH2 0x197D DUP2 PUSH2 0x29CA JUMP JUMPDEST SWAP3 SWAP2 POP POP JUMP JUMPDEST PUSH1 0x0 DUP3 PUSH1 0x1F DUP4 ADD SLT PUSH2 0x1994 JUMPI PUSH1 0x0 DUP1 REVERT JUMPDEST DUP2 CALLDATALOAD PUSH2 0x19A4 DUP5 DUP3 PUSH1 0x20 DUP7 ADD PUSH2 0x18B3 JUMP JUMPDEST SWAP2 POP POP SWAP3 SWAP2 POP POP JUMP JUMPDEST PUSH1 0x0 DUP3 PUSH1 0x1F DUP4 ADD SLT PUSH2 0x19BE JUMPI PUSH1 0x0 DUP1 REVERT JUMPDEST DUP2 CALLDATALOAD PUSH2 0x19CE DUP5 DUP3 PUSH1 0x20 DUP7 ADD PUSH2 0x18F1 JUMP JUMPDEST SWAP2 POP POP SWAP3 SWAP2 POP POP JUMP JUMPDEST PUSH1 0x0 DUP2 CALLDATALOAD SWAP1 POP PUSH2 0x19E6 DUP2 PUSH2 0x29E1 JUMP JUMPDEST SWAP3 SWAP2 POP POP JUMP JUMPDEST PUSH1 0x0 PUSH1 0x20 DUP3 DUP5 SUB SLT ISZERO PUSH2 0x19FE JUMPI PUSH1 0x0 DUP1 REVERT JUMPDEST PUSH1 0x0 PUSH2 0x1A0C DUP5 DUP3 DUP6 ADD PUSH2 0x192F JUMP JUMPDEST SWAP2 POP POP SWAP3 SWAP2 POP POP JUMP JUMPDEST PUSH1 0x0 DUP1 PUSH1 0x40 DUP4 DUP6 SUB SLT ISZERO PUSH2 0x1A28 JUMPI PUSH1 0x0 DUP1 REVERT JUMPDEST PUSH1 0x0 PUSH2 0x1A36 DUP6 DUP3 DUP7 ADD PUSH2 0x192F JUMP JUMPDEST SWAP3 POP POP PUSH1 0x20 PUSH2 0x1A47 DUP6 DUP3 DUP7 ADD PUSH2 0x192F JUMP JUMPDEST SWAP2 POP POP SWAP3 POP SWAP3 SWAP1 POP JUMP JUMPDEST PUSH1 0x0 DUP1 PUSH1 0x0 PUSH1 0x60 DUP5 DUP7 SUB SLT ISZERO PUSH2 0x1A66 JUMPI PUSH1 0x0 DUP1 REVERT JUMPDEST PUSH1 0x0 PUSH2 0x1A74 DUP7 DUP3 DUP8 ADD PUSH2 0x192F JUMP JUMPDEST SWAP4 POP POP PUSH1 0x20 PUSH2 0x1A85 DUP7 DUP3 DUP8 ADD PUSH2 0x192F JUMP JUMPDEST SWAP3 POP POP PUSH1 0x40 PUSH2 0x1A96 DUP7 DUP3 DUP8 ADD PUSH2 0x19D7 JUMP JUMPDEST SWAP2 POP POP SWAP3 POP SWAP3 POP SWAP3 JUMP JUMPDEST PUSH1 0x0 DUP1 PUSH1 0x0 DUP1 PUSH1 0x80 DUP6 DUP8 SUB SLT ISZERO PUSH2 0x1AB6 JUMPI PUSH1 0x0 DUP1 REVERT JUMPDEST PUSH1 0x0 PUSH2 0x1AC4 DUP8 DUP3 DUP9 ADD PUSH2 0x192F JUMP JUMPDEST SWAP5 POP POP PUSH1 0x20 PUSH2 0x1AD5 DUP8 DUP3 DUP9 ADD PUSH2 0x192F JUMP JUMPDEST SWAP4 POP POP PUSH1 0x40 PUSH2 0x1AE6 DUP8 DUP3 DUP9 ADD PUSH2 0x19D7 JUMP JUMPDEST SWAP3 POP POP PUSH1 0x60 DUP6 ADD CALLDATALOAD PUSH8 0xFFFFFFFFFFFFFFFF DUP2 GT ISZERO PUSH2 0x1B03 JUMPI PUSH1 0x0 DUP1 REVERT JUMPDEST PUSH2 0x1B0F DUP8 DUP3 DUP9 ADD PUSH2 0x1983 JUMP JUMPDEST SWAP2 POP POP SWAP3 SWAP6 SWAP2 SWAP5 POP SWAP3 POP JUMP JUMPDEST PUSH1 0x0 DUP1 PUSH1 0x40 DUP4 DUP6 SUB SLT ISZERO PUSH2 0x1B2E JUMPI PUSH1 0x0 DUP1 REVERT JUMPDEST PUSH1 0x0 PUSH2 0x1B3C DUP6 DUP3 DUP7 ADD PUSH2 0x192F JUMP JUMPDEST SWAP3 POP POP PUSH1 0x20 PUSH2 0x1B4D DUP6 DUP3 DUP7 ADD PUSH2 0x1944 JUMP JUMPDEST SWAP2 POP POP SWAP3 POP SWAP3 SWAP1 POP JUMP JUMPDEST PUSH1 0x0 DUP1 PUSH1 0x40 DUP4 DUP6 SUB SLT ISZERO PUSH2 0x1B6A JUMPI PUSH1 0x0 DUP1 REVERT JUMPDEST PUSH1 0x0 PUSH2 0x1B78 DUP6 DUP3 DUP7 ADD PUSH2 0x192F JUMP JUMPDEST SWAP3 POP POP PUSH1 0x20 PUSH2 0x1B89 DUP6 DUP3 DUP7 ADD PUSH2 0x19D7 JUMP JUMPDEST SWAP2 POP POP SWAP3 POP SWAP3 SWAP1 POP JUMP JUMPDEST PUSH1 0x0 PUSH1 0x20 DUP3 DUP5 SUB SLT ISZERO PUSH2 0x1BA5 JUMPI PUSH1 0x0 DUP1 REVERT JUMPDEST PUSH1 0x0 PUSH2 0x1BB3 DUP5 DUP3 DUP6 ADD PUSH2 0x1959 JUMP JUMPDEST SWAP2 POP POP SWAP3 SWAP2 POP POP JUMP JUMPDEST PUSH1 0x0 PUSH1 0x20 DUP3 DUP5 SUB SLT ISZERO PUSH2 0x1BCE JUMPI PUSH1 0x0 DUP1 REVERT JUMPDEST PUSH1 0x0 PUSH2 0x1BDC DUP5 DUP3 DUP6 ADD PUSH2 0x196E JUMP JUMPDEST SWAP2 POP POP SWAP3 SWAP2 POP POP JUMP JUMPDEST PUSH1 0x0 DUP1 PUSH1 0x40 DUP4 DUP6 SUB SLT ISZERO PUSH2 0x1BF8 JUMPI PUSH1 0x0 DUP1 REVERT JUMPDEST PUSH1 0x0 DUP4 ADD CALLDATALOAD PUSH8 0xFFFFFFFFFFFFFFFF DUP2 GT ISZERO PUSH2 0x1C12 JUMPI PUSH1 0x0 DUP1 REVERT JUMPDEST PUSH2 0x1C1E DUP6 DUP3 DUP7 ADD PUSH2 0x19AD JUMP JUMPDEST SWAP3 POP POP PUSH1 0x20 DUP4 ADD CALLDATALOAD PUSH8 0xFFFFFFFFFFFFFFFF DUP2 GT ISZERO PUSH2 0x1C3B JUMPI PUSH1 0x0 DUP1 REVERT JUMPDEST PUSH2 0x1C47 DUP6 DUP3 DUP7 ADD PUSH2 0x19AD JUMP JUMPDEST SWAP2 POP POP SWAP3 POP SWAP3 SWAP1 POP JUMP JUMPDEST PUSH1 0x0 PUSH1 0x20 DUP3 DUP5 SUB SLT ISZERO PUSH2 0x1C63 JUMPI PUSH1 0x0 DUP1 REVERT JUMPDEST PUSH1 0x0 PUSH2 0x1C71 DUP5 DUP3 DUP6 ADD PUSH2 0x19D7 JUMP JUMPDEST SWAP2 POP POP SWAP3 SWAP2 POP POP JUMP JUMPDEST PUSH2 0x1C83 DUP2 PUSH2 0x235C JUMP JUMPDEST DUP3 MSTORE POP POP JUMP JUMPDEST PUSH2 0x1C92 DUP2 PUSH2 0x236E JUMP JUMPDEST DUP3 MSTORE POP POP JUMP JUMPDEST PUSH1 0x0 PUSH2 0x1CA3 DUP3 PUSH2 0x225E JUMP JUMPDEST PUSH2 0x1CAD DUP2 DUP6 PUSH2 0x2274 JUMP JUMPDEST SWAP4 POP PUSH2 0x1CBD DUP2 DUP6 PUSH1 0x20 DUP7 ADD PUSH2 0x23DF JUMP JUMPDEST PUSH2 0x1CC6 DUP2 PUSH2 0x25AB JUMP JUMPDEST DUP5 ADD SWAP2 POP POP SWAP3 SWAP2 POP POP JUMP JUMPDEST PUSH1 0x0 PUSH2 0x1CDC DUP3 PUSH2 0x2269 JUMP JUMPDEST PUSH2 0x1CE6 DUP2 DUP6 PUSH2 0x2285 JUMP JUMPDEST SWAP4 POP PUSH2 0x1CF6 DUP2 DUP6 PUSH1 0x20 DUP7 ADD PUSH2 0x23DF JUMP JUMPDEST PUSH2 0x1CFF DUP2 PUSH2 0x25AB JUMP JUMPDEST DUP5 ADD SWAP2 POP POP SWAP3 SWAP2 POP POP JUMP JUMPDEST PUSH1 0x0 PUSH2 0x1D15 DUP3 PUSH2 0x2269 JUMP JUMPDEST PUSH2 0x1D1F DUP2 DUP6 PUSH2 0x2296 JUMP JUMPDEST SWAP4 POP PUSH2 0x1D2F DUP2 DUP6 PUSH1 0x20 DUP7 ADD PUSH2 0x23DF JUMP JUMPDEST DUP1 DUP5 ADD SWAP2 POP POP SWAP3 SWAP2 POP POP JUMP JUMPDEST PUSH1 0x0 PUSH2 0x1D48 PUSH1 0x32 DUP4 PUSH2 0x2285 JUMP JUMPDEST SWAP2 POP PUSH2 0x1D53 DUP3 PUSH2 0x25BC JUMP JUMPDEST PUSH1 0x40 DUP3 ADD SWAP1 POP SWAP2 SWAP1 POP JUMP JUMPDEST PUSH1 0x0 PUSH2 0x1D6B PUSH1 0x25 DUP4 PUSH2 0x2285 JUMP JUMPDEST SWAP2 POP PUSH2 0x1D76 DUP3 PUSH2 0x260B JUMP JUMPDEST PUSH1 0x40 DUP3 ADD SWAP1 POP SWAP2 SWAP1 POP JUMP JUMPDEST PUSH1 0x0 PUSH2 0x1D8E PUSH1 0x1C DUP4 PUSH2 0x2285 JUMP JUMPDEST SWAP2 POP PUSH2 0x1D99 DUP3 PUSH2 0x265A JUMP JUMPDEST PUSH1 0x20 DUP3 ADD SWAP1 POP SWAP2 SWAP1 POP JUMP JUMPDEST PUSH1 0x0 PUSH2 0x1DB1 PUSH1 0x24 DUP4 PUSH2 0x2285 JUMP JUMPDEST SWAP2 POP PUSH2 0x1DBC DUP3 PUSH2 0x2683 JUMP JUMPDEST PUSH1 0x40 DUP3 ADD SWAP1 POP SWAP2 SWAP1 POP JUMP JUMPDEST PUSH1 0x0 PUSH2 0x1DD4 PUSH1 0x19 DUP4 PUSH2 0x2285 JUMP JUMPDEST SWAP2 POP PUSH2 0x1DDF DUP3 PUSH2 0x26D2 JUMP JUMPDEST PUSH1 0x20 DUP3 ADD SWAP1 POP SWAP2 SWAP1 POP JUMP JUMPDEST PUSH1 0x0 PUSH2 0x1DF7 PUSH1 0x2C DUP4 PUSH2 0x2285 JUMP JUMPDEST SWAP2 POP PUSH2 0x1E02 DUP3 PUSH2 0x26FB JUMP JUMPDEST PUSH1 0x40 DUP3 ADD SWAP1 POP SWAP2 SWAP1 POP JUMP JUMPDEST PUSH1 0x0 PUSH2 0x1E1A PUSH1 0x38 DUP4 PUSH2 0x2285 JUMP JUMPDEST SWAP2 POP PUSH2 0x1E25 DUP3 PUSH2 0x274A JUMP JUMPDEST PUSH1 0x40 DUP3 ADD SWAP1 POP SWAP2 SWAP1 POP JUMP JUMPDEST PUSH1 0x0 PUSH2 0x1E3D PUSH1 0x2A DUP4 PUSH2 0x2285 JUMP JUMPDEST SWAP2 POP PUSH2 0x1E48 DUP3 PUSH2 0x2799 JUMP JUMPDEST PUSH1 0x40 DUP3 ADD SWAP1 POP SWAP2 SWAP1 POP JUMP JUMPDEST PUSH1 0x0 PUSH2 0x1E60 PUSH1 0x29 DUP4 PUSH2 0x2285 JUMP JUMPDEST SWAP2 POP PUSH2 0x1E6B DUP3 PUSH2 0x27E8 JUMP JUMPDEST PUSH1 0x40 DUP3 ADD SWAP1 POP SWAP2 SWAP1 POP JUMP JUMPDEST PUSH1 0x0 PUSH2 0x1E83 PUSH1 0x20 DUP4 PUSH2 0x2285 JUMP JUMPDEST SWAP2 POP PUSH2 0x1E8E DUP3 PUSH2 0x2837 JUMP JUMPDEST PUSH1 0x20 DUP3 ADD SWAP1 POP SWAP2 SWAP1 POP JUMP JUMPDEST PUSH1 0x0 PUSH2 0x1EA6 PUSH1 0x2C DUP4 PUSH2 0x2285 JUMP JUMPDEST SWAP2 POP PUSH2 0x1EB1 DUP3 PUSH2 0x2860 JUMP JUMPDEST PUSH1 0x40 DUP3 ADD SWAP1 POP SWAP2 SWAP1 POP JUMP JUMPDEST PUSH1 0x0 PUSH2 0x1EC9 PUSH1 0x2F DUP4 PUSH2 0x2285 JUMP JUMPDEST SWAP2 POP PUSH2 0x1ED4 DUP3 PUSH2 0x28AF JUMP JUMPDEST PUSH1 0x40 DUP3 ADD SWAP1 POP SWAP2 SWAP1 POP JUMP JUMPDEST PUSH1 0x0 PUSH2 0x1EEC PUSH1 0x21 DUP4 PUSH2 0x2285 JUMP JUMPDEST SWAP2 POP PUSH2 0x1EF7 DUP3 PUSH2 0x28FE JUMP JUMPDEST PUSH1 0x40 DUP3 ADD SWAP1 POP SWAP2 SWAP1 POP JUMP JUMPDEST PUSH1 0x0 PUSH2 0x1F0F PUSH1 0x31 DUP4 PUSH2 0x2285 JUMP JUMPDEST SWAP2 POP PUSH2 0x1F1A DUP3 PUSH2 0x294D JUMP JUMPDEST PUSH1 0x40 DUP3 ADD SWAP1 POP SWAP2 SWAP1 POP JUMP JUMPDEST PUSH2 0x1F2E DUP2 PUSH2 0x23C6 JUMP JUMPDEST DUP3 MSTORE POP POP JUMP JUMPDEST PUSH1 0x0 PUSH2 0x1F40 DUP3 DUP6 PUSH2 0x1D0A JUMP JUMPDEST SWAP2 POP PUSH2 0x1F4C DUP3 DUP5 PUSH2 0x1D0A JUMP JUMPDEST SWAP2 POP DUP2 SWAP1 POP SWAP4 SWAP3 POP POP POP JUMP JUMPDEST PUSH1 0x0 PUSH1 0x20 DUP3 ADD SWAP1 POP PUSH2 0x1F6D PUSH1 0x0 DUP4 ADD DUP5 PUSH2 0x1C7A JUMP JUMPDEST SWAP3 SWAP2 POP POP JUMP JUMPDEST PUSH1 0x0 PUSH1 0x80 DUP3 ADD SWAP1 POP PUSH2 0x1F88 PUSH1 0x0 DUP4 ADD DUP8 PUSH2 0x1C7A JUMP JUMPDEST PUSH2 0x1F95 PUSH1 0x20 DUP4 ADD DUP7 PUSH2 0x1C7A JUMP JUMPDEST PUSH2 0x1FA2 PUSH1 0x40 DUP4 ADD DUP6 PUSH2 0x1F25 JUMP JUMPDEST DUP2 DUP2 SUB PUSH1 0x60 DUP4 ADD MSTORE PUSH2 0x1FB4 DUP2 DUP5 PUSH2 0x1C98 JUMP JUMPDEST SWAP1 POP SWAP6 SWAP5 POP POP POP POP POP JUMP JUMPDEST PUSH1 0x0 PUSH1 0x20 DUP3 ADD SWAP1 POP PUSH2 0x1FD4 PUSH1 0x0 DUP4 ADD DUP5 PUSH2 0x1C89 JUMP JUMPDEST SWAP3 SWAP2 POP POP JUMP JUMPDEST PUSH1 0x0 PUSH1 0x20 DUP3 ADD SWAP1 POP DUP2 DUP2 SUB PUSH1 0x0 DUP4 ADD MSTORE PUSH2 0x1FF4 DUP2 DUP5 PUSH2 0x1CD1 JUMP JUMPDEST SWAP1 POP SWAP3 SWAP2 POP POP JUMP JUMPDEST PUSH1 0x0 PUSH1 0x20 DUP3 ADD SWAP1 POP DUP2 DUP2 SUB PUSH1 0x0 DUP4 ADD MSTORE PUSH2 0x2015 DUP2 PUSH2 0x1D3B JUMP JUMPDEST SWAP1 POP SWAP2 SWAP1 POP JUMP JUMPDEST PUSH1 0x0 PUSH1 0x20 DUP3 ADD SWAP1 POP DUP2 DUP2 SUB PUSH1 0x0 DUP4 ADD MSTORE PUSH2 0x2035 DUP2 PUSH2 0x1D5E JUMP JUMPDEST SWAP1 POP SWAP2 SWAP1 POP JUMP JUMPDEST PUSH1 0x0 PUSH1 0x20 DUP3 ADD SWAP1 POP DUP2 DUP2 SUB PUSH1 0x0 DUP4 ADD MSTORE PUSH2 0x2055 DUP2 PUSH2 0x1D81 JUMP JUMPDEST SWAP1 POP SWAP2 SWAP1 POP JUMP JUMPDEST PUSH1 0x0 PUSH1 0x20 DUP3 ADD SWAP1 POP DUP2 DUP2 SUB PUSH1 0x0 DUP4 ADD MSTORE PUSH2 0x2075 DUP2 PUSH2 0x1DA4 JUMP JUMPDEST SWAP1 POP SWAP2 SWAP1 POP JUMP JUMPDEST PUSH1 0x0 PUSH1 0x20 DUP3 ADD SWAP1 POP DUP2 DUP2 SUB PUSH1 0x0 DUP4 ADD MSTORE PUSH2 0x2095 DUP2 PUSH2 0x1DC7 JUMP JUMPDEST SWAP1 POP SWAP2 SWAP1 POP JUMP JUMPDEST PUSH1 0x0 PUSH1 0x20 DUP3 ADD SWAP1 POP DUP2 DUP2 SUB PUSH1 0x0 DUP4 ADD MSTORE PUSH2 0x20B5 DUP2 PUSH2 0x1DEA JUMP JUMPDEST SWAP1 POP SWAP2 SWAP1 POP JUMP JUMPDEST PUSH1 0x0 PUSH1 0x20 DUP3 ADD SWAP1 POP DUP2 DUP2 SUB PUSH1 0x0 DUP4 ADD MSTORE PUSH2 0x20D5 DUP2 PUSH2 0x1E0D JUMP JUMPDEST SWAP1 POP SWAP2 SWAP1 POP JUMP JUMPDEST PUSH1 0x0 PUSH1 0x20 DUP3 ADD SWAP1 POP DUP2 DUP2 SUB PUSH1 0x0 DUP4 ADD MSTORE PUSH2 0x20F5 DUP2 PUSH2 0x1E30 JUMP JUMPDEST SWAP1 POP SWAP2 SWAP1 POP JUMP JUMPDEST PUSH1 0x0 PUSH1 0x20 DUP3 ADD SWAP1 POP DUP2 DUP2 SUB PUSH1 0x0 DUP4 ADD MSTORE PUSH2 0x2115 DUP2 PUSH2 0x1E53 JUMP JUMPDEST SWAP1 POP SWAP2 SWAP1 POP JUMP JUMPDEST PUSH1 0x0 PUSH1 0x20 DUP3 ADD SWAP1 POP DUP2 DUP2 SUB PUSH1 0x0 DUP4 ADD MSTORE PUSH2 0x2135 DUP2 PUSH2 0x1E76 JUMP JUMPDEST SWAP1 POP SWAP2 SWAP1 POP JUMP JUMPDEST PUSH1 0x0 PUSH1 0x20 DUP3 ADD SWAP1 POP DUP2 DUP2 SUB PUSH1 0x0 DUP4 ADD MSTORE PUSH2 0x2155 DUP2 PUSH2 0x1E99 JUMP JUMPDEST SWAP1 POP SWAP2 SWAP1 POP JUMP JUMPDEST PUSH1 0x0 PUSH1 0x20 DUP3 ADD SWAP1 POP DUP2 DUP2 SUB PUSH1 0x0 DUP4 ADD MSTORE PUSH2 0x2175 DUP2 PUSH2 0x1EBC JUMP JUMPDEST SWAP1 POP SWAP2 SWAP1 POP JUMP JUMPDEST PUSH1 0x0 PUSH1 0x20 DUP3 ADD SWAP1 POP DUP2 DUP2 SUB PUSH1 0x0 DUP4 ADD MSTORE PUSH2 0x2195 DUP2 PUSH2 0x1EDF JUMP JUMPDEST SWAP1 POP SWAP2 SWAP1 POP JUMP JUMPDEST PUSH1 0x0 PUSH1 0x20 DUP3 ADD SWAP1 POP DUP2 DUP2 SUB PUSH1 0x0 DUP4 ADD MSTORE PUSH2 0x21B5 DUP2 PUSH2 0x1F02 JUMP JUMPDEST SWAP1 POP SWAP2 SWAP1 POP JUMP JUMPDEST PUSH1 0x0 PUSH1 0x20 DUP3 ADD SWAP1 POP PUSH2 0x21D1 PUSH1 0x0 DUP4 ADD DUP5 PUSH2 0x1F25 JUMP JUMPDEST SWAP3 SWAP2 POP POP JUMP JUMPDEST PUSH1 0x0 PUSH2 0x21E1 PUSH2 0x21F2 JUMP JUMPDEST SWAP1 POP PUSH2 0x21ED DUP3 DUP3 PUSH2 0x2444 JUMP JUMPDEST SWAP2 SWAP1 POP JUMP JUMPDEST PUSH1 0x0 PUSH1 0x40 MLOAD SWAP1 POP SWAP1 JUMP JUMPDEST PUSH1 0x0 PUSH8 0xFFFFFFFFFFFFFFFF DUP3 GT ISZERO PUSH2 0x2217 JUMPI PUSH2 0x2216 PUSH2 0x257C JUMP JUMPDEST JUMPDEST PUSH2 0x2220 DUP3 PUSH2 0x25AB JUMP JUMPDEST SWAP1 POP PUSH1 0x20 DUP2 ADD SWAP1 POP SWAP2 SWAP1 POP JUMP JUMPDEST PUSH1 0x0 PUSH8 0xFFFFFFFFFFFFFFFF DUP3 GT ISZERO PUSH2 0x2248 JUMPI PUSH2 0x2247 PUSH2 0x257C JUMP JUMPDEST JUMPDEST PUSH2 0x2251 DUP3 PUSH2 0x25AB JUMP JUMPDEST SWAP1 POP PUSH1 0x20 DUP2 ADD SWAP1 POP SWAP2 SWAP1 POP JUMP JUMPDEST PUSH1 0x0 DUP2 MLOAD SWAP1 POP SWAP2 SWAP1 POP JUMP JUMPDEST PUSH1 0x0 DUP2 MLOAD SWAP1 POP SWAP2 SWAP1 POP JUMP JUMPDEST PUSH1 0x0 DUP3 DUP3 MSTORE PUSH1 0x20 DUP3 ADD SWAP1 POP SWAP3 SWAP2 POP POP JUMP JUMPDEST PUSH1 0x0 DUP3 DUP3 MSTORE PUSH1 0x20 DUP3 ADD SWAP1 POP SWAP3 SWAP2 POP POP JUMP JUMPDEST PUSH1 0x0 DUP2 SWAP1 POP SWAP3 SWAP2 POP POP JUMP JUMPDEST PUSH1 0x0 PUSH2 0x22AC DUP3 PUSH2 0x23C6 JUMP JUMPDEST SWAP2 POP PUSH2 0x22B7 DUP4 PUSH2 0x23C6 JUMP JUMPDEST SWAP3 POP DUP3 PUSH32 0xFFFFFFFFFFFFFFFFFFFFFFFFFFFFFFFFFFFFFFFFFFFFFFFFFFFFFFFFFFFFFFFF SUB DUP3 GT ISZERO PUSH2 0x22EC JUMPI PUSH2 0x22EB PUSH2 0x24EF JUMP JUMPDEST JUMPDEST DUP3 DUP3 ADD SWAP1 POP SWAP3 SWAP2 POP POP JUMP JUMPDEST PUSH1 0x0 PUSH2 0x2302 DUP3 PUSH2 0x23C6 JUMP JUMPDEST SWAP2 POP PUSH2 0x230D DUP4 PUSH2 0x23C6 JUMP JUMPDEST SWAP3 POP DUP3 PUSH2 0x231D JUMPI PUSH2 0x231C PUSH2 0x251E JUMP JUMPDEST JUMPDEST DUP3 DUP3 DIV SWAP1 POP SWAP3 SWAP2 POP POP JUMP JUMPDEST PUSH1 0x0 PUSH2 0x2333 DUP3 PUSH2 0x23C6 JUMP JUMPDEST SWAP2 POP PUSH2 0x233E DUP4 PUSH2 0x23C6 JUMP JUMPDEST SWAP3 POP DUP3 DUP3 LT ISZERO PUSH2 0x2351 JUMPI PUSH2 0x2350 PUSH2 0x24EF JUMP JUMPDEST JUMPDEST DUP3 DUP3 SUB SWAP1 POP SWAP3 SWAP2 POP POP JUMP JUMPDEST PUSH1 0x0 PUSH2 0x2367 DUP3 PUSH2 0x23A6 JUMP JUMPDEST SWAP1 POP SWAP2 SWAP1 POP JUMP JUMPDEST PUSH1 0x0 DUP2 ISZERO ISZERO SWAP1 POP SWAP2 SWAP1 POP JUMP JUMPDEST PUSH1 0x0 PUSH32 0xFFFFFFFF00000000000000000000000000000000000000000000000000000000 DUP3 AND SWAP1 POP SWAP2 SWAP1 POP JUMP JUMPDEST PUSH1 0x0 PUSH20 0xFFFFFFFFFFFFFFFFFFFFFFFFFFFFFFFFFFFFFFFF DUP3 AND SWAP1 POP SWAP2 SWAP1 POP JUMP JUMPDEST PUSH1 0x0 DUP2 SWAP1 POP SWAP2 SWAP1 POP JUMP JUMPDEST DUP3 DUP2 DUP4 CALLDATACOPY PUSH1 0x0 DUP4 DUP4 ADD MSTORE POP POP POP JUMP JUMPDEST PUSH1 0x0 JUMPDEST DUP4 DUP2 LT ISZERO PUSH2 0x23FD JUMPI DUP1 DUP3 ADD MLOAD DUP2 DUP5 ADD MSTORE PUSH1 0x20 DUP2 ADD SWAP1 POP PUSH2 0x23E2 JUMP JUMPDEST DUP4 DUP2 GT ISZERO PUSH2 0x240C JUMPI PUSH1 0x0 DUP5 DUP5 ADD MSTORE JUMPDEST POP POP POP POP JUMP JUMPDEST PUSH1 0x0 PUSH1 0x2 DUP3 DIV SWAP1 POP PUSH1 0x1 DUP3 AND DUP1 PUSH2 0x242A JUMPI PUSH1 0x7F DUP3 AND SWAP2 POP JUMPDEST PUSH1 0x20 DUP3 LT DUP2 EQ ISZERO PUSH2 0x243E JUMPI PUSH2 0x243D PUSH2 0x254D JUMP JUMPDEST JUMPDEST POP SWAP2 SWAP1 POP JUMP JUMPDEST PUSH2 0x244D DUP3 PUSH2 0x25AB JUMP JUMPDEST DUP2 ADD DUP2 DUP2 LT PUSH8 0xFFFFFFFFFFFFFFFF DUP3 GT OR ISZERO PUSH2 0x246C JUMPI PUSH2 0x246B PUSH2 0x257C JUMP JUMPDEST JUMPDEST DUP1 PUSH1 0x40 MSTORE POP POP POP JUMP JUMPDEST PUSH1 0x0 PUSH2 0x2480 DUP3 PUSH2 0x23C6 JUMP JUMPDEST SWAP2 POP PUSH32 0xFFFFFFFFFFFFFFFFFFFFFFFFFFFFFFFFFFFFFFFFFFFFFFFFFFFFFFFFFFFFFFFF DUP3 EQ ISZERO PUSH2 0x24B3 JUMPI PUSH2 0x24B2 PUSH2 0x24EF JUMP JUMPDEST JUMPDEST PUSH1 0x1 DUP3 ADD SWAP1 POP SWAP2 SWAP1 POP JUMP JUMPDEST PUSH1 0x0 PUSH2 0x24C9 DUP3 PUSH2 0x23C6 JUMP JUMPDEST SWAP2 POP PUSH2 0x24D4 DUP4 PUSH2 0x23C6 JUMP JUMPDEST SWAP3 POP DUP3 PUSH2 0x24E4 JUMPI PUSH2 0x24E3 PUSH2 0x251E JUMP JUMPDEST JUMPDEST DUP3 DUP3 MOD SWAP1 POP SWAP3 SWAP2 POP POP JUMP JUMPDEST PUSH32 0x4E487B7100000000000000000000000000000000000000000000000000000000 PUSH1 0x0 MSTORE PUSH1 0x11 PUSH1 0x4 MSTORE PUSH1 0x24 PUSH1 0x0 REVERT JUMPDEST PUSH32 0x4E487B7100000000000000000000000000000000000000000000000000000000 PUSH1 0x0 MSTORE PUSH1 0x12 PUSH1 0x4 MSTORE PUSH1 0x24 PUSH1 0x0 REVERT JUMPDEST PUSH32 0x4E487B7100000000000000000000000000000000000000000000000000000000 PUSH1 0x0 MSTORE PUSH1 0x22 PUSH1 0x4 MSTORE PUSH1 0x24 PUSH1 0x0 REVERT JUMPDEST PUSH32 0x4E487B7100000000000000000000000000000000000000000000000000000000 PUSH1 0x0 MSTORE PUSH1 0x41 PUSH1 0x4 MSTORE PUSH1 0x24 PUSH1 0x0 REVERT JUMPDEST PUSH1 0x0 PUSH1 0x1F NOT PUSH1 0x1F DUP4 ADD AND SWAP1 POP SWAP2 SWAP1 POP JUMP JUMPDEST PUSH32 0x4552433732313A207472616E7366657220746F206E6F6E204552433732315265 PUSH1 0x0 DUP3 ADD MSTORE PUSH32 0x63656976657220696D706C656D656E7465720000000000000000000000000000 PUSH1 0x20 DUP3 ADD MSTORE POP JUMP JUMPDEST PUSH32 0x4552433732313A207472616E736665722066726F6D20696E636F727265637420 PUSH1 0x0 DUP3 ADD MSTORE PUSH32 0x6F776E6572000000000000000000000000000000000000000000000000000000 PUSH1 0x20 DUP3 ADD MSTORE POP JUMP JUMPDEST PUSH32 0x4552433732313A20746F6B656E20616C7265616479206D696E74656400000000 PUSH1 0x0 DUP3 ADD MSTORE POP JUMP JUMPDEST PUSH32 0x4552433732313A207472616E7366657220746F20746865207A65726F20616464 PUSH1 0x0 DUP3 ADD MSTORE PUSH32 0x7265737300000000000000000000000000000000000000000000000000000000 PUSH1 0x20 DUP3 ADD MSTORE POP JUMP JUMPDEST PUSH32 0x4552433732313A20617070726F766520746F2063616C6C657200000000000000 PUSH1 0x0 DUP3 ADD MSTORE POP JUMP JUMPDEST PUSH32 0x4552433732313A206F70657261746F7220717565727920666F72206E6F6E6578 PUSH1 0x0 DUP3 ADD MSTORE PUSH32 0x697374656E7420746F6B656E0000000000000000000000000000000000000000 PUSH1 0x20 DUP3 ADD MSTORE POP JUMP JUMPDEST PUSH32 0x4552433732313A20617070726F76652063616C6C6572206973206E6F74206F77 PUSH1 0x0 DUP3 ADD MSTORE PUSH32 0x6E6572206E6F7220617070726F76656420666F7220616C6C0000000000000000 PUSH1 0x20 DUP3 ADD MSTORE POP JUMP JUMPDEST PUSH32 0x4552433732313A2062616C616E636520717565727920666F7220746865207A65 PUSH1 0x0 DUP3 ADD MSTORE PUSH32 0x726F206164647265737300000000000000000000000000000000000000000000 PUSH1 0x20 DUP3 ADD MSTORE POP JUMP JUMPDEST PUSH32 0x4552433732313A206F776E657220717565727920666F72206E6F6E6578697374 PUSH1 0x0 DUP3 ADD MSTORE PUSH32 0x656E7420746F6B656E0000000000000000000000000000000000000000000000 PUSH1 0x20 DUP3 ADD MSTORE POP JUMP JUMPDEST PUSH32 0x4552433732313A206D696E7420746F20746865207A65726F2061646472657373 PUSH1 0x0 DUP3 ADD MSTORE POP JUMP JUMPDEST PUSH32 0x4552433732313A20617070726F76656420717565727920666F72206E6F6E6578 PUSH1 0x0 DUP3 ADD MSTORE PUSH32 0x697374656E7420746F6B656E0000000000000000000000000000000000000000 PUSH1 0x20 DUP3 ADD MSTORE POP JUMP JUMPDEST PUSH32 0x4552433732314D657461646174613A2055524920717565727920666F72206E6F PUSH1 0x0 DUP3 ADD MSTORE PUSH32 0x6E6578697374656E7420746F6B656E0000000000000000000000000000000000 PUSH1 0x20 DUP3 ADD MSTORE POP JUMP JUMPDEST PUSH32 0x4552433732313A20617070726F76616C20746F2063757272656E74206F776E65 PUSH1 0x0 DUP3 ADD MSTORE PUSH32 0x7200000000000000000000000000000000000000000000000000000000000000 PUSH1 0x20 DUP3 ADD MSTORE POP JUMP JUMPDEST PUSH32 0x4552433732313A207472616E736665722063616C6C6572206973206E6F74206F PUSH1 0x0 DUP3 ADD MSTORE PUSH32 0x776E6572206E6F7220617070726F766564000000000000000000000000000000 PUSH1 0x20 DUP3 ADD MSTORE POP JUMP JUMPDEST PUSH2 0x29A5 DUP2 PUSH2 0x235C JUMP JUMPDEST DUP2 EQ PUSH2 0x29B0 JUMPI PUSH1 0x0 DUP1 REVERT JUMPDEST POP JUMP JUMPDEST PUSH2 0x29BC DUP2 PUSH2 0x236E JUMP JUMPDEST DUP2 EQ PUSH2 0x29C7 JUMPI PUSH1 0x0 DUP1 REVERT JUMPDEST POP JUMP JUMPDEST PUSH2 0x29D3 DUP2 PUSH2 0x237A JUMP JUMPDEST DUP2 EQ PUSH2 0x29DE JUMPI PUSH1 0x0 DUP1 REVERT JUMPDEST POP JUMP JUMPDEST PUSH2 0x29EA DUP2 PUSH2 0x23C6 JUMP JUMPDEST DUP2 EQ PUSH2 0x29F5 JUMPI PUSH1 0x0 DUP1 REVERT JUMPDEST POP JUMP INVALID LOG2 PUSH5 0x6970667358 0x22 SLT KECCAK256 DIFFICULTY DUP12 0xC0 0xD9 PUSH21 0x8B3323259A53B348665B1F5C30C49FE76DE8231EFA LOG3 GASLIMIT PUSH24 0xF32C5764736F6C6343000801003300000000000000000000 "
				},
				"gasEstimates": {
					"creation": {
						"codeDepositCost": "2159600",
						"executionCost": "infinite",
						"totalCost": "infinite"
					},
					"external": {
						"approve(address,uint256)": "infinite",
						"balanceOf(address)": "1602",
						"getApproved(uint256)": "2628",
						"isApprovedForAll(address,address)": "infinite",
						"mintNFT(string,string)": "infinite",
						"name()": "infinite",
						"ownerOf(uint256)": "1766",
						"safeTransferFrom(address,address,uint256)": "infinite",
						"safeTransferFrom(address,address,uint256,bytes)": "infinite",
						"setApprovalForAll(address,bool)": "infinite",
						"supportsInterface(bytes4)": "797",
						"symbol()": "infinite",
						"tokenURI(uint256)": "2051",
						"transferFrom(address,address,uint256)": "infinite",
						"transferNFTFrom(address,address,uint256)": "infinite"
					}
				},
				"methodIdentifiers": {
					"approve(address,uint256)": "095ea7b3",
					"balanceOf(address)": "70a08231",
					"getApproved(uint256)": "081812fc",
					"isApprovedForAll(address,address)": "e985e9c5",
					"mintNFT(string,string)": "e9605544",
					"name()": "06fdde03",
					"ownerOf(uint256)": "6352211e",
					"safeTransferFrom(address,address,uint256)": "42842e0e",
					"safeTransferFrom(address,address,uint256,bytes)": "b88d4fde",
					"setApprovalForAll(address,bool)": "a22cb465",
					"supportsInterface(bytes4)": "01ffc9a7",
					"symbol()": "95d89b41",
					"tokenURI(uint256)": "c87b56dd",
					"transferFrom(address,address,uint256)": "23b872dd",
					"transferNFTFrom(address,address,uint256)": "cde08c40"
				}
			},
			"userdoc": {
				"kind": "user",
				"methods": {},
				"version": 1
			}
		}
	}
}