{
  "_format": "hh-sol-artifact-1",
  "contractName": "RoyaltyNFT",
  "sourceName": "contracts/rarible-royalties-tutorial-main/contracts/RaribleRoyaltyERC721.sol",
  "abi": [
    {
      "inputs": [],
      "stateMutability": "nonpayable",
      "type": "constructor"
    },
    {
      "anonymous": false,
      "inputs": [
        {
          "indexed": true,
          "internalType": "address",
          "name": "owner",
          "type": "address"
        },
        {
          "indexed": true,
          "internalType": "address",
          "name": "approved",
          "type": "address"
        },
        {
          "indexed": true,
          "internalType": "uint256",
          "name": "tokenId",
          "type": "uint256"
        }
      ],
      "name": "Approval",
      "type": "event"
    },
    {
      "anonymous": false,
      "inputs": [
        {
          "indexed": true,
          "internalType": "address",
          "name": "owner",
          "type": "address"
        },
        {
          "indexed": true,
          "internalType": "address",
          "name": "operator",
          "type": "address"
        },
        {
          "indexed": false,
          "internalType": "bool",
          "name": "approved",
          "type": "bool"
        }
      ],
      "name": "ApprovalForAll",
      "type": "event"
    },
    {
      "anonymous": false,
      "inputs": [
        {
          "indexed": true,
          "internalType": "address",
          "name": "previousOwner",
          "type": "address"
        },
        {
          "indexed": true,
          "internalType": "address",
          "name": "newOwner",
          "type": "address"
        }
      ],
      "name": "OwnershipTransferred",
      "type": "event"
    },
    {
      "anonymous": false,
      "inputs": [
        {
          "indexed": false,
          "internalType": "uint256",
          "name": "tokenId",
          "type": "uint256"
        },
        {
          "components": [
            {
              "internalType": "address payable",
              "name": "account",
              "type": "address"
            },
            {
              "internalType": "uint96",
              "name": "value",
              "type": "uint96"
            }
          ],
          "indexed": false,
          "internalType": "struct LibPart.Part[]",
          "name": "royalties",
          "type": "tuple[]"
        }
      ],
      "name": "RoyaltiesSet",
      "type": "event"
    },
    {
      "anonymous": false,
      "inputs": [
        {
          "indexed": true,
          "internalType": "address",
          "name": "from",
          "type": "address"
        },
        {
          "indexed": true,
          "internalType": "address",
          "name": "to",
          "type": "address"
        },
        {
          "indexed": true,
          "internalType": "uint256",
          "name": "tokenId",
          "type": "uint256"
        }
      ],
      "name": "Transfer",
      "type": "event"
    },
    {
      "inputs": [
        {
          "internalType": "address",
          "name": "to",
          "type": "address"
        },
        {
          "internalType": "uint256",
          "name": "tokenId",
          "type": "uint256"
        }
      ],
      "name": "approve",
      "outputs": [],
      "stateMutability": "nonpayable",
      "type": "function"
    },
    {
      "inputs": [
        {
          "internalType": "address",
          "name": "owner",
          "type": "address"
        }
      ],
      "name": "balanceOf",
      "outputs": [
        {
          "internalType": "uint256",
          "name": "",
          "type": "uint256"
        }
      ],
      "stateMutability": "view",
      "type": "function"
    },
    {
      "inputs": [
        {
          "internalType": "uint256",
          "name": "tokenId",
          "type": "uint256"
        }
      ],
      "name": "getApproved",
      "outputs": [
        {
          "internalType": "address",
          "name": "",
          "type": "address"
        }
      ],
      "stateMutability": "view",
      "type": "function"
    },
    {
      "inputs": [
        {
          "internalType": "uint256",
          "name": "id",
          "type": "uint256"
        }
      ],
      "name": "getRaribleV2Royalties",
      "outputs": [
        {
          "components": [
            {
              "internalType": "address payable",
              "name": "account",
              "type": "address"
            },
            {
              "internalType": "uint96",
              "name": "value",
              "type": "uint96"
            }
          ],
          "internalType": "struct LibPart.Part[]",
          "name": "",
          "type": "tuple[]"
        }
      ],
      "stateMutability": "view",
      "type": "function"
    },
    {
      "inputs": [
        {
          "internalType": "address",
          "name": "owner",
          "type": "address"
        },
        {
          "internalType": "address",
          "name": "operator",
          "type": "address"
        }
      ],
      "name": "isApprovedForAll",
      "outputs": [
        {
          "internalType": "bool",
          "name": "",
          "type": "bool"
        }
      ],
      "stateMutability": "view",
      "type": "function"
    },
    {
      "inputs": [
        {
          "internalType": "address",
          "name": "_to",
          "type": "address"
        }
      ],
      "name": "mint",
      "outputs": [],
      "stateMutability": "nonpayable",
      "type": "function"
    },
    {
      "inputs": [],
      "name": "name",
      "outputs": [
        {
          "internalType": "string",
          "name": "",
          "type": "string"
        }
      ],
      "stateMutability": "view",
      "type": "function"
    },
    {
      "inputs": [],
      "name": "owner",
      "outputs": [
        {
          "internalType": "address",
          "name": "",
          "type": "address"
        }
      ],
      "stateMutability": "view",
      "type": "function"
    },
    {
      "inputs": [
        {
          "internalType": "uint256",
          "name": "tokenId",
          "type": "uint256"
        }
      ],
      "name": "ownerOf",
      "outputs": [
        {
          "internalType": "address",
          "name": "",
          "type": "address"
        }
      ],
      "stateMutability": "view",
      "type": "function"
    },
    {
      "inputs": [],
      "name": "renounceOwnership",
      "outputs": [],
      "stateMutability": "nonpayable",
      "type": "function"
    },
    {
      "inputs": [
        {
          "internalType": "uint256",
          "name": "",
          "type": "uint256"
        },
        {
          "internalType": "uint256",
          "name": "",
          "type": "uint256"
        }
      ],
      "name": "royalties",
      "outputs": [
        {
          "internalType": "address payable",
          "name": "account",
          "type": "address"
        },
        {
          "internalType": "uint96",
          "name": "value",
          "type": "uint96"
        }
      ],
      "stateMutability": "view",
      "type": "function"
    },
    {
      "inputs": [
        {
          "internalType": "address",
          "name": "from",
          "type": "address"
        },
        {
          "internalType": "address",
          "name": "to",
          "type": "address"
        },
        {
          "internalType": "uint256",
          "name": "tokenId",
          "type": "uint256"
        }
      ],
      "name": "safeTransferFrom",
      "outputs": [],
      "stateMutability": "nonpayable",
      "type": "function"
    },
    {
      "inputs": [
        {
          "internalType": "address",
          "name": "from",
          "type": "address"
        },
        {
          "internalType": "address",
          "name": "to",
          "type": "address"
        },
        {
          "internalType": "uint256",
          "name": "tokenId",
          "type": "uint256"
        },
        {
          "internalType": "bytes",
          "name": "_data",
          "type": "bytes"
        }
      ],
      "name": "safeTransferFrom",
      "outputs": [],
      "stateMutability": "nonpayable",
      "type": "function"
    },
    {
      "inputs": [
        {
          "internalType": "address",
          "name": "operator",
          "type": "address"
        },
        {
          "internalType": "bool",
          "name": "approved",
          "type": "bool"
        }
      ],
      "name": "setApprovalForAll",
      "outputs": [],
      "stateMutability": "nonpayable",
      "type": "function"
    },
    {
      "inputs": [
        {
          "internalType": "uint256",
          "name": "_tokenId",
          "type": "uint256"
        },
        {
          "internalType": "address payable",
          "name": "_royaltiesReceipientAddress",
          "type": "address"
        },
        {
          "internalType": "uint96",
          "name": "_percentageBasisPoints",
          "type": "uint96"
        }
      ],
      "name": "setRoyalties",
      "outputs": [],
      "stateMutability": "nonpayable",
      "type": "function"
    },
    {
      "inputs": [
        {
          "internalType": "bytes4",
          "name": "interfaceId",
          "type": "bytes4"
        }
      ],
      "name": "supportsInterface",
      "outputs": [
        {
          "internalType": "bool",
          "name": "",
          "type": "bool"
        }
      ],
      "stateMutability": "view",
      "type": "function"
    },
    {
      "inputs": [],
      "name": "symbol",
      "outputs": [
        {
          "internalType": "string",
          "name": "",
          "type": "string"
        }
      ],
      "stateMutability": "view",
      "type": "function"
    },
    {
      "inputs": [
        {
          "internalType": "uint256",
          "name": "tokenId",
          "type": "uint256"
        }
      ],
      "name": "tokenURI",
      "outputs": [
        {
          "internalType": "string",
          "name": "",
          "type": "string"
        }
      ],
      "stateMutability": "view",
      "type": "function"
    },
    {
      "inputs": [
        {
          "internalType": "address",
          "name": "from",
          "type": "address"
        },
        {
          "internalType": "address",
          "name": "to",
          "type": "address"
        },
        {
          "internalType": "uint256",
          "name": "tokenId",
          "type": "uint256"
        }
      ],
      "name": "transferFrom",
      "outputs": [],
      "stateMutability": "nonpayable",
      "type": "function"
    },
    {
      "inputs": [
        {
          "internalType": "address",
          "name": "newOwner",
          "type": "address"
        }
      ],
      "name": "transferOwnership",
      "outputs": [],
      "stateMutability": "nonpayable",
      "type": "function"
    }
  ],
  "bytecode": "0x60806040523480156200001157600080fd5b506040518060400160405280600a81526020017f526f79616c74794e4654000000000000000000000000000000000000000000008152506040518060400160405280600381526020017f524f590000000000000000000000000000000000000000000000000000000000815250816000908051906020019062000096929190620001a6565b508060019080519060200190620000af929190620001a6565b505050620000d2620000c6620000d860201b60201c565b620000e060201b60201c565b620002bb565b600033905090565b6000600660009054906101000a900473ffffffffffffffffffffffffffffffffffffffff16905081600660006101000a81548173ffffffffffffffffffffffffffffffffffffffff021916908373ffffffffffffffffffffffffffffffffffffffff1602179055508173ffffffffffffffffffffffffffffffffffffffff168173ffffffffffffffffffffffffffffffffffffffff167f8be0079c531659141344cd1fd0a4f28419497f9722a3daafe3b4186f6b6457e060405160405180910390a35050565b828054620001b49062000256565b90600052602060002090601f016020900481019282620001d8576000855562000224565b82601f10620001f357805160ff191683800117855562000224565b8280016001018555821562000224579182015b828111156200022357825182559160200191906001019062000206565b5b50905062000233919062000237565b5090565b5b808211156200025257600081600090555060010162000238565b5090565b600060028204905060018216806200026f57607f821691505b602082108114156200028657620002856200028c565b5b50919050565b7f4e487b7100000000000000000000000000000000000000000000000000000000600052602260045260246000fd5b61360e80620002cb6000396000f3fe608060405234801561001057600080fd5b506004361061012c5760003560e01c8063715018a6116100ad578063b88d4fde11610071578063b88d4fde1461032e578063c87b56dd1461034a578063cad96cca1461037a578063e985e9c5146103aa578063f2fde38b146103da5761012c565b8063715018a61461029b5780638924af74146102a55780638da5cb5b146102d657806395d89b41146102f4578063a22cb465146103125761012c565b806323b872dd116100f457806323b872dd146101e757806342842e0e146102035780636352211e1461021f5780636a6278421461024f57806370a082311461026b5761012c565b806301ffc9a71461013157806306fdde0314610161578063081812fc1461017f578063095ea7b3146101af578063143094db146101cb575b600080fd5b61014b600480360381019061014691906123c2565b6103f6565b60405161015891906129c5565b60405180910390f35b61016961045f565b60405161017691906129e0565b60405180910390f35b61019960048036038101906101949190612414565b6104f1565b6040516101a69190612913565b60405180910390f35b6101c960048036038101906101c49190612386565b610576565b005b6101e560048036038101906101e0919061243d565b61068e565b005b61020160048036038101906101fc9190612280565b61087b565b005b61021d60048036038101906102189190612280565b6108db565b005b61023960048036038101906102349190612414565b6108fb565b6040516102469190612913565b60405180910390f35b6102696004803603810190610264919061221b565b6109ad565b005b6102856004803603810190610280919061221b565b610a49565b6040516102929190612c42565b60405180910390f35b6102a3610b01565b005b6102bf60048036038101906102ba919061248c565b610b89565b6040516102cd92919061292e565b60405180910390f35b6102de610bfe565b6040516102eb9190612913565b60405180910390f35b6102fc610c28565b60405161030991906129e0565b60405180910390f35b61032c6004803603810190610327919061234a565b610cba565b005b610348600480360381019061034391906122cf565b610cd0565b005b610364600480360381019061035f9190612414565b610d32565b60405161037191906129e0565b60405180910390f35b610394600480360381019061038f9190612414565b610dd9565b6040516103a191906129a3565b60405180910390f35b6103c460048036038101906103bf9190612244565b610edb565b6040516103d191906129c5565b60405180910390f35b6103f460048036038101906103ef919061221b565b610f6f565b005b60006344c74bcc60e01b7bffffffffffffffffffffffffffffffffffffffffffffffffffffffff1916827bffffffffffffffffffffffffffffffffffffffffffffffffffffffff1916141561044e576001905061045a565b61045782611067565b90505b919050565b60606000805461046e90612efa565b80601f016020809104026020016040519081016040528092919081815260200182805461049a90612efa565b80156104e75780601f106104bc576101008083540402835291602001916104e7565b820191906000526020600020905b8154815290600101906020018083116104ca57829003601f168201915b5050505050905090565b60006104fc82611149565b61053b576040517f08c379a000000000000000000000000000000000000000000000000000000000815260040161053290612b62565b60405180910390fd5b6004600083815260200190815260200160002060009054906101000a900473ffffffffffffffffffffffffffffffffffffffff169050919050565b6000610581826108fb565b90508073ffffffffffffffffffffffffffffffffffffffff168373ffffffffffffffffffffffffffffffffffffffff1614156105f2576040517f08c379a00000000000000000000000000000000000000000000000000000000081526004016105e990612be2565b60405180910390fd5b8073ffffffffffffffffffffffffffffffffffffffff166106116111b5565b73ffffffffffffffffffffffffffffffffffffffff161480610640575061063f8161063a6111b5565b610edb565b5b61067f576040517f08c379a000000000000000000000000000000000000000000000000000000000815260040161067690612ae2565b60405180910390fd5b61068983836111bd565b505050565b6106966111b5565b73ffffffffffffffffffffffffffffffffffffffff166106b4610bfe565b73ffffffffffffffffffffffffffffffffffffffff161461070a576040517f08c379a000000000000000000000000000000000000000000000000000000000815260040161070190612b82565b60405180910390fd5b6000600167ffffffffffffffff81111561074d577f4e487b7100000000000000000000000000000000000000000000000000000000600052604160045260246000fd5b60405190808252806020026020018201604052801561078657816020015b6107736120e2565b81526020019060019003908161076b5790505b50905081816000815181106107c4577f4e487b7100000000000000000000000000000000000000000000000000000000600052603260045260246000fd5b6020026020010151602001906bffffffffffffffffffffffff1690816bffffffffffffffffffffffff1681525050828160008151811061082d577f4e487b7100000000000000000000000000000000000000000000000000000000600052603260045260246000fd5b60200260200101516000019073ffffffffffffffffffffffffffffffffffffffff16908173ffffffffffffffffffffffffffffffffffffffff16815250506108758482611276565b50505050565b61088c6108866111b5565b826114e7565b6108cb576040517f08c379a00000000000000000000000000000000000000000000000000000000081526004016108c290612c02565b60405180910390fd5b6108d68383836115c5565b505050565b6108f683838360405180602001604052806000815250610cd0565b505050565b6000806002600084815260200190815260200160002060009054906101000a900473ffffffffffffffffffffffffffffffffffffffff169050600073ffffffffffffffffffffffffffffffffffffffff168173ffffffffffffffffffffffffffffffffffffffff1614156109a4576040517f08c379a000000000000000000000000000000000000000000000000000000000815260040161099b90612b22565b60405180910390fd5b80915050919050565b6109b56111b5565b73ffffffffffffffffffffffffffffffffffffffff166109d3610bfe565b73ffffffffffffffffffffffffffffffffffffffff1614610a29576040517f08c379a0000000000000000000000000000000000000000000000000000000008152600401610a2090612b82565b60405180910390fd5b610a3c81610a376008611821565b61182f565b610a4660086119fd565b50565b60008073ffffffffffffffffffffffffffffffffffffffff168273ffffffffffffffffffffffffffffffffffffffff161415610aba576040517f08c379a0000000000000000000000000000000000000000000000000000000008152600401610ab190612b02565b60405180910390fd5b600360008373ffffffffffffffffffffffffffffffffffffffff1673ffffffffffffffffffffffffffffffffffffffff168152602001908152602001600020549050919050565b610b096111b5565b73ffffffffffffffffffffffffffffffffffffffff16610b27610bfe565b73ffffffffffffffffffffffffffffffffffffffff1614610b7d576040517f08c379a0000000000000000000000000000000000000000000000000000000008152600401610b7490612b82565b60405180910390fd5b610b876000611a13565b565b60076020528160005260406000208181548110610ba557600080fd5b90600052602060002001600091509150508060000160009054906101000a900473ffffffffffffffffffffffffffffffffffffffff16908060000160149054906101000a90046bffffffffffffffffffffffff16905082565b6000600660009054906101000a900473ffffffffffffffffffffffffffffffffffffffff16905090565b606060018054610c3790612efa565b80601f0160208091040260200160405190810160405280929190818152602001828054610c6390612efa565b8015610cb05780601f10610c8557610100808354040283529160200191610cb0565b820191906000526020600020905b815481529060010190602001808311610c9357829003601f168201915b5050505050905090565b610ccc610cc56111b5565b8383611ad9565b5050565b610ce1610cdb6111b5565b836114e7565b610d20576040517f08c379a0000000000000000000000000000000000000000000000000000000008152600401610d1790612c02565b60405180910390fd5b610d2c84848484611c46565b50505050565b6060610d3d82611149565b610d7c576040517f08c379a0000000000000000000000000000000000000000000000000000000008152600401610d7390612bc2565b60405180910390fd5b6000610d86611ca2565b90506000815111610da65760405180602001604052806000815250610dd1565b80610db084611cdf565b604051602001610dc19291906128ef565b6040516020818303038152906040525b915050919050565b606060076000838152602001908152602001600020805480602002602001604051908101604052809291908181526020016000905b82821015610ed0578382906000526020600020016040518060400160405290816000820160009054906101000a900473ffffffffffffffffffffffffffffffffffffffff1673ffffffffffffffffffffffffffffffffffffffff1673ffffffffffffffffffffffffffffffffffffffff1681526020016000820160149054906101000a90046bffffffffffffffffffffffff166bffffffffffffffffffffffff166bffffffffffffffffffffffff168152505081526020019060010190610e0e565b505050509050919050565b6000600560008473ffffffffffffffffffffffffffffffffffffffff1673ffffffffffffffffffffffffffffffffffffffff16815260200190815260200160002060008373ffffffffffffffffffffffffffffffffffffffff1673ffffffffffffffffffffffffffffffffffffffff16815260200190815260200160002060009054906101000a900460ff16905092915050565b610f776111b5565b73ffffffffffffffffffffffffffffffffffffffff16610f95610bfe565b73ffffffffffffffffffffffffffffffffffffffff1614610feb576040517f08c379a0000000000000000000000000000000000000000000000000000000008152600401610fe290612b82565b60405180910390fd5b600073ffffffffffffffffffffffffffffffffffffffff168173ffffffffffffffffffffffffffffffffffffffff16141561105b576040517f08c379a000000000000000000000000000000000000000000000000000000000815260040161105290612a22565b60405180910390fd5b61106481611a13565b50565b60007f80ac58cd000000000000000000000000000000000000000000000000000000007bffffffffffffffffffffffffffffffffffffffffffffffffffffffff1916827bffffffffffffffffffffffffffffffffffffffffffffffffffffffff1916148061113257507f5b5e139f000000000000000000000000000000000000000000000000000000007bffffffffffffffffffffffffffffffffffffffffffffffffffffffff1916827bffffffffffffffffffffffffffffffffffffffffffffffffffffffff1916145b80611142575061114182611e8c565b5b9050919050565b60008073ffffffffffffffffffffffffffffffffffffffff166002600084815260200190815260200160002060009054906101000a900473ffffffffffffffffffffffffffffffffffffffff1673ffffffffffffffffffffffffffffffffffffffff1614159050919050565b600033905090565b816004600083815260200190815260200160002060006101000a81548173ffffffffffffffffffffffffffffffffffffffff021916908373ffffffffffffffffffffffffffffffffffffffff160217905550808273ffffffffffffffffffffffffffffffffffffffff16611230836108fb565b73ffffffffffffffffffffffffffffffffffffffff167f8c5be1e5ebec7d5bd14f71427d1e84f3dd0314c0f7b2291e5b200ac8c7c3b92560405160405180910390a45050565b60005b81518110156114d857600073ffffffffffffffffffffffffffffffffffffffff168282815181106112d3577f4e487b7100000000000000000000000000000000000000000000000000000000600052603260045260246000fd5b60200260200101516000015173ffffffffffffffffffffffffffffffffffffffff161415611336576040517f08c379a000000000000000000000000000000000000000000000000000000000815260040161132d90612c22565b60405180910390fd5b6000828281518110611371577f4e487b7100000000000000000000000000000000000000000000000000000000600052603260045260246000fd5b6020026020010151602001516bffffffffffffffffffffffff1614156113cc576040517f08c379a00000000000000000000000000000000000000000000000000000000081526004016113c390612ac2565b60405180910390fd5b60076000848152602001908152602001600020828281518110611418577f4e487b7100000000000000000000000000000000000000000000000000000000600052603260045260246000fd5b60200260200101519080600181540180825580915050600190039060005260206000200160009091909190915060008201518160000160006101000a81548173ffffffffffffffffffffffffffffffffffffffff021916908373ffffffffffffffffffffffffffffffffffffffff16021790555060208201518160000160146101000a8154816bffffffffffffffffffffffff02191690836bffffffffffffffffffffffff160217905550505080806114d090612f5d565b915050611279565b506114e38282611ef6565b5050565b60006114f282611149565b611531576040517f08c379a000000000000000000000000000000000000000000000000000000000815260040161152890612aa2565b60405180910390fd5b600061153c836108fb565b90508073ffffffffffffffffffffffffffffffffffffffff168473ffffffffffffffffffffffffffffffffffffffff1614806115ab57508373ffffffffffffffffffffffffffffffffffffffff16611593846104f1565b73ffffffffffffffffffffffffffffffffffffffff16145b806115bc57506115bb8185610edb565b5b91505092915050565b8273ffffffffffffffffffffffffffffffffffffffff166115e5826108fb565b73ffffffffffffffffffffffffffffffffffffffff161461163b576040517f08c379a000000000000000000000000000000000000000000000000000000000815260040161163290612ba2565b60405180910390fd5b600073ffffffffffffffffffffffffffffffffffffffff168273ffffffffffffffffffffffffffffffffffffffff1614156116ab576040517f08c379a00000000000000000000000000000000000000000000000000000000081526004016116a290612a62565b60405180910390fd5b6116b6838383611f33565b6116c16000826111bd565b6001600360008573ffffffffffffffffffffffffffffffffffffffff1673ffffffffffffffffffffffffffffffffffffffff16815260200190815260200160002060008282546117119190612de6565b925050819055506001600360008473ffffffffffffffffffffffffffffffffffffffff1673ffffffffffffffffffffffffffffffffffffffff16815260200190815260200160002060008282546117689190612d5f565b92505081905550816002600083815260200190815260200160002060006101000a81548173ffffffffffffffffffffffffffffffffffffffff021916908373ffffffffffffffffffffffffffffffffffffffff160217905550808273ffffffffffffffffffffffffffffffffffffffff168473ffffffffffffffffffffffffffffffffffffffff167fddf252ad1be2c89b69c2b068fc378daa952ba7f163c4a11628f55a4df523b3ef60405160405180910390a4505050565b600081600001549050919050565b600073ffffffffffffffffffffffffffffffffffffffff168273ffffffffffffffffffffffffffffffffffffffff16141561189f576040517f08c379a000000000000000000000000000000000000000000000000000000000815260040161189690612b42565b60405180910390fd5b6118a881611149565b156118e8576040517f08c379a00000000000000000000000000000000000000000000000000000000081526004016118df90612a42565b60405180910390fd5b6118f460008383611f33565b6001600360008473ffffffffffffffffffffffffffffffffffffffff1673ffffffffffffffffffffffffffffffffffffffff16815260200190815260200160002060008282546119449190612d5f565b92505081905550816002600083815260200190815260200160002060006101000a81548173ffffffffffffffffffffffffffffffffffffffff021916908373ffffffffffffffffffffffffffffffffffffffff160217905550808273ffffffffffffffffffffffffffffffffffffffff16600073ffffffffffffffffffffffffffffffffffffffff167fddf252ad1be2c89b69c2b068fc378daa952ba7f163c4a11628f55a4df523b3ef60405160405180910390a45050565b6001816000016000828254019250508190555050565b6000600660009054906101000a900473ffffffffffffffffffffffffffffffffffffffff16905081600660006101000a81548173ffffffffffffffffffffffffffffffffffffffff021916908373ffffffffffffffffffffffffffffffffffffffff1602179055508173ffffffffffffffffffffffffffffffffffffffff168173ffffffffffffffffffffffffffffffffffffffff167f8be0079c531659141344cd1fd0a4f28419497f9722a3daafe3b4186f6b6457e060405160405180910390a35050565b8173ffffffffffffffffffffffffffffffffffffffff168373ffffffffffffffffffffffffffffffffffffffff161415611b48576040517f08c379a0000000000000000000000000000000000000000000000000000000008152600401611b3f90612a82565b60405180910390fd5b80600560008573ffffffffffffffffffffffffffffffffffffffff1673ffffffffffffffffffffffffffffffffffffffff16815260200190815260200160002060008473ffffffffffffffffffffffffffffffffffffffff1673ffffffffffffffffffffffffffffffffffffffff16815260200190815260200160002060006101000a81548160ff0219169083151502179055508173ffffffffffffffffffffffffffffffffffffffff168373ffffffffffffffffffffffffffffffffffffffff167f17307eab39ab6107e8899845ad3d59bd9653f200f220920489ca2b5937696c3183604051611c3991906129c5565b60405180910390a3505050565b611c518484846115c5565b611c5d84848484611f38565b611c9c576040517f08c379a0000000000000000000000000000000000000000000000000000000008152600401611c9390612a02565b60405180910390fd5b50505050565b60606040518060400160405280601f81526020017f68747470733a2f2f6578616d706c65646f6d61696e2f6d657461646174612f00815250905090565b60606000821415611d27576040518060400160405280600181526020017f30000000000000000000000000000000000000000000000000000000000000008152509050611e87565b600082905060005b60008214611d59578080611d4290612f5d565b915050600a82611d529190612db5565b9150611d2f565b60008167ffffffffffffffff811115611d9b577f4e487b7100000000000000000000000000000000000000000000000000000000600052604160045260246000fd5b6040519080825280601f01601f191660200182016040528015611dcd5781602001600182028036833780820191505090505b5090505b60008514611e8057600182611de69190612de6565b9150600a85611df59190612fa6565b6030611e019190612d5f565b60f81b818381518110611e3d577f4e487b7100000000000000000000000000000000000000000000000000000000600052603260045260246000fd5b60200101907effffffffffffffffffffffffffffffffffffffffffffffffffffffffffffff1916908160001a905350600a85611e799190612db5565b9450611dd1565b8093505050505b919050565b60007f01ffc9a7000000000000000000000000000000000000000000000000000000007bffffffffffffffffffffffffffffffffffffffffffffffffffffffff1916827bffffffffffffffffffffffffffffffffffffffffffffffffffffffff1916149050919050565b7f3fa96d7b6bcbfe71ef171666d84db3cf52fa2d1c8afdb1cc8e486177f208b7df8282604051611f27929190612c5d565b60405180910390a15050565b505050565b6000611f598473ffffffffffffffffffffffffffffffffffffffff166120cf565b156120c2578373ffffffffffffffffffffffffffffffffffffffff1663150b7a02611f826111b5565b8786866040518563ffffffff1660e01b8152600401611fa49493929190612957565b602060405180830381600087803b158015611fbe57600080fd5b505af1925050508015611fef57506040513d601f19601f82011682018060405250810190611fec91906123eb565b60015b612072573d806000811461201f576040519150601f19603f3d011682016040523d82523d6000602084013e612024565b606091505b5060008151141561206a576040517f08c379a000000000000000000000000000000000000000000000000000000000815260040161206190612a02565b60405180910390fd5b805181602001fd5b63150b7a0260e01b7bffffffffffffffffffffffffffffffffffffffffffffffffffffffff1916817bffffffffffffffffffffffffffffffffffffffffffffffffffffffff1916149150506120c7565b600190505b949350505050565b600080823b905060008111915050919050565b6040518060400160405280600073ffffffffffffffffffffffffffffffffffffffff16815260200160006bffffffffffffffffffffffff1681525090565b600061213361212e84612cb2565b612c8d565b90508281526020810184848401111561214b57600080fd5b612156848285612eb8565b509392505050565b60008135905061216d8161354e565b92915050565b60008135905061218281613565565b92915050565b6000813590506121978161357c565b92915050565b6000813590506121ac81613593565b92915050565b6000815190506121c181613593565b92915050565b600082601f8301126121d857600080fd5b81356121e8848260208601612120565b91505092915050565b600081359050612200816135aa565b92915050565b600081359050612215816135c1565b92915050565b60006020828403121561222d57600080fd5b600061223b8482850161215e565b91505092915050565b6000806040838503121561225757600080fd5b60006122658582860161215e565b92505060206122768582860161215e565b9150509250929050565b60008060006060848603121561229557600080fd5b60006122a38682870161215e565b93505060206122b48682870161215e565b92505060406122c5868287016121f1565b9150509250925092565b600080600080608085870312156122e557600080fd5b60006122f38782880161215e565b94505060206123048782880161215e565b9350506040612315878288016121f1565b925050606085013567ffffffffffffffff81111561233257600080fd5b61233e878288016121c7565b91505092959194509250565b6000806040838503121561235d57600080fd5b600061236b8582860161215e565b925050602061237c85828601612188565b9150509250929050565b6000806040838503121561239957600080fd5b60006123a78582860161215e565b92505060206123b8858286016121f1565b9150509250929050565b6000602082840312156123d457600080fd5b60006123e28482850161219d565b91505092915050565b6000602082840312156123fd57600080fd5b600061240b848285016121b2565b91505092915050565b60006020828403121561242657600080fd5b6000612434848285016121f1565b91505092915050565b60008060006060848603121561245257600080fd5b6000612460868287016121f1565b935050602061247186828701612173565b925050604061248286828701612206565b9150509250925092565b6000806040838503121561249f57600080fd5b60006124ad858286016121f1565b92505060206124be858286016121f1565b9150509250929050565b60006124d48383612893565b60408301905092915050565b6124e981612e2c565b82525050565b6124f881612e2c565b82525050565b61250781612e1a565b82525050565b600061251882612cf3565b6125228185612d21565b935061252d83612ce3565b8060005b8381101561255e57815161254588826124c8565b975061255083612d14565b925050600181019050612531565b5085935050505092915050565b61257481612e3e565b82525050565b600061258582612cfe565b61258f8185612d32565b935061259f818560208601612ec7565b6125a881613093565b840191505092915050565b60006125be82612d09565b6125c88185612d43565b93506125d8818560208601612ec7565b6125e181613093565b840191505092915050565b60006125f782612d09565b6126018185612d54565b9350612611818560208601612ec7565b80840191505092915050565b600061262a603283612d43565b9150612635826130a4565b604082019050919050565b600061264d602683612d43565b9150612658826130f3565b604082019050919050565b6000612670601c83612d43565b915061267b82613142565b602082019050919050565b6000612693602483612d43565b915061269e8261316b565b604082019050919050565b60006126b6601983612d43565b91506126c1826131ba565b602082019050919050565b60006126d9602c83612d43565b91506126e4826131e3565b604082019050919050565b60006126fc602083612d43565b915061270782613232565b602082019050919050565b600061271f603883612d43565b915061272a8261325b565b604082019050919050565b6000612742602a83612d43565b915061274d826132aa565b604082019050919050565b6000612765602983612d43565b9150612770826132f9565b604082019050919050565b6000612788602083612d43565b915061279382613348565b602082019050919050565b60006127ab602c83612d43565b91506127b682613371565b604082019050919050565b60006127ce602083612d43565b91506127d9826133c0565b602082019050919050565b60006127f1602983612d43565b91506127fc826133e9565b604082019050919050565b6000612814602f83612d43565b915061281f82613438565b604082019050919050565b6000612837602183612d43565b915061284282613487565b604082019050919050565b600061285a603183612d43565b9150612865826134d6565b604082019050919050565b600061287d601b83612d43565b915061288882613525565b602082019050919050565b6040820160008201516128a960008501826124e0565b5060208201516128bc60208501826128d1565b50505050565b6128cb81612e96565b82525050565b6128da81612ea0565b82525050565b6128e981612ea0565b82525050565b60006128fb82856125ec565b915061290782846125ec565b91508190509392505050565b600060208201905061292860008301846124fe565b92915050565b600060408201905061294360008301856124ef565b61295060208301846128e0565b9392505050565b600060808201905061296c60008301876124fe565b61297960208301866124fe565b61298660408301856128c2565b8181036060830152612998818461257a565b905095945050505050565b600060208201905081810360008301526129bd818461250d565b905092915050565b60006020820190506129da600083018461256b565b92915050565b600060208201905081810360008301526129fa81846125b3565b905092915050565b60006020820190508181036000830152612a1b8161261d565b9050919050565b60006020820190508181036000830152612a3b81612640565b9050919050565b60006020820190508181036000830152612a5b81612663565b9050919050565b60006020820190508181036000830152612a7b81612686565b9050919050565b60006020820190508181036000830152612a9b816126a9565b9050919050565b60006020820190508181036000830152612abb816126cc565b9050919050565b60006020820190508181036000830152612adb816126ef565b9050919050565b60006020820190508181036000830152612afb81612712565b9050919050565b60006020820190508181036000830152612b1b81612735565b9050919050565b60006020820190508181036000830152612b3b81612758565b9050919050565b60006020820190508181036000830152612b5b8161277b565b9050919050565b60006020820190508181036000830152612b7b8161279e565b9050919050565b60006020820190508181036000830152612b9b816127c1565b9050919050565b60006020820190508181036000830152612bbb816127e4565b9050919050565b60006020820190508181036000830152612bdb81612807565b9050919050565b60006020820190508181036000830152612bfb8161282a565b9050919050565b60006020820190508181036000830152612c1b8161284d565b9050919050565b60006020820190508181036000830152612c3b81612870565b9050919050565b6000602082019050612c5760008301846128c2565b92915050565b6000604082019050612c7260008301856128c2565b8181036020830152612c84818461250d565b90509392505050565b6000612c97612ca8565b9050612ca38282612f2c565b919050565b6000604051905090565b600067ffffffffffffffff821115612ccd57612ccc613064565b5b612cd682613093565b9050602081019050919050565b6000819050602082019050919050565b600081519050919050565b600081519050919050565b600081519050919050565b6000602082019050919050565b600082825260208201905092915050565b600082825260208201905092915050565b600082825260208201905092915050565b600081905092915050565b6000612d6a82612e96565b9150612d7583612e96565b9250827fffffffffffffffffffffffffffffffffffffffffffffffffffffffffffffffff03821115612daa57612da9612fd7565b5b828201905092915050565b6000612dc082612e96565b9150612dcb83612e96565b925082612ddb57612dda613006565b5b828204905092915050565b6000612df182612e96565b9150612dfc83612e96565b925082821015612e0f57612e0e612fd7565b5b828203905092915050565b6000612e2582612e76565b9050919050565b6000612e3782612e76565b9050919050565b60008115159050919050565b60007fffffffff0000000000000000000000000000000000000000000000000000000082169050919050565b600073ffffffffffffffffffffffffffffffffffffffff82169050919050565b6000819050919050565b60006bffffffffffffffffffffffff82169050919050565b82818337600083830152505050565b60005b83811015612ee5578082015181840152602081019050612eca565b83811115612ef4576000848401525b50505050565b60006002820490506001821680612f1257607f821691505b60208210811415612f2657612f25613035565b5b50919050565b612f3582613093565b810181811067ffffffffffffffff82111715612f5457612f53613064565b5b80604052505050565b6000612f6882612e96565b91507fffffffffffffffffffffffffffffffffffffffffffffffffffffffffffffffff821415612f9b57612f9a612fd7565b5b600182019050919050565b6000612fb182612e96565b9150612fbc83612e96565b925082612fcc57612fcb613006565b5b828206905092915050565b7f4e487b7100000000000000000000000000000000000000000000000000000000600052601160045260246000fd5b7f4e487b7100000000000000000000000000000000000000000000000000000000600052601260045260246000fd5b7f4e487b7100000000000000000000000000000000000000000000000000000000600052602260045260246000fd5b7f4e487b7100000000000000000000000000000000000000000000000000000000600052604160045260246000fd5b6000601f19601f8301169050919050565b7f4552433732313a207472616e7366657220746f206e6f6e20455243373231526560008201527f63656976657220696d706c656d656e7465720000000000000000000000000000602082015250565b7f4f776e61626c653a206e6577206f776e657220697320746865207a65726f206160008201527f6464726573730000000000000000000000000000000000000000000000000000602082015250565b7f4552433732313a20746f6b656e20616c7265616479206d696e74656400000000600082015250565b7f4552433732313a207472616e7366657220746f20746865207a65726f2061646460008201527f7265737300000000000000000000000000000000000000000000000000000000602082015250565b7f4552433732313a20617070726f766520746f2063616c6c657200000000000000600082015250565b7f4552433732313a206f70657261746f7220717565727920666f72206e6f6e657860008201527f697374656e7420746f6b656e0000000000000000000000000000000000000000602082015250565b7f526f79616c74792076616c75652073686f756c6420626520706f736974697665600082015250565b7f4552433732313a20617070726f76652063616c6c6572206973206e6f74206f7760008201527f6e6572206e6f7220617070726f76656420666f7220616c6c0000000000000000602082015250565b7f4552433732313a2062616c616e636520717565727920666f7220746865207a6560008201527f726f206164647265737300000000000000000000000000000000000000000000602082015250565b7f4552433732313a206f776e657220717565727920666f72206e6f6e657869737460008201527f656e7420746f6b656e0000000000000000000000000000000000000000000000602082015250565b7f4552433732313a206d696e7420746f20746865207a65726f2061646472657373600082015250565b7f4552433732313a20617070726f76656420717565727920666f72206e6f6e657860008201527f697374656e7420746f6b656e0000000000000000000000000000000000000000602082015250565b7f4f776e61626c653a2063616c6c6572206973206e6f7420746865206f776e6572600082015250565b7f4552433732313a207472616e73666572206f6620746f6b656e2074686174206960008201527f73206e6f74206f776e0000000000000000000000000000000000000000000000602082015250565b7f4552433732314d657461646174613a2055524920717565727920666f72206e6f60008201527f6e6578697374656e7420746f6b656e0000000000000000000000000000000000602082015250565b7f4552433732313a20617070726f76616c20746f2063757272656e74206f776e6560008201527f7200000000000000000000000000000000000000000000000000000000000000602082015250565b7f4552433732313a207472616e736665722063616c6c6572206973206e6f74206f60008201527f776e6572206e6f7220617070726f766564000000000000000000000000000000602082015250565b7f526563697069656e742073686f756c642062652070726573656e740000000000600082015250565b61355781612e1a565b811461356257600080fd5b50565b61356e81612e2c565b811461357957600080fd5b50565b61358581612e3e565b811461359057600080fd5b50565b61359c81612e4a565b81146135a757600080fd5b50565b6135b381612e96565b81146135be57600080fd5b50565b6135ca81612ea0565b81146135d557600080fd5b5056fea26469706673582212203ba53b70f88f8d6f6a0565cf35c38bdd745386359018e58be67ab395df8d088264736f6c63430008040033",
  "linkReferences": {},
  "deployedLinkReferences": {}
}