{
  "_format": "hh-sol-artifact-1",
  "contractName": "Auctioning",
  "sourceName": "contracts/BidingContract.sol",
  "abi": [
    {
      "anonymous": false,
      "inputs": [
        {
          "indexed": false,
          "internalType": "address",
          "name": "tokenAddress",
          "type": "address"
        },
        {
          "indexed": false,
          "internalType": "uint256",
          "name": "tokenId",
          "type": "uint256"
        },
        {
          "indexed": false,
          "internalType": "address",
          "name": "seller",
          "type": "address"
        },
        {
          "indexed": false,
          "internalType": "uint256",
          "name": "minBid",
          "type": "uint256"
        },
        {
          "indexed": false,
          "internalType": "uint256",
          "name": "endDate",
          "type": "uint256"
        }
      ],
      "name": "AuctionCreated",
      "type": "event"
    },
    {
      "inputs": [
        {
          "internalType": "address",
          "name": "",
          "type": "address"
        },
        {
          "internalType": "uint256",
          "name": "",
          "type": "uint256"
        }
      ],
      "name": "auctions",
      "outputs": [
        {
          "internalType": "address payable",
          "name": "seller",
          "type": "address"
        },
        {
          "internalType": "uint256",
          "name": "minBid",
          "type": "uint256"
        },
        {
          "internalType": "uint256",
          "name": "endDate",
          "type": "uint256"
        },
        {
          "internalType": "address payable",
          "name": "highestBidAddress",
          "type": "address"
        },
        {
          "internalType": "uint256",
          "name": "highestBidAmount",
          "type": "uint256"
        }
      ],
      "stateMutability": "view",
      "type": "function"
    },
    {
      "inputs": [
        {
          "internalType": "address",
          "name": "_tokenAddress",
          "type": "address"
        },
        {
          "internalType": "uint256",
          "name": "_tokenId",
          "type": "uint256"
        }
      ],
      "name": "closeBid",
      "outputs": [],
      "stateMutability": "nonpayable",
      "type": "function"
    },
    {
      "inputs": [
        {
          "internalType": "address",
          "name": "_tokenAddress",
          "type": "address"
        },
        {
          "internalType": "uint256",
          "name": "_tokenId",
          "type": "uint256"
        },
        {
          "internalType": "uint256",
          "name": "_minBid",
          "type": "uint256"
        }
      ],
      "name": "createAuction",
      "outputs": [],
      "stateMutability": "nonpayable",
      "type": "function"
    },
    {
      "inputs": [
        {
          "internalType": "address",
          "name": "_tokenAddress",
          "type": "address"
        },
        {
          "internalType": "uint256",
          "name": "_tokenId",
          "type": "uint256"
        }
      ],
      "name": "createBid",
      "outputs": [],
      "stateMutability": "payable",
      "type": "function"
    }
  ],
  "bytecode": "0x608060405234801561001057600080fd5b50610f17806100206000396000f3fe60806040526004361061003f5760003560e01c806344f91c1e1461004457806370a7eba914610085578063abb94051146100a1578063e554a5ff146100ca575b600080fd5b34801561005057600080fd5b5061006b600480360381019061006691906109a2565b6100f3565b60405161007c959493929190610b18565b60405180910390f35b61009f600480360381019061009a91906109a2565b610176565b005b3480156100ad57600080fd5b506100c860048036038101906100c391906109de565b61036d565b005b3480156100d657600080fd5b506100f160048036038101906100ec91906109a2565b61057a565b005b6000602052816000526040600020602052806000526040600020600091509150508060000160009054906101000a900473ffffffffffffffffffffffffffffffffffffffff16908060010154908060020154908060030160009054906101000a900473ffffffffffffffffffffffffffffffffffffffff16908060040154905085565b60008060008473ffffffffffffffffffffffffffffffffffffffff1673ffffffffffffffffffffffffffffffffffffffff16815260200190815260200160002060008381526020019081526020016000209050600081600201541415610211576040517f08c379a000000000000000000000000000000000000000000000000000000000815260040161020890610cac565b60405180910390fd5b4281600201541015610258576040517f08c379a000000000000000000000000000000000000000000000000000000000815260040161024f90610c2c565b60405180910390fd5b34816004015410801561026e5750348160010154105b6102ad576040517f08c379a00000000000000000000000000000000000000000000000000000000081526004016102a490610c4c565b60405180910390fd5b8060030160009054906101000a900473ffffffffffffffffffffffffffffffffffffffff1673ffffffffffffffffffffffffffffffffffffffff166108fc82600401549081150290604051600060405180830381858888f1935050505015801561031b573d6000803e3d6000fd5b50338160030160006101000a81548173ffffffffffffffffffffffffffffffffffffffff021916908373ffffffffffffffffffffffffffffffffffffffff160217905550348160040181905550505050565b60008060008573ffffffffffffffffffffffffffffffffffffffff1673ffffffffffffffffffffffffffffffffffffffff168152602001908152602001600020600084815260200190815260200160002090506000816002015414610407576040517f08c379a00000000000000000000000000000000000000000000000000000000081526004016103fe90610c8c565b60405180910390fd5b8373ffffffffffffffffffffffffffffffffffffffff166323b872dd3330866040518463ffffffff1660e01b815260040161044493929190610ba2565b600060405180830381600087803b15801561045e57600080fd5b505af1158015610472573d6000803e3d6000fd5b50505050338160000160006101000a81548173ffffffffffffffffffffffffffffffffffffffff021916908373ffffffffffffffffffffffffffffffffffffffff16021790555081816001018190555062093a80426104d19190610cdd565b816002018190555060008160030160006101000a81548173ffffffffffffffffffffffffffffffffffffffff021916908373ffffffffffffffffffffffffffffffffffffffff160217905550600081600401819055507feeb8a66f59ee07b48e9116047f8bd98f651e4c76f74f3daf44ce1d592130bccc8484338562093a804261055b9190610cdd565b60405161056c959493929190610bd9565b60405180910390a150505050565b60008060008473ffffffffffffffffffffffffffffffffffffffff1673ffffffffffffffffffffffffffffffffffffffff16815260200190815260200160002060008381526020019081526020016000209050600081600201541415610615576040517f08c379a000000000000000000000000000000000000000000000000000000000815260040161060c90610cac565b60405180910390fd5b4281600201541061065b576040517f08c379a000000000000000000000000000000000000000000000000000000000815260040161065290610c6c565b60405180910390fd5b6000816004015414156107b8578273ffffffffffffffffffffffffffffffffffffffff166323b872dd308360000160009054906101000a900473ffffffffffffffffffffffffffffffffffffffff16856040518463ffffffff1660e01b81526004016106c993929190610b6b565b600060405180830381600087803b1580156106e357600080fd5b505af11580156106f7573d6000803e3d6000fd5b505050506000808473ffffffffffffffffffffffffffffffffffffffff1673ffffffffffffffffffffffffffffffffffffffff1681526020019081526020016000206000838152602001908152602001600020600080820160006101000a81549073ffffffffffffffffffffffffffffffffffffffff0219169055600182016000905560028201600090556003820160006101000a81549073ffffffffffffffffffffffffffffffffffffffff021916905560048201600090555050610973565b8060000160009054906101000a900473ffffffffffffffffffffffffffffffffffffffff1673ffffffffffffffffffffffffffffffffffffffff166108fc82600401549081150290604051600060405180830381858888f19350505050158015610826573d6000803e3d6000fd5b508273ffffffffffffffffffffffffffffffffffffffff166323b872dd308360030160009054906101000a900473ffffffffffffffffffffffffffffffffffffffff16856040518463ffffffff1660e01b815260040161088893929190610b6b565b600060405180830381600087803b1580156108a257600080fd5b505af11580156108b6573d6000803e3d6000fd5b505050506000808473ffffffffffffffffffffffffffffffffffffffff1673ffffffffffffffffffffffffffffffffffffffff1681526020019081526020016000206000838152602001908152602001600020600080820160006101000a81549073ffffffffffffffffffffffffffffffffffffffff0219169055600182016000905560028201600090556003820160006101000a81549073ffffffffffffffffffffffffffffffffffffffff0219169055600482016000905550505b505050565b60008135905061098781610eb3565b92915050565b60008135905061099c81610eca565b92915050565b600080604083850312156109b557600080fd5b60006109c385828601610978565b92505060206109d48582860161098d565b9150509250929050565b6000806000606084860312156109f357600080fd5b6000610a0186828701610978565b9350506020610a128682870161098d565b9250506040610a238682870161098d565b9150509250925092565b610a3681610d81565b82525050565b610a4581610d45565b82525050565b610a5481610d33565b82525050565b6000610a67601383610ccc565b9150610a7282610de6565b602082019050919050565b6000610a8a601583610ccc565b9150610a9582610e0f565b602082019050919050565b6000610aad601883610ccc565b9150610ab882610e38565b602082019050919050565b6000610ad0601583610ccc565b9150610adb82610e61565b602082019050919050565b6000610af3601683610ccc565b9150610afe82610e8a565b602082019050919050565b610b1281610d77565b82525050565b600060a082019050610b2d6000830188610a3c565b610b3a6020830187610b09565b610b476040830186610b09565b610b546060830185610a3c565b610b616080830184610b09565b9695505050505050565b6000606082019050610b806000830186610a4b565b610b8d6020830185610a2d565b610b9a6040830184610b09565b949350505050565b6000606082019050610bb76000830186610a4b565b610bc46020830185610a4b565b610bd16040830184610b09565b949350505050565b600060a082019050610bee6000830188610a4b565b610bfb6020830187610b09565b610c086040830186610a4b565b610c156060830185610b09565b610c226080830184610b09565b9695505050505050565b60006020820190508181036000830152610c4581610a5a565b9050919050565b60006020820190508181036000830152610c6581610a7d565b9050919050565b60006020820190508181036000830152610c8581610aa0565b9050919050565b60006020820190508181036000830152610ca581610ac3565b9050919050565b60006020820190508181036000830152610cc581610ae6565b9050919050565b600082825260208201905092915050565b6000610ce882610d77565b9150610cf383610d77565b9250827fffffffffffffffffffffffffffffffffffffffffffffffffffffffffffffffff03821115610d2857610d27610db7565b5b828201905092915050565b6000610d3e82610d57565b9050919050565b6000610d5082610d57565b9050919050565b600073ffffffffffffffffffffffffffffffffffffffff82169050919050565b6000819050919050565b6000610d8c82610d93565b9050919050565b6000610d9e82610da5565b9050919050565b6000610db082610d57565b9050919050565b7f4e487b7100000000000000000000000000000000000000000000000000000000600052601160045260246000fd5b7f61756374696f6e2069732066696e697368656400000000000000000000000000600082015250565b7f62696420616d6f756e7420697320746f6f206c6f770000000000000000000000600082015250565b7f61756374696f6e20686173206e6f742066696e69736865640000000000000000600082015250565b7f61756374696f6e20616c72656164792065786973740000000000000000000000600082015250565b7f61756374696f6e20646f6573206e6f7420657869737400000000000000000000600082015250565b610ebc81610d33565b8114610ec757600080fd5b50565b610ed381610d77565b8114610ede57600080fd5b5056fea2646970667358221220ec3328eff2f6bdfbb5a19dde3c89fcedea59efe5e798d0f96309e5fdc4d2f98b64736f6c63430008040033",
  "linkReferences": {},
  "deployedLinkReferences": {}
}