{
	"data": {
		"bytecode": {
			"linkReferences": {},
			"object": "608060405260006001553480156200001657600080fd5b50604051620029663803806200296683398181016040528101906200003c91906200017e565b8060009080519060200190620000549291906200005c565b505062000333565b8280546200006a9062000258565b90600052602060002090601f0160209004810192826200008e5760008555620000da565b82601f10620000a957805160ff1916838001178555620000da565b82800160010185558215620000da579182015b82811115620000d9578251825591602001919060010190620000bc565b5b509050620000e99190620000ed565b5090565b5b8082111562000108576000816000905550600101620000ee565b5090565b6000620001236200011d84620001ec565b620001c3565b9050828152602081018484840111156200013c57600080fd5b6200014984828562000222565b509392505050565b600082601f8301126200016357600080fd5b8151620001758482602086016200010c565b91505092915050565b6000602082840312156200019157600080fd5b600082015167ffffffffffffffff811115620001ac57600080fd5b620001ba8482850162000151565b91505092915050565b6000620001cf620001e2565b9050620001dd82826200028e565b919050565b6000604051905090565b600067ffffffffffffffff8211156200020a5762000209620002f3565b5b620002158262000322565b9050602081019050919050565b60005b838110156200024257808201518184015260208101905062000225565b8381111562000252576000848401525b50505050565b600060028204905060018216806200027157607f821691505b60208210811415620002885762000287620002c4565b5b50919050565b620002998262000322565b810181811067ffffffffffffffff82111715620002bb57620002ba620002f3565b5b80604052505050565b7f4e487b7100000000000000000000000000000000000000000000000000000000600052602260045260246000fd5b7f4e487b7100000000000000000000000000000000000000000000000000000000600052604160045260246000fd5b6000601f19601f8301169050919050565b61262380620003436000396000f3fe608060405234801561001057600080fd5b50600436106100a95760003560e01c80634d6861a6116100715780634d6861a614610166578063598647f81461019657806386b46073146101c6578063a9e7c2e5146101f6578063da4e364f14610212578063fe5c873a14610242576100a9565b806306fdde03146100ae578063150b7a02146100cc578063278ecde1146100fc5780632986c0e514610118578063310bf58314610136575b600080fd5b6100b661025e565b6040516100c39190611c96565b60405180910390f35b6100e660048036038101906100e1919061177a565b6102ec565b6040516100f39190611c7b565b60405180910390f35b61011660048036038101906101119190611895565b610300565b005b610120610605565b60405161012d9190611e78565b60405180910390f35b610150600480360381019061014b91906117f5565b61060b565b60405161015d9190611e78565b60405180910390f35b610180600480360381019061017b9190611895565b610c3c565b60405161018d9190611c60565b60405180910390f35b6101b060048036038101906101ab91906118be565b610ca9565b6040516101bd9190611c60565b60405180910390f35b6101e060048036038101906101db9190611895565b610f39565b6040516101ed9190611b77565b60405180910390f35b610210600480360381019061020b9190611895565b610ff5565b005b61022c60048036038101906102279190611895565b611267565b6040516102399190611e78565b60405180910390f35b61025c60048036038101906102579190611895565b611303565b005b6000805461026b906120f0565b80601f0160208091040260200160405190810160405280929190818152602001828054610297906120f0565b80156102e45780601f106102b9576101008083540402835291602001916102e4565b820191906000526020600020905b8154815290600101906020018083116102c757829003601f168201915b505050505081565b600063150b7a0260e01b9050949350505050565b6002805490508110610347576040517f08c379a000000000000000000000000000000000000000000000000000000000815260040161033e90611d78565b60405180910390fd5b61035081610c3c565b15610390576040517f08c379a000000000000000000000000000000000000000000000000000000000815260040161038790611cf8565b60405180910390fd5b6000600282815481106103cc577f4e487b7100000000000000000000000000000000000000000000000000000000600052603260045260246000fd5b906000526020600020906009020190503373ffffffffffffffffffffffffffffffffffffffff168160040160009054906101000a900473ffffffffffffffffffffffffffffffffffffffff1673ffffffffffffffffffffffffffffffffffffffff161461046e576040517f08c379a000000000000000000000000000000000000000000000000000000000815260040161046590611e38565b60405180910390fd5b600073ffffffffffffffffffffffffffffffffffffffff168160050160009054906101000a900473ffffffffffffffffffffffffffffffffffffffff1673ffffffffffffffffffffffffffffffffffffffff1614610501576040517f08c379a00000000000000000000000000000000000000000000000000000000081526004016104f890611e18565b60405180910390fd5b60008160010160009054906101000a900473ffffffffffffffffffffffffffffffffffffffff1690508073ffffffffffffffffffffffffffffffffffffffff166323b872dd308460040160009054906101000a900473ffffffffffffffffffffffffffffffffffffffff1685600301546040518463ffffffff1660e01b815260040161058f93929190611c00565b600060405180830381600087803b1580156105a957600080fd5b505af11580156105bd573d6000803e3d6000fd5b505050507f7dfbb77cc823ba323508cf4299ef206c31bf00a33e43ac269c79f793f6bd12c7838360030154336040516105f893929190611f49565b60405180910390a1505050565b60015481565b600061061686611682565b610655576040517f08c379a000000000000000000000000000000000000000000000000000000000815260040161064c90611d38565b60405180910390fd5b61065e85611682565b61069d576040517f08c379a000000000000000000000000000000000000000000000000000000000815260040161069490611cd8565b60405180910390fd5b4282116106df576040517f08c379a00000000000000000000000000000000000000000000000000000000081526004016106d690611df8565b60405180910390fd5b60008311610722576040517f08c379a000000000000000000000000000000000000000000000000000000000815260040161071990611d58565b60405180910390fd5b60008690503373ffffffffffffffffffffffffffffffffffffffff168173ffffffffffffffffffffffffffffffffffffffff16636352211e876040518263ffffffff1660e01b81526004016107779190611e78565b60206040518083038186803b15801561078f57600080fd5b505afa1580156107a3573d6000803e3d6000fd5b505050506040513d601f19601f820116820180604052508101906107c79190611751565b73ffffffffffffffffffffffffffffffffffffffff161461081d576040517f08c379a000000000000000000000000000000000000000000000000000000000815260040161081490611db8565b60405180910390fd5b3073ffffffffffffffffffffffffffffffffffffffff168173ffffffffffffffffffffffffffffffffffffffff1663081812fc876040518263ffffffff1660e01b815260040161086d9190611e78565b60206040518083038186803b15801561088557600080fd5b505afa158015610899573d6000803e3d6000fd5b505050506040513d601f19601f820116820180604052508101906108bd9190611751565b73ffffffffffffffffffffffffffffffffffffffff1614610913576040517f08c379a000000000000000000000000000000000000000000000000000000000815260040161090a90611dd8565b60405180910390fd5b8073ffffffffffffffffffffffffffffffffffffffff1663cde08c40333060006040518463ffffffff1660e01b815260040161095193929190611bc9565b602060405180830381600087803b15801561096b57600080fd5b505af115801561097f573d6000803e3d6000fd5b505050506040513d601f19601f820116820180604052508101906109a3919061186c565b6109ac57600080fd5b60008060405180610120016040528060015481526020018a73ffffffffffffffffffffffffffffffffffffffff1681526020018973ffffffffffffffffffffffffffffffffffffffff1681526020018881526020013373ffffffffffffffffffffffffffffffffffffffff1681526020018373ffffffffffffffffffffffffffffffffffffffff1681526020018781526020018681526020016000815250905060028190806001815401808255809150506001900390600052602060002090600902016000909190919091506000820151816000015560208201518160010160006101000a81548173ffffffffffffffffffffffffffffffffffffffff021916908373ffffffffffffffffffffffffffffffffffffffff16021790555060408201518160020160006101000a81548173ffffffffffffffffffffffffffffffffffffffff021916908373ffffffffffffffffffffffffffffffffffffffff1602179055506060820151816003015560808201518160040160006101000a81548173ffffffffffffffffffffffffffffffffffffffff021916908373ffffffffffffffffffffffffffffffffffffffff16021790555060a08201518160050160006101000a81548173ffffffffffffffffffffffffffffffffffffffff021916908373ffffffffffffffffffffffffffffffffffffffff16021790555060c0820151816006015560e082015181600701556101008201518160080155505060016000815480929190610bdc90612153565b91905055507f2fe15e5d20eaeaefdae63cab840dcb1ae80e7eaf6c60000aaaba96a6dc4ce8746001548a8a8a33878c8c6000604051610c2399989796959493929190611e93565b60405180910390a1600154935050505095945050505050565b60008060028381548110610c79577f4e487b7100000000000000000000000000000000000000000000000000000000600052603260045260246000fd5b9060005260206000209060090201905080600701544210610c9e576000915050610ca4565b60019150505b919050565b60006002805490508310610cf2576040517f08c379a0000000000000000000000000000000000000000000000000000000008152600401610ce990611d78565b60405180910390fd5b600060028481548110610d2e577f4e487b7100000000000000000000000000000000000000000000000000000000600052603260045260246000fd5b90600052602060002090600902019050610d4784610c3c565b610d86576040517f08c379a0000000000000000000000000000000000000000000000000000000008152600401610d7d90611d98565b60405180910390fd5b80600601548311610dcc576040517f08c379a0000000000000000000000000000000000000000000000000000000008152600401610dc390611e58565b60405180910390fd5b8060040160009054906101000a900473ffffffffffffffffffffffffffffffffffffffff1673ffffffffffffffffffffffffffffffffffffffff163373ffffffffffffffffffffffffffffffffffffffff161415610e5f576040517f08c379a0000000000000000000000000000000000000000000000000000000008152600401610e5690611cb8565b60405180910390fd5b60008160020160009054906101000a900473ffffffffffffffffffffffffffffffffffffffff1690506000339050808360050160006101000a81548173ffffffffffffffffffffffffffffffffffffffff021916908373ffffffffffffffffffffffffffffffffffffffff160217905550848360060181905550826008016000815480929190610eee90612153565b91905055507f0819577efdbcc6f20344847ff1b0cf5099165317fa8c0cec472cf1b2c83515c68686604051610f24929190611f20565b60405180910390a16001935050505092915050565b60006002805490508210610f82576040517f08c379a0000000000000000000000000000000000000000000000000000000008152600401610f7990611d78565b60405180910390fd5b60028281548110610fbc577f4e487b7100000000000000000000000000000000000000000000000000000000600052603260045260246000fd5b906000526020600020906009020160050160009054906101000a900473ffffffffffffffffffffffffffffffffffffffff169050919050565b600280549050811061103c576040517f08c379a000000000000000000000000000000000000000000000000000000000815260040161103390611d78565b60405180910390fd5b61104581610c3c565b15611085576040517f08c379a000000000000000000000000000000000000000000000000000000000815260040161107c90611cf8565b60405180910390fd5b6000600282815481106110c1577f4e487b7100000000000000000000000000000000000000000000000000000000600052603260045260246000fd5b906000526020600020906009020190503373ffffffffffffffffffffffffffffffffffffffff168160040160009054906101000a900473ffffffffffffffffffffffffffffffffffffffff1673ffffffffffffffffffffffffffffffffffffffff1614611163576040517f08c379a000000000000000000000000000000000000000000000000000000000815260040161115a90611e38565b60405180910390fd5b60008160010160009054906101000a900473ffffffffffffffffffffffffffffffffffffffff1690508073ffffffffffffffffffffffffffffffffffffffff166323b872dd308460050160009054906101000a900473ffffffffffffffffffffffffffffffffffffffff1685600301546040518463ffffffff1660e01b81526004016111f193929190611b92565b600060405180830381600087803b15801561120b57600080fd5b505af115801561121f573d6000803e3d6000fd5b505050507f74d693d132dbe07a071ac2e6d043de8ca215aeaa3df9b1150643fd73f20272548383600301543360405161125a93929190611f49565b60405180910390a1505050565b600060028054905082106112b0576040517f08c379a00000000000000000000000000000000000000000000000000000000081526004016112a790611d78565b60405180910390fd5b600282815481106112ea577f4e487b7100000000000000000000000000000000000000000000000000000000600052603260045260246000fd5b9060005260206000209060090201600601549050919050565b600280549050811061134a576040517f08c379a000000000000000000000000000000000000000000000000000000000815260040161134190611d78565b60405180910390fd5b61135381610c3c565b15611393576040517f08c379a000000000000000000000000000000000000000000000000000000000815260040161138a90611cf8565b60405180910390fd5b6000600282815481106113cf577f4e487b7100000000000000000000000000000000000000000000000000000000600052603260045260246000fd5b906000526020600020906009020190503373ffffffffffffffffffffffffffffffffffffffff168160050160009054906101000a900473ffffffffffffffffffffffffffffffffffffffff1673ffffffffffffffffffffffffffffffffffffffff1614611471576040517f08c379a000000000000000000000000000000000000000000000000000000000815260040161146890611d18565b60405180910390fd5b60008160010160009054906101000a900473ffffffffffffffffffffffffffffffffffffffff1690508073ffffffffffffffffffffffffffffffffffffffff1663cde08c40308460050160009054906101000a900473ffffffffffffffffffffffffffffffffffffffff16866040518463ffffffff1660e01b81526004016114fb93929190611b92565b602060405180830381600087803b15801561151557600080fd5b505af1158015611529573d6000803e3d6000fd5b505050506040513d601f19601f8201168201806040525081019061154d919061186c565b61155657600080fd5b60008260020160009054906101000a900473ffffffffffffffffffffffffffffffffffffffff1690508073ffffffffffffffffffffffffffffffffffffffff1663a9059cbb8460040160009054906101000a900473ffffffffffffffffffffffffffffffffffffffff1685600601546040518363ffffffff1660e01b81526004016115e2929190611c37565b602060405180830381600087803b1580156115fc57600080fd5b505af1158015611610573d6000803e3d6000fd5b505050506040513d601f19601f82011682018060405250810190611634919061186c565b61163d57600080fd5b7f7d4f7628c7b4939e94b123a69aabebcd8fbc8bac313fa8c20b7b71cb1601d3968484600301543360405161167493929190611f49565b60405180910390a150505050565b600080823b905060008111915050919050565b60006116a86116a384611fa5565b611f80565b9050828152602081018484840111156116c057600080fd5b6116cb8482856120ae565b509392505050565b6000813590506116e2816125a8565b92915050565b6000815190506116f7816125a8565b92915050565b60008151905061170c816125bf565b92915050565b600082601f83011261172357600080fd5b8135611733848260208601611695565b91505092915050565b60008135905061174b816125d6565b92915050565b60006020828403121561176357600080fd5b6000611771848285016116e8565b91505092915050565b6000806000806080858703121561179057600080fd5b600061179e878288016116d3565b94505060206117af878288016116d3565b93505060406117c08782880161173c565b925050606085013567ffffffffffffffff8111156117dd57600080fd5b6117e987828801611712565b91505092959194509250565b600080600080600060a0868803121561180d57600080fd5b600061181b888289016116d3565b955050602061182c888289016116d3565b945050604061183d8882890161173c565b935050606061184e8882890161173c565b925050608061185f8882890161173c565b9150509295509295909350565b60006020828403121561187e57600080fd5b600061188c848285016116fd565b91505092915050565b6000602082840312156118a757600080fd5b60006118b58482850161173c565b91505092915050565b600080604083850312156118d157600080fd5b60006118df8582860161173c565b92505060206118f08582860161173c565b9150509250929050565b61190381612066565b82525050565b61191281611ff2565b82525050565b61192181612004565b82525050565b61193081612010565b82525050565b61193f81612078565b82525050565b600061195082611fd6565b61195a8185611fe1565b935061196a8185602086016120bd565b61197381612229565b840191505092915050565b600061198b602b83611fe1565b91506119968261223a565b604082019050919050565b60006119ae602683611fe1565b91506119b982612289565b604082019050919050565b60006119d1601583611fe1565b91506119dc826122d8565b602082019050919050565b60006119f4603083611fe1565b91506119ff82612301565b604082019050919050565b6000611a17602783611fe1565b9150611a2282612350565b604082019050919050565b6000611a3a601983611fe1565b9150611a458261239f565b602082019050919050565b6000611a5d601583611fe1565b9150611a68826123c8565b602082019050919050565b6000611a80601383611fe1565b9150611a8b826123f1565b602082019050919050565b6000611aa3602283611fe1565b9150611aae8261241a565b604082019050919050565b6000611ac6602783611fe1565b9150611ad182612469565b604082019050919050565b6000611ae9601c83611fe1565b9150611af4826124b8565b602082019050919050565b6000611b0c601f83611fe1565b9150611b17826124e1565b602082019050919050565b6000611b2f603883611fe1565b9150611b3a8261250a565b604082019050919050565b6000611b52603183611fe1565b9150611b5d82612559565b604082019050919050565b611b718161205c565b82525050565b6000602082019050611b8c6000830184611909565b92915050565b6000606082019050611ba76000830186611909565b611bb460208301856118fa565b611bc16040830184611b68565b949350505050565b6000606082019050611bde6000830186611909565b611beb6020830185611909565b611bf86040830184611936565b949350505050565b6000606082019050611c156000830186611909565b611c226020830185611909565b611c2f6040830184611b68565b949350505050565b6000604082019050611c4c6000830185611909565b611c596020830184611b68565b9392505050565b6000602082019050611c756000830184611918565b92915050565b6000602082019050611c906000830184611927565b92915050565b60006020820190508181036000830152611cb08184611945565b905092915050565b60006020820190508181036000830152611cd18161197e565b9050919050565b60006020820190508181036000830152611cf1816119a1565b9050919050565b60006020820190508181036000830152611d11816119c4565b9050919050565b60006020820190508181036000830152611d31816119e7565b9050919050565b60006020820190508181036000830152611d5181611a0a565b9050919050565b60006020820190508181036000830152611d7181611a2d565b9050919050565b60006020820190508181036000830152611d9181611a50565b9050919050565b60006020820190508181036000830152611db181611a73565b9050919050565b60006020820190508181036000830152611dd181611a96565b9050919050565b60006020820190508181036000830152611df181611ab9565b9050919050565b60006020820190508181036000830152611e1181611adc565b9050919050565b60006020820190508181036000830152611e3181611aff565b9050919050565b60006020820190508181036000830152611e5181611b22565b9050919050565b60006020820190508181036000830152611e7181611b45565b9050919050565b6000602082019050611e8d6000830184611b68565b92915050565b600061012082019050611ea9600083018c611b68565b611eb6602083018b611909565b611ec3604083018a611909565b611ed06060830189611b68565b611edd6080830188611909565b611eea60a08301876118fa565b611ef760c0830186611b68565b611f0460e0830185611b68565b611f12610100830184611936565b9a9950505050505050505050565b6000604082019050611f356000830185611b68565b611f426020830184611b68565b9392505050565b6000606082019050611f5e6000830186611b68565b611f6b6020830185611b68565b611f786040830184611909565b949350505050565b6000611f8a611f9b565b9050611f968282612122565b919050565b6000604051905090565b600067ffffffffffffffff821115611fc057611fbf6121fa565b5b611fc982612229565b9050602081019050919050565b600081519050919050565b600082825260208201905092915050565b6000611ffd8261203c565b9050919050565b60008115159050919050565b60007fffffffff0000000000000000000000000000000000000000000000000000000082169050919050565b600073ffffffffffffffffffffffffffffffffffffffff82169050919050565b6000819050919050565b60006120718261208a565b9050919050565b60006120838261205c565b9050919050565b60006120958261209c565b9050919050565b60006120a78261203c565b9050919050565b82818337600083830152505050565b60005b838110156120db5780820151818401526020810190506120c0565b838111156120ea576000848401525b50505050565b6000600282049050600182168061210857607f821691505b6020821081141561211c5761211b6121cb565b5b50919050565b61212b82612229565b810181811067ffffffffffffffff8211171561214a576121496121fa565b5b80604052505050565b600061215e8261205c565b91507fffffffffffffffffffffffffffffffffffffffffffffffffffffffffffffffff8214156121915761219061219c565b5b600182019050919050565b7f4e487b7100000000000000000000000000000000000000000000000000000000600052601160045260246000fd5b7f4e487b7100000000000000000000000000000000000000000000000000000000600052602260045260246000fd5b7f4e487b7100000000000000000000000000000000000000000000000000000000600052604160045260246000fd5b6000601f19601f8301169050919050565b7f43726561746f72206f66207468652061756374696f6e2063616e6e6f7420706c60008201527f616365206e657720626964000000000000000000000000000000000000000000602082015250565b7f496e76616c6964205061796d656e7420546f6b656e20636f6e7472616374206160008201527f6464726573730000000000000000000000000000000000000000000000000000602082015250565b7f41756374696f6e206973207374696c6c206f70656e0000000000000000000000600082015250565b7f4e46542063616e20626520636c61696d6564206f6e6c7920627920746865206360008201527f757272656e7420626964206f776e657200000000000000000000000000000000602082015250565b7f496e76616c6964204e465420436f6c6c656374696f6e20636f6e74726163742060008201527f6164647265737300000000000000000000000000000000000000000000000000602082015250565b7f496e76616c696420696e697469616c2062696420707269636500000000000000600082015250565b7f496e76616c69642061756374696f6e20696e6465780000000000000000000000600082015250565b7f41756374696f6e206973206e6f74206f70656e00000000000000000000000000600082015250565b7f43616c6c6572206973206e6f7420746865206f776e6572206f6620746865204e60008201527f4654000000000000000000000000000000000000000000000000000000000000602082015250565b7f52657175697265204e4654206f776e657273686970207472616e73666572206160008201527f7070726f76616c00000000000000000000000000000000000000000000000000602082015250565b7f496e76616c696420656e64206461746520666f722061756374696f6e00000000600082015250565b7f4578697374696e6720626964657220666f7220746869732061756374696f6e00600082015250565b7f546f6b656e732063616e20626520636c61696d6564206f6e6c7920627920746860008201527f652063726561746f72206f66207468652061756374696f6e0000000000000000602082015250565b7f4e657720626964207072696365206d757374206265206869676865722074686160008201527f6e207468652063757272656e7420626964000000000000000000000000000000602082015250565b6125b181611ff2565b81146125bc57600080fd5b50565b6125c881612004565b81146125d357600080fd5b50565b6125df8161205c565b81146125ea57600080fd5b5056fea2646970667358221220bfc3a257d6a840cc9d842d8dd99c6f21fa4a8db4def262e0d319947b50d89d8464736f6c63430008010033",
			"opcodes": "PUSH1 0x80 PUSH1 0x40 MSTORE PUSH1 0x0 PUSH1 0x1 SSTORE CALLVALUE DUP1 ISZERO PUSH3 0x16 JUMPI PUSH1 0x0 DUP1 REVERT JUMPDEST POP PUSH1 0x40 MLOAD PUSH3 0x2966 CODESIZE SUB DUP1 PUSH3 0x2966 DUP4 CODECOPY DUP2 DUP2 ADD PUSH1 0x40 MSTORE DUP2 ADD SWAP1 PUSH3 0x3C SWAP2 SWAP1 PUSH3 0x17E JUMP JUMPDEST DUP1 PUSH1 0x0 SWAP1 DUP1 MLOAD SWAP1 PUSH1 0x20 ADD SWAP1 PUSH3 0x54 SWAP3 SWAP2 SWAP1 PUSH3 0x5C JUMP JUMPDEST POP POP PUSH3 0x333 JUMP JUMPDEST DUP3 DUP1 SLOAD PUSH3 0x6A SWAP1 PUSH3 0x258 JUMP JUMPDEST SWAP1 PUSH1 0x0 MSTORE PUSH1 0x20 PUSH1 0x0 KECCAK256 SWAP1 PUSH1 0x1F ADD PUSH1 0x20 SWAP1 DIV DUP2 ADD SWAP3 DUP3 PUSH3 0x8E JUMPI PUSH1 0x0 DUP6 SSTORE PUSH3 0xDA JUMP JUMPDEST DUP3 PUSH1 0x1F LT PUSH3 0xA9 JUMPI DUP1 MLOAD PUSH1 0xFF NOT AND DUP4 DUP1 ADD OR DUP6 SSTORE PUSH3 0xDA JUMP JUMPDEST DUP3 DUP1 ADD PUSH1 0x1 ADD DUP6 SSTORE DUP3 ISZERO PUSH3 0xDA JUMPI SWAP2 DUP3 ADD JUMPDEST DUP3 DUP2 GT ISZERO PUSH3 0xD9 JUMPI DUP3 MLOAD DUP3 SSTORE SWAP2 PUSH1 0x20 ADD SWAP2 SWAP1 PUSH1 0x1 ADD SWAP1 PUSH3 0xBC JUMP JUMPDEST JUMPDEST POP SWAP1 POP PUSH3 0xE9 SWAP2 SWAP1 PUSH3 0xED JUMP JUMPDEST POP SWAP1 JUMP JUMPDEST JUMPDEST DUP1 DUP3 GT ISZERO PUSH3 0x108 JUMPI PUSH1 0x0 DUP2 PUSH1 0x0 SWAP1 SSTORE POP PUSH1 0x1 ADD PUSH3 0xEE JUMP JUMPDEST POP SWAP1 JUMP JUMPDEST PUSH1 0x0 PUSH3 0x123 PUSH3 0x11D DUP5 PUSH3 0x1EC JUMP JUMPDEST PUSH3 0x1C3 JUMP JUMPDEST SWAP1 POP DUP3 DUP2 MSTORE PUSH1 0x20 DUP2 ADD DUP5 DUP5 DUP5 ADD GT ISZERO PUSH3 0x13C JUMPI PUSH1 0x0 DUP1 REVERT JUMPDEST PUSH3 0x149 DUP5 DUP3 DUP6 PUSH3 0x222 JUMP JUMPDEST POP SWAP4 SWAP3 POP POP POP JUMP JUMPDEST PUSH1 0x0 DUP3 PUSH1 0x1F DUP4 ADD SLT PUSH3 0x163 JUMPI PUSH1 0x0 DUP1 REVERT JUMPDEST DUP2 MLOAD PUSH3 0x175 DUP5 DUP3 PUSH1 0x20 DUP7 ADD PUSH3 0x10C JUMP JUMPDEST SWAP2 POP POP SWAP3 SWAP2 POP POP JUMP JUMPDEST PUSH1 0x0 PUSH1 0x20 DUP3 DUP5 SUB SLT ISZERO PUSH3 0x191 JUMPI PUSH1 0x0 DUP1 REVERT JUMPDEST PUSH1 0x0 DUP3 ADD MLOAD PUSH8 0xFFFFFFFFFFFFFFFF DUP2 GT ISZERO PUSH3 0x1AC JUMPI PUSH1 0x0 DUP1 REVERT JUMPDEST PUSH3 0x1BA DUP5 DUP3 DUP6 ADD PUSH3 0x151 JUMP JUMPDEST SWAP2 POP POP SWAP3 SWAP2 POP POP JUMP JUMPDEST PUSH1 0x0 PUSH3 0x1CF PUSH3 0x1E2 JUMP JUMPDEST SWAP1 POP PUSH3 0x1DD DUP3 DUP3 PUSH3 0x28E JUMP JUMPDEST SWAP2 SWAP1 POP JUMP JUMPDEST PUSH1 0x0 PUSH1 0x40 MLOAD SWAP1 POP SWAP1 JUMP JUMPDEST PUSH1 0x0 PUSH8 0xFFFFFFFFFFFFFFFF DUP3 GT ISZERO PUSH3 0x20A JUMPI PUSH3 0x209 PUSH3 0x2F3 JUMP JUMPDEST JUMPDEST PUSH3 0x215 DUP3 PUSH3 0x322 JUMP JUMPDEST SWAP1 POP PUSH1 0x20 DUP2 ADD SWAP1 POP SWAP2 SWAP1 POP JUMP JUMPDEST PUSH1 0x0 JUMPDEST DUP4 DUP2 LT ISZERO PUSH3 0x242 JUMPI DUP1 DUP3 ADD MLOAD DUP2 DUP5 ADD MSTORE PUSH1 0x20 DUP2 ADD SWAP1 POP PUSH3 0x225 JUMP JUMPDEST DUP4 DUP2 GT ISZERO PUSH3 0x252 JUMPI PUSH1 0x0 DUP5 DUP5 ADD MSTORE JUMPDEST POP POP POP POP JUMP JUMPDEST PUSH1 0x0 PUSH1 0x2 DUP3 DIV SWAP1 POP PUSH1 0x1 DUP3 AND DUP1 PUSH3 0x271 JUMPI PUSH1 0x7F DUP3 AND SWAP2 POP JUMPDEST PUSH1 0x20 DUP3 LT DUP2 EQ ISZERO PUSH3 0x288 JUMPI PUSH3 0x287 PUSH3 0x2C4 JUMP JUMPDEST JUMPDEST POP SWAP2 SWAP1 POP JUMP JUMPDEST PUSH3 0x299 DUP3 PUSH3 0x322 JUMP JUMPDEST DUP2 ADD DUP2 DUP2 LT PUSH8 0xFFFFFFFFFFFFFFFF DUP3 GT OR ISZERO PUSH3 0x2BB JUMPI PUSH3 0x2BA PUSH3 0x2F3 JUMP JUMPDEST JUMPDEST DUP1 PUSH1 0x40 MSTORE POP POP POP JUMP JUMPDEST PUSH32 0x4E487B7100000000000000000000000000000000000000000000000000000000 PUSH1 0x0 MSTORE PUSH1 0x22 PUSH1 0x4 MSTORE PUSH1 0x24 PUSH1 0x0 REVERT JUMPDEST PUSH32 0x4E487B7100000000000000000000000000000000000000000000000000000000 PUSH1 0x0 MSTORE PUSH1 0x41 PUSH1 0x4 MSTORE PUSH1 0x24 PUSH1 0x0 REVERT JUMPDEST PUSH1 0x0 PUSH1 0x1F NOT PUSH1 0x1F DUP4 ADD AND SWAP1 POP SWAP2 SWAP1 POP JUMP JUMPDEST PUSH2 0x2623 DUP1 PUSH3 0x343 PUSH1 0x0 CODECOPY PUSH1 0x0 RETURN INVALID PUSH1 0x80 PUSH1 0x40 MSTORE CALLVALUE DUP1 ISZERO PUSH2 0x10 JUMPI PUSH1 0x0 DUP1 REVERT JUMPDEST POP PUSH1 0x4 CALLDATASIZE LT PUSH2 0xA9 JUMPI PUSH1 0x0 CALLDATALOAD PUSH1 0xE0 SHR DUP1 PUSH4 0x4D6861A6 GT PUSH2 0x71 JUMPI DUP1 PUSH4 0x4D6861A6 EQ PUSH2 0x166 JUMPI DUP1 PUSH4 0x598647F8 EQ PUSH2 0x196 JUMPI DUP1 PUSH4 0x86B46073 EQ PUSH2 0x1C6 JUMPI DUP1 PUSH4 0xA9E7C2E5 EQ PUSH2 0x1F6 JUMPI DUP1 PUSH4 0xDA4E364F EQ PUSH2 0x212 JUMPI DUP1 PUSH4 0xFE5C873A EQ PUSH2 0x242 JUMPI PUSH2 0xA9 JUMP JUMPDEST DUP1 PUSH4 0x6FDDE03 EQ PUSH2 0xAE JUMPI DUP1 PUSH4 0x150B7A02 EQ PUSH2 0xCC JUMPI DUP1 PUSH4 0x278ECDE1 EQ PUSH2 0xFC JUMPI DUP1 PUSH4 0x2986C0E5 EQ PUSH2 0x118 JUMPI DUP1 PUSH4 0x310BF583 EQ PUSH2 0x136 JUMPI JUMPDEST PUSH1 0x0 DUP1 REVERT JUMPDEST PUSH2 0xB6 PUSH2 0x25E JUMP JUMPDEST PUSH1 0x40 MLOAD PUSH2 0xC3 SWAP2 SWAP1 PUSH2 0x1C96 JUMP JUMPDEST PUSH1 0x40 MLOAD DUP1 SWAP2 SUB SWAP1 RETURN JUMPDEST PUSH2 0xE6 PUSH1 0x4 DUP1 CALLDATASIZE SUB DUP2 ADD SWAP1 PUSH2 0xE1 SWAP2 SWAP1 PUSH2 0x177A JUMP JUMPDEST PUSH2 0x2EC JUMP JUMPDEST PUSH1 0x40 MLOAD PUSH2 0xF3 SWAP2 SWAP1 PUSH2 0x1C7B JUMP JUMPDEST PUSH1 0x40 MLOAD DUP1 SWAP2 SUB SWAP1 RETURN JUMPDEST PUSH2 0x116 PUSH1 0x4 DUP1 CALLDATASIZE SUB DUP2 ADD SWAP1 PUSH2 0x111 SWAP2 SWAP1 PUSH2 0x1895 JUMP JUMPDEST PUSH2 0x300 JUMP JUMPDEST STOP JUMPDEST PUSH2 0x120 PUSH2 0x605 JUMP JUMPDEST PUSH1 0x40 MLOAD PUSH2 0x12D SWAP2 SWAP1 PUSH2 0x1E78 JUMP JUMPDEST PUSH1 0x40 MLOAD DUP1 SWAP2 SUB SWAP1 RETURN JUMPDEST PUSH2 0x150 PUSH1 0x4 DUP1 CALLDATASIZE SUB DUP2 ADD SWAP1 PUSH2 0x14B SWAP2 SWAP1 PUSH2 0x17F5 JUMP JUMPDEST PUSH2 0x60B JUMP JUMPDEST PUSH1 0x40 MLOAD PUSH2 0x15D SWAP2 SWAP1 PUSH2 0x1E78 JUMP JUMPDEST PUSH1 0x40 MLOAD DUP1 SWAP2 SUB SWAP1 RETURN JUMPDEST PUSH2 0x180 PUSH1 0x4 DUP1 CALLDATASIZE SUB DUP2 ADD SWAP1 PUSH2 0x17B SWAP2 SWAP1 PUSH2 0x1895 JUMP JUMPDEST PUSH2 0xC3C JUMP JUMPDEST PUSH1 0x40 MLOAD PUSH2 0x18D SWAP2 SWAP1 PUSH2 0x1C60 JUMP JUMPDEST PUSH1 0x40 MLOAD DUP1 SWAP2 SUB SWAP1 RETURN JUMPDEST PUSH2 0x1B0 PUSH1 0x4 DUP1 CALLDATASIZE SUB DUP2 ADD SWAP1 PUSH2 0x1AB SWAP2 SWAP1 PUSH2 0x18BE JUMP JUMPDEST PUSH2 0xCA9 JUMP JUMPDEST PUSH1 0x40 MLOAD PUSH2 0x1BD SWAP2 SWAP1 PUSH2 0x1C60 JUMP JUMPDEST PUSH1 0x40 MLOAD DUP1 SWAP2 SUB SWAP1 RETURN JUMPDEST PUSH2 0x1E0 PUSH1 0x4 DUP1 CALLDATASIZE SUB DUP2 ADD SWAP1 PUSH2 0x1DB SWAP2 SWAP1 PUSH2 0x1895 JUMP JUMPDEST PUSH2 0xF39 JUMP JUMPDEST PUSH1 0x40 MLOAD PUSH2 0x1ED SWAP2 SWAP1 PUSH2 0x1B77 JUMP JUMPDEST PUSH1 0x40 MLOAD DUP1 SWAP2 SUB SWAP1 RETURN JUMPDEST PUSH2 0x210 PUSH1 0x4 DUP1 CALLDATASIZE SUB DUP2 ADD SWAP1 PUSH2 0x20B SWAP2 SWAP1 PUSH2 0x1895 JUMP JUMPDEST PUSH2 0xFF5 JUMP JUMPDEST STOP JUMPDEST PUSH2 0x22C PUSH1 0x4 DUP1 CALLDATASIZE SUB DUP2 ADD SWAP1 PUSH2 0x227 SWAP2 SWAP1 PUSH2 0x1895 JUMP JUMPDEST PUSH2 0x1267 JUMP JUMPDEST PUSH1 0x40 MLOAD PUSH2 0x239 SWAP2 SWAP1 PUSH2 0x1E78 JUMP JUMPDEST PUSH1 0x40 MLOAD DUP1 SWAP2 SUB SWAP1 RETURN JUMPDEST PUSH2 0x25C PUSH1 0x4 DUP1 CALLDATASIZE SUB DUP2 ADD SWAP1 PUSH2 0x257 SWAP2 SWAP1 PUSH2 0x1895 JUMP JUMPDEST PUSH2 0x1303 JUMP JUMPDEST STOP JUMPDEST PUSH1 0x0 DUP1 SLOAD PUSH2 0x26B SWAP1 PUSH2 0x20F0 JUMP JUMPDEST DUP1 PUSH1 0x1F ADD PUSH1 0x20 DUP1 SWAP2 DIV MUL PUSH1 0x20 ADD PUSH1 0x40 MLOAD SWAP1 DUP2 ADD PUSH1 0x40 MSTORE DUP1 SWAP3 SWAP2 SWAP1 DUP2 DUP2 MSTORE PUSH1 0x20 ADD DUP3 DUP1 SLOAD PUSH2 0x297 SWAP1 PUSH2 0x20F0 JUMP JUMPDEST DUP1 ISZERO PUSH2 0x2E4 JUMPI DUP1 PUSH1 0x1F LT PUSH2 0x2B9 JUMPI PUSH2 0x100 DUP1 DUP4 SLOAD DIV MUL DUP4 MSTORE SWAP2 PUSH1 0x20 ADD SWAP2 PUSH2 0x2E4 JUMP JUMPDEST DUP3 ADD SWAP2 SWAP1 PUSH1 0x0 MSTORE PUSH1 0x20 PUSH1 0x0 KECCAK256 SWAP1 JUMPDEST DUP2 SLOAD DUP2 MSTORE SWAP1 PUSH1 0x1 ADD SWAP1 PUSH1 0x20 ADD DUP1 DUP4 GT PUSH2 0x2C7 JUMPI DUP3 SWAP1 SUB PUSH1 0x1F AND DUP3 ADD SWAP2 JUMPDEST POP POP POP POP POP DUP2 JUMP JUMPDEST PUSH1 0x0 PUSH4 0x150B7A02 PUSH1 0xE0 SHL SWAP1 POP SWAP5 SWAP4 POP POP POP POP JUMP JUMPDEST PUSH1 0x2 DUP1 SLOAD SWAP1 POP DUP2 LT PUSH2 0x347 JUMPI PUSH1 0x40 MLOAD PUSH32 0x8C379A000000000000000000000000000000000000000000000000000000000 DUP2 MSTORE PUSH1 0x4 ADD PUSH2 0x33E SWAP1 PUSH2 0x1D78 JUMP JUMPDEST PUSH1 0x40 MLOAD DUP1 SWAP2 SUB SWAP1 REVERT JUMPDEST PUSH2 0x350 DUP2 PUSH2 0xC3C JUMP JUMPDEST ISZERO PUSH2 0x390 JUMPI PUSH1 0x40 MLOAD PUSH32 0x8C379A000000000000000000000000000000000000000000000000000000000 DUP2 MSTORE PUSH1 0x4 ADD PUSH2 0x387 SWAP1 PUSH2 0x1CF8 JUMP JUMPDEST PUSH1 0x40 MLOAD DUP1 SWAP2 SUB SWAP1 REVERT JUMPDEST PUSH1 0x0 PUSH1 0x2 DUP3 DUP2 SLOAD DUP2 LT PUSH2 0x3CC JUMPI PUSH32 0x4E487B7100000000000000000000000000000000000000000000000000000000 PUSH1 0x0 MSTORE PUSH1 0x32 PUSH1 0x4 MSTORE PUSH1 0x24 PUSH1 0x0 REVERT JUMPDEST SWAP1 PUSH1 0x0 MSTORE PUSH1 0x20 PUSH1 0x0 KECCAK256 SWAP1 PUSH1 0x9 MUL ADD SWAP1 POP CALLER PUSH20 0xFFFFFFFFFFFFFFFFFFFFFFFFFFFFFFFFFFFFFFFF AND DUP2 PUSH1 0x4 ADD PUSH1 0x0 SWAP1 SLOAD SWAP1 PUSH2 0x100 EXP SWAP1 DIV PUSH20 0xFFFFFFFFFFFFFFFFFFFFFFFFFFFFFFFFFFFFFFFF AND PUSH20 0xFFFFFFFFFFFFFFFFFFFFFFFFFFFFFFFFFFFFFFFF AND EQ PUSH2 0x46E JUMPI PUSH1 0x40 MLOAD PUSH32 0x8C379A000000000000000000000000000000000000000000000000000000000 DUP2 MSTORE PUSH1 0x4 ADD PUSH2 0x465 SWAP1 PUSH2 0x1E38 JUMP JUMPDEST PUSH1 0x40 MLOAD DUP1 SWAP2 SUB SWAP1 REVERT JUMPDEST PUSH1 0x0 PUSH20 0xFFFFFFFFFFFFFFFFFFFFFFFFFFFFFFFFFFFFFFFF AND DUP2 PUSH1 0x5 ADD PUSH1 0x0 SWAP1 SLOAD SWAP1 PUSH2 0x100 EXP SWAP1 DIV PUSH20 0xFFFFFFFFFFFFFFFFFFFFFFFFFFFFFFFFFFFFFFFF AND PUSH20 0xFFFFFFFFFFFFFFFFFFFFFFFFFFFFFFFFFFFFFFFF AND EQ PUSH2 0x501 JUMPI PUSH1 0x40 MLOAD PUSH32 0x8C379A000000000000000000000000000000000000000000000000000000000 DUP2 MSTORE PUSH1 0x4 ADD PUSH2 0x4F8 SWAP1 PUSH2 0x1E18 JUMP JUMPDEST PUSH1 0x40 MLOAD DUP1 SWAP2 SUB SWAP1 REVERT JUMPDEST PUSH1 0x0 DUP2 PUSH1 0x1 ADD PUSH1 0x0 SWAP1 SLOAD SWAP1 PUSH2 0x100 EXP SWAP1 DIV PUSH20 0xFFFFFFFFFFFFFFFFFFFFFFFFFFFFFFFFFFFFFFFF AND SWAP1 POP DUP1 PUSH20 0xFFFFFFFFFFFFFFFFFFFFFFFFFFFFFFFFFFFFFFFF AND PUSH4 0x23B872DD ADDRESS DUP5 PUSH1 0x4 ADD PUSH1 0x0 SWAP1 SLOAD SWAP1 PUSH2 0x100 EXP SWAP1 DIV PUSH20 0xFFFFFFFFFFFFFFFFFFFFFFFFFFFFFFFFFFFFFFFF AND DUP6 PUSH1 0x3 ADD SLOAD PUSH1 0x40 MLOAD DUP5 PUSH4 0xFFFFFFFF AND PUSH1 0xE0 SHL DUP2 MSTORE PUSH1 0x4 ADD PUSH2 0x58F SWAP4 SWAP3 SWAP2 SWAP1 PUSH2 0x1C00 JUMP JUMPDEST PUSH1 0x0 PUSH1 0x40 MLOAD DUP1 DUP4 SUB DUP2 PUSH1 0x0 DUP8 DUP1 EXTCODESIZE ISZERO DUP1 ISZERO PUSH2 0x5A9 JUMPI PUSH1 0x0 DUP1 REVERT JUMPDEST POP GAS CALL ISZERO DUP1 ISZERO PUSH2 0x5BD JUMPI RETURNDATASIZE PUSH1 0x0 DUP1 RETURNDATACOPY RETURNDATASIZE PUSH1 0x0 REVERT JUMPDEST POP POP POP POP PUSH32 0x7DFBB77CC823BA323508CF4299EF206C31BF00A33E43AC269C79F793F6BD12C7 DUP4 DUP4 PUSH1 0x3 ADD SLOAD CALLER PUSH1 0x40 MLOAD PUSH2 0x5F8 SWAP4 SWAP3 SWAP2 SWAP1 PUSH2 0x1F49 JUMP JUMPDEST PUSH1 0x40 MLOAD DUP1 SWAP2 SUB SWAP1 LOG1 POP POP POP JUMP JUMPDEST PUSH1 0x1 SLOAD DUP2 JUMP JUMPDEST PUSH1 0x0 PUSH2 0x616 DUP7 PUSH2 0x1682 JUMP JUMPDEST PUSH2 0x655 JUMPI PUSH1 0x40 MLOAD PUSH32 0x8C379A000000000000000000000000000000000000000000000000000000000 DUP2 MSTORE PUSH1 0x4 ADD PUSH2 0x64C SWAP1 PUSH2 0x1D38 JUMP JUMPDEST PUSH1 0x40 MLOAD DUP1 SWAP2 SUB SWAP1 REVERT JUMPDEST PUSH2 0x65E DUP6 PUSH2 0x1682 JUMP JUMPDEST PUSH2 0x69D JUMPI PUSH1 0x40 MLOAD PUSH32 0x8C379A000000000000000000000000000000000000000000000000000000000 DUP2 MSTORE PUSH1 0x4 ADD PUSH2 0x694 SWAP1 PUSH2 0x1CD8 JUMP JUMPDEST PUSH1 0x40 MLOAD DUP1 SWAP2 SUB SWAP1 REVERT JUMPDEST TIMESTAMP DUP3 GT PUSH2 0x6DF JUMPI PUSH1 0x40 MLOAD PUSH32 0x8C379A000000000000000000000000000000000000000000000000000000000 DUP2 MSTORE PUSH1 0x4 ADD PUSH2 0x6D6 SWAP1 PUSH2 0x1DF8 JUMP JUMPDEST PUSH1 0x40 MLOAD DUP1 SWAP2 SUB SWAP1 REVERT JUMPDEST PUSH1 0x0 DUP4 GT PUSH2 0x722 JUMPI PUSH1 0x40 MLOAD PUSH32 0x8C379A000000000000000000000000000000000000000000000000000000000 DUP2 MSTORE PUSH1 0x4 ADD PUSH2 0x719 SWAP1 PUSH2 0x1D58 JUMP JUMPDEST PUSH1 0x40 MLOAD DUP1 SWAP2 SUB SWAP1 REVERT JUMPDEST PUSH1 0x0 DUP7 SWAP1 POP CALLER PUSH20 0xFFFFFFFFFFFFFFFFFFFFFFFFFFFFFFFFFFFFFFFF AND DUP2 PUSH20 0xFFFFFFFFFFFFFFFFFFFFFFFFFFFFFFFFFFFFFFFF AND PUSH4 0x6352211E DUP8 PUSH1 0x40 MLOAD DUP3 PUSH4 0xFFFFFFFF AND PUSH1 0xE0 SHL DUP2 MSTORE PUSH1 0x4 ADD PUSH2 0x777 SWAP2 SWAP1 PUSH2 0x1E78 JUMP JUMPDEST PUSH1 0x20 PUSH1 0x40 MLOAD DUP1 DUP4 SUB DUP2 DUP7 DUP1 EXTCODESIZE ISZERO DUP1 ISZERO PUSH2 0x78F JUMPI PUSH1 0x0 DUP1 REVERT JUMPDEST POP GAS STATICCALL ISZERO DUP1 ISZERO PUSH2 0x7A3 JUMPI RETURNDATASIZE PUSH1 0x0 DUP1 RETURNDATACOPY RETURNDATASIZE PUSH1 0x0 REVERT JUMPDEST POP POP POP POP PUSH1 0x40 MLOAD RETURNDATASIZE PUSH1 0x1F NOT PUSH1 0x1F DUP3 ADD AND DUP3 ADD DUP1 PUSH1 0x40 MSTORE POP DUP2 ADD SWAP1 PUSH2 0x7C7 SWAP2 SWAP1 PUSH2 0x1751 JUMP JUMPDEST PUSH20 0xFFFFFFFFFFFFFFFFFFFFFFFFFFFFFFFFFFFFFFFF AND EQ PUSH2 0x81D JUMPI PUSH1 0x40 MLOAD PUSH32 0x8C379A000000000000000000000000000000000000000000000000000000000 DUP2 MSTORE PUSH1 0x4 ADD PUSH2 0x814 SWAP1 PUSH2 0x1DB8 JUMP JUMPDEST PUSH1 0x40 MLOAD DUP1 SWAP2 SUB SWAP1 REVERT JUMPDEST ADDRESS PUSH20 0xFFFFFFFFFFFFFFFFFFFFFFFFFFFFFFFFFFFFFFFF AND DUP2 PUSH20 0xFFFFFFFFFFFFFFFFFFFFFFFFFFFFFFFFFFFFFFFF AND PUSH4 0x81812FC DUP8 PUSH1 0x40 MLOAD DUP3 PUSH4 0xFFFFFFFF AND PUSH1 0xE0 SHL DUP2 MSTORE PUSH1 0x4 ADD PUSH2 0x86D SWAP2 SWAP1 PUSH2 0x1E78 JUMP JUMPDEST PUSH1 0x20 PUSH1 0x40 MLOAD DUP1 DUP4 SUB DUP2 DUP7 DUP1 EXTCODESIZE ISZERO DUP1 ISZERO PUSH2 0x885 JUMPI PUSH1 0x0 DUP1 REVERT JUMPDEST POP GAS STATICCALL ISZERO DUP1 ISZERO PUSH2 0x899 JUMPI RETURNDATASIZE PUSH1 0x0 DUP1 RETURNDATACOPY RETURNDATASIZE PUSH1 0x0 REVERT JUMPDEST POP POP POP POP PUSH1 0x40 MLOAD RETURNDATASIZE PUSH1 0x1F NOT PUSH1 0x1F DUP3 ADD AND DUP3 ADD DUP1 PUSH1 0x40 MSTORE POP DUP2 ADD SWAP1 PUSH2 0x8BD SWAP2 SWAP1 PUSH2 0x1751 JUMP JUMPDEST PUSH20 0xFFFFFFFFFFFFFFFFFFFFFFFFFFFFFFFFFFFFFFFF AND EQ PUSH2 0x913 JUMPI PUSH1 0x40 MLOAD PUSH32 0x8C379A000000000000000000000000000000000000000000000000000000000 DUP2 MSTORE PUSH1 0x4 ADD PUSH2 0x90A SWAP1 PUSH2 0x1DD8 JUMP JUMPDEST PUSH1 0x40 MLOAD DUP1 SWAP2 SUB SWAP1 REVERT JUMPDEST DUP1 PUSH20 0xFFFFFFFFFFFFFFFFFFFFFFFFFFFFFFFFFFFFFFFF AND PUSH4 0xCDE08C40 CALLER ADDRESS PUSH1 0x0 PUSH1 0x40 MLOAD DUP5 PUSH4 0xFFFFFFFF AND PUSH1 0xE0 SHL DUP2 MSTORE PUSH1 0x4 ADD PUSH2 0x951 SWAP4 SWAP3 SWAP2 SWAP1 PUSH2 0x1BC9 JUMP JUMPDEST PUSH1 0x20 PUSH1 0x40 MLOAD DUP1 DUP4 SUB DUP2 PUSH1 0x0 DUP8 DUP1 EXTCODESIZE ISZERO DUP1 ISZERO PUSH2 0x96B JUMPI PUSH1 0x0 DUP1 REVERT JUMPDEST POP GAS CALL ISZERO DUP1 ISZERO PUSH2 0x97F JUMPI RETURNDATASIZE PUSH1 0x0 DUP1 RETURNDATACOPY RETURNDATASIZE PUSH1 0x0 REVERT JUMPDEST POP POP POP POP PUSH1 0x40 MLOAD RETURNDATASIZE PUSH1 0x1F NOT PUSH1 0x1F DUP3 ADD AND DUP3 ADD DUP1 PUSH1 0x40 MSTORE POP DUP2 ADD SWAP1 PUSH2 0x9A3 SWAP2 SWAP1 PUSH2 0x186C JUMP JUMPDEST PUSH2 0x9AC JUMPI PUSH1 0x0 DUP1 REVERT JUMPDEST PUSH1 0x0 DUP1 PUSH1 0x40 MLOAD DUP1 PUSH2 0x120 ADD PUSH1 0x40 MSTORE DUP1 PUSH1 0x1 SLOAD DUP2 MSTORE PUSH1 0x20 ADD DUP11 PUSH20 0xFFFFFFFFFFFFFFFFFFFFFFFFFFFFFFFFFFFFFFFF AND DUP2 MSTORE PUSH1 0x20 ADD DUP10 PUSH20 0xFFFFFFFFFFFFFFFFFFFFFFFFFFFFFFFFFFFFFFFF AND DUP2 MSTORE PUSH1 0x20 ADD DUP9 DUP2 MSTORE PUSH1 0x20 ADD CALLER PUSH20 0xFFFFFFFFFFFFFFFFFFFFFFFFFFFFFFFFFFFFFFFF AND DUP2 MSTORE PUSH1 0x20 ADD DUP4 PUSH20 0xFFFFFFFFFFFFFFFFFFFFFFFFFFFFFFFFFFFFFFFF AND DUP2 MSTORE PUSH1 0x20 ADD DUP8 DUP2 MSTORE PUSH1 0x20 ADD DUP7 DUP2 MSTORE PUSH1 0x20 ADD PUSH1 0x0 DUP2 MSTORE POP SWAP1 POP PUSH1 0x2 DUP2 SWAP1 DUP1 PUSH1 0x1 DUP2 SLOAD ADD DUP1 DUP3 SSTORE DUP1 SWAP2 POP POP PUSH1 0x1 SWAP1 SUB SWAP1 PUSH1 0x0 MSTORE PUSH1 0x20 PUSH1 0x0 KECCAK256 SWAP1 PUSH1 0x9 MUL ADD PUSH1 0x0 SWAP1 SWAP2 SWAP1 SWAP2 SWAP1 SWAP2 POP PUSH1 0x0 DUP3 ADD MLOAD DUP2 PUSH1 0x0 ADD SSTORE PUSH1 0x20 DUP3 ADD MLOAD DUP2 PUSH1 0x1 ADD PUSH1 0x0 PUSH2 0x100 EXP DUP2 SLOAD DUP2 PUSH20 0xFFFFFFFFFFFFFFFFFFFFFFFFFFFFFFFFFFFFFFFF MUL NOT AND SWAP1 DUP4 PUSH20 0xFFFFFFFFFFFFFFFFFFFFFFFFFFFFFFFFFFFFFFFF AND MUL OR SWAP1 SSTORE POP PUSH1 0x40 DUP3 ADD MLOAD DUP2 PUSH1 0x2 ADD PUSH1 0x0 PUSH2 0x100 EXP DUP2 SLOAD DUP2 PUSH20 0xFFFFFFFFFFFFFFFFFFFFFFFFFFFFFFFFFFFFFFFF MUL NOT AND SWAP1 DUP4 PUSH20 0xFFFFFFFFFFFFFFFFFFFFFFFFFFFFFFFFFFFFFFFF AND MUL OR SWAP1 SSTORE POP PUSH1 0x60 DUP3 ADD MLOAD DUP2 PUSH1 0x3 ADD SSTORE PUSH1 0x80 DUP3 ADD MLOAD DUP2 PUSH1 0x4 ADD PUSH1 0x0 PUSH2 0x100 EXP DUP2 SLOAD DUP2 PUSH20 0xFFFFFFFFFFFFFFFFFFFFFFFFFFFFFFFFFFFFFFFF MUL NOT AND SWAP1 DUP4 PUSH20 0xFFFFFFFFFFFFFFFFFFFFFFFFFFFFFFFFFFFFFFFF AND MUL OR SWAP1 SSTORE POP PUSH1 0xA0 DUP3 ADD MLOAD DUP2 PUSH1 0x5 ADD PUSH1 0x0 PUSH2 0x100 EXP DUP2 SLOAD DUP2 PUSH20 0xFFFFFFFFFFFFFFFFFFFFFFFFFFFFFFFFFFFFFFFF MUL NOT AND SWAP1 DUP4 PUSH20 0xFFFFFFFFFFFFFFFFFFFFFFFFFFFFFFFFFFFFFFFF AND MUL OR SWAP1 SSTORE POP PUSH1 0xC0 DUP3 ADD MLOAD DUP2 PUSH1 0x6 ADD SSTORE PUSH1 0xE0 DUP3 ADD MLOAD DUP2 PUSH1 0x7 ADD SSTORE PUSH2 0x100 DUP3 ADD MLOAD DUP2 PUSH1 0x8 ADD SSTORE POP POP PUSH1 0x1 PUSH1 0x0 DUP2 SLOAD DUP1 SWAP3 SWAP2 SWAP1 PUSH2 0xBDC SWAP1 PUSH2 0x2153 JUMP JUMPDEST SWAP2 SWAP1 POP SSTORE POP PUSH32 0x2FE15E5D20EAEAEFDAE63CAB840DCB1AE80E7EAF6C60000AAABA96A6DC4CE874 PUSH1 0x1 SLOAD DUP11 DUP11 DUP11 CALLER DUP8 DUP13 DUP13 PUSH1 0x0 PUSH1 0x40 MLOAD PUSH2 0xC23 SWAP10 SWAP9 SWAP8 SWAP7 SWAP6 SWAP5 SWAP4 SWAP3 SWAP2 SWAP1 PUSH2 0x1E93 JUMP JUMPDEST PUSH1 0x40 MLOAD DUP1 SWAP2 SUB SWAP1 LOG1 PUSH1 0x1 SLOAD SWAP4 POP POP POP POP SWAP6 SWAP5 POP POP POP POP POP JUMP JUMPDEST PUSH1 0x0 DUP1 PUSH1 0x2 DUP4 DUP2 SLOAD DUP2 LT PUSH2 0xC79 JUMPI PUSH32 0x4E487B7100000000000000000000000000000000000000000000000000000000 PUSH1 0x0 MSTORE PUSH1 0x32 PUSH1 0x4 MSTORE PUSH1 0x24 PUSH1 0x0 REVERT JUMPDEST SWAP1 PUSH1 0x0 MSTORE PUSH1 0x20 PUSH1 0x0 KECCAK256 SWAP1 PUSH1 0x9 MUL ADD SWAP1 POP DUP1 PUSH1 0x7 ADD SLOAD TIMESTAMP LT PUSH2 0xC9E JUMPI PUSH1 0x0 SWAP2 POP POP PUSH2 0xCA4 JUMP JUMPDEST PUSH1 0x1 SWAP2 POP POP JUMPDEST SWAP2 SWAP1 POP JUMP JUMPDEST PUSH1 0x0 PUSH1 0x2 DUP1 SLOAD SWAP1 POP DUP4 LT PUSH2 0xCF2 JUMPI PUSH1 0x40 MLOAD PUSH32 0x8C379A000000000000000000000000000000000000000000000000000000000 DUP2 MSTORE PUSH1 0x4 ADD PUSH2 0xCE9 SWAP1 PUSH2 0x1D78 JUMP JUMPDEST PUSH1 0x40 MLOAD DUP1 SWAP2 SUB SWAP1 REVERT JUMPDEST PUSH1 0x0 PUSH1 0x2 DUP5 DUP2 SLOAD DUP2 LT PUSH2 0xD2E JUMPI PUSH32 0x4E487B7100000000000000000000000000000000000000000000000000000000 PUSH1 0x0 MSTORE PUSH1 0x32 PUSH1 0x4 MSTORE PUSH1 0x24 PUSH1 0x0 REVERT JUMPDEST SWAP1 PUSH1 0x0 MSTORE PUSH1 0x20 PUSH1 0x0 KECCAK256 SWAP1 PUSH1 0x9 MUL ADD SWAP1 POP PUSH2 0xD47 DUP5 PUSH2 0xC3C JUMP JUMPDEST PUSH2 0xD86 JUMPI PUSH1 0x40 MLOAD PUSH32 0x8C379A000000000000000000000000000000000000000000000000000000000 DUP2 MSTORE PUSH1 0x4 ADD PUSH2 0xD7D SWAP1 PUSH2 0x1D98 JUMP JUMPDEST PUSH1 0x40 MLOAD DUP1 SWAP2 SUB SWAP1 REVERT JUMPDEST DUP1 PUSH1 0x6 ADD SLOAD DUP4 GT PUSH2 0xDCC JUMPI PUSH1 0x40 MLOAD PUSH32 0x8C379A000000000000000000000000000000000000000000000000000000000 DUP2 MSTORE PUSH1 0x4 ADD PUSH2 0xDC3 SWAP1 PUSH2 0x1E58 JUMP JUMPDEST PUSH1 0x40 MLOAD DUP1 SWAP2 SUB SWAP1 REVERT JUMPDEST DUP1 PUSH1 0x4 ADD PUSH1 0x0 SWAP1 SLOAD SWAP1 PUSH2 0x100 EXP SWAP1 DIV PUSH20 0xFFFFFFFFFFFFFFFFFFFFFFFFFFFFFFFFFFFFFFFF AND PUSH20 0xFFFFFFFFFFFFFFFFFFFFFFFFFFFFFFFFFFFFFFFF AND CALLER PUSH20 0xFFFFFFFFFFFFFFFFFFFFFFFFFFFFFFFFFFFFFFFF AND EQ ISZERO PUSH2 0xE5F JUMPI PUSH1 0x40 MLOAD PUSH32 0x8C379A000000000000000000000000000000000000000000000000000000000 DUP2 MSTORE PUSH1 0x4 ADD PUSH2 0xE56 SWAP1 PUSH2 0x1CB8 JUMP JUMPDEST PUSH1 0x40 MLOAD DUP1 SWAP2 SUB SWAP1 REVERT JUMPDEST PUSH1 0x0 DUP2 PUSH1 0x2 ADD PUSH1 0x0 SWAP1 SLOAD SWAP1 PUSH2 0x100 EXP SWAP1 DIV PUSH20 0xFFFFFFFFFFFFFFFFFFFFFFFFFFFFFFFFFFFFFFFF AND SWAP1 POP PUSH1 0x0 CALLER SWAP1 POP DUP1 DUP4 PUSH1 0x5 ADD PUSH1 0x0 PUSH2 0x100 EXP DUP2 SLOAD DUP2 PUSH20 0xFFFFFFFFFFFFFFFFFFFFFFFFFFFFFFFFFFFFFFFF MUL NOT AND SWAP1 DUP4 PUSH20 0xFFFFFFFFFFFFFFFFFFFFFFFFFFFFFFFFFFFFFFFF AND MUL OR SWAP1 SSTORE POP DUP5 DUP4 PUSH1 0x6 ADD DUP2 SWAP1 SSTORE POP DUP3 PUSH1 0x8 ADD PUSH1 0x0 DUP2 SLOAD DUP1 SWAP3 SWAP2 SWAP1 PUSH2 0xEEE SWAP1 PUSH2 0x2153 JUMP JUMPDEST SWAP2 SWAP1 POP SSTORE POP PUSH32 0x819577EFDBCC6F20344847FF1B0CF5099165317FA8C0CEC472CF1B2C83515C6 DUP7 DUP7 PUSH1 0x40 MLOAD PUSH2 0xF24 SWAP3 SWAP2 SWAP1 PUSH2 0x1F20 JUMP JUMPDEST PUSH1 0x40 MLOAD DUP1 SWAP2 SUB SWAP1 LOG1 PUSH1 0x1 SWAP4 POP POP POP POP SWAP3 SWAP2 POP POP JUMP JUMPDEST PUSH1 0x0 PUSH1 0x2 DUP1 SLOAD SWAP1 POP DUP3 LT PUSH2 0xF82 JUMPI PUSH1 0x40 MLOAD PUSH32 0x8C379A000000000000000000000000000000000000000000000000000000000 DUP2 MSTORE PUSH1 0x4 ADD PUSH2 0xF79 SWAP1 PUSH2 0x1D78 JUMP JUMPDEST PUSH1 0x40 MLOAD DUP1 SWAP2 SUB SWAP1 REVERT JUMPDEST PUSH1 0x2 DUP3 DUP2 SLOAD DUP2 LT PUSH2 0xFBC JUMPI PUSH32 0x4E487B7100000000000000000000000000000000000000000000000000000000 PUSH1 0x0 MSTORE PUSH1 0x32 PUSH1 0x4 MSTORE PUSH1 0x24 PUSH1 0x0 REVERT JUMPDEST SWAP1 PUSH1 0x0 MSTORE PUSH1 0x20 PUSH1 0x0 KECCAK256 SWAP1 PUSH1 0x9 MUL ADD PUSH1 0x5 ADD PUSH1 0x0 SWAP1 SLOAD SWAP1 PUSH2 0x100 EXP SWAP1 DIV PUSH20 0xFFFFFFFFFFFFFFFFFFFFFFFFFFFFFFFFFFFFFFFF AND SWAP1 POP SWAP2 SWAP1 POP JUMP JUMPDEST PUSH1 0x2 DUP1 SLOAD SWAP1 POP DUP2 LT PUSH2 0x103C JUMPI PUSH1 0x40 MLOAD PUSH32 0x8C379A000000000000000000000000000000000000000000000000000000000 DUP2 MSTORE PUSH1 0x4 ADD PUSH2 0x1033 SWAP1 PUSH2 0x1D78 JUMP JUMPDEST PUSH1 0x40 MLOAD DUP1 SWAP2 SUB SWAP1 REVERT JUMPDEST PUSH2 0x1045 DUP2 PUSH2 0xC3C JUMP JUMPDEST ISZERO PUSH2 0x1085 JUMPI PUSH1 0x40 MLOAD PUSH32 0x8C379A000000000000000000000000000000000000000000000000000000000 DUP2 MSTORE PUSH1 0x4 ADD PUSH2 0x107C SWAP1 PUSH2 0x1CF8 JUMP JUMPDEST PUSH1 0x40 MLOAD DUP1 SWAP2 SUB SWAP1 REVERT JUMPDEST PUSH1 0x0 PUSH1 0x2 DUP3 DUP2 SLOAD DUP2 LT PUSH2 0x10C1 JUMPI PUSH32 0x4E487B7100000000000000000000000000000000000000000000000000000000 PUSH1 0x0 MSTORE PUSH1 0x32 PUSH1 0x4 MSTORE PUSH1 0x24 PUSH1 0x0 REVERT JUMPDEST SWAP1 PUSH1 0x0 MSTORE PUSH1 0x20 PUSH1 0x0 KECCAK256 SWAP1 PUSH1 0x9 MUL ADD SWAP1 POP CALLER PUSH20 0xFFFFFFFFFFFFFFFFFFFFFFFFFFFFFFFFFFFFFFFF AND DUP2 PUSH1 0x4 ADD PUSH1 0x0 SWAP1 SLOAD SWAP1 PUSH2 0x100 EXP SWAP1 DIV PUSH20 0xFFFFFFFFFFFFFFFFFFFFFFFFFFFFFFFFFFFFFFFF AND PUSH20 0xFFFFFFFFFFFFFFFFFFFFFFFFFFFFFFFFFFFFFFFF AND EQ PUSH2 0x1163 JUMPI PUSH1 0x40 MLOAD PUSH32 0x8C379A000000000000000000000000000000000000000000000000000000000 DUP2 MSTORE PUSH1 0x4 ADD PUSH2 0x115A SWAP1 PUSH2 0x1E38 JUMP JUMPDEST PUSH1 0x40 MLOAD DUP1 SWAP2 SUB SWAP1 REVERT JUMPDEST PUSH1 0x0 DUP2 PUSH1 0x1 ADD PUSH1 0x0 SWAP1 SLOAD SWAP1 PUSH2 0x100 EXP SWAP1 DIV PUSH20 0xFFFFFFFFFFFFFFFFFFFFFFFFFFFFFFFFFFFFFFFF AND SWAP1 POP DUP1 PUSH20 0xFFFFFFFFFFFFFFFFFFFFFFFFFFFFFFFFFFFFFFFF AND PUSH4 0x23B872DD ADDRESS DUP5 PUSH1 0x5 ADD PUSH1 0x0 SWAP1 SLOAD SWAP1 PUSH2 0x100 EXP SWAP1 DIV PUSH20 0xFFFFFFFFFFFFFFFFFFFFFFFFFFFFFFFFFFFFFFFF AND DUP6 PUSH1 0x3 ADD SLOAD PUSH1 0x40 MLOAD DUP5 PUSH4 0xFFFFFFFF AND PUSH1 0xE0 SHL DUP2 MSTORE PUSH1 0x4 ADD PUSH2 0x11F1 SWAP4 SWAP3 SWAP2 SWAP1 PUSH2 0x1B92 JUMP JUMPDEST PUSH1 0x0 PUSH1 0x40 MLOAD DUP1 DUP4 SUB DUP2 PUSH1 0x0 DUP8 DUP1 EXTCODESIZE ISZERO DUP1 ISZERO PUSH2 0x120B JUMPI PUSH1 0x0 DUP1 REVERT JUMPDEST POP GAS CALL ISZERO DUP1 ISZERO PUSH2 0x121F JUMPI RETURNDATASIZE PUSH1 0x0 DUP1 RETURNDATACOPY RETURNDATASIZE PUSH1 0x0 REVERT JUMPDEST POP POP POP POP PUSH32 0x74D693D132DBE07A071AC2E6D043DE8CA215AEAA3DF9B1150643FD73F2027254 DUP4 DUP4 PUSH1 0x3 ADD SLOAD CALLER PUSH1 0x40 MLOAD PUSH2 0x125A SWAP4 SWAP3 SWAP2 SWAP1 PUSH2 0x1F49 JUMP JUMPDEST PUSH1 0x40 MLOAD DUP1 SWAP2 SUB SWAP1 LOG1 POP POP POP JUMP JUMPDEST PUSH1 0x0 PUSH1 0x2 DUP1 SLOAD SWAP1 POP DUP3 LT PUSH2 0x12B0 JUMPI PUSH1 0x40 MLOAD PUSH32 0x8C379A000000000000000000000000000000000000000000000000000000000 DUP2 MSTORE PUSH1 0x4 ADD PUSH2 0x12A7 SWAP1 PUSH2 0x1D78 JUMP JUMPDEST PUSH1 0x40 MLOAD DUP1 SWAP2 SUB SWAP1 REVERT JUMPDEST PUSH1 0x2 DUP3 DUP2 SLOAD DUP2 LT PUSH2 0x12EA JUMPI PUSH32 0x4E487B7100000000000000000000000000000000000000000000000000000000 PUSH1 0x0 MSTORE PUSH1 0x32 PUSH1 0x4 MSTORE PUSH1 0x24 PUSH1 0x0 REVERT JUMPDEST SWAP1 PUSH1 0x0 MSTORE PUSH1 0x20 PUSH1 0x0 KECCAK256 SWAP1 PUSH1 0x9 MUL ADD PUSH1 0x6 ADD SLOAD SWAP1 POP SWAP2 SWAP1 POP JUMP JUMPDEST PUSH1 0x2 DUP1 SLOAD SWAP1 POP DUP2 LT PUSH2 0x134A JUMPI PUSH1 0x40 MLOAD PUSH32 0x8C379A000000000000000000000000000000000000000000000000000000000 DUP2 MSTORE PUSH1 0x4 ADD PUSH2 0x1341 SWAP1 PUSH2 0x1D78 JUMP JUMPDEST PUSH1 0x40 MLOAD DUP1 SWAP2 SUB SWAP1 REVERT JUMPDEST PUSH2 0x1353 DUP2 PUSH2 0xC3C JUMP JUMPDEST ISZERO PUSH2 0x1393 JUMPI PUSH1 0x40 MLOAD PUSH32 0x8C379A000000000000000000000000000000000000000000000000000000000 DUP2 MSTORE PUSH1 0x4 ADD PUSH2 0x138A SWAP1 PUSH2 0x1CF8 JUMP JUMPDEST PUSH1 0x40 MLOAD DUP1 SWAP2 SUB SWAP1 REVERT JUMPDEST PUSH1 0x0 PUSH1 0x2 DUP3 DUP2 SLOAD DUP2 LT PUSH2 0x13CF JUMPI PUSH32 0x4E487B7100000000000000000000000000000000000000000000000000000000 PUSH1 0x0 MSTORE PUSH1 0x32 PUSH1 0x4 MSTORE PUSH1 0x24 PUSH1 0x0 REVERT JUMPDEST SWAP1 PUSH1 0x0 MSTORE PUSH1 0x20 PUSH1 0x0 KECCAK256 SWAP1 PUSH1 0x9 MUL ADD SWAP1 POP CALLER PUSH20 0xFFFFFFFFFFFFFFFFFFFFFFFFFFFFFFFFFFFFFFFF AND DUP2 PUSH1 0x5 ADD PUSH1 0x0 SWAP1 SLOAD SWAP1 PUSH2 0x100 EXP SWAP1 DIV PUSH20 0xFFFFFFFFFFFFFFFFFFFFFFFFFFFFFFFFFFFFFFFF AND PUSH20 0xFFFFFFFFFFFFFFFFFFFFFFFFFFFFFFFFFFFFFFFF AND EQ PUSH2 0x1471 JUMPI PUSH1 0x40 MLOAD PUSH32 0x8C379A000000000000000000000000000000000000000000000000000000000 DUP2 MSTORE PUSH1 0x4 ADD PUSH2 0x1468 SWAP1 PUSH2 0x1D18 JUMP JUMPDEST PUSH1 0x40 MLOAD DUP1 SWAP2 SUB SWAP1 REVERT JUMPDEST PUSH1 0x0 DUP2 PUSH1 0x1 ADD PUSH1 0x0 SWAP1 SLOAD SWAP1 PUSH2 0x100 EXP SWAP1 DIV PUSH20 0xFFFFFFFFFFFFFFFFFFFFFFFFFFFFFFFFFFFFFFFF AND SWAP1 POP DUP1 PUSH20 0xFFFFFFFFFFFFFFFFFFFFFFFFFFFFFFFFFFFFFFFF AND PUSH4 0xCDE08C40 ADDRESS DUP5 PUSH1 0x5 ADD PUSH1 0x0 SWAP1 SLOAD SWAP1 PUSH2 0x100 EXP SWAP1 DIV PUSH20 0xFFFFFFFFFFFFFFFFFFFFFFFFFFFFFFFFFFFFFFFF AND DUP7 PUSH1 0x40 MLOAD DUP5 PUSH4 0xFFFFFFFF AND PUSH1 0xE0 SHL DUP2 MSTORE PUSH1 0x4 ADD PUSH2 0x14FB SWAP4 SWAP3 SWAP2 SWAP1 PUSH2 0x1B92 JUMP JUMPDEST PUSH1 0x20 PUSH1 0x40 MLOAD DUP1 DUP4 SUB DUP2 PUSH1 0x0 DUP8 DUP1 EXTCODESIZE ISZERO DUP1 ISZERO PUSH2 0x1515 JUMPI PUSH1 0x0 DUP1 REVERT JUMPDEST POP GAS CALL ISZERO DUP1 ISZERO PUSH2 0x1529 JUMPI RETURNDATASIZE PUSH1 0x0 DUP1 RETURNDATACOPY RETURNDATASIZE PUSH1 0x0 REVERT JUMPDEST POP POP POP POP PUSH1 0x40 MLOAD RETURNDATASIZE PUSH1 0x1F NOT PUSH1 0x1F DUP3 ADD AND DUP3 ADD DUP1 PUSH1 0x40 MSTORE POP DUP2 ADD SWAP1 PUSH2 0x154D SWAP2 SWAP1 PUSH2 0x186C JUMP JUMPDEST PUSH2 0x1556 JUMPI PUSH1 0x0 DUP1 REVERT JUMPDEST PUSH1 0x0 DUP3 PUSH1 0x2 ADD PUSH1 0x0 SWAP1 SLOAD SWAP1 PUSH2 0x100 EXP SWAP1 DIV PUSH20 0xFFFFFFFFFFFFFFFFFFFFFFFFFFFFFFFFFFFFFFFF AND SWAP1 POP DUP1 PUSH20 0xFFFFFFFFFFFFFFFFFFFFFFFFFFFFFFFFFFFFFFFF AND PUSH4 0xA9059CBB DUP5 PUSH1 0x4 ADD PUSH1 0x0 SWAP1 SLOAD SWAP1 PUSH2 0x100 EXP SWAP1 DIV PUSH20 0xFFFFFFFFFFFFFFFFFFFFFFFFFFFFFFFFFFFFFFFF AND DUP6 PUSH1 0x6 ADD SLOAD PUSH1 0x40 MLOAD DUP4 PUSH4 0xFFFFFFFF AND PUSH1 0xE0 SHL DUP2 MSTORE PUSH1 0x4 ADD PUSH2 0x15E2 SWAP3 SWAP2 SWAP1 PUSH2 0x1C37 JUMP JUMPDEST PUSH1 0x20 PUSH1 0x40 MLOAD DUP1 DUP4 SUB DUP2 PUSH1 0x0 DUP8 DUP1 EXTCODESIZE ISZERO DUP1 ISZERO PUSH2 0x15FC JUMPI PUSH1 0x0 DUP1 REVERT JUMPDEST POP GAS CALL ISZERO DUP1 ISZERO PUSH2 0x1610 JUMPI RETURNDATASIZE PUSH1 0x0 DUP1 RETURNDATACOPY RETURNDATASIZE PUSH1 0x0 REVERT JUMPDEST POP POP POP POP PUSH1 0x40 MLOAD RETURNDATASIZE PUSH1 0x1F NOT PUSH1 0x1F DUP3 ADD AND DUP3 ADD DUP1 PUSH1 0x40 MSTORE POP DUP2 ADD SWAP1 PUSH2 0x1634 SWAP2 SWAP1 PUSH2 0x186C JUMP JUMPDEST PUSH2 0x163D JUMPI PUSH1 0x0 DUP1 REVERT JUMPDEST PUSH32 0x7D4F7628C7B4939E94B123A69AABEBCD8FBC8BAC313FA8C20B7B71CB1601D396 DUP5 DUP5 PUSH1 0x3 ADD SLOAD CALLER PUSH1 0x40 MLOAD PUSH2 0x1674 SWAP4 SWAP3 SWAP2 SWAP1 PUSH2 0x1F49 JUMP JUMPDEST PUSH1 0x40 MLOAD DUP1 SWAP2 SUB SWAP1 LOG1 POP POP POP POP JUMP JUMPDEST PUSH1 0x0 DUP1 DUP3 EXTCODESIZE SWAP1 POP PUSH1 0x0 DUP2 GT SWAP2 POP POP SWAP2 SWAP1 POP JUMP JUMPDEST PUSH1 0x0 PUSH2 0x16A8 PUSH2 0x16A3 DUP5 PUSH2 0x1FA5 JUMP JUMPDEST PUSH2 0x1F80 JUMP JUMPDEST SWAP1 POP DUP3 DUP2 MSTORE PUSH1 0x20 DUP2 ADD DUP5 DUP5 DUP5 ADD GT ISZERO PUSH2 0x16C0 JUMPI PUSH1 0x0 DUP1 REVERT JUMPDEST PUSH2 0x16CB DUP5 DUP3 DUP6 PUSH2 0x20AE JUMP JUMPDEST POP SWAP4 SWAP3 POP POP POP JUMP JUMPDEST PUSH1 0x0 DUP2 CALLDATALOAD SWAP1 POP PUSH2 0x16E2 DUP2 PUSH2 0x25A8 JUMP JUMPDEST SWAP3 SWAP2 POP POP JUMP JUMPDEST PUSH1 0x0 DUP2 MLOAD SWAP1 POP PUSH2 0x16F7 DUP2 PUSH2 0x25A8 JUMP JUMPDEST SWAP3 SWAP2 POP POP JUMP JUMPDEST PUSH1 0x0 DUP2 MLOAD SWAP1 POP PUSH2 0x170C DUP2 PUSH2 0x25BF JUMP JUMPDEST SWAP3 SWAP2 POP POP JUMP JUMPDEST PUSH1 0x0 DUP3 PUSH1 0x1F DUP4 ADD SLT PUSH2 0x1723 JUMPI PUSH1 0x0 DUP1 REVERT JUMPDEST DUP2 CALLDATALOAD PUSH2 0x1733 DUP5 DUP3 PUSH1 0x20 DUP7 ADD PUSH2 0x1695 JUMP JUMPDEST SWAP2 POP POP SWAP3 SWAP2 POP POP JUMP JUMPDEST PUSH1 0x0 DUP2 CALLDATALOAD SWAP1 POP PUSH2 0x174B DUP2 PUSH2 0x25D6 JUMP JUMPDEST SWAP3 SWAP2 POP POP JUMP JUMPDEST PUSH1 0x0 PUSH1 0x20 DUP3 DUP5 SUB SLT ISZERO PUSH2 0x1763 JUMPI PUSH1 0x0 DUP1 REVERT JUMPDEST PUSH1 0x0 PUSH2 0x1771 DUP5 DUP3 DUP6 ADD PUSH2 0x16E8 JUMP JUMPDEST SWAP2 POP POP SWAP3 SWAP2 POP POP JUMP JUMPDEST PUSH1 0x0 DUP1 PUSH1 0x0 DUP1 PUSH1 0x80 DUP6 DUP8 SUB SLT ISZERO PUSH2 0x1790 JUMPI PUSH1 0x0 DUP1 REVERT JUMPDEST PUSH1 0x0 PUSH2 0x179E DUP8 DUP3 DUP9 ADD PUSH2 0x16D3 JUMP JUMPDEST SWAP5 POP POP PUSH1 0x20 PUSH2 0x17AF DUP8 DUP3 DUP9 ADD PUSH2 0x16D3 JUMP JUMPDEST SWAP4 POP POP PUSH1 0x40 PUSH2 0x17C0 DUP8 DUP3 DUP9 ADD PUSH2 0x173C JUMP JUMPDEST SWAP3 POP POP PUSH1 0x60 DUP6 ADD CALLDATALOAD PUSH8 0xFFFFFFFFFFFFFFFF DUP2 GT ISZERO PUSH2 0x17DD JUMPI PUSH1 0x0 DUP1 REVERT JUMPDEST PUSH2 0x17E9 DUP8 DUP3 DUP9 ADD PUSH2 0x1712 JUMP JUMPDEST SWAP2 POP POP SWAP3 SWAP6 SWAP2 SWAP5 POP SWAP3 POP JUMP JUMPDEST PUSH1 0x0 DUP1 PUSH1 0x0 DUP1 PUSH1 0x0 PUSH1 0xA0 DUP7 DUP9 SUB SLT ISZERO PUSH2 0x180D JUMPI PUSH1 0x0 DUP1 REVERT JUMPDEST PUSH1 0x0 PUSH2 0x181B DUP9 DUP3 DUP10 ADD PUSH2 0x16D3 JUMP JUMPDEST SWAP6 POP POP PUSH1 0x20 PUSH2 0x182C DUP9 DUP3 DUP10 ADD PUSH2 0x16D3 JUMP JUMPDEST SWAP5 POP POP PUSH1 0x40 PUSH2 0x183D DUP9 DUP3 DUP10 ADD PUSH2 0x173C JUMP JUMPDEST SWAP4 POP POP PUSH1 0x60 PUSH2 0x184E DUP9 DUP3 DUP10 ADD PUSH2 0x173C JUMP JUMPDEST SWAP3 POP POP PUSH1 0x80 PUSH2 0x185F DUP9 DUP3 DUP10 ADD PUSH2 0x173C JUMP JUMPDEST SWAP2 POP POP SWAP3 SWAP6 POP SWAP3 SWAP6 SWAP1 SWAP4 POP JUMP JUMPDEST PUSH1 0x0 PUSH1 0x20 DUP3 DUP5 SUB SLT ISZERO PUSH2 0x187E JUMPI PUSH1 0x0 DUP1 REVERT JUMPDEST PUSH1 0x0 PUSH2 0x188C DUP5 DUP3 DUP6 ADD PUSH2 0x16FD JUMP JUMPDEST SWAP2 POP POP SWAP3 SWAP2 POP POP JUMP JUMPDEST PUSH1 0x0 PUSH1 0x20 DUP3 DUP5 SUB SLT ISZERO PUSH2 0x18A7 JUMPI PUSH1 0x0 DUP1 REVERT JUMPDEST PUSH1 0x0 PUSH2 0x18B5 DUP5 DUP3 DUP6 ADD PUSH2 0x173C JUMP JUMPDEST SWAP2 POP POP SWAP3 SWAP2 POP POP JUMP JUMPDEST PUSH1 0x0 DUP1 PUSH1 0x40 DUP4 DUP6 SUB SLT ISZERO PUSH2 0x18D1 JUMPI PUSH1 0x0 DUP1 REVERT JUMPDEST PUSH1 0x0 PUSH2 0x18DF DUP6 DUP3 DUP7 ADD PUSH2 0x173C JUMP JUMPDEST SWAP3 POP POP PUSH1 0x20 PUSH2 0x18F0 DUP6 DUP3 DUP7 ADD PUSH2 0x173C JUMP JUMPDEST SWAP2 POP POP SWAP3 POP SWAP3 SWAP1 POP JUMP JUMPDEST PUSH2 0x1903 DUP2 PUSH2 0x2066 JUMP JUMPDEST DUP3 MSTORE POP POP JUMP JUMPDEST PUSH2 0x1912 DUP2 PUSH2 0x1FF2 JUMP JUMPDEST DUP3 MSTORE POP POP JUMP JUMPDEST PUSH2 0x1921 DUP2 PUSH2 0x2004 JUMP JUMPDEST DUP3 MSTORE POP POP JUMP JUMPDEST PUSH2 0x1930 DUP2 PUSH2 0x2010 JUMP JUMPDEST DUP3 MSTORE POP POP JUMP JUMPDEST PUSH2 0x193F DUP2 PUSH2 0x2078 JUMP JUMPDEST DUP3 MSTORE POP POP JUMP JUMPDEST PUSH1 0x0 PUSH2 0x1950 DUP3 PUSH2 0x1FD6 JUMP JUMPDEST PUSH2 0x195A DUP2 DUP6 PUSH2 0x1FE1 JUMP JUMPDEST SWAP4 POP PUSH2 0x196A DUP2 DUP6 PUSH1 0x20 DUP7 ADD PUSH2 0x20BD JUMP JUMPDEST PUSH2 0x1973 DUP2 PUSH2 0x2229 JUMP JUMPDEST DUP5 ADD SWAP2 POP POP SWAP3 SWAP2 POP POP JUMP JUMPDEST PUSH1 0x0 PUSH2 0x198B PUSH1 0x2B DUP4 PUSH2 0x1FE1 JUMP JUMPDEST SWAP2 POP PUSH2 0x1996 DUP3 PUSH2 0x223A JUMP JUMPDEST PUSH1 0x40 DUP3 ADD SWAP1 POP SWAP2 SWAP1 POP JUMP JUMPDEST PUSH1 0x0 PUSH2 0x19AE PUSH1 0x26 DUP4 PUSH2 0x1FE1 JUMP JUMPDEST SWAP2 POP PUSH2 0x19B9 DUP3 PUSH2 0x2289 JUMP JUMPDEST PUSH1 0x40 DUP3 ADD SWAP1 POP SWAP2 SWAP1 POP JUMP JUMPDEST PUSH1 0x0 PUSH2 0x19D1 PUSH1 0x15 DUP4 PUSH2 0x1FE1 JUMP JUMPDEST SWAP2 POP PUSH2 0x19DC DUP3 PUSH2 0x22D8 JUMP JUMPDEST PUSH1 0x20 DUP3 ADD SWAP1 POP SWAP2 SWAP1 POP JUMP JUMPDEST PUSH1 0x0 PUSH2 0x19F4 PUSH1 0x30 DUP4 PUSH2 0x1FE1 JUMP JUMPDEST SWAP2 POP PUSH2 0x19FF DUP3 PUSH2 0x2301 JUMP JUMPDEST PUSH1 0x40 DUP3 ADD SWAP1 POP SWAP2 SWAP1 POP JUMP JUMPDEST PUSH1 0x0 PUSH2 0x1A17 PUSH1 0x27 DUP4 PUSH2 0x1FE1 JUMP JUMPDEST SWAP2 POP PUSH2 0x1A22 DUP3 PUSH2 0x2350 JUMP JUMPDEST PUSH1 0x40 DUP3 ADD SWAP1 POP SWAP2 SWAP1 POP JUMP JUMPDEST PUSH1 0x0 PUSH2 0x1A3A PUSH1 0x19 DUP4 PUSH2 0x1FE1 JUMP JUMPDEST SWAP2 POP PUSH2 0x1A45 DUP3 PUSH2 0x239F JUMP JUMPDEST PUSH1 0x20 DUP3 ADD SWAP1 POP SWAP2 SWAP1 POP JUMP JUMPDEST PUSH1 0x0 PUSH2 0x1A5D PUSH1 0x15 DUP4 PUSH2 0x1FE1 JUMP JUMPDEST SWAP2 POP PUSH2 0x1A68 DUP3 PUSH2 0x23C8 JUMP JUMPDEST PUSH1 0x20 DUP3 ADD SWAP1 POP SWAP2 SWAP1 POP JUMP JUMPDEST PUSH1 0x0 PUSH2 0x1A80 PUSH1 0x13 DUP4 PUSH2 0x1FE1 JUMP JUMPDEST SWAP2 POP PUSH2 0x1A8B DUP3 PUSH2 0x23F1 JUMP JUMPDEST PUSH1 0x20 DUP3 ADD SWAP1 POP SWAP2 SWAP1 POP JUMP JUMPDEST PUSH1 0x0 PUSH2 0x1AA3 PUSH1 0x22 DUP4 PUSH2 0x1FE1 JUMP JUMPDEST SWAP2 POP PUSH2 0x1AAE DUP3 PUSH2 0x241A JUMP JUMPDEST PUSH1 0x40 DUP3 ADD SWAP1 POP SWAP2 SWAP1 POP JUMP JUMPDEST PUSH1 0x0 PUSH2 0x1AC6 PUSH1 0x27 DUP4 PUSH2 0x1FE1 JUMP JUMPDEST SWAP2 POP PUSH2 0x1AD1 DUP3 PUSH2 0x2469 JUMP JUMPDEST PUSH1 0x40 DUP3 ADD SWAP1 POP SWAP2 SWAP1 POP JUMP JUMPDEST PUSH1 0x0 PUSH2 0x1AE9 PUSH1 0x1C DUP4 PUSH2 0x1FE1 JUMP JUMPDEST SWAP2 POP PUSH2 0x1AF4 DUP3 PUSH2 0x24B8 JUMP JUMPDEST PUSH1 0x20 DUP3 ADD SWAP1 POP SWAP2 SWAP1 POP JUMP JUMPDEST PUSH1 0x0 PUSH2 0x1B0C PUSH1 0x1F DUP4 PUSH2 0x1FE1 JUMP JUMPDEST SWAP2 POP PUSH2 0x1B17 DUP3 PUSH2 0x24E1 JUMP JUMPDEST PUSH1 0x20 DUP3 ADD SWAP1 POP SWAP2 SWAP1 POP JUMP JUMPDEST PUSH1 0x0 PUSH2 0x1B2F PUSH1 0x38 DUP4 PUSH2 0x1FE1 JUMP JUMPDEST SWAP2 POP PUSH2 0x1B3A DUP3 PUSH2 0x250A JUMP JUMPDEST PUSH1 0x40 DUP3 ADD SWAP1 POP SWAP2 SWAP1 POP JUMP JUMPDEST PUSH1 0x0 PUSH2 0x1B52 PUSH1 0x31 DUP4 PUSH2 0x1FE1 JUMP JUMPDEST SWAP2 POP PUSH2 0x1B5D DUP3 PUSH2 0x2559 JUMP JUMPDEST PUSH1 0x40 DUP3 ADD SWAP1 POP SWAP2 SWAP1 POP JUMP JUMPDEST PUSH2 0x1B71 DUP2 PUSH2 0x205C JUMP JUMPDEST DUP3 MSTORE POP POP JUMP JUMPDEST PUSH1 0x0 PUSH1 0x20 DUP3 ADD SWAP1 POP PUSH2 0x1B8C PUSH1 0x0 DUP4 ADD DUP5 PUSH2 0x1909 JUMP JUMPDEST SWAP3 SWAP2 POP POP JUMP JUMPDEST PUSH1 0x0 PUSH1 0x60 DUP3 ADD SWAP1 POP PUSH2 0x1BA7 PUSH1 0x0 DUP4 ADD DUP7 PUSH2 0x1909 JUMP JUMPDEST PUSH2 0x1BB4 PUSH1 0x20 DUP4 ADD DUP6 PUSH2 0x18FA JUMP JUMPDEST PUSH2 0x1BC1 PUSH1 0x40 DUP4 ADD DUP5 PUSH2 0x1B68 JUMP JUMPDEST SWAP5 SWAP4 POP POP POP POP JUMP JUMPDEST PUSH1 0x0 PUSH1 0x60 DUP3 ADD SWAP1 POP PUSH2 0x1BDE PUSH1 0x0 DUP4 ADD DUP7 PUSH2 0x1909 JUMP JUMPDEST PUSH2 0x1BEB PUSH1 0x20 DUP4 ADD DUP6 PUSH2 0x1909 JUMP JUMPDEST PUSH2 0x1BF8 PUSH1 0x40 DUP4 ADD DUP5 PUSH2 0x1936 JUMP JUMPDEST SWAP5 SWAP4 POP POP POP POP JUMP JUMPDEST PUSH1 0x0 PUSH1 0x60 DUP3 ADD SWAP1 POP PUSH2 0x1C15 PUSH1 0x0 DUP4 ADD DUP7 PUSH2 0x1909 JUMP JUMPDEST PUSH2 0x1C22 PUSH1 0x20 DUP4 ADD DUP6 PUSH2 0x1909 JUMP JUMPDEST PUSH2 0x1C2F PUSH1 0x40 DUP4 ADD DUP5 PUSH2 0x1B68 JUMP JUMPDEST SWAP5 SWAP4 POP POP POP POP JUMP JUMPDEST PUSH1 0x0 PUSH1 0x40 DUP3 ADD SWAP1 POP PUSH2 0x1C4C PUSH1 0x0 DUP4 ADD DUP6 PUSH2 0x1909 JUMP JUMPDEST PUSH2 0x1C59 PUSH1 0x20 DUP4 ADD DUP5 PUSH2 0x1B68 JUMP JUMPDEST SWAP4 SWAP3 POP POP POP JUMP JUMPDEST PUSH1 0x0 PUSH1 0x20 DUP3 ADD SWAP1 POP PUSH2 0x1C75 PUSH1 0x0 DUP4 ADD DUP5 PUSH2 0x1918 JUMP JUMPDEST SWAP3 SWAP2 POP POP JUMP JUMPDEST PUSH1 0x0 PUSH1 0x20 DUP3 ADD SWAP1 POP PUSH2 0x1C90 PUSH1 0x0 DUP4 ADD DUP5 PUSH2 0x1927 JUMP JUMPDEST SWAP3 SWAP2 POP POP JUMP JUMPDEST PUSH1 0x0 PUSH1 0x20 DUP3 ADD SWAP1 POP DUP2 DUP2 SUB PUSH1 0x0 DUP4 ADD MSTORE PUSH2 0x1CB0 DUP2 DUP5 PUSH2 0x1945 JUMP JUMPDEST SWAP1 POP SWAP3 SWAP2 POP POP JUMP JUMPDEST PUSH1 0x0 PUSH1 0x20 DUP3 ADD SWAP1 POP DUP2 DUP2 SUB PUSH1 0x0 DUP4 ADD MSTORE PUSH2 0x1CD1 DUP2 PUSH2 0x197E JUMP JUMPDEST SWAP1 POP SWAP2 SWAP1 POP JUMP JUMPDEST PUSH1 0x0 PUSH1 0x20 DUP3 ADD SWAP1 POP DUP2 DUP2 SUB PUSH1 0x0 DUP4 ADD MSTORE PUSH2 0x1CF1 DUP2 PUSH2 0x19A1 JUMP JUMPDEST SWAP1 POP SWAP2 SWAP1 POP JUMP JUMPDEST PUSH1 0x0 PUSH1 0x20 DUP3 ADD SWAP1 POP DUP2 DUP2 SUB PUSH1 0x0 DUP4 ADD MSTORE PUSH2 0x1D11 DUP2 PUSH2 0x19C4 JUMP JUMPDEST SWAP1 POP SWAP2 SWAP1 POP JUMP JUMPDEST PUSH1 0x0 PUSH1 0x20 DUP3 ADD SWAP1 POP DUP2 DUP2 SUB PUSH1 0x0 DUP4 ADD MSTORE PUSH2 0x1D31 DUP2 PUSH2 0x19E7 JUMP JUMPDEST SWAP1 POP SWAP2 SWAP1 POP JUMP JUMPDEST PUSH1 0x0 PUSH1 0x20 DUP3 ADD SWAP1 POP DUP2 DUP2 SUB PUSH1 0x0 DUP4 ADD MSTORE PUSH2 0x1D51 DUP2 PUSH2 0x1A0A JUMP JUMPDEST SWAP1 POP SWAP2 SWAP1 POP JUMP JUMPDEST PUSH1 0x0 PUSH1 0x20 DUP3 ADD SWAP1 POP DUP2 DUP2 SUB PUSH1 0x0 DUP4 ADD MSTORE PUSH2 0x1D71 DUP2 PUSH2 0x1A2D JUMP JUMPDEST SWAP1 POP SWAP2 SWAP1 POP JUMP JUMPDEST PUSH1 0x0 PUSH1 0x20 DUP3 ADD SWAP1 POP DUP2 DUP2 SUB PUSH1 0x0 DUP4 ADD MSTORE PUSH2 0x1D91 DUP2 PUSH2 0x1A50 JUMP JUMPDEST SWAP1 POP SWAP2 SWAP1 POP JUMP JUMPDEST PUSH1 0x0 PUSH1 0x20 DUP3 ADD SWAP1 POP DUP2 DUP2 SUB PUSH1 0x0 DUP4 ADD MSTORE PUSH2 0x1DB1 DUP2 PUSH2 0x1A73 JUMP JUMPDEST SWAP1 POP SWAP2 SWAP1 POP JUMP JUMPDEST PUSH1 0x0 PUSH1 0x20 DUP3 ADD SWAP1 POP DUP2 DUP2 SUB PUSH1 0x0 DUP4 ADD MSTORE PUSH2 0x1DD1 DUP2 PUSH2 0x1A96 JUMP JUMPDEST SWAP1 POP SWAP2 SWAP1 POP JUMP JUMPDEST PUSH1 0x0 PUSH1 0x20 DUP3 ADD SWAP1 POP DUP2 DUP2 SUB PUSH1 0x0 DUP4 ADD MSTORE PUSH2 0x1DF1 DUP2 PUSH2 0x1AB9 JUMP JUMPDEST SWAP1 POP SWAP2 SWAP1 POP JUMP JUMPDEST PUSH1 0x0 PUSH1 0x20 DUP3 ADD SWAP1 POP DUP2 DUP2 SUB PUSH1 0x0 DUP4 ADD MSTORE PUSH2 0x1E11 DUP2 PUSH2 0x1ADC JUMP JUMPDEST SWAP1 POP SWAP2 SWAP1 POP JUMP JUMPDEST PUSH1 0x0 PUSH1 0x20 DUP3 ADD SWAP1 POP DUP2 DUP2 SUB PUSH1 0x0 DUP4 ADD MSTORE PUSH2 0x1E31 DUP2 PUSH2 0x1AFF JUMP JUMPDEST SWAP1 POP SWAP2 SWAP1 POP JUMP JUMPDEST PUSH1 0x0 PUSH1 0x20 DUP3 ADD SWAP1 POP DUP2 DUP2 SUB PUSH1 0x0 DUP4 ADD MSTORE PUSH2 0x1E51 DUP2 PUSH2 0x1B22 JUMP JUMPDEST SWAP1 POP SWAP2 SWAP1 POP JUMP JUMPDEST PUSH1 0x0 PUSH1 0x20 DUP3 ADD SWAP1 POP DUP2 DUP2 SUB PUSH1 0x0 DUP4 ADD MSTORE PUSH2 0x1E71 DUP2 PUSH2 0x1B45 JUMP JUMPDEST SWAP1 POP SWAP2 SWAP1 POP JUMP JUMPDEST PUSH1 0x0 PUSH1 0x20 DUP3 ADD SWAP1 POP PUSH2 0x1E8D PUSH1 0x0 DUP4 ADD DUP5 PUSH2 0x1B68 JUMP JUMPDEST SWAP3 SWAP2 POP POP JUMP JUMPDEST PUSH1 0x0 PUSH2 0x120 DUP3 ADD SWAP1 POP PUSH2 0x1EA9 PUSH1 0x0 DUP4 ADD DUP13 PUSH2 0x1B68 JUMP JUMPDEST PUSH2 0x1EB6 PUSH1 0x20 DUP4 ADD DUP12 PUSH2 0x1909 JUMP JUMPDEST PUSH2 0x1EC3 PUSH1 0x40 DUP4 ADD DUP11 PUSH2 0x1909 JUMP JUMPDEST PUSH2 0x1ED0 PUSH1 0x60 DUP4 ADD DUP10 PUSH2 0x1B68 JUMP JUMPDEST PUSH2 0x1EDD PUSH1 0x80 DUP4 ADD DUP9 PUSH2 0x1909 JUMP JUMPDEST PUSH2 0x1EEA PUSH1 0xA0 DUP4 ADD DUP8 PUSH2 0x18FA JUMP JUMPDEST PUSH2 0x1EF7 PUSH1 0xC0 DUP4 ADD DUP7 PUSH2 0x1B68 JUMP JUMPDEST PUSH2 0x1F04 PUSH1 0xE0 DUP4 ADD DUP6 PUSH2 0x1B68 JUMP JUMPDEST PUSH2 0x1F12 PUSH2 0x100 DUP4 ADD DUP5 PUSH2 0x1936 JUMP JUMPDEST SWAP11 SWAP10 POP POP POP POP POP POP POP POP POP POP JUMP JUMPDEST PUSH1 0x0 PUSH1 0x40 DUP3 ADD SWAP1 POP PUSH2 0x1F35 PUSH1 0x0 DUP4 ADD DUP6 PUSH2 0x1B68 JUMP JUMPDEST PUSH2 0x1F42 PUSH1 0x20 DUP4 ADD DUP5 PUSH2 0x1B68 JUMP JUMPDEST SWAP4 SWAP3 POP POP POP JUMP JUMPDEST PUSH1 0x0 PUSH1 0x60 DUP3 ADD SWAP1 POP PUSH2 0x1F5E PUSH1 0x0 DUP4 ADD DUP7 PUSH2 0x1B68 JUMP JUMPDEST PUSH2 0x1F6B PUSH1 0x20 DUP4 ADD DUP6 PUSH2 0x1B68 JUMP JUMPDEST PUSH2 0x1F78 PUSH1 0x40 DUP4 ADD DUP5 PUSH2 0x1909 JUMP JUMPDEST SWAP5 SWAP4 POP POP POP POP JUMP JUMPDEST PUSH1 0x0 PUSH2 0x1F8A PUSH2 0x1F9B JUMP JUMPDEST SWAP1 POP PUSH2 0x1F96 DUP3 DUP3 PUSH2 0x2122 JUMP JUMPDEST SWAP2 SWAP1 POP JUMP JUMPDEST PUSH1 0x0 PUSH1 0x40 MLOAD SWAP1 POP SWAP1 JUMP JUMPDEST PUSH1 0x0 PUSH8 0xFFFFFFFFFFFFFFFF DUP3 GT ISZERO PUSH2 0x1FC0 JUMPI PUSH2 0x1FBF PUSH2 0x21FA JUMP JUMPDEST JUMPDEST PUSH2 0x1FC9 DUP3 PUSH2 0x2229 JUMP JUMPDEST SWAP1 POP PUSH1 0x20 DUP2 ADD SWAP1 POP SWAP2 SWAP1 POP JUMP JUMPDEST PUSH1 0x0 DUP2 MLOAD SWAP1 POP SWAP2 SWAP1 POP JUMP JUMPDEST PUSH1 0x0 DUP3 DUP3 MSTORE PUSH1 0x20 DUP3 ADD SWAP1 POP SWAP3 SWAP2 POP POP JUMP JUMPDEST PUSH1 0x0 PUSH2 0x1FFD DUP3 PUSH2 0x203C JUMP JUMPDEST SWAP1 POP SWAP2 SWAP1 POP JUMP JUMPDEST PUSH1 0x0 DUP2 ISZERO ISZERO SWAP1 POP SWAP2 SWAP1 POP JUMP JUMPDEST PUSH1 0x0 PUSH32 0xFFFFFFFF00000000000000000000000000000000000000000000000000000000 DUP3 AND SWAP1 POP SWAP2 SWAP1 POP JUMP JUMPDEST PUSH1 0x0 PUSH20 0xFFFFFFFFFFFFFFFFFFFFFFFFFFFFFFFFFFFFFFFF DUP3 AND SWAP1 POP SWAP2 SWAP1 POP JUMP JUMPDEST PUSH1 0x0 DUP2 SWAP1 POP SWAP2 SWAP1 POP JUMP JUMPDEST PUSH1 0x0 PUSH2 0x2071 DUP3 PUSH2 0x208A JUMP JUMPDEST SWAP1 POP SWAP2 SWAP1 POP JUMP JUMPDEST PUSH1 0x0 PUSH2 0x2083 DUP3 PUSH2 0x205C JUMP JUMPDEST SWAP1 POP SWAP2 SWAP1 POP JUMP JUMPDEST PUSH1 0x0 PUSH2 0x2095 DUP3 PUSH2 0x209C JUMP JUMPDEST SWAP1 POP SWAP2 SWAP1 POP JUMP JUMPDEST PUSH1 0x0 PUSH2 0x20A7 DUP3 PUSH2 0x203C JUMP JUMPDEST SWAP1 POP SWAP2 SWAP1 POP JUMP JUMPDEST DUP3 DUP2 DUP4 CALLDATACOPY PUSH1 0x0 DUP4 DUP4 ADD MSTORE POP POP POP JUMP JUMPDEST PUSH1 0x0 JUMPDEST DUP4 DUP2 LT ISZERO PUSH2 0x20DB JUMPI DUP1 DUP3 ADD MLOAD DUP2 DUP5 ADD MSTORE PUSH1 0x20 DUP2 ADD SWAP1 POP PUSH2 0x20C0 JUMP JUMPDEST DUP4 DUP2 GT ISZERO PUSH2 0x20EA JUMPI PUSH1 0x0 DUP5 DUP5 ADD MSTORE JUMPDEST POP POP POP POP JUMP JUMPDEST PUSH1 0x0 PUSH1 0x2 DUP3 DIV SWAP1 POP PUSH1 0x1 DUP3 AND DUP1 PUSH2 0x2108 JUMPI PUSH1 0x7F DUP3 AND SWAP2 POP JUMPDEST PUSH1 0x20 DUP3 LT DUP2 EQ ISZERO PUSH2 0x211C JUMPI PUSH2 0x211B PUSH2 0x21CB JUMP JUMPDEST JUMPDEST POP SWAP2 SWAP1 POP JUMP JUMPDEST PUSH2 0x212B DUP3 PUSH2 0x2229 JUMP JUMPDEST DUP2 ADD DUP2 DUP2 LT PUSH8 0xFFFFFFFFFFFFFFFF DUP3 GT OR ISZERO PUSH2 0x214A JUMPI PUSH2 0x2149 PUSH2 0x21FA JUMP JUMPDEST JUMPDEST DUP1 PUSH1 0x40 MSTORE POP POP POP JUMP JUMPDEST PUSH1 0x0 PUSH2 0x215E DUP3 PUSH2 0x205C JUMP JUMPDEST SWAP2 POP PUSH32 0xFFFFFFFFFFFFFFFFFFFFFFFFFFFFFFFFFFFFFFFFFFFFFFFFFFFFFFFFFFFFFFFF DUP3 EQ ISZERO PUSH2 0x2191 JUMPI PUSH2 0x2190 PUSH2 0x219C JUMP JUMPDEST JUMPDEST PUSH1 0x1 DUP3 ADD SWAP1 POP SWAP2 SWAP1 POP JUMP JUMPDEST PUSH32 0x4E487B7100000000000000000000000000000000000000000000000000000000 PUSH1 0x0 MSTORE PUSH1 0x11 PUSH1 0x4 MSTORE PUSH1 0x24 PUSH1 0x0 REVERT JUMPDEST PUSH32 0x4E487B7100000000000000000000000000000000000000000000000000000000 PUSH1 0x0 MSTORE PUSH1 0x22 PUSH1 0x4 MSTORE PUSH1 0x24 PUSH1 0x0 REVERT JUMPDEST PUSH32 0x4E487B7100000000000000000000000000000000000000000000000000000000 PUSH1 0x0 MSTORE PUSH1 0x41 PUSH1 0x4 MSTORE PUSH1 0x24 PUSH1 0x0 REVERT JUMPDEST PUSH1 0x0 PUSH1 0x1F NOT PUSH1 0x1F DUP4 ADD AND SWAP1 POP SWAP2 SWAP1 POP JUMP JUMPDEST PUSH32 0x43726561746F72206F66207468652061756374696F6E2063616E6E6F7420706C PUSH1 0x0 DUP3 ADD MSTORE PUSH32 0x616365206E657720626964000000000000000000000000000000000000000000 PUSH1 0x20 DUP3 ADD MSTORE POP JUMP JUMPDEST PUSH32 0x496E76616C6964205061796D656E7420546F6B656E20636F6E74726163742061 PUSH1 0x0 DUP3 ADD MSTORE PUSH32 0x6464726573730000000000000000000000000000000000000000000000000000 PUSH1 0x20 DUP3 ADD MSTORE POP JUMP JUMPDEST PUSH32 0x41756374696F6E206973207374696C6C206F70656E0000000000000000000000 PUSH1 0x0 DUP3 ADD MSTORE POP JUMP JUMPDEST PUSH32 0x4E46542063616E20626520636C61696D6564206F6E6C79206279207468652063 PUSH1 0x0 DUP3 ADD MSTORE PUSH32 0x757272656E7420626964206F776E657200000000000000000000000000000000 PUSH1 0x20 DUP3 ADD MSTORE POP JUMP JUMPDEST PUSH32 0x496E76616C6964204E465420436F6C6C656374696F6E20636F6E747261637420 PUSH1 0x0 DUP3 ADD MSTORE PUSH32 0x6164647265737300000000000000000000000000000000000000000000000000 PUSH1 0x20 DUP3 ADD MSTORE POP JUMP JUMPDEST PUSH32 0x496E76616C696420696E697469616C2062696420707269636500000000000000 PUSH1 0x0 DUP3 ADD MSTORE POP JUMP JUMPDEST PUSH32 0x496E76616C69642061756374696F6E20696E6465780000000000000000000000 PUSH1 0x0 DUP3 ADD MSTORE POP JUMP JUMPDEST PUSH32 0x41756374696F6E206973206E6F74206F70656E00000000000000000000000000 PUSH1 0x0 DUP3 ADD MSTORE POP JUMP JUMPDEST PUSH32 0x43616C6C6572206973206E6F7420746865206F776E6572206F6620746865204E PUSH1 0x0 DUP3 ADD MSTORE PUSH32 0x4654000000000000000000000000000000000000000000000000000000000000 PUSH1 0x20 DUP3 ADD MSTORE POP JUMP JUMPDEST PUSH32 0x52657175697265204E4654206F776E657273686970207472616E736665722061 PUSH1 0x0 DUP3 ADD MSTORE PUSH32 0x7070726F76616C00000000000000000000000000000000000000000000000000 PUSH1 0x20 DUP3 ADD MSTORE POP JUMP JUMPDEST PUSH32 0x496E76616C696420656E64206461746520666F722061756374696F6E00000000 PUSH1 0x0 DUP3 ADD MSTORE POP JUMP JUMPDEST PUSH32 0x4578697374696E6720626964657220666F7220746869732061756374696F6E00 PUSH1 0x0 DUP3 ADD MSTORE POP JUMP JUMPDEST PUSH32 0x546F6B656E732063616E20626520636C61696D6564206F6E6C79206279207468 PUSH1 0x0 DUP3 ADD MSTORE PUSH32 0x652063726561746F72206F66207468652061756374696F6E0000000000000000 PUSH1 0x20 DUP3 ADD MSTORE POP JUMP JUMPDEST PUSH32 0x4E657720626964207072696365206D7573742062652068696768657220746861 PUSH1 0x0 DUP3 ADD MSTORE PUSH32 0x6E207468652063757272656E7420626964000000000000000000000000000000 PUSH1 0x20 DUP3 ADD MSTORE POP JUMP JUMPDEST PUSH2 0x25B1 DUP2 PUSH2 0x1FF2 JUMP JUMPDEST DUP2 EQ PUSH2 0x25BC JUMPI PUSH1 0x0 DUP1 REVERT JUMPDEST POP JUMP JUMPDEST PUSH2 0x25C8 DUP2 PUSH2 0x2004 JUMP JUMPDEST DUP2 EQ PUSH2 0x25D3 JUMPI PUSH1 0x0 DUP1 REVERT JUMPDEST POP JUMP JUMPDEST PUSH2 0x25DF DUP2 PUSH2 0x205C JUMP JUMPDEST DUP2 EQ PUSH2 0x25EA JUMPI PUSH1 0x0 DUP1 REVERT JUMPDEST POP JUMP INVALID LOG2 PUSH5 0x6970667358 0x22 SLT KECCAK256 0xBF 0xC3 LOG2 JUMPI 0xD6 0xA8 BLOCKHASH 0xCC SWAP14 DUP5 0x2D DUP14 0xD9 SWAP13 PUSH16 0x21FA4A8DB4DEF262E0D319947B50D89D DUP5 PUSH5 0x736F6C6343 STOP ADDMOD ADD STOP CALLER "
		},
		"gasEstimates": {
			"creation": {
				"codeDepositCost": "1952600",
				"executionCost": "infinite",
				"totalCost": "infinite"
			},
			"external": {
				"bid(uint256,uint256)": "infinite",
				"claimNFT(uint256)": "infinite",
				"claimToken(uint256)": "infinite",
				"createAuction(address,address,uint256,uint256,uint256)": "infinite",
				"getCurrentBid(uint256)": "infinite",
				"getCurrentBidOwner(uint256)": "3259",
				"index()": "1196",
				"isOpen(uint256)": "2351",
				"name()": "infinite",
				"onERC721Received(address,address,uint256,bytes)": "infinite",
				"refund(uint256)": "infinite"
			},
			"internal": {
				"isContract(address)": "747"
			}
		},
		"methodIdentifiers": {
			"bid(uint256,uint256)": "598647f8",
			"claimNFT(uint256)": "fe5c873a",
			"claimToken(uint256)": "a9e7c2e5",
			"createAuction(address,address,uint256,uint256,uint256)": "310bf583",
			"getCurrentBid(uint256)": "da4e364f",
			"getCurrentBidOwner(uint256)": "86b46073",
			"index()": "2986c0e5",
			"isOpen(uint256)": "4d6861a6",
			"name()": "06fdde03",
			"onERC721Received(address,address,uint256,bytes)": "150b7a02",
			"refund(uint256)": "278ecde1"
		}
	},
	"abi": [
		{
			"inputs": [
				{
					"internalType": "string",
					"name": "_name",
					"type": "string"
				}
			],
			"stateMutability": "nonpayable",
			"type": "constructor"
		},
		{
			"anonymous": false,
			"inputs": [
				{
					"indexed": false,
					"internalType": "uint256",
					"name": "auctionIndex",
					"type": "uint256"
				},
				{
					"indexed": false,
					"internalType": "uint256",
					"name": "nftId",
					"type": "uint256"
				},
				{
					"indexed": false,
					"internalType": "address",
					"name": "claimedBy",
					"type": "address"
				}
			],
			"name": "NFTClaimed",
			"type": "event"
		},
		{
			"anonymous": false,
			"inputs": [
				{
					"indexed": false,
					"internalType": "uint256",
					"name": "auctionIndex",
					"type": "uint256"
				},
				{
					"indexed": false,
					"internalType": "uint256",
					"name": "nftId",
					"type": "uint256"
				},
				{
					"indexed": false,
					"internalType": "address",
					"name": "claimedBy",
					"type": "address"
				}
			],
			"name": "NFTRefunded",
			"type": "event"
		},
		{
			"anonymous": false,
			"inputs": [
				{
					"indexed": false,
					"internalType": "uint256",
					"name": "index",
					"type": "uint256"
				},
				{
					"indexed": false,
					"internalType": "address",
					"name": "addressNFTCollection",
					"type": "address"
				},
				{
					"indexed": false,
					"internalType": "address",
					"name": "addressPaymentToken",
					"type": "address"
				},
				{
					"indexed": false,
					"internalType": "uint256",
					"name": "nftId",
					"type": "uint256"
				},
				{
					"indexed": false,
					"internalType": "address",
					"name": "mintedBy",
					"type": "address"
				},
				{
					"indexed": false,
					"internalType": "address",
					"name": "currentBidOwner",
					"type": "address"
				},
				{
					"indexed": false,
					"internalType": "uint256",
					"name": "currentBidPrice",
					"type": "uint256"
				},
				{
					"indexed": false,
					"internalType": "uint256",
					"name": "endAuction",
					"type": "uint256"
				},
				{
					"indexed": false,
					"internalType": "uint256",
					"name": "bidCount",
					"type": "uint256"
				}
			],
			"name": "NewAuction",
			"type": "event"
		},
		{
			"anonymous": false,
			"inputs": [
				{
					"indexed": false,
					"internalType": "uint256",
					"name": "auctionIndex",
					"type": "uint256"
				},
				{
					"indexed": false,
					"internalType": "uint256",
					"name": "newBid",
					"type": "uint256"
				}
			],
			"name": "NewBidOnAuction",
			"type": "event"
		},
		{
			"anonymous": false,
			"inputs": [
				{
					"indexed": false,
					"internalType": "uint256",
					"name": "auctionIndex",
					"type": "uint256"
				},
				{
					"indexed": false,
					"internalType": "uint256",
					"name": "nftId",
					"type": "uint256"
				},
				{
					"indexed": false,
					"internalType": "address",
					"name": "claimedBy",
					"type": "address"
				}
			],
			"name": "TokensClaimed",
			"type": "event"
		},
		{
			"inputs": [
				{
					"internalType": "uint256",
					"name": "_auctionIndex",
					"type": "uint256"
				},
				{
					"internalType": "uint256",
					"name": "_newBid",
					"type": "uint256"
				}
			],
			"name": "bid",
			"outputs": [
				{
					"internalType": "bool",
					"name": "",
					"type": "bool"
				}
			],
			"stateMutability": "nonpayable",
			"type": "function"
		},
		{
			"inputs": [
				{
					"internalType": "uint256",
					"name": "_auctionIndex",
					"type": "uint256"
				}
			],
			"name": "claimNFT",
			"outputs": [],
			"stateMutability": "nonpayable",
			"type": "function"
		},
		{
			"inputs": [
				{
					"internalType": "uint256",
					"name": "_auctionIndex",
					"type": "uint256"
				}
			],
			"name": "claimToken",
			"outputs": [],
			"stateMutability": "nonpayable",
			"type": "function"
		},
		{
			"inputs": [
				{
					"internalType": "address",
					"name": "_addressNFTCollection",
					"type": "address"
				},
				{
					"internalType": "address",
					"name": "_addressPaymentToken",
					"type": "address"
				},
				{
					"internalType": "uint256",
					"name": "_nftId",
					"type": "uint256"
				},
				{
					"internalType": "uint256",
					"name": "_initialBid",
					"type": "uint256"
				},
				{
					"internalType": "uint256",
					"name": "_endAuction",
					"type": "uint256"
				}
			],
			"name": "createAuction",
			"outputs": [
				{
					"internalType": "uint256",
					"name": "",
					"type": "uint256"
				}
			],
			"stateMutability": "nonpayable",
			"type": "function"
		},
		{
			"inputs": [
				{
					"internalType": "uint256",
					"name": "_auctionIndex",
					"type": "uint256"
				}
			],
			"name": "getCurrentBid",
			"outputs": [
				{
					"internalType": "uint256",
					"name": "",
					"type": "uint256"
				}
			],
			"stateMutability": "view",
			"type": "function"
		},
		{
			"inputs": [
				{
					"internalType": "uint256",
					"name": "_auctionIndex",
					"type": "uint256"
				}
			],
			"name": "getCurrentBidOwner",
			"outputs": [
				{
					"internalType": "address",
					"name": "",
					"type": "address"
				}
			],
			"stateMutability": "view",
			"type": "function"
		},
		{
			"inputs": [],
			"name": "index",
			"outputs": [
				{
					"internalType": "uint256",
					"name": "",
					"type": "uint256"
				}
			],
			"stateMutability": "view",
			"type": "function"
		},
		{
			"inputs": [
				{
					"internalType": "uint256",
					"name": "_auctionIndex",
					"type": "uint256"
				}
			],
			"name": "isOpen",
			"outputs": [
				{
					"internalType": "bool",
					"name": "",
					"type": "bool"
				}
			],
			"stateMutability": "view",
			"type": "function"
		},
		{
			"inputs": [],
			"name": "name",
			"outputs": [
				{
					"internalType": "string",
					"name": "",
					"type": "string"
				}
			],
			"stateMutability": "view",
			"type": "function"
		},
		{
			"inputs": [
				{
					"internalType": "address",
					"name": "",
					"type": "address"
				},
				{
					"internalType": "address",
					"name": "",
					"type": "address"
				},
				{
					"internalType": "uint256",
					"name": "",
					"type": "uint256"
				},
				{
					"internalType": "bytes",
					"name": "",
					"type": "bytes"
				}
			],
			"name": "onERC721Received",
			"outputs": [
				{
					"internalType": "bytes4",
					"name": "",
					"type": "bytes4"
				}
			],
			"stateMutability": "nonpayable",
			"type": "function"
		},
		{
			"inputs": [
				{
					"internalType": "uint256",
					"name": "_auctionIndex",
					"type": "uint256"
				}
			],
			"name": "refund",
			"outputs": [],
			"stateMutability": "nonpayable",
			"type": "function"
		}
	]
}