{
	"data": {
		"bytecode": {
			"linkReferences": {},
			"object": "608060405234801561001057600080fd5b50610705806100206000396000f3fe60806040526004361061003f5760003560e01c806344f91c1e1461004457806370a7eba9146100de578063abb94051146100f3578063e554a5ff14610113575b600080fd5b34801561005057600080fd5b506100a361005f36600461064c565b6000602081815292815260408082209093529081522080546001820154600283015460038401546004909401546001600160a01b0393841694929391929091169085565b604080516001600160a01b03968716815260208101959095528401929092529092166060820152608081019190915260a00160405180910390f35b6100f16100ec36600461064c565b610133565b005b3480156100ff57600080fd5b506100f161010e366004610676565b6102a7565b34801561011f57600080fd5b506100f161012e36600461064c565b61042b565b6001600160a01b038216600090815260208181526040808320848452909152902060028101546101a35760405162461bcd60e51b8152602060048201526016602482015275185d58dd1a5bdb88191bd95cc81b9bdd08195e1a5cdd60521b60448201526064015b60405180910390fd5b42816002015410156101ed5760405162461bcd60e51b8152602060048201526013602482015272185d58dd1a5bdb881a5cc8199a5b9a5cda1959606a1b604482015260640161019a565b3481600401541080156102035750348160010154105b6102475760405162461bcd60e51b815260206004820152601560248201527462696420616d6f756e7420697320746f6f206c6f7760581b604482015260640161019a565b600381015460048201546040516001600160a01b039092169181156108fc0291906000818181858888f19350505050158015610287573d6000803e3d6000fd5b506003810180546001600160a01b03191633179055346004909101555050565b6001600160a01b03831660009081526020818152604080832085845290915290206002810154156103125760405162461bcd60e51b8152602060048201526015602482015274185d58dd1a5bdb88185b1c9958591e48195e1a5cdd605a1b604482015260640161019a565b6040516323b872dd60e01b8152336004820152306024820152604481018490526001600160a01b038516906323b872dd90606401600060405180830381600087803b15801561036057600080fd5b505af1158015610374573d6000803e3d6000fd5b505082546001600160a01b0319163317835550506001810182905561039c4262093a806106a9565b60028201556003810180546001600160a01b0319169055600060048201557feeb8a66f59ee07b48e9116047f8bd98f651e4c76f74f3daf44ce1d592130bccc848433856103ec4262093a806106a9565b604080516001600160a01b039687168152602081019590955292909416838301526060830152608082019290925290519081900360a00190a150505050565b6001600160a01b038216600090815260208181526040808320848452909152902060028101546104965760405162461bcd60e51b8152602060048201526016602482015275185d58dd1a5bdb88191bd95cc81b9bdd08195e1a5cdd60521b604482015260640161019a565b428160020154106104e95760405162461bcd60e51b815260206004820152601860248201527f61756374696f6e20686173206e6f742066696e69736865640000000000000000604482015260640161019a565b60048101546105b15780546040516323b872dd60e01b81523060048201526001600160a01b03918216602482015260448101849052908416906323b872dd906064015b600060405180830381600087803b15801561054657600080fd5b505af115801561055a573d6000803e3d6000fd5b5050506001600160a01b038416600090815260208181526040808320868452909152812080546001600160a01b03199081168255600182018390556002820183905560038201805490911690556004015550505050565b805460048201546040516001600160a01b039092169181156108fc0291906000818181858888f193505050501580156105ee573d6000803e3d6000fd5b5060038101546040516323b872dd60e01b81523060048201526001600160a01b03918216602482015260448101849052908416906323b872dd9060640161052c565b80356001600160a01b038116811461064757600080fd5b919050565b6000806040838503121561065f57600080fd5b61066883610630565b946020939093013593505050565b60008060006060848603121561068b57600080fd5b61069484610630565b95602085013595506040909401359392505050565b600082198211156106ca57634e487b7160e01b600052601160045260246000fd5b50019056fea2646970667358221220725fae17bac4bf8778a8e7f565d83a50de1545ce18a79bca8c511ba4813d23ba64736f6c63430008070033",
			"opcodes": "PUSH1 0x80 PUSH1 0x40 MSTORE CALLVALUE DUP1 ISZERO PUSH2 0x10 JUMPI PUSH1 0x0 DUP1 REVERT JUMPDEST POP PUSH2 0x705 DUP1 PUSH2 0x20 PUSH1 0x0 CODECOPY PUSH1 0x0 RETURN INVALID PUSH1 0x80 PUSH1 0x40 MSTORE PUSH1 0x4 CALLDATASIZE LT PUSH2 0x3F JUMPI PUSH1 0x0 CALLDATALOAD PUSH1 0xE0 SHR DUP1 PUSH4 0x44F91C1E EQ PUSH2 0x44 JUMPI DUP1 PUSH4 0x70A7EBA9 EQ PUSH2 0xDE JUMPI DUP1 PUSH4 0xABB94051 EQ PUSH2 0xF3 JUMPI DUP1 PUSH4 0xE554A5FF EQ PUSH2 0x113 JUMPI JUMPDEST PUSH1 0x0 DUP1 REVERT JUMPDEST CALLVALUE DUP1 ISZERO PUSH2 0x50 JUMPI PUSH1 0x0 DUP1 REVERT JUMPDEST POP PUSH2 0xA3 PUSH2 0x5F CALLDATASIZE PUSH1 0x4 PUSH2 0x64C JUMP JUMPDEST PUSH1 0x0 PUSH1 0x20 DUP2 DUP2 MSTORE SWAP3 DUP2 MSTORE PUSH1 0x40 DUP1 DUP3 KECCAK256 SWAP1 SWAP4 MSTORE SWAP1 DUP2 MSTORE KECCAK256 DUP1 SLOAD PUSH1 0x1 DUP3 ADD SLOAD PUSH1 0x2 DUP4 ADD SLOAD PUSH1 0x3 DUP5 ADD SLOAD PUSH1 0x4 SWAP1 SWAP5 ADD SLOAD PUSH1 0x1 PUSH1 0x1 PUSH1 0xA0 SHL SUB SWAP4 DUP5 AND SWAP5 SWAP3 SWAP4 SWAP2 SWAP3 SWAP1 SWAP2 AND SWAP1 DUP6 JUMP JUMPDEST PUSH1 0x40 DUP1 MLOAD PUSH1 0x1 PUSH1 0x1 PUSH1 0xA0 SHL SUB SWAP7 DUP8 AND DUP2 MSTORE PUSH1 0x20 DUP2 ADD SWAP6 SWAP1 SWAP6 MSTORE DUP5 ADD SWAP3 SWAP1 SWAP3 MSTORE SWAP1 SWAP3 AND PUSH1 0x60 DUP3 ADD MSTORE PUSH1 0x80 DUP2 ADD SWAP2 SWAP1 SWAP2 MSTORE PUSH1 0xA0 ADD PUSH1 0x40 MLOAD DUP1 SWAP2 SUB SWAP1 RETURN JUMPDEST PUSH2 0xF1 PUSH2 0xEC CALLDATASIZE PUSH1 0x4 PUSH2 0x64C JUMP JUMPDEST PUSH2 0x133 JUMP JUMPDEST STOP JUMPDEST CALLVALUE DUP1 ISZERO PUSH2 0xFF JUMPI PUSH1 0x0 DUP1 REVERT JUMPDEST POP PUSH2 0xF1 PUSH2 0x10E CALLDATASIZE PUSH1 0x4 PUSH2 0x676 JUMP JUMPDEST PUSH2 0x2A7 JUMP JUMPDEST CALLVALUE DUP1 ISZERO PUSH2 0x11F JUMPI PUSH1 0x0 DUP1 REVERT JUMPDEST POP PUSH2 0xF1 PUSH2 0x12E CALLDATASIZE PUSH1 0x4 PUSH2 0x64C JUMP JUMPDEST PUSH2 0x42B JUMP JUMPDEST PUSH1 0x1 PUSH1 0x1 PUSH1 0xA0 SHL SUB DUP3 AND PUSH1 0x0 SWAP1 DUP2 MSTORE PUSH1 0x20 DUP2 DUP2 MSTORE PUSH1 0x40 DUP1 DUP4 KECCAK256 DUP5 DUP5 MSTORE SWAP1 SWAP2 MSTORE SWAP1 KECCAK256 PUSH1 0x2 DUP2 ADD SLOAD PUSH2 0x1A3 JUMPI PUSH1 0x40 MLOAD PUSH3 0x461BCD PUSH1 0xE5 SHL DUP2 MSTORE PUSH1 0x20 PUSH1 0x4 DUP3 ADD MSTORE PUSH1 0x16 PUSH1 0x24 DUP3 ADD MSTORE PUSH22 0x185D58DD1A5BDB88191BD95CC81B9BDD08195E1A5CDD PUSH1 0x52 SHL PUSH1 0x44 DUP3 ADD MSTORE PUSH1 0x64 ADD JUMPDEST PUSH1 0x40 MLOAD DUP1 SWAP2 SUB SWAP1 REVERT JUMPDEST TIMESTAMP DUP2 PUSH1 0x2 ADD SLOAD LT ISZERO PUSH2 0x1ED JUMPI PUSH1 0x40 MLOAD PUSH3 0x461BCD PUSH1 0xE5 SHL DUP2 MSTORE PUSH1 0x20 PUSH1 0x4 DUP3 ADD MSTORE PUSH1 0x13 PUSH1 0x24 DUP3 ADD MSTORE PUSH19 0x185D58DD1A5BDB881A5CC8199A5B9A5CDA1959 PUSH1 0x6A SHL PUSH1 0x44 DUP3 ADD MSTORE PUSH1 0x64 ADD PUSH2 0x19A JUMP JUMPDEST CALLVALUE DUP2 PUSH1 0x4 ADD SLOAD LT DUP1 ISZERO PUSH2 0x203 JUMPI POP CALLVALUE DUP2 PUSH1 0x1 ADD SLOAD LT JUMPDEST PUSH2 0x247 JUMPI PUSH1 0x40 MLOAD PUSH3 0x461BCD PUSH1 0xE5 SHL DUP2 MSTORE PUSH1 0x20 PUSH1 0x4 DUP3 ADD MSTORE PUSH1 0x15 PUSH1 0x24 DUP3 ADD MSTORE PUSH21 0x62696420616D6F756E7420697320746F6F206C6F77 PUSH1 0x58 SHL PUSH1 0x44 DUP3 ADD MSTORE PUSH1 0x64 ADD PUSH2 0x19A JUMP JUMPDEST PUSH1 0x3 DUP2 ADD SLOAD PUSH1 0x4 DUP3 ADD SLOAD PUSH1 0x40 MLOAD PUSH1 0x1 PUSH1 0x1 PUSH1 0xA0 SHL SUB SWAP1 SWAP3 AND SWAP2 DUP2 ISZERO PUSH2 0x8FC MUL SWAP2 SWAP1 PUSH1 0x0 DUP2 DUP2 DUP2 DUP6 DUP9 DUP9 CALL SWAP4 POP POP POP POP ISZERO DUP1 ISZERO PUSH2 0x287 JUMPI RETURNDATASIZE PUSH1 0x0 DUP1 RETURNDATACOPY RETURNDATASIZE PUSH1 0x0 REVERT JUMPDEST POP PUSH1 0x3 DUP2 ADD DUP1 SLOAD PUSH1 0x1 PUSH1 0x1 PUSH1 0xA0 SHL SUB NOT AND CALLER OR SWAP1 SSTORE CALLVALUE PUSH1 0x4 SWAP1 SWAP2 ADD SSTORE POP POP JUMP JUMPDEST PUSH1 0x1 PUSH1 0x1 PUSH1 0xA0 SHL SUB DUP4 AND PUSH1 0x0 SWAP1 DUP2 MSTORE PUSH1 0x20 DUP2 DUP2 MSTORE PUSH1 0x40 DUP1 DUP4 KECCAK256 DUP6 DUP5 MSTORE SWAP1 SWAP2 MSTORE SWAP1 KECCAK256 PUSH1 0x2 DUP2 ADD SLOAD ISZERO PUSH2 0x312 JUMPI PUSH1 0x40 MLOAD PUSH3 0x461BCD PUSH1 0xE5 SHL DUP2 MSTORE PUSH1 0x20 PUSH1 0x4 DUP3 ADD MSTORE PUSH1 0x15 PUSH1 0x24 DUP3 ADD MSTORE PUSH21 0x185D58DD1A5BDB88185B1C9958591E48195E1A5CDD PUSH1 0x5A SHL PUSH1 0x44 DUP3 ADD MSTORE PUSH1 0x64 ADD PUSH2 0x19A JUMP JUMPDEST PUSH1 0x40 MLOAD PUSH4 0x23B872DD PUSH1 0xE0 SHL DUP2 MSTORE CALLER PUSH1 0x4 DUP3 ADD MSTORE ADDRESS PUSH1 0x24 DUP3 ADD MSTORE PUSH1 0x44 DUP2 ADD DUP5 SWAP1 MSTORE PUSH1 0x1 PUSH1 0x1 PUSH1 0xA0 SHL SUB DUP6 AND SWAP1 PUSH4 0x23B872DD SWAP1 PUSH1 0x64 ADD PUSH1 0x0 PUSH1 0x40 MLOAD DUP1 DUP4 SUB DUP2 PUSH1 0x0 DUP8 DUP1 EXTCODESIZE ISZERO DUP1 ISZERO PUSH2 0x360 JUMPI PUSH1 0x0 DUP1 REVERT JUMPDEST POP GAS CALL ISZERO DUP1 ISZERO PUSH2 0x374 JUMPI RETURNDATASIZE PUSH1 0x0 DUP1 RETURNDATACOPY RETURNDATASIZE PUSH1 0x0 REVERT JUMPDEST POP POP DUP3 SLOAD PUSH1 0x1 PUSH1 0x1 PUSH1 0xA0 SHL SUB NOT AND CALLER OR DUP4 SSTORE POP POP PUSH1 0x1 DUP2 ADD DUP3 SWAP1 SSTORE PUSH2 0x39C TIMESTAMP PUSH3 0x93A80 PUSH2 0x6A9 JUMP JUMPDEST PUSH1 0x2 DUP3 ADD SSTORE PUSH1 0x3 DUP2 ADD DUP1 SLOAD PUSH1 0x1 PUSH1 0x1 PUSH1 0xA0 SHL SUB NOT AND SWAP1 SSTORE PUSH1 0x0 PUSH1 0x4 DUP3 ADD SSTORE PUSH32 0xEEB8A66F59EE07B48E9116047F8BD98F651E4C76F74F3DAF44CE1D592130BCCC DUP5 DUP5 CALLER DUP6 PUSH2 0x3EC TIMESTAMP PUSH3 0x93A80 PUSH2 0x6A9 JUMP JUMPDEST PUSH1 0x40 DUP1 MLOAD PUSH1 0x1 PUSH1 0x1 PUSH1 0xA0 SHL SUB SWAP7 DUP8 AND DUP2 MSTORE PUSH1 0x20 DUP2 ADD SWAP6 SWAP1 SWAP6 MSTORE SWAP3 SWAP1 SWAP5 AND DUP4 DUP4 ADD MSTORE PUSH1 0x60 DUP4 ADD MSTORE PUSH1 0x80 DUP3 ADD SWAP3 SWAP1 SWAP3 MSTORE SWAP1 MLOAD SWAP1 DUP2 SWAP1 SUB PUSH1 0xA0 ADD SWAP1 LOG1 POP POP POP POP JUMP JUMPDEST PUSH1 0x1 PUSH1 0x1 PUSH1 0xA0 SHL SUB DUP3 AND PUSH1 0x0 SWAP1 DUP2 MSTORE PUSH1 0x20 DUP2 DUP2 MSTORE PUSH1 0x40 DUP1 DUP4 KECCAK256 DUP5 DUP5 MSTORE SWAP1 SWAP2 MSTORE SWAP1 KECCAK256 PUSH1 0x2 DUP2 ADD SLOAD PUSH2 0x496 JUMPI PUSH1 0x40 MLOAD PUSH3 0x461BCD PUSH1 0xE5 SHL DUP2 MSTORE PUSH1 0x20 PUSH1 0x4 DUP3 ADD MSTORE PUSH1 0x16 PUSH1 0x24 DUP3 ADD MSTORE PUSH22 0x185D58DD1A5BDB88191BD95CC81B9BDD08195E1A5CDD PUSH1 0x52 SHL PUSH1 0x44 DUP3 ADD MSTORE PUSH1 0x64 ADD PUSH2 0x19A JUMP JUMPDEST TIMESTAMP DUP2 PUSH1 0x2 ADD SLOAD LT PUSH2 0x4E9 JUMPI PUSH1 0x40 MLOAD PUSH3 0x461BCD PUSH1 0xE5 SHL DUP2 MSTORE PUSH1 0x20 PUSH1 0x4 DUP3 ADD MSTORE PUSH1 0x18 PUSH1 0x24 DUP3 ADD MSTORE PUSH32 0x61756374696F6E20686173206E6F742066696E69736865640000000000000000 PUSH1 0x44 DUP3 ADD MSTORE PUSH1 0x64 ADD PUSH2 0x19A JUMP JUMPDEST PUSH1 0x4 DUP2 ADD SLOAD PUSH2 0x5B1 JUMPI DUP1 SLOAD PUSH1 0x40 MLOAD PUSH4 0x23B872DD PUSH1 0xE0 SHL DUP2 MSTORE ADDRESS PUSH1 0x4 DUP3 ADD MSTORE PUSH1 0x1 PUSH1 0x1 PUSH1 0xA0 SHL SUB SWAP2 DUP3 AND PUSH1 0x24 DUP3 ADD MSTORE PUSH1 0x44 DUP2 ADD DUP5 SWAP1 MSTORE SWAP1 DUP5 AND SWAP1 PUSH4 0x23B872DD SWAP1 PUSH1 0x64 ADD JUMPDEST PUSH1 0x0 PUSH1 0x40 MLOAD DUP1 DUP4 SUB DUP2 PUSH1 0x0 DUP8 DUP1 EXTCODESIZE ISZERO DUP1 ISZERO PUSH2 0x546 JUMPI PUSH1 0x0 DUP1 REVERT JUMPDEST POP GAS CALL ISZERO DUP1 ISZERO PUSH2 0x55A JUMPI RETURNDATASIZE PUSH1 0x0 DUP1 RETURNDATACOPY RETURNDATASIZE PUSH1 0x0 REVERT JUMPDEST POP POP POP PUSH1 0x1 PUSH1 0x1 PUSH1 0xA0 SHL SUB DUP5 AND PUSH1 0x0 SWAP1 DUP2 MSTORE PUSH1 0x20 DUP2 DUP2 MSTORE PUSH1 0x40 DUP1 DUP4 KECCAK256 DUP7 DUP5 MSTORE SWAP1 SWAP2 MSTORE DUP2 KECCAK256 DUP1 SLOAD PUSH1 0x1 PUSH1 0x1 PUSH1 0xA0 SHL SUB NOT SWAP1 DUP2 AND DUP3 SSTORE PUSH1 0x1 DUP3 ADD DUP4 SWAP1 SSTORE PUSH1 0x2 DUP3 ADD DUP4 SWAP1 SSTORE PUSH1 0x3 DUP3 ADD DUP1 SLOAD SWAP1 SWAP2 AND SWAP1 SSTORE PUSH1 0x4 ADD SSTORE POP POP POP POP JUMP JUMPDEST DUP1 SLOAD PUSH1 0x4 DUP3 ADD SLOAD PUSH1 0x40 MLOAD PUSH1 0x1 PUSH1 0x1 PUSH1 0xA0 SHL SUB SWAP1 SWAP3 AND SWAP2 DUP2 ISZERO PUSH2 0x8FC MUL SWAP2 SWAP1 PUSH1 0x0 DUP2 DUP2 DUP2 DUP6 DUP9 DUP9 CALL SWAP4 POP POP POP POP ISZERO DUP1 ISZERO PUSH2 0x5EE JUMPI RETURNDATASIZE PUSH1 0x0 DUP1 RETURNDATACOPY RETURNDATASIZE PUSH1 0x0 REVERT JUMPDEST POP PUSH1 0x3 DUP2 ADD SLOAD PUSH1 0x40 MLOAD PUSH4 0x23B872DD PUSH1 0xE0 SHL DUP2 MSTORE ADDRESS PUSH1 0x4 DUP3 ADD MSTORE PUSH1 0x1 PUSH1 0x1 PUSH1 0xA0 SHL SUB SWAP2 DUP3 AND PUSH1 0x24 DUP3 ADD MSTORE PUSH1 0x44 DUP2 ADD DUP5 SWAP1 MSTORE SWAP1 DUP5 AND SWAP1 PUSH4 0x23B872DD SWAP1 PUSH1 0x64 ADD PUSH2 0x52C JUMP JUMPDEST DUP1 CALLDATALOAD PUSH1 0x1 PUSH1 0x1 PUSH1 0xA0 SHL SUB DUP2 AND DUP2 EQ PUSH2 0x647 JUMPI PUSH1 0x0 DUP1 REVERT JUMPDEST SWAP2 SWAP1 POP JUMP JUMPDEST PUSH1 0x0 DUP1 PUSH1 0x40 DUP4 DUP6 SUB SLT ISZERO PUSH2 0x65F JUMPI PUSH1 0x0 DUP1 REVERT JUMPDEST PUSH2 0x668 DUP4 PUSH2 0x630 JUMP JUMPDEST SWAP5 PUSH1 0x20 SWAP4 SWAP1 SWAP4 ADD CALLDATALOAD SWAP4 POP POP POP JUMP JUMPDEST PUSH1 0x0 DUP1 PUSH1 0x0 PUSH1 0x60 DUP5 DUP7 SUB SLT ISZERO PUSH2 0x68B JUMPI PUSH1 0x0 DUP1 REVERT JUMPDEST PUSH2 0x694 DUP5 PUSH2 0x630 JUMP JUMPDEST SWAP6 PUSH1 0x20 DUP6 ADD CALLDATALOAD SWAP6 POP PUSH1 0x40 SWAP1 SWAP5 ADD CALLDATALOAD SWAP4 SWAP3 POP POP POP JUMP JUMPDEST PUSH1 0x0 DUP3 NOT DUP3 GT ISZERO PUSH2 0x6CA JUMPI PUSH4 0x4E487B71 PUSH1 0xE0 SHL PUSH1 0x0 MSTORE PUSH1 0x11 PUSH1 0x4 MSTORE PUSH1 0x24 PUSH1 0x0 REVERT JUMPDEST POP ADD SWAP1 JUMP INVALID LOG2 PUSH5 0x6970667358 0x22 SLT KECCAK256 PUSH19 0x5FAE17BAC4BF8778A8E7F565D83A50DE1545CE XOR 0xA7 SWAP12 0xCA DUP13 MLOAD SHL LOG4 DUP2 RETURNDATASIZE 0x23 0xBA PUSH5 0x736F6C6343 STOP ADDMOD SMOD STOP CALLER "
		},
		"gasEstimates": {
			"creation": {
				"codeDepositCost": "359400",
				"executionCost": "399",
				"totalCost": "359799"
			},
			"external": {
				"auctions(address,uint256)": "11182",
				"closeBid(address,uint256)": "infinite",
				"createAuction(address,uint256,uint256)": "infinite",
				"createBid(address,uint256)": "infinite"
			}
		},
		"methodIdentifiers": {
			"auctions(address,uint256)": "44f91c1e",
			"closeBid(address,uint256)": "e554a5ff",
			"createAuction(address,uint256,uint256)": "abb94051",
			"createBid(address,uint256)": "70a7eba9"
		}
	},
	"abi": [
		{
			"anonymous": false,
			"inputs": [
				{
					"indexed": false,
					"internalType": "address",
					"name": "tokenAddress",
					"type": "address"
				},
				{
					"indexed": false,
					"internalType": "uint256",
					"name": "tokenId",
					"type": "uint256"
				},
				{
					"indexed": false,
					"internalType": "address",
					"name": "seller",
					"type": "address"
				},
				{
					"indexed": false,
					"internalType": "uint256",
					"name": "minBid",
					"type": "uint256"
				},
				{
					"indexed": false,
					"internalType": "uint256",
					"name": "endDate",
					"type": "uint256"
				}
			],
			"name": "AuctionCreated",
			"type": "event"
		},
		{
			"inputs": [
				{
					"internalType": "address",
					"name": "",
					"type": "address"
				},
				{
					"internalType": "uint256",
					"name": "",
					"type": "uint256"
				}
			],
			"name": "auctions",
			"outputs": [
				{
					"internalType": "address payable",
					"name": "seller",
					"type": "address"
				},
				{
					"internalType": "uint256",
					"name": "minBid",
					"type": "uint256"
				},
				{
					"internalType": "uint256",
					"name": "endDate",
					"type": "uint256"
				},
				{
					"internalType": "address payable",
					"name": "highestBidAddress",
					"type": "address"
				},
				{
					"internalType": "uint256",
					"name": "highestBidAmount",
					"type": "uint256"
				}
			],
			"stateMutability": "view",
			"type": "function"
		},
		{
			"inputs": [
				{
					"internalType": "address",
					"name": "_tokenAddress",
					"type": "address"
				},
				{
					"internalType": "uint256",
					"name": "_tokenId",
					"type": "uint256"
				}
			],
			"name": "closeBid",
			"outputs": [],
			"stateMutability": "nonpayable",
			"type": "function"
		},
		{
			"inputs": [
				{
					"internalType": "address",
					"name": "_tokenAddress",
					"type": "address"
				},
				{
					"internalType": "uint256",
					"name": "_tokenId",
					"type": "uint256"
				},
				{
					"internalType": "uint256",
					"name": "_minBid",
					"type": "uint256"
				}
			],
			"name": "createAuction",
			"outputs": [],
			"stateMutability": "nonpayable",
			"type": "function"
		},
		{
			"inputs": [
				{
					"internalType": "address",
					"name": "_tokenAddress",
					"type": "address"
				},
				{
					"internalType": "uint256",
					"name": "_tokenId",
					"type": "uint256"
				}
			],
			"name": "createBid",
			"outputs": [],
			"stateMutability": "payable",
			"type": "function"
		}
	]
}