{
	"data": {
		"bytecode": {
			"linkReferences": {},
			"object": "60806040523480156200001157600080fd5b506040805180820182526008808252674d6574614c69666560c01b602080840182815285518087019096529285528401528151919291620000559160009162000074565b5080516200006b90600190602084019062000074565b50505062000157565b82805462000082906200011a565b90600052602060002090601f016020900481019282620000a65760008555620000f1565b82601f10620000c157805160ff1916838001178555620000f1565b82800160010185558215620000f1579182015b82811115620000f1578251825591602001919060010190620000d4565b50620000ff92915062000103565b5090565b5b80821115620000ff576000815560010162000104565b600181811c908216806200012f57607f821691505b602082108114156200015157634e487b7160e01b600052602260045260246000fd5b50919050565b611bf880620001676000396000f3fe608060405234801561001057600080fd5b50600436106101165760003560e01c80636352211e116100a2578063a22cb46511610071578063a22cb4651461028a578063b88d4fde1461029d578063c87b56dd146102b0578063cad96cca146102c3578063e985e9c5146102e357600080fd5b80636352211e1461022257806370a08231146102355780638924af741461024857806395d89b411461028257600080fd5b8063095ea7b3116100e9578063095ea7b3146101b5578063143094db146101c857806323b872dd146101db57806342842e0e146101ee57806345576f941461020157600080fd5b806301ffc9a71461011b57806305dfae8b1461014357806306fdde0314610175578063081812fc1461018a575b600080fd5b61012e610129366004611785565b61031f565b60405190151581526020015b60405180910390f35b61017361015136600461160f565b600a80546001600160a01b0319166001600160a01b0392909216919091179055565b005b61017d610371565b60405161013a9190611994565b61019d610198366004611808565b610403565b6040516001600160a01b03909116815260200161013a565b6101736101c3366004611759565b610490565b6101736101d6366004611821565b6105a6565b6101736101e9366004611665565b61065a565b6101736101fc366004611665565b61068b565b61021461020f3660046117bf565b6106a6565b60405190815260200161013a565b61019d610230366004611808565b6106ee565b61021461024336600461160f565b610765565b61025b61025636600461186f565b6107ec565b604080516001600160a01b0390931683526001600160601b0390911660208301520161013a565b61017d610835565b610173610298366004611726565b610844565b6101736102ab3660046116a6565b610853565b61017d6102be366004611808565b610885565b6102d66102d1366004611808565b6109fc565b60405161013a9190611981565b61012e6102f136600461162c565b6001600160a01b03918216600090815260056020908152604080832093909416825291909152205460ff1690565b60006001600160e01b031982166380ac58cd60e01b148061035057506001600160e01b03198216635b5e139f60e01b145b8061036b57506301ffc9a760e01b6001600160e01b03198316145b92915050565b60606000805461038090611ad2565b80601f01602080910402602001604051908101604052809291908181526020018280546103ac90611ad2565b80156103f95780601f106103ce576101008083540402835291602001916103f9565b820191906000526020600020905b8154815290600101906020018083116103dc57829003601f168201915b5050505050905090565b600061040e82610a8b565b6104745760405162461bcd60e51b815260206004820152602c60248201527f4552433732313a20617070726f76656420717565727920666f72206e6f6e657860448201526b34b9ba32b73a103a37b5b2b760a11b60648201526084015b60405180910390fd5b506000908152600460205260409020546001600160a01b031690565b600061049b826106ee565b9050806001600160a01b0316836001600160a01b031614156105095760405162461bcd60e51b815260206004820152602160248201527f4552433732313a20617070726f76616c20746f2063757272656e74206f776e656044820152603960f91b606482015260840161046b565b336001600160a01b0382161480610525575061052581336102f1565b6105975760405162461bcd60e51b815260206004820152603860248201527f4552433732313a20617070726f76652063616c6c6572206973206e6f74206f7760448201527f6e6572206e6f7220617070726f76656420666f7220616c6c0000000000000000606482015260840161046b565b6105a18383610aa8565b505050565b604080516001808252818301909252600091816020015b60408051808201909152600080825260208201528152602001906001900390816105bd57905050905081816000815181106105fa576105fa611b68565b6020026020010151602001906001600160601b031690816001600160601b031681525050828160008151811061063257610632611b68565b60209081029190910101516001600160a01b0390911690526106548482610b16565b50505050565b6106643382610c9a565b6106805760405162461bcd60e51b815260040161046b906119f9565b6105a1838383610d80565b6105a183838360405180602001604052806000815250610853565b60006106b6600980546001019055565b60006106c160095490565b90506106cd3382610f20565b6106d78184611053565b600a5461036b906001600160a01b03166001610844565b6000818152600260205260408120546001600160a01b03168061036b5760405162461bcd60e51b815260206004820152602960248201527f4552433732313a206f776e657220717565727920666f72206e6f6e657869737460448201526832b73a103a37b5b2b760b91b606482015260840161046b565b60006001600160a01b0382166107d05760405162461bcd60e51b815260206004820152602a60248201527f4552433732313a2062616c616e636520717565727920666f7220746865207a65604482015269726f206164647265737360b01b606482015260840161046b565b506001600160a01b031660009081526003602052604090205490565b6007602052816000526040600020818154811061080857600080fd5b6000918252602090912001546001600160a01b0381169250600160a01b90046001600160601b0316905082565b60606001805461038090611ad2565b61084f3383836110de565b5050565b61085d3383610c9a565b6108795760405162461bcd60e51b815260040161046b906119f9565b610654848484846111ad565b606061089082610a8b565b6108f65760405162461bcd60e51b815260206004820152603160248201527f45524337323155524953746f726167653a2055524920717565727920666f72206044820152703737b732bc34b9ba32b73a103a37b5b2b760791b606482015260840161046b565b6000828152600660205260408120805461090f90611ad2565b80601f016020809104026020016040519081016040528092919081815260200182805461093b90611ad2565b80156109885780601f1061095d57610100808354040283529160200191610988565b820191906000526020600020905b81548152906001019060200180831161096b57829003601f168201915b5050505050905060006109a660408051602081019091526000815290565b90508051600014156109b9575092915050565b8151156109eb5780826040516020016109d3929190611915565b60405160208183030381529060405292505050919050565b6109f4846111e0565b949350505050565b606060076000838152602001908152602001600020805480602002602001604051908101604052809291908181526020016000905b82821015610a8057600084815260209081902060408051808201909152908401546001600160a01b0381168252600160a01b90046001600160601b031681830152825260019092019101610a31565b505050509050919050565b6000908152600260205260409020546001600160a01b0316151590565b600081815260046020526040902080546001600160a01b0319166001600160a01b0384169081179091558190610add826106ee565b6001600160a01b03167f8c5be1e5ebec7d5bd14f71427d1e84f3dd0314c0f7b2291e5b200ac8c7c3b92560405160405180910390a45050565b60005b8151811015610c8f5760006001600160a01b0316828281518110610b3f57610b3f611b68565b6020026020010151600001516001600160a01b03161415610ba25760405162461bcd60e51b815260206004820152601b60248201527f526563697069656e742073686f756c642062652070726573656e740000000000604482015260640161046b565b818181518110610bb457610bb4611b68565b6020026020010151602001516001600160601b031660001415610c195760405162461bcd60e51b815260206004820181905260248201527f526f79616c74792076616c75652073686f756c6420626520706f736974697665604482015260640161046b565b60008381526007602052604090208251839083908110610c3b57610c3b611b68565b6020908102919091018101518254600181018455600093845292829020815191909201516001600160601b0316600160a01b026001600160a01b039091161791015580610c8781611b0d565b915050610b19565b5061084f82826112b8565b6000610ca582610a8b565b610d065760405162461bcd60e51b815260206004820152602c60248201527f4552433732313a206f70657261746f7220717565727920666f72206e6f6e657860448201526b34b9ba32b73a103a37b5b2b760a11b606482015260840161046b565b6000610d11836106ee565b9050806001600160a01b0316846001600160a01b03161480610d4c5750836001600160a01b0316610d4184610403565b6001600160a01b0316145b806109f457506001600160a01b0380821660009081526005602090815260408083209388168352929052205460ff166109f4565b826001600160a01b0316610d93826106ee565b6001600160a01b031614610dfb5760405162461bcd60e51b815260206004820152602960248201527f4552433732313a207472616e73666572206f6620746f6b656e2074686174206960448201526839903737ba1037bbb760b91b606482015260840161046b565b6001600160a01b038216610e5d5760405162461bcd60e51b8152602060048201526024808201527f4552433732313a207472616e7366657220746f20746865207a65726f206164646044820152637265737360e01b606482015260840161046b565b610e68600082610aa8565b6001600160a01b0383166000908152600360205260408120805460019290610e91908490611a8f565b90915550506001600160a01b0382166000908152600360205260408120805460019290610ebf908490611a63565b909155505060008181526002602052604080822080546001600160a01b0319166001600160a01b0386811691821790925591518493918716917fddf252ad1be2c89b69c2b068fc378daa952ba7f163c4a11628f55a4df523b3ef91a4505050565b6001600160a01b038216610f765760405162461bcd60e51b815260206004820181905260248201527f4552433732313a206d696e7420746f20746865207a65726f2061646472657373604482015260640161046b565b610f7f81610a8b565b15610fcc5760405162461bcd60e51b815260206004820152601c60248201527f4552433732313a20746f6b656e20616c7265616479206d696e74656400000000604482015260640161046b565b6001600160a01b0382166000908152600360205260408120805460019290610ff5908490611a63565b909155505060008181526002602052604080822080546001600160a01b0319166001600160a01b03861690811790915590518392907fddf252ad1be2c89b69c2b068fc378daa952ba7f163c4a11628f55a4df523b3ef908290a45050565b61105c82610a8b565b6110bf5760405162461bcd60e51b815260206004820152602e60248201527f45524337323155524953746f726167653a2055524920736574206f66206e6f6e60448201526d32bc34b9ba32b73a103a37b5b2b760911b606482015260840161046b565b600082815260066020908152604090912082516105a192840190611500565b816001600160a01b0316836001600160a01b031614156111405760405162461bcd60e51b815260206004820152601960248201527f4552433732313a20617070726f766520746f2063616c6c657200000000000000604482015260640161046b565b6001600160a01b03838116600081815260056020908152604080832094871680845294825291829020805460ff191686151590811790915591519182527f17307eab39ab6107e8899845ad3d59bd9653f200f220920489ca2b5937696c31910160405180910390a3505050565b6111b8848484610d80565b6111c4848484846112f5565b6106545760405162461bcd60e51b815260040161046b906119a7565b60606111eb82610a8b565b61124f5760405162461bcd60e51b815260206004820152602f60248201527f4552433732314d657461646174613a2055524920717565727920666f72206e6f60448201526e3732bc34b9ba32b73a103a37b5b2b760891b606482015260840161046b565b600061126660408051602081019091526000815290565b9050600081511161128657604051806020016040528060008152506112b1565b8061129084611402565b6040516020016112a1929190611915565b6040516020818303038152906040525b9392505050565b7f3fa96d7b6bcbfe71ef171666d84db3cf52fa2d1c8afdb1cc8e486177f208b7df82826040516112e9929190611a4a565b60405180910390a15050565b60006001600160a01b0384163b156113f757604051630a85bd0160e11b81526001600160a01b0385169063150b7a0290611339903390899088908890600401611944565b602060405180830381600087803b15801561135357600080fd5b505af1925050508015611383575060408051601f3d908101601f19168201909252611380918101906117a2565b60015b6113dd573d8080156113b1576040519150601f19603f3d011682016040523d82523d6000602084013e6113b6565b606091505b5080516113d55760405162461bcd60e51b815260040161046b906119a7565b805181602001fd5b6001600160e01b031916630a85bd0160e11b1490506109f4565b506001949350505050565b6060816114265750506040805180820190915260018152600360fc1b602082015290565b8160005b8115611450578061143a81611b0d565b91506114499050600a83611a7b565b915061142a565b60008167ffffffffffffffff81111561146b5761146b611b7e565b6040519080825280601f01601f191660200182016040528015611495576020820181803683370190505b5090505b84156109f4576114aa600183611a8f565b91506114b7600a86611b28565b6114c2906030611a63565b60f81b8183815181106114d7576114d7611b68565b60200101906001600160f81b031916908160001a9053506114f9600a86611a7b565b9450611499565b82805461150c90611ad2565b90600052602060002090601f01602090048101928261152e5760008555611574565b82601f1061154757805160ff1916838001178555611574565b82800160010185558215611574579182015b82811115611574578251825591602001919060010190611559565b50611580929150611584565b5090565b5b808211156115805760008155600101611585565b600067ffffffffffffffff808411156115b4576115b4611b7e565b604051601f8501601f19908116603f011681019082821181831017156115dc576115dc611b7e565b816040528093508581528686860111156115f557600080fd5b858560208301376000602087830101525050509392505050565b60006020828403121561162157600080fd5b81356112b181611b94565b6000806040838503121561163f57600080fd5b823561164a81611b94565b9150602083013561165a81611b94565b809150509250929050565b60008060006060848603121561167a57600080fd5b833561168581611b94565b9250602084013561169581611b94565b929592945050506040919091013590565b600080600080608085870312156116bc57600080fd5b84356116c781611b94565b935060208501356116d781611b94565b925060408501359150606085013567ffffffffffffffff8111156116fa57600080fd5b8501601f8101871361170b57600080fd5b61171a87823560208401611599565b91505092959194509250565b6000806040838503121561173957600080fd5b823561174481611b94565b91506020830135801515811461165a57600080fd5b6000806040838503121561176c57600080fd5b823561177781611b94565b946020939093013593505050565b60006020828403121561179757600080fd5b81356112b181611bac565b6000602082840312156117b457600080fd5b81516112b181611bac565b6000602082840312156117d157600080fd5b813567ffffffffffffffff8111156117e857600080fd5b8201601f810184136117f957600080fd5b6109f484823560208401611599565b60006020828403121561181a57600080fd5b5035919050565b60008060006060848603121561183657600080fd5b83359250602084013561184881611b94565b915060408401356001600160601b038116811461186457600080fd5b809150509250925092565b6000806040838503121561188257600080fd5b50508035926020909101359150565b600081518084526020808501945080840160005b838110156118de57815180516001600160a01b031688528301516001600160601b031683880152604090960195908201906001016118a5565b509495945050505050565b60008151808452611901816020860160208601611aa6565b601f01601f19169290920160200192915050565b60008351611927818460208801611aa6565b83519083019061193b818360208801611aa6565b01949350505050565b6001600160a01b0385811682528416602082015260408101839052608060608201819052600090611977908301846118e9565b9695505050505050565b6020815260006112b16020830184611891565b6020815260006112b160208301846118e9565b60208082526032908201527f4552433732313a207472616e7366657220746f206e6f6e20455243373231526560408201527131b2b4bb32b91034b6b83632b6b2b73a32b960711b606082015260800190565b60208082526031908201527f4552433732313a207472616e736665722063616c6c6572206973206e6f74206f6040820152701ddb995c881b9bdc88185c1c1c9bdd9959607a1b606082015260800190565b8281526040602082015260006109f46040830184611891565b60008219821115611a7657611a76611b3c565b500190565b600082611a8a57611a8a611b52565b500490565b600082821015611aa157611aa1611b3c565b500390565b60005b83811015611ac1578181015183820152602001611aa9565b838111156106545750506000910152565b600181811c90821680611ae657607f821691505b60208210811415611b0757634e487b7160e01b600052602260045260246000fd5b50919050565b6000600019821415611b2157611b21611b3c565b5060010190565b600082611b3757611b37611b52565b500690565b634e487b7160e01b600052601160045260246000fd5b634e487b7160e01b600052601260045260246000fd5b634e487b7160e01b600052603260045260246000fd5b634e487b7160e01b600052604160045260246000fd5b6001600160a01b0381168114611ba957600080fd5b50565b6001600160e01b031981168114611ba957600080fdfea2646970667358221220cce1bfa2912c325a0d8e89f9b503808fdb7083fc984fb17b4e9029ca9375847f64736f6c63430008070033",
			"opcodes": "PUSH1 0x80 PUSH1 0x40 MSTORE CALLVALUE DUP1 ISZERO PUSH3 0x11 JUMPI PUSH1 0x0 DUP1 REVERT JUMPDEST POP PUSH1 0x40 DUP1 MLOAD DUP1 DUP3 ADD DUP3 MSTORE PUSH1 0x8 DUP1 DUP3 MSTORE PUSH8 0x4D6574614C696665 PUSH1 0xC0 SHL PUSH1 0x20 DUP1 DUP5 ADD DUP3 DUP2 MSTORE DUP6 MLOAD DUP1 DUP8 ADD SWAP1 SWAP7 MSTORE SWAP3 DUP6 MSTORE DUP5 ADD MSTORE DUP2 MLOAD SWAP2 SWAP3 SWAP2 PUSH3 0x55 SWAP2 PUSH1 0x0 SWAP2 PUSH3 0x74 JUMP JUMPDEST POP DUP1 MLOAD PUSH3 0x6B SWAP1 PUSH1 0x1 SWAP1 PUSH1 0x20 DUP5 ADD SWAP1 PUSH3 0x74 JUMP JUMPDEST POP POP POP PUSH3 0x157 JUMP JUMPDEST DUP3 DUP1 SLOAD PUSH3 0x82 SWAP1 PUSH3 0x11A JUMP JUMPDEST SWAP1 PUSH1 0x0 MSTORE PUSH1 0x20 PUSH1 0x0 KECCAK256 SWAP1 PUSH1 0x1F ADD PUSH1 0x20 SWAP1 DIV DUP2 ADD SWAP3 DUP3 PUSH3 0xA6 JUMPI PUSH1 0x0 DUP6 SSTORE PUSH3 0xF1 JUMP JUMPDEST DUP3 PUSH1 0x1F LT PUSH3 0xC1 JUMPI DUP1 MLOAD PUSH1 0xFF NOT AND DUP4 DUP1 ADD OR DUP6 SSTORE PUSH3 0xF1 JUMP JUMPDEST DUP3 DUP1 ADD PUSH1 0x1 ADD DUP6 SSTORE DUP3 ISZERO PUSH3 0xF1 JUMPI SWAP2 DUP3 ADD JUMPDEST DUP3 DUP2 GT ISZERO PUSH3 0xF1 JUMPI DUP3 MLOAD DUP3 SSTORE SWAP2 PUSH1 0x20 ADD SWAP2 SWAP1 PUSH1 0x1 ADD SWAP1 PUSH3 0xD4 JUMP JUMPDEST POP PUSH3 0xFF SWAP3 SWAP2 POP PUSH3 0x103 JUMP JUMPDEST POP SWAP1 JUMP JUMPDEST JUMPDEST DUP1 DUP3 GT ISZERO PUSH3 0xFF JUMPI PUSH1 0x0 DUP2 SSTORE PUSH1 0x1 ADD PUSH3 0x104 JUMP JUMPDEST PUSH1 0x1 DUP2 DUP2 SHR SWAP1 DUP3 AND DUP1 PUSH3 0x12F JUMPI PUSH1 0x7F DUP3 AND SWAP2 POP JUMPDEST PUSH1 0x20 DUP3 LT DUP2 EQ ISZERO PUSH3 0x151 JUMPI PUSH4 0x4E487B71 PUSH1 0xE0 SHL PUSH1 0x0 MSTORE PUSH1 0x22 PUSH1 0x4 MSTORE PUSH1 0x24 PUSH1 0x0 REVERT JUMPDEST POP SWAP2 SWAP1 POP JUMP JUMPDEST PUSH2 0x1BF8 DUP1 PUSH3 0x167 PUSH1 0x0 CODECOPY PUSH1 0x0 RETURN INVALID PUSH1 0x80 PUSH1 0x40 MSTORE CALLVALUE DUP1 ISZERO PUSH2 0x10 JUMPI PUSH1 0x0 DUP1 REVERT JUMPDEST POP PUSH1 0x4 CALLDATASIZE LT PUSH2 0x116 JUMPI PUSH1 0x0 CALLDATALOAD PUSH1 0xE0 SHR DUP1 PUSH4 0x6352211E GT PUSH2 0xA2 JUMPI DUP1 PUSH4 0xA22CB465 GT PUSH2 0x71 JUMPI DUP1 PUSH4 0xA22CB465 EQ PUSH2 0x28A JUMPI DUP1 PUSH4 0xB88D4FDE EQ PUSH2 0x29D JUMPI DUP1 PUSH4 0xC87B56DD EQ PUSH2 0x2B0 JUMPI DUP1 PUSH4 0xCAD96CCA EQ PUSH2 0x2C3 JUMPI DUP1 PUSH4 0xE985E9C5 EQ PUSH2 0x2E3 JUMPI PUSH1 0x0 DUP1 REVERT JUMPDEST DUP1 PUSH4 0x6352211E EQ PUSH2 0x222 JUMPI DUP1 PUSH4 0x70A08231 EQ PUSH2 0x235 JUMPI DUP1 PUSH4 0x8924AF74 EQ PUSH2 0x248 JUMPI DUP1 PUSH4 0x95D89B41 EQ PUSH2 0x282 JUMPI PUSH1 0x0 DUP1 REVERT JUMPDEST DUP1 PUSH4 0x95EA7B3 GT PUSH2 0xE9 JUMPI DUP1 PUSH4 0x95EA7B3 EQ PUSH2 0x1B5 JUMPI DUP1 PUSH4 0x143094DB EQ PUSH2 0x1C8 JUMPI DUP1 PUSH4 0x23B872DD EQ PUSH2 0x1DB JUMPI DUP1 PUSH4 0x42842E0E EQ PUSH2 0x1EE JUMPI DUP1 PUSH4 0x45576F94 EQ PUSH2 0x201 JUMPI PUSH1 0x0 DUP1 REVERT JUMPDEST DUP1 PUSH4 0x1FFC9A7 EQ PUSH2 0x11B JUMPI DUP1 PUSH4 0x5DFAE8B EQ PUSH2 0x143 JUMPI DUP1 PUSH4 0x6FDDE03 EQ PUSH2 0x175 JUMPI DUP1 PUSH4 0x81812FC EQ PUSH2 0x18A JUMPI JUMPDEST PUSH1 0x0 DUP1 REVERT JUMPDEST PUSH2 0x12E PUSH2 0x129 CALLDATASIZE PUSH1 0x4 PUSH2 0x1785 JUMP JUMPDEST PUSH2 0x31F JUMP JUMPDEST PUSH1 0x40 MLOAD SWAP1 ISZERO ISZERO DUP2 MSTORE PUSH1 0x20 ADD JUMPDEST PUSH1 0x40 MLOAD DUP1 SWAP2 SUB SWAP1 RETURN JUMPDEST PUSH2 0x173 PUSH2 0x151 CALLDATASIZE PUSH1 0x4 PUSH2 0x160F JUMP JUMPDEST PUSH1 0xA DUP1 SLOAD PUSH1 0x1 PUSH1 0x1 PUSH1 0xA0 SHL SUB NOT AND PUSH1 0x1 PUSH1 0x1 PUSH1 0xA0 SHL SUB SWAP3 SWAP1 SWAP3 AND SWAP2 SWAP1 SWAP2 OR SWAP1 SSTORE JUMP JUMPDEST STOP JUMPDEST PUSH2 0x17D PUSH2 0x371 JUMP JUMPDEST PUSH1 0x40 MLOAD PUSH2 0x13A SWAP2 SWAP1 PUSH2 0x1994 JUMP JUMPDEST PUSH2 0x19D PUSH2 0x198 CALLDATASIZE PUSH1 0x4 PUSH2 0x1808 JUMP JUMPDEST PUSH2 0x403 JUMP JUMPDEST PUSH1 0x40 MLOAD PUSH1 0x1 PUSH1 0x1 PUSH1 0xA0 SHL SUB SWAP1 SWAP2 AND DUP2 MSTORE PUSH1 0x20 ADD PUSH2 0x13A JUMP JUMPDEST PUSH2 0x173 PUSH2 0x1C3 CALLDATASIZE PUSH1 0x4 PUSH2 0x1759 JUMP JUMPDEST PUSH2 0x490 JUMP JUMPDEST PUSH2 0x173 PUSH2 0x1D6 CALLDATASIZE PUSH1 0x4 PUSH2 0x1821 JUMP JUMPDEST PUSH2 0x5A6 JUMP JUMPDEST PUSH2 0x173 PUSH2 0x1E9 CALLDATASIZE PUSH1 0x4 PUSH2 0x1665 JUMP JUMPDEST PUSH2 0x65A JUMP JUMPDEST PUSH2 0x173 PUSH2 0x1FC CALLDATASIZE PUSH1 0x4 PUSH2 0x1665 JUMP JUMPDEST PUSH2 0x68B JUMP JUMPDEST PUSH2 0x214 PUSH2 0x20F CALLDATASIZE PUSH1 0x4 PUSH2 0x17BF JUMP JUMPDEST PUSH2 0x6A6 JUMP JUMPDEST PUSH1 0x40 MLOAD SWAP1 DUP2 MSTORE PUSH1 0x20 ADD PUSH2 0x13A JUMP JUMPDEST PUSH2 0x19D PUSH2 0x230 CALLDATASIZE PUSH1 0x4 PUSH2 0x1808 JUMP JUMPDEST PUSH2 0x6EE JUMP JUMPDEST PUSH2 0x214 PUSH2 0x243 CALLDATASIZE PUSH1 0x4 PUSH2 0x160F JUMP JUMPDEST PUSH2 0x765 JUMP JUMPDEST PUSH2 0x25B PUSH2 0x256 CALLDATASIZE PUSH1 0x4 PUSH2 0x186F JUMP JUMPDEST PUSH2 0x7EC JUMP JUMPDEST PUSH1 0x40 DUP1 MLOAD PUSH1 0x1 PUSH1 0x1 PUSH1 0xA0 SHL SUB SWAP1 SWAP4 AND DUP4 MSTORE PUSH1 0x1 PUSH1 0x1 PUSH1 0x60 SHL SUB SWAP1 SWAP2 AND PUSH1 0x20 DUP4 ADD MSTORE ADD PUSH2 0x13A JUMP JUMPDEST PUSH2 0x17D PUSH2 0x835 JUMP JUMPDEST PUSH2 0x173 PUSH2 0x298 CALLDATASIZE PUSH1 0x4 PUSH2 0x1726 JUMP JUMPDEST PUSH2 0x844 JUMP JUMPDEST PUSH2 0x173 PUSH2 0x2AB CALLDATASIZE PUSH1 0x4 PUSH2 0x16A6 JUMP JUMPDEST PUSH2 0x853 JUMP JUMPDEST PUSH2 0x17D PUSH2 0x2BE CALLDATASIZE PUSH1 0x4 PUSH2 0x1808 JUMP JUMPDEST PUSH2 0x885 JUMP JUMPDEST PUSH2 0x2D6 PUSH2 0x2D1 CALLDATASIZE PUSH1 0x4 PUSH2 0x1808 JUMP JUMPDEST PUSH2 0x9FC JUMP JUMPDEST PUSH1 0x40 MLOAD PUSH2 0x13A SWAP2 SWAP1 PUSH2 0x1981 JUMP JUMPDEST PUSH2 0x12E PUSH2 0x2F1 CALLDATASIZE PUSH1 0x4 PUSH2 0x162C JUMP JUMPDEST PUSH1 0x1 PUSH1 0x1 PUSH1 0xA0 SHL SUB SWAP2 DUP3 AND PUSH1 0x0 SWAP1 DUP2 MSTORE PUSH1 0x5 PUSH1 0x20 SWAP1 DUP2 MSTORE PUSH1 0x40 DUP1 DUP4 KECCAK256 SWAP4 SWAP1 SWAP5 AND DUP3 MSTORE SWAP2 SWAP1 SWAP2 MSTORE KECCAK256 SLOAD PUSH1 0xFF AND SWAP1 JUMP JUMPDEST PUSH1 0x0 PUSH1 0x1 PUSH1 0x1 PUSH1 0xE0 SHL SUB NOT DUP3 AND PUSH4 0x80AC58CD PUSH1 0xE0 SHL EQ DUP1 PUSH2 0x350 JUMPI POP PUSH1 0x1 PUSH1 0x1 PUSH1 0xE0 SHL SUB NOT DUP3 AND PUSH4 0x5B5E139F PUSH1 0xE0 SHL EQ JUMPDEST DUP1 PUSH2 0x36B JUMPI POP PUSH4 0x1FFC9A7 PUSH1 0xE0 SHL PUSH1 0x1 PUSH1 0x1 PUSH1 0xE0 SHL SUB NOT DUP4 AND EQ JUMPDEST SWAP3 SWAP2 POP POP JUMP JUMPDEST PUSH1 0x60 PUSH1 0x0 DUP1 SLOAD PUSH2 0x380 SWAP1 PUSH2 0x1AD2 JUMP JUMPDEST DUP1 PUSH1 0x1F ADD PUSH1 0x20 DUP1 SWAP2 DIV MUL PUSH1 0x20 ADD PUSH1 0x40 MLOAD SWAP1 DUP2 ADD PUSH1 0x40 MSTORE DUP1 SWAP3 SWAP2 SWAP1 DUP2 DUP2 MSTORE PUSH1 0x20 ADD DUP3 DUP1 SLOAD PUSH2 0x3AC SWAP1 PUSH2 0x1AD2 JUMP JUMPDEST DUP1 ISZERO PUSH2 0x3F9 JUMPI DUP1 PUSH1 0x1F LT PUSH2 0x3CE JUMPI PUSH2 0x100 DUP1 DUP4 SLOAD DIV MUL DUP4 MSTORE SWAP2 PUSH1 0x20 ADD SWAP2 PUSH2 0x3F9 JUMP JUMPDEST DUP3 ADD SWAP2 SWAP1 PUSH1 0x0 MSTORE PUSH1 0x20 PUSH1 0x0 KECCAK256 SWAP1 JUMPDEST DUP2 SLOAD DUP2 MSTORE SWAP1 PUSH1 0x1 ADD SWAP1 PUSH1 0x20 ADD DUP1 DUP4 GT PUSH2 0x3DC JUMPI DUP3 SWAP1 SUB PUSH1 0x1F AND DUP3 ADD SWAP2 JUMPDEST POP POP POP POP POP SWAP1 POP SWAP1 JUMP JUMPDEST PUSH1 0x0 PUSH2 0x40E DUP3 PUSH2 0xA8B JUMP JUMPDEST PUSH2 0x474 JUMPI PUSH1 0x40 MLOAD PUSH3 0x461BCD PUSH1 0xE5 SHL DUP2 MSTORE PUSH1 0x20 PUSH1 0x4 DUP3 ADD MSTORE PUSH1 0x2C PUSH1 0x24 DUP3 ADD MSTORE PUSH32 0x4552433732313A20617070726F76656420717565727920666F72206E6F6E6578 PUSH1 0x44 DUP3 ADD MSTORE PUSH12 0x34B9BA32B73A103A37B5B2B7 PUSH1 0xA1 SHL PUSH1 0x64 DUP3 ADD MSTORE PUSH1 0x84 ADD JUMPDEST PUSH1 0x40 MLOAD DUP1 SWAP2 SUB SWAP1 REVERT JUMPDEST POP PUSH1 0x0 SWAP1 DUP2 MSTORE PUSH1 0x4 PUSH1 0x20 MSTORE PUSH1 0x40 SWAP1 KECCAK256 SLOAD PUSH1 0x1 PUSH1 0x1 PUSH1 0xA0 SHL SUB AND SWAP1 JUMP JUMPDEST PUSH1 0x0 PUSH2 0x49B DUP3 PUSH2 0x6EE JUMP JUMPDEST SWAP1 POP DUP1 PUSH1 0x1 PUSH1 0x1 PUSH1 0xA0 SHL SUB AND DUP4 PUSH1 0x1 PUSH1 0x1 PUSH1 0xA0 SHL SUB AND EQ ISZERO PUSH2 0x509 JUMPI PUSH1 0x40 MLOAD PUSH3 0x461BCD PUSH1 0xE5 SHL DUP2 MSTORE PUSH1 0x20 PUSH1 0x4 DUP3 ADD MSTORE PUSH1 0x21 PUSH1 0x24 DUP3 ADD MSTORE PUSH32 0x4552433732313A20617070726F76616C20746F2063757272656E74206F776E65 PUSH1 0x44 DUP3 ADD MSTORE PUSH1 0x39 PUSH1 0xF9 SHL PUSH1 0x64 DUP3 ADD MSTORE PUSH1 0x84 ADD PUSH2 0x46B JUMP JUMPDEST CALLER PUSH1 0x1 PUSH1 0x1 PUSH1 0xA0 SHL SUB DUP3 AND EQ DUP1 PUSH2 0x525 JUMPI POP PUSH2 0x525 DUP2 CALLER PUSH2 0x2F1 JUMP JUMPDEST PUSH2 0x597 JUMPI PUSH1 0x40 MLOAD PUSH3 0x461BCD PUSH1 0xE5 SHL DUP2 MSTORE PUSH1 0x20 PUSH1 0x4 DUP3 ADD MSTORE PUSH1 0x38 PUSH1 0x24 DUP3 ADD MSTORE PUSH32 0x4552433732313A20617070726F76652063616C6C6572206973206E6F74206F77 PUSH1 0x44 DUP3 ADD MSTORE PUSH32 0x6E6572206E6F7220617070726F76656420666F7220616C6C0000000000000000 PUSH1 0x64 DUP3 ADD MSTORE PUSH1 0x84 ADD PUSH2 0x46B JUMP JUMPDEST PUSH2 0x5A1 DUP4 DUP4 PUSH2 0xAA8 JUMP JUMPDEST POP POP POP JUMP JUMPDEST PUSH1 0x40 DUP1 MLOAD PUSH1 0x1 DUP1 DUP3 MSTORE DUP2 DUP4 ADD SWAP1 SWAP3 MSTORE PUSH1 0x0 SWAP2 DUP2 PUSH1 0x20 ADD JUMPDEST PUSH1 0x40 DUP1 MLOAD DUP1 DUP3 ADD SWAP1 SWAP2 MSTORE PUSH1 0x0 DUP1 DUP3 MSTORE PUSH1 0x20 DUP3 ADD MSTORE DUP2 MSTORE PUSH1 0x20 ADD SWAP1 PUSH1 0x1 SWAP1 SUB SWAP1 DUP2 PUSH2 0x5BD JUMPI SWAP1 POP POP SWAP1 POP DUP2 DUP2 PUSH1 0x0 DUP2 MLOAD DUP2 LT PUSH2 0x5FA JUMPI PUSH2 0x5FA PUSH2 0x1B68 JUMP JUMPDEST PUSH1 0x20 MUL PUSH1 0x20 ADD ADD MLOAD PUSH1 0x20 ADD SWAP1 PUSH1 0x1 PUSH1 0x1 PUSH1 0x60 SHL SUB AND SWAP1 DUP2 PUSH1 0x1 PUSH1 0x1 PUSH1 0x60 SHL SUB AND DUP2 MSTORE POP POP DUP3 DUP2 PUSH1 0x0 DUP2 MLOAD DUP2 LT PUSH2 0x632 JUMPI PUSH2 0x632 PUSH2 0x1B68 JUMP JUMPDEST PUSH1 0x20 SWAP1 DUP2 MUL SWAP2 SWAP1 SWAP2 ADD ADD MLOAD PUSH1 0x1 PUSH1 0x1 PUSH1 0xA0 SHL SUB SWAP1 SWAP2 AND SWAP1 MSTORE PUSH2 0x654 DUP5 DUP3 PUSH2 0xB16 JUMP JUMPDEST POP POP POP POP JUMP JUMPDEST PUSH2 0x664 CALLER DUP3 PUSH2 0xC9A JUMP JUMPDEST PUSH2 0x680 JUMPI PUSH1 0x40 MLOAD PUSH3 0x461BCD PUSH1 0xE5 SHL DUP2 MSTORE PUSH1 0x4 ADD PUSH2 0x46B SWAP1 PUSH2 0x19F9 JUMP JUMPDEST PUSH2 0x5A1 DUP4 DUP4 DUP4 PUSH2 0xD80 JUMP JUMPDEST PUSH2 0x5A1 DUP4 DUP4 DUP4 PUSH1 0x40 MLOAD DUP1 PUSH1 0x20 ADD PUSH1 0x40 MSTORE DUP1 PUSH1 0x0 DUP2 MSTORE POP PUSH2 0x853 JUMP JUMPDEST PUSH1 0x0 PUSH2 0x6B6 PUSH1 0x9 DUP1 SLOAD PUSH1 0x1 ADD SWAP1 SSTORE JUMP JUMPDEST PUSH1 0x0 PUSH2 0x6C1 PUSH1 0x9 SLOAD SWAP1 JUMP JUMPDEST SWAP1 POP PUSH2 0x6CD CALLER DUP3 PUSH2 0xF20 JUMP JUMPDEST PUSH2 0x6D7 DUP2 DUP5 PUSH2 0x1053 JUMP JUMPDEST PUSH1 0xA SLOAD PUSH2 0x36B SWAP1 PUSH1 0x1 PUSH1 0x1 PUSH1 0xA0 SHL SUB AND PUSH1 0x1 PUSH2 0x844 JUMP JUMPDEST PUSH1 0x0 DUP2 DUP2 MSTORE PUSH1 0x2 PUSH1 0x20 MSTORE PUSH1 0x40 DUP2 KECCAK256 SLOAD PUSH1 0x1 PUSH1 0x1 PUSH1 0xA0 SHL SUB AND DUP1 PUSH2 0x36B JUMPI PUSH1 0x40 MLOAD PUSH3 0x461BCD PUSH1 0xE5 SHL DUP2 MSTORE PUSH1 0x20 PUSH1 0x4 DUP3 ADD MSTORE PUSH1 0x29 PUSH1 0x24 DUP3 ADD MSTORE PUSH32 0x4552433732313A206F776E657220717565727920666F72206E6F6E6578697374 PUSH1 0x44 DUP3 ADD MSTORE PUSH9 0x32B73A103A37B5B2B7 PUSH1 0xB9 SHL PUSH1 0x64 DUP3 ADD MSTORE PUSH1 0x84 ADD PUSH2 0x46B JUMP JUMPDEST PUSH1 0x0 PUSH1 0x1 PUSH1 0x1 PUSH1 0xA0 SHL SUB DUP3 AND PUSH2 0x7D0 JUMPI PUSH1 0x40 MLOAD PUSH3 0x461BCD PUSH1 0xE5 SHL DUP2 MSTORE PUSH1 0x20 PUSH1 0x4 DUP3 ADD MSTORE PUSH1 0x2A PUSH1 0x24 DUP3 ADD MSTORE PUSH32 0x4552433732313A2062616C616E636520717565727920666F7220746865207A65 PUSH1 0x44 DUP3 ADD MSTORE PUSH10 0x726F2061646472657373 PUSH1 0xB0 SHL PUSH1 0x64 DUP3 ADD MSTORE PUSH1 0x84 ADD PUSH2 0x46B JUMP JUMPDEST POP PUSH1 0x1 PUSH1 0x1 PUSH1 0xA0 SHL SUB AND PUSH1 0x0 SWAP1 DUP2 MSTORE PUSH1 0x3 PUSH1 0x20 MSTORE PUSH1 0x40 SWAP1 KECCAK256 SLOAD SWAP1 JUMP JUMPDEST PUSH1 0x7 PUSH1 0x20 MSTORE DUP2 PUSH1 0x0 MSTORE PUSH1 0x40 PUSH1 0x0 KECCAK256 DUP2 DUP2 SLOAD DUP2 LT PUSH2 0x808 JUMPI PUSH1 0x0 DUP1 REVERT JUMPDEST PUSH1 0x0 SWAP2 DUP3 MSTORE PUSH1 0x20 SWAP1 SWAP2 KECCAK256 ADD SLOAD PUSH1 0x1 PUSH1 0x1 PUSH1 0xA0 SHL SUB DUP2 AND SWAP3 POP PUSH1 0x1 PUSH1 0xA0 SHL SWAP1 DIV PUSH1 0x1 PUSH1 0x1 PUSH1 0x60 SHL SUB AND SWAP1 POP DUP3 JUMP JUMPDEST PUSH1 0x60 PUSH1 0x1 DUP1 SLOAD PUSH2 0x380 SWAP1 PUSH2 0x1AD2 JUMP JUMPDEST PUSH2 0x84F CALLER DUP4 DUP4 PUSH2 0x10DE JUMP JUMPDEST POP POP JUMP JUMPDEST PUSH2 0x85D CALLER DUP4 PUSH2 0xC9A JUMP JUMPDEST PUSH2 0x879 JUMPI PUSH1 0x40 MLOAD PUSH3 0x461BCD PUSH1 0xE5 SHL DUP2 MSTORE PUSH1 0x4 ADD PUSH2 0x46B SWAP1 PUSH2 0x19F9 JUMP JUMPDEST PUSH2 0x654 DUP5 DUP5 DUP5 DUP5 PUSH2 0x11AD JUMP JUMPDEST PUSH1 0x60 PUSH2 0x890 DUP3 PUSH2 0xA8B JUMP JUMPDEST PUSH2 0x8F6 JUMPI PUSH1 0x40 MLOAD PUSH3 0x461BCD PUSH1 0xE5 SHL DUP2 MSTORE PUSH1 0x20 PUSH1 0x4 DUP3 ADD MSTORE PUSH1 0x31 PUSH1 0x24 DUP3 ADD MSTORE PUSH32 0x45524337323155524953746F726167653A2055524920717565727920666F7220 PUSH1 0x44 DUP3 ADD MSTORE PUSH17 0x3737B732BC34B9BA32B73A103A37B5B2B7 PUSH1 0x79 SHL PUSH1 0x64 DUP3 ADD MSTORE PUSH1 0x84 ADD PUSH2 0x46B JUMP JUMPDEST PUSH1 0x0 DUP3 DUP2 MSTORE PUSH1 0x6 PUSH1 0x20 MSTORE PUSH1 0x40 DUP2 KECCAK256 DUP1 SLOAD PUSH2 0x90F SWAP1 PUSH2 0x1AD2 JUMP JUMPDEST DUP1 PUSH1 0x1F ADD PUSH1 0x20 DUP1 SWAP2 DIV MUL PUSH1 0x20 ADD PUSH1 0x40 MLOAD SWAP1 DUP2 ADD PUSH1 0x40 MSTORE DUP1 SWAP3 SWAP2 SWAP1 DUP2 DUP2 MSTORE PUSH1 0x20 ADD DUP3 DUP1 SLOAD PUSH2 0x93B SWAP1 PUSH2 0x1AD2 JUMP JUMPDEST DUP1 ISZERO PUSH2 0x988 JUMPI DUP1 PUSH1 0x1F LT PUSH2 0x95D JUMPI PUSH2 0x100 DUP1 DUP4 SLOAD DIV MUL DUP4 MSTORE SWAP2 PUSH1 0x20 ADD SWAP2 PUSH2 0x988 JUMP JUMPDEST DUP3 ADD SWAP2 SWAP1 PUSH1 0x0 MSTORE PUSH1 0x20 PUSH1 0x0 KECCAK256 SWAP1 JUMPDEST DUP2 SLOAD DUP2 MSTORE SWAP1 PUSH1 0x1 ADD SWAP1 PUSH1 0x20 ADD DUP1 DUP4 GT PUSH2 0x96B JUMPI DUP3 SWAP1 SUB PUSH1 0x1F AND DUP3 ADD SWAP2 JUMPDEST POP POP POP POP POP SWAP1 POP PUSH1 0x0 PUSH2 0x9A6 PUSH1 0x40 DUP1 MLOAD PUSH1 0x20 DUP2 ADD SWAP1 SWAP2 MSTORE PUSH1 0x0 DUP2 MSTORE SWAP1 JUMP JUMPDEST SWAP1 POP DUP1 MLOAD PUSH1 0x0 EQ ISZERO PUSH2 0x9B9 JUMPI POP SWAP3 SWAP2 POP POP JUMP JUMPDEST DUP2 MLOAD ISZERO PUSH2 0x9EB JUMPI DUP1 DUP3 PUSH1 0x40 MLOAD PUSH1 0x20 ADD PUSH2 0x9D3 SWAP3 SWAP2 SWAP1 PUSH2 0x1915 JUMP JUMPDEST PUSH1 0x40 MLOAD PUSH1 0x20 DUP2 DUP4 SUB SUB DUP2 MSTORE SWAP1 PUSH1 0x40 MSTORE SWAP3 POP POP POP SWAP2 SWAP1 POP JUMP JUMPDEST PUSH2 0x9F4 DUP5 PUSH2 0x11E0 JUMP JUMPDEST SWAP5 SWAP4 POP POP POP POP JUMP JUMPDEST PUSH1 0x60 PUSH1 0x7 PUSH1 0x0 DUP4 DUP2 MSTORE PUSH1 0x20 ADD SWAP1 DUP2 MSTORE PUSH1 0x20 ADD PUSH1 0x0 KECCAK256 DUP1 SLOAD DUP1 PUSH1 0x20 MUL PUSH1 0x20 ADD PUSH1 0x40 MLOAD SWAP1 DUP2 ADD PUSH1 0x40 MSTORE DUP1 SWAP3 SWAP2 SWAP1 DUP2 DUP2 MSTORE PUSH1 0x20 ADD PUSH1 0x0 SWAP1 JUMPDEST DUP3 DUP3 LT ISZERO PUSH2 0xA80 JUMPI PUSH1 0x0 DUP5 DUP2 MSTORE PUSH1 0x20 SWAP1 DUP2 SWAP1 KECCAK256 PUSH1 0x40 DUP1 MLOAD DUP1 DUP3 ADD SWAP1 SWAP2 MSTORE SWAP1 DUP5 ADD SLOAD PUSH1 0x1 PUSH1 0x1 PUSH1 0xA0 SHL SUB DUP2 AND DUP3 MSTORE PUSH1 0x1 PUSH1 0xA0 SHL SWAP1 DIV PUSH1 0x1 PUSH1 0x1 PUSH1 0x60 SHL SUB AND DUP2 DUP4 ADD MSTORE DUP3 MSTORE PUSH1 0x1 SWAP1 SWAP3 ADD SWAP2 ADD PUSH2 0xA31 JUMP JUMPDEST POP POP POP POP SWAP1 POP SWAP2 SWAP1 POP JUMP JUMPDEST PUSH1 0x0 SWAP1 DUP2 MSTORE PUSH1 0x2 PUSH1 0x20 MSTORE PUSH1 0x40 SWAP1 KECCAK256 SLOAD PUSH1 0x1 PUSH1 0x1 PUSH1 0xA0 SHL SUB AND ISZERO ISZERO SWAP1 JUMP JUMPDEST PUSH1 0x0 DUP2 DUP2 MSTORE PUSH1 0x4 PUSH1 0x20 MSTORE PUSH1 0x40 SWAP1 KECCAK256 DUP1 SLOAD PUSH1 0x1 PUSH1 0x1 PUSH1 0xA0 SHL SUB NOT AND PUSH1 0x1 PUSH1 0x1 PUSH1 0xA0 SHL SUB DUP5 AND SWAP1 DUP2 OR SWAP1 SWAP2 SSTORE DUP2 SWAP1 PUSH2 0xADD DUP3 PUSH2 0x6EE JUMP JUMPDEST PUSH1 0x1 PUSH1 0x1 PUSH1 0xA0 SHL SUB AND PUSH32 0x8C5BE1E5EBEC7D5BD14F71427D1E84F3DD0314C0F7B2291E5B200AC8C7C3B925 PUSH1 0x40 MLOAD PUSH1 0x40 MLOAD DUP1 SWAP2 SUB SWAP1 LOG4 POP POP JUMP JUMPDEST PUSH1 0x0 JUMPDEST DUP2 MLOAD DUP2 LT ISZERO PUSH2 0xC8F JUMPI PUSH1 0x0 PUSH1 0x1 PUSH1 0x1 PUSH1 0xA0 SHL SUB AND DUP3 DUP3 DUP2 MLOAD DUP2 LT PUSH2 0xB3F JUMPI PUSH2 0xB3F PUSH2 0x1B68 JUMP JUMPDEST PUSH1 0x20 MUL PUSH1 0x20 ADD ADD MLOAD PUSH1 0x0 ADD MLOAD PUSH1 0x1 PUSH1 0x1 PUSH1 0xA0 SHL SUB AND EQ ISZERO PUSH2 0xBA2 JUMPI PUSH1 0x40 MLOAD PUSH3 0x461BCD PUSH1 0xE5 SHL DUP2 MSTORE PUSH1 0x20 PUSH1 0x4 DUP3 ADD MSTORE PUSH1 0x1B PUSH1 0x24 DUP3 ADD MSTORE PUSH32 0x526563697069656E742073686F756C642062652070726573656E740000000000 PUSH1 0x44 DUP3 ADD MSTORE PUSH1 0x64 ADD PUSH2 0x46B JUMP JUMPDEST DUP2 DUP2 DUP2 MLOAD DUP2 LT PUSH2 0xBB4 JUMPI PUSH2 0xBB4 PUSH2 0x1B68 JUMP JUMPDEST PUSH1 0x20 MUL PUSH1 0x20 ADD ADD MLOAD PUSH1 0x20 ADD MLOAD PUSH1 0x1 PUSH1 0x1 PUSH1 0x60 SHL SUB AND PUSH1 0x0 EQ ISZERO PUSH2 0xC19 JUMPI PUSH1 0x40 MLOAD PUSH3 0x461BCD PUSH1 0xE5 SHL DUP2 MSTORE PUSH1 0x20 PUSH1 0x4 DUP3 ADD DUP2 SWAP1 MSTORE PUSH1 0x24 DUP3 ADD MSTORE PUSH32 0x526F79616C74792076616C75652073686F756C6420626520706F736974697665 PUSH1 0x44 DUP3 ADD MSTORE PUSH1 0x64 ADD PUSH2 0x46B JUMP JUMPDEST PUSH1 0x0 DUP4 DUP2 MSTORE PUSH1 0x7 PUSH1 0x20 MSTORE PUSH1 0x40 SWAP1 KECCAK256 DUP3 MLOAD DUP4 SWAP1 DUP4 SWAP1 DUP2 LT PUSH2 0xC3B JUMPI PUSH2 0xC3B PUSH2 0x1B68 JUMP JUMPDEST PUSH1 0x20 SWAP1 DUP2 MUL SWAP2 SWAP1 SWAP2 ADD DUP2 ADD MLOAD DUP3 SLOAD PUSH1 0x1 DUP2 ADD DUP5 SSTORE PUSH1 0x0 SWAP4 DUP5 MSTORE SWAP3 DUP3 SWAP1 KECCAK256 DUP2 MLOAD SWAP2 SWAP1 SWAP3 ADD MLOAD PUSH1 0x1 PUSH1 0x1 PUSH1 0x60 SHL SUB AND PUSH1 0x1 PUSH1 0xA0 SHL MUL PUSH1 0x1 PUSH1 0x1 PUSH1 0xA0 SHL SUB SWAP1 SWAP2 AND OR SWAP2 ADD SSTORE DUP1 PUSH2 0xC87 DUP2 PUSH2 0x1B0D JUMP JUMPDEST SWAP2 POP POP PUSH2 0xB19 JUMP JUMPDEST POP PUSH2 0x84F DUP3 DUP3 PUSH2 0x12B8 JUMP JUMPDEST PUSH1 0x0 PUSH2 0xCA5 DUP3 PUSH2 0xA8B JUMP JUMPDEST PUSH2 0xD06 JUMPI PUSH1 0x40 MLOAD PUSH3 0x461BCD PUSH1 0xE5 SHL DUP2 MSTORE PUSH1 0x20 PUSH1 0x4 DUP3 ADD MSTORE PUSH1 0x2C PUSH1 0x24 DUP3 ADD MSTORE PUSH32 0x4552433732313A206F70657261746F7220717565727920666F72206E6F6E6578 PUSH1 0x44 DUP3 ADD MSTORE PUSH12 0x34B9BA32B73A103A37B5B2B7 PUSH1 0xA1 SHL PUSH1 0x64 DUP3 ADD MSTORE PUSH1 0x84 ADD PUSH2 0x46B JUMP JUMPDEST PUSH1 0x0 PUSH2 0xD11 DUP4 PUSH2 0x6EE JUMP JUMPDEST SWAP1 POP DUP1 PUSH1 0x1 PUSH1 0x1 PUSH1 0xA0 SHL SUB AND DUP5 PUSH1 0x1 PUSH1 0x1 PUSH1 0xA0 SHL SUB AND EQ DUP1 PUSH2 0xD4C JUMPI POP DUP4 PUSH1 0x1 PUSH1 0x1 PUSH1 0xA0 SHL SUB AND PUSH2 0xD41 DUP5 PUSH2 0x403 JUMP JUMPDEST PUSH1 0x1 PUSH1 0x1 PUSH1 0xA0 SHL SUB AND EQ JUMPDEST DUP1 PUSH2 0x9F4 JUMPI POP PUSH1 0x1 PUSH1 0x1 PUSH1 0xA0 SHL SUB DUP1 DUP3 AND PUSH1 0x0 SWAP1 DUP2 MSTORE PUSH1 0x5 PUSH1 0x20 SWAP1 DUP2 MSTORE PUSH1 0x40 DUP1 DUP4 KECCAK256 SWAP4 DUP9 AND DUP4 MSTORE SWAP3 SWAP1 MSTORE KECCAK256 SLOAD PUSH1 0xFF AND PUSH2 0x9F4 JUMP JUMPDEST DUP3 PUSH1 0x1 PUSH1 0x1 PUSH1 0xA0 SHL SUB AND PUSH2 0xD93 DUP3 PUSH2 0x6EE JUMP JUMPDEST PUSH1 0x1 PUSH1 0x1 PUSH1 0xA0 SHL SUB AND EQ PUSH2 0xDFB JUMPI PUSH1 0x40 MLOAD PUSH3 0x461BCD PUSH1 0xE5 SHL DUP2 MSTORE PUSH1 0x20 PUSH1 0x4 DUP3 ADD MSTORE PUSH1 0x29 PUSH1 0x24 DUP3 ADD MSTORE PUSH32 0x4552433732313A207472616E73666572206F6620746F6B656E20746861742069 PUSH1 0x44 DUP3 ADD MSTORE PUSH9 0x39903737BA1037BBB7 PUSH1 0xB9 SHL PUSH1 0x64 DUP3 ADD MSTORE PUSH1 0x84 ADD PUSH2 0x46B JUMP JUMPDEST PUSH1 0x1 PUSH1 0x1 PUSH1 0xA0 SHL SUB DUP3 AND PUSH2 0xE5D JUMPI PUSH1 0x40 MLOAD PUSH3 0x461BCD PUSH1 0xE5 SHL DUP2 MSTORE PUSH1 0x20 PUSH1 0x4 DUP3 ADD MSTORE PUSH1 0x24 DUP1 DUP3 ADD MSTORE PUSH32 0x4552433732313A207472616E7366657220746F20746865207A65726F20616464 PUSH1 0x44 DUP3 ADD MSTORE PUSH4 0x72657373 PUSH1 0xE0 SHL PUSH1 0x64 DUP3 ADD MSTORE PUSH1 0x84 ADD PUSH2 0x46B JUMP JUMPDEST PUSH2 0xE68 PUSH1 0x0 DUP3 PUSH2 0xAA8 JUMP JUMPDEST PUSH1 0x1 PUSH1 0x1 PUSH1 0xA0 SHL SUB DUP4 AND PUSH1 0x0 SWAP1 DUP2 MSTORE PUSH1 0x3 PUSH1 0x20 MSTORE PUSH1 0x40 DUP2 KECCAK256 DUP1 SLOAD PUSH1 0x1 SWAP3 SWAP1 PUSH2 0xE91 SWAP1 DUP5 SWAP1 PUSH2 0x1A8F JUMP JUMPDEST SWAP1 SWAP2 SSTORE POP POP PUSH1 0x1 PUSH1 0x1 PUSH1 0xA0 SHL SUB DUP3 AND PUSH1 0x0 SWAP1 DUP2 MSTORE PUSH1 0x3 PUSH1 0x20 MSTORE PUSH1 0x40 DUP2 KECCAK256 DUP1 SLOAD PUSH1 0x1 SWAP3 SWAP1 PUSH2 0xEBF SWAP1 DUP5 SWAP1 PUSH2 0x1A63 JUMP JUMPDEST SWAP1 SWAP2 SSTORE POP POP PUSH1 0x0 DUP2 DUP2 MSTORE PUSH1 0x2 PUSH1 0x20 MSTORE PUSH1 0x40 DUP1 DUP3 KECCAK256 DUP1 SLOAD PUSH1 0x1 PUSH1 0x1 PUSH1 0xA0 SHL SUB NOT AND PUSH1 0x1 PUSH1 0x1 PUSH1 0xA0 SHL SUB DUP7 DUP2 AND SWAP2 DUP3 OR SWAP1 SWAP3 SSTORE SWAP2 MLOAD DUP5 SWAP4 SWAP2 DUP8 AND SWAP2 PUSH32 0xDDF252AD1BE2C89B69C2B068FC378DAA952BA7F163C4A11628F55A4DF523B3EF SWAP2 LOG4 POP POP POP JUMP JUMPDEST PUSH1 0x1 PUSH1 0x1 PUSH1 0xA0 SHL SUB DUP3 AND PUSH2 0xF76 JUMPI PUSH1 0x40 MLOAD PUSH3 0x461BCD PUSH1 0xE5 SHL DUP2 MSTORE PUSH1 0x20 PUSH1 0x4 DUP3 ADD DUP2 SWAP1 MSTORE PUSH1 0x24 DUP3 ADD MSTORE PUSH32 0x4552433732313A206D696E7420746F20746865207A65726F2061646472657373 PUSH1 0x44 DUP3 ADD MSTORE PUSH1 0x64 ADD PUSH2 0x46B JUMP JUMPDEST PUSH2 0xF7F DUP2 PUSH2 0xA8B JUMP JUMPDEST ISZERO PUSH2 0xFCC JUMPI PUSH1 0x40 MLOAD PUSH3 0x461BCD PUSH1 0xE5 SHL DUP2 MSTORE PUSH1 0x20 PUSH1 0x4 DUP3 ADD MSTORE PUSH1 0x1C PUSH1 0x24 DUP3 ADD MSTORE PUSH32 0x4552433732313A20746F6B656E20616C7265616479206D696E74656400000000 PUSH1 0x44 DUP3 ADD MSTORE PUSH1 0x64 ADD PUSH2 0x46B JUMP JUMPDEST PUSH1 0x1 PUSH1 0x1 PUSH1 0xA0 SHL SUB DUP3 AND PUSH1 0x0 SWAP1 DUP2 MSTORE PUSH1 0x3 PUSH1 0x20 MSTORE PUSH1 0x40 DUP2 KECCAK256 DUP1 SLOAD PUSH1 0x1 SWAP3 SWAP1 PUSH2 0xFF5 SWAP1 DUP5 SWAP1 PUSH2 0x1A63 JUMP JUMPDEST SWAP1 SWAP2 SSTORE POP POP PUSH1 0x0 DUP2 DUP2 MSTORE PUSH1 0x2 PUSH1 0x20 MSTORE PUSH1 0x40 DUP1 DUP3 KECCAK256 DUP1 SLOAD PUSH1 0x1 PUSH1 0x1 PUSH1 0xA0 SHL SUB NOT AND PUSH1 0x1 PUSH1 0x1 PUSH1 0xA0 SHL SUB DUP7 AND SWAP1 DUP2 OR SWAP1 SWAP2 SSTORE SWAP1 MLOAD DUP4 SWAP3 SWAP1 PUSH32 0xDDF252AD1BE2C89B69C2B068FC378DAA952BA7F163C4A11628F55A4DF523B3EF SWAP1 DUP3 SWAP1 LOG4 POP POP JUMP JUMPDEST PUSH2 0x105C DUP3 PUSH2 0xA8B JUMP JUMPDEST PUSH2 0x10BF JUMPI PUSH1 0x40 MLOAD PUSH3 0x461BCD PUSH1 0xE5 SHL DUP2 MSTORE PUSH1 0x20 PUSH1 0x4 DUP3 ADD MSTORE PUSH1 0x2E PUSH1 0x24 DUP3 ADD MSTORE PUSH32 0x45524337323155524953746F726167653A2055524920736574206F66206E6F6E PUSH1 0x44 DUP3 ADD MSTORE PUSH14 0x32BC34B9BA32B73A103A37B5B2B7 PUSH1 0x91 SHL PUSH1 0x64 DUP3 ADD MSTORE PUSH1 0x84 ADD PUSH2 0x46B JUMP JUMPDEST PUSH1 0x0 DUP3 DUP2 MSTORE PUSH1 0x6 PUSH1 0x20 SWAP1 DUP2 MSTORE PUSH1 0x40 SWAP1 SWAP2 KECCAK256 DUP3 MLOAD PUSH2 0x5A1 SWAP3 DUP5 ADD SWAP1 PUSH2 0x1500 JUMP JUMPDEST DUP2 PUSH1 0x1 PUSH1 0x1 PUSH1 0xA0 SHL SUB AND DUP4 PUSH1 0x1 PUSH1 0x1 PUSH1 0xA0 SHL SUB AND EQ ISZERO PUSH2 0x1140 JUMPI PUSH1 0x40 MLOAD PUSH3 0x461BCD PUSH1 0xE5 SHL DUP2 MSTORE PUSH1 0x20 PUSH1 0x4 DUP3 ADD MSTORE PUSH1 0x19 PUSH1 0x24 DUP3 ADD MSTORE PUSH32 0x4552433732313A20617070726F766520746F2063616C6C657200000000000000 PUSH1 0x44 DUP3 ADD MSTORE PUSH1 0x64 ADD PUSH2 0x46B JUMP JUMPDEST PUSH1 0x1 PUSH1 0x1 PUSH1 0xA0 SHL SUB DUP4 DUP2 AND PUSH1 0x0 DUP2 DUP2 MSTORE PUSH1 0x5 PUSH1 0x20 SWAP1 DUP2 MSTORE PUSH1 0x40 DUP1 DUP4 KECCAK256 SWAP5 DUP8 AND DUP1 DUP5 MSTORE SWAP5 DUP3 MSTORE SWAP2 DUP3 SWAP1 KECCAK256 DUP1 SLOAD PUSH1 0xFF NOT AND DUP7 ISZERO ISZERO SWAP1 DUP2 OR SWAP1 SWAP2 SSTORE SWAP2 MLOAD SWAP2 DUP3 MSTORE PUSH32 0x17307EAB39AB6107E8899845AD3D59BD9653F200F220920489CA2B5937696C31 SWAP2 ADD PUSH1 0x40 MLOAD DUP1 SWAP2 SUB SWAP1 LOG3 POP POP POP JUMP JUMPDEST PUSH2 0x11B8 DUP5 DUP5 DUP5 PUSH2 0xD80 JUMP JUMPDEST PUSH2 0x11C4 DUP5 DUP5 DUP5 DUP5 PUSH2 0x12F5 JUMP JUMPDEST PUSH2 0x654 JUMPI PUSH1 0x40 MLOAD PUSH3 0x461BCD PUSH1 0xE5 SHL DUP2 MSTORE PUSH1 0x4 ADD PUSH2 0x46B SWAP1 PUSH2 0x19A7 JUMP JUMPDEST PUSH1 0x60 PUSH2 0x11EB DUP3 PUSH2 0xA8B JUMP JUMPDEST PUSH2 0x124F JUMPI PUSH1 0x40 MLOAD PUSH3 0x461BCD PUSH1 0xE5 SHL DUP2 MSTORE PUSH1 0x20 PUSH1 0x4 DUP3 ADD MSTORE PUSH1 0x2F PUSH1 0x24 DUP3 ADD MSTORE PUSH32 0x4552433732314D657461646174613A2055524920717565727920666F72206E6F PUSH1 0x44 DUP3 ADD MSTORE PUSH15 0x3732BC34B9BA32B73A103A37B5B2B7 PUSH1 0x89 SHL PUSH1 0x64 DUP3 ADD MSTORE PUSH1 0x84 ADD PUSH2 0x46B JUMP JUMPDEST PUSH1 0x0 PUSH2 0x1266 PUSH1 0x40 DUP1 MLOAD PUSH1 0x20 DUP2 ADD SWAP1 SWAP2 MSTORE PUSH1 0x0 DUP2 MSTORE SWAP1 JUMP JUMPDEST SWAP1 POP PUSH1 0x0 DUP2 MLOAD GT PUSH2 0x1286 JUMPI PUSH1 0x40 MLOAD DUP1 PUSH1 0x20 ADD PUSH1 0x40 MSTORE DUP1 PUSH1 0x0 DUP2 MSTORE POP PUSH2 0x12B1 JUMP JUMPDEST DUP1 PUSH2 0x1290 DUP5 PUSH2 0x1402 JUMP JUMPDEST PUSH1 0x40 MLOAD PUSH1 0x20 ADD PUSH2 0x12A1 SWAP3 SWAP2 SWAP1 PUSH2 0x1915 JUMP JUMPDEST PUSH1 0x40 MLOAD PUSH1 0x20 DUP2 DUP4 SUB SUB DUP2 MSTORE SWAP1 PUSH1 0x40 MSTORE JUMPDEST SWAP4 SWAP3 POP POP POP JUMP JUMPDEST PUSH32 0x3FA96D7B6BCBFE71EF171666D84DB3CF52FA2D1C8AFDB1CC8E486177F208B7DF DUP3 DUP3 PUSH1 0x40 MLOAD PUSH2 0x12E9 SWAP3 SWAP2 SWAP1 PUSH2 0x1A4A JUMP JUMPDEST PUSH1 0x40 MLOAD DUP1 SWAP2 SUB SWAP1 LOG1 POP POP JUMP JUMPDEST PUSH1 0x0 PUSH1 0x1 PUSH1 0x1 PUSH1 0xA0 SHL SUB DUP5 AND EXTCODESIZE ISZERO PUSH2 0x13F7 JUMPI PUSH1 0x40 MLOAD PUSH4 0xA85BD01 PUSH1 0xE1 SHL DUP2 MSTORE PUSH1 0x1 PUSH1 0x1 PUSH1 0xA0 SHL SUB DUP6 AND SWAP1 PUSH4 0x150B7A02 SWAP1 PUSH2 0x1339 SWAP1 CALLER SWAP1 DUP10 SWAP1 DUP9 SWAP1 DUP9 SWAP1 PUSH1 0x4 ADD PUSH2 0x1944 JUMP JUMPDEST PUSH1 0x20 PUSH1 0x40 MLOAD DUP1 DUP4 SUB DUP2 PUSH1 0x0 DUP8 DUP1 EXTCODESIZE ISZERO DUP1 ISZERO PUSH2 0x1353 JUMPI PUSH1 0x0 DUP1 REVERT JUMPDEST POP GAS CALL SWAP3 POP POP POP DUP1 ISZERO PUSH2 0x1383 JUMPI POP PUSH1 0x40 DUP1 MLOAD PUSH1 0x1F RETURNDATASIZE SWAP1 DUP2 ADD PUSH1 0x1F NOT AND DUP3 ADD SWAP1 SWAP3 MSTORE PUSH2 0x1380 SWAP2 DUP2 ADD SWAP1 PUSH2 0x17A2 JUMP JUMPDEST PUSH1 0x1 JUMPDEST PUSH2 0x13DD JUMPI RETURNDATASIZE DUP1 DUP1 ISZERO PUSH2 0x13B1 JUMPI PUSH1 0x40 MLOAD SWAP2 POP PUSH1 0x1F NOT PUSH1 0x3F RETURNDATASIZE ADD AND DUP3 ADD PUSH1 0x40 MSTORE RETURNDATASIZE DUP3 MSTORE RETURNDATASIZE PUSH1 0x0 PUSH1 0x20 DUP5 ADD RETURNDATACOPY PUSH2 0x13B6 JUMP JUMPDEST PUSH1 0x60 SWAP2 POP JUMPDEST POP DUP1 MLOAD PUSH2 0x13D5 JUMPI PUSH1 0x40 MLOAD PUSH3 0x461BCD PUSH1 0xE5 SHL DUP2 MSTORE PUSH1 0x4 ADD PUSH2 0x46B SWAP1 PUSH2 0x19A7 JUMP JUMPDEST DUP1 MLOAD DUP2 PUSH1 0x20 ADD REVERT JUMPDEST PUSH1 0x1 PUSH1 0x1 PUSH1 0xE0 SHL SUB NOT AND PUSH4 0xA85BD01 PUSH1 0xE1 SHL EQ SWAP1 POP PUSH2 0x9F4 JUMP JUMPDEST POP PUSH1 0x1 SWAP5 SWAP4 POP POP POP POP JUMP JUMPDEST PUSH1 0x60 DUP2 PUSH2 0x1426 JUMPI POP POP PUSH1 0x40 DUP1 MLOAD DUP1 DUP3 ADD SWAP1 SWAP2 MSTORE PUSH1 0x1 DUP2 MSTORE PUSH1 0x3 PUSH1 0xFC SHL PUSH1 0x20 DUP3 ADD MSTORE SWAP1 JUMP JUMPDEST DUP2 PUSH1 0x0 JUMPDEST DUP2 ISZERO PUSH2 0x1450 JUMPI DUP1 PUSH2 0x143A DUP2 PUSH2 0x1B0D JUMP JUMPDEST SWAP2 POP PUSH2 0x1449 SWAP1 POP PUSH1 0xA DUP4 PUSH2 0x1A7B JUMP JUMPDEST SWAP2 POP PUSH2 0x142A JUMP JUMPDEST PUSH1 0x0 DUP2 PUSH8 0xFFFFFFFFFFFFFFFF DUP2 GT ISZERO PUSH2 0x146B JUMPI PUSH2 0x146B PUSH2 0x1B7E JUMP JUMPDEST PUSH1 0x40 MLOAD SWAP1 DUP1 DUP3 MSTORE DUP1 PUSH1 0x1F ADD PUSH1 0x1F NOT AND PUSH1 0x20 ADD DUP3 ADD PUSH1 0x40 MSTORE DUP1 ISZERO PUSH2 0x1495 JUMPI PUSH1 0x20 DUP3 ADD DUP2 DUP1 CALLDATASIZE DUP4 CALLDATACOPY ADD SWAP1 POP JUMPDEST POP SWAP1 POP JUMPDEST DUP5 ISZERO PUSH2 0x9F4 JUMPI PUSH2 0x14AA PUSH1 0x1 DUP4 PUSH2 0x1A8F JUMP JUMPDEST SWAP2 POP PUSH2 0x14B7 PUSH1 0xA DUP7 PUSH2 0x1B28 JUMP JUMPDEST PUSH2 0x14C2 SWAP1 PUSH1 0x30 PUSH2 0x1A63 JUMP JUMPDEST PUSH1 0xF8 SHL DUP2 DUP4 DUP2 MLOAD DUP2 LT PUSH2 0x14D7 JUMPI PUSH2 0x14D7 PUSH2 0x1B68 JUMP JUMPDEST PUSH1 0x20 ADD ADD SWAP1 PUSH1 0x1 PUSH1 0x1 PUSH1 0xF8 SHL SUB NOT AND SWAP1 DUP2 PUSH1 0x0 BYTE SWAP1 MSTORE8 POP PUSH2 0x14F9 PUSH1 0xA DUP7 PUSH2 0x1A7B JUMP JUMPDEST SWAP5 POP PUSH2 0x1499 JUMP JUMPDEST DUP3 DUP1 SLOAD PUSH2 0x150C SWAP1 PUSH2 0x1AD2 JUMP JUMPDEST SWAP1 PUSH1 0x0 MSTORE PUSH1 0x20 PUSH1 0x0 KECCAK256 SWAP1 PUSH1 0x1F ADD PUSH1 0x20 SWAP1 DIV DUP2 ADD SWAP3 DUP3 PUSH2 0x152E JUMPI PUSH1 0x0 DUP6 SSTORE PUSH2 0x1574 JUMP JUMPDEST DUP3 PUSH1 0x1F LT PUSH2 0x1547 JUMPI DUP1 MLOAD PUSH1 0xFF NOT AND DUP4 DUP1 ADD OR DUP6 SSTORE PUSH2 0x1574 JUMP JUMPDEST DUP3 DUP1 ADD PUSH1 0x1 ADD DUP6 SSTORE DUP3 ISZERO PUSH2 0x1574 JUMPI SWAP2 DUP3 ADD JUMPDEST DUP3 DUP2 GT ISZERO PUSH2 0x1574 JUMPI DUP3 MLOAD DUP3 SSTORE SWAP2 PUSH1 0x20 ADD SWAP2 SWAP1 PUSH1 0x1 ADD SWAP1 PUSH2 0x1559 JUMP JUMPDEST POP PUSH2 0x1580 SWAP3 SWAP2 POP PUSH2 0x1584 JUMP JUMPDEST POP SWAP1 JUMP JUMPDEST JUMPDEST DUP1 DUP3 GT ISZERO PUSH2 0x1580 JUMPI PUSH1 0x0 DUP2 SSTORE PUSH1 0x1 ADD PUSH2 0x1585 JUMP JUMPDEST PUSH1 0x0 PUSH8 0xFFFFFFFFFFFFFFFF DUP1 DUP5 GT ISZERO PUSH2 0x15B4 JUMPI PUSH2 0x15B4 PUSH2 0x1B7E JUMP JUMPDEST PUSH1 0x40 MLOAD PUSH1 0x1F DUP6 ADD PUSH1 0x1F NOT SWAP1 DUP2 AND PUSH1 0x3F ADD AND DUP2 ADD SWAP1 DUP3 DUP3 GT DUP2 DUP4 LT OR ISZERO PUSH2 0x15DC JUMPI PUSH2 0x15DC PUSH2 0x1B7E JUMP JUMPDEST DUP2 PUSH1 0x40 MSTORE DUP1 SWAP4 POP DUP6 DUP2 MSTORE DUP7 DUP7 DUP7 ADD GT ISZERO PUSH2 0x15F5 JUMPI PUSH1 0x0 DUP1 REVERT JUMPDEST DUP6 DUP6 PUSH1 0x20 DUP4 ADD CALLDATACOPY PUSH1 0x0 PUSH1 0x20 DUP8 DUP4 ADD ADD MSTORE POP POP POP SWAP4 SWAP3 POP POP POP JUMP JUMPDEST PUSH1 0x0 PUSH1 0x20 DUP3 DUP5 SUB SLT ISZERO PUSH2 0x1621 JUMPI PUSH1 0x0 DUP1 REVERT JUMPDEST DUP2 CALLDATALOAD PUSH2 0x12B1 DUP2 PUSH2 0x1B94 JUMP JUMPDEST PUSH1 0x0 DUP1 PUSH1 0x40 DUP4 DUP6 SUB SLT ISZERO PUSH2 0x163F JUMPI PUSH1 0x0 DUP1 REVERT JUMPDEST DUP3 CALLDATALOAD PUSH2 0x164A DUP2 PUSH2 0x1B94 JUMP JUMPDEST SWAP2 POP PUSH1 0x20 DUP4 ADD CALLDATALOAD PUSH2 0x165A DUP2 PUSH2 0x1B94 JUMP JUMPDEST DUP1 SWAP2 POP POP SWAP3 POP SWAP3 SWAP1 POP JUMP JUMPDEST PUSH1 0x0 DUP1 PUSH1 0x0 PUSH1 0x60 DUP5 DUP7 SUB SLT ISZERO PUSH2 0x167A JUMPI PUSH1 0x0 DUP1 REVERT JUMPDEST DUP4 CALLDATALOAD PUSH2 0x1685 DUP2 PUSH2 0x1B94 JUMP JUMPDEST SWAP3 POP PUSH1 0x20 DUP5 ADD CALLDATALOAD PUSH2 0x1695 DUP2 PUSH2 0x1B94 JUMP JUMPDEST SWAP3 SWAP6 SWAP3 SWAP5 POP POP POP PUSH1 0x40 SWAP2 SWAP1 SWAP2 ADD CALLDATALOAD SWAP1 JUMP JUMPDEST PUSH1 0x0 DUP1 PUSH1 0x0 DUP1 PUSH1 0x80 DUP6 DUP8 SUB SLT ISZERO PUSH2 0x16BC JUMPI PUSH1 0x0 DUP1 REVERT JUMPDEST DUP5 CALLDATALOAD PUSH2 0x16C7 DUP2 PUSH2 0x1B94 JUMP JUMPDEST SWAP4 POP PUSH1 0x20 DUP6 ADD CALLDATALOAD PUSH2 0x16D7 DUP2 PUSH2 0x1B94 JUMP JUMPDEST SWAP3 POP PUSH1 0x40 DUP6 ADD CALLDATALOAD SWAP2 POP PUSH1 0x60 DUP6 ADD CALLDATALOAD PUSH8 0xFFFFFFFFFFFFFFFF DUP2 GT ISZERO PUSH2 0x16FA JUMPI PUSH1 0x0 DUP1 REVERT JUMPDEST DUP6 ADD PUSH1 0x1F DUP2 ADD DUP8 SGT PUSH2 0x170B JUMPI PUSH1 0x0 DUP1 REVERT JUMPDEST PUSH2 0x171A DUP8 DUP3 CALLDATALOAD PUSH1 0x20 DUP5 ADD PUSH2 0x1599 JUMP JUMPDEST SWAP2 POP POP SWAP3 SWAP6 SWAP2 SWAP5 POP SWAP3 POP JUMP JUMPDEST PUSH1 0x0 DUP1 PUSH1 0x40 DUP4 DUP6 SUB SLT ISZERO PUSH2 0x1739 JUMPI PUSH1 0x0 DUP1 REVERT JUMPDEST DUP3 CALLDATALOAD PUSH2 0x1744 DUP2 PUSH2 0x1B94 JUMP JUMPDEST SWAP2 POP PUSH1 0x20 DUP4 ADD CALLDATALOAD DUP1 ISZERO ISZERO DUP2 EQ PUSH2 0x165A JUMPI PUSH1 0x0 DUP1 REVERT JUMPDEST PUSH1 0x0 DUP1 PUSH1 0x40 DUP4 DUP6 SUB SLT ISZERO PUSH2 0x176C JUMPI PUSH1 0x0 DUP1 REVERT JUMPDEST DUP3 CALLDATALOAD PUSH2 0x1777 DUP2 PUSH2 0x1B94 JUMP JUMPDEST SWAP5 PUSH1 0x20 SWAP4 SWAP1 SWAP4 ADD CALLDATALOAD SWAP4 POP POP POP JUMP JUMPDEST PUSH1 0x0 PUSH1 0x20 DUP3 DUP5 SUB SLT ISZERO PUSH2 0x1797 JUMPI PUSH1 0x0 DUP1 REVERT JUMPDEST DUP2 CALLDATALOAD PUSH2 0x12B1 DUP2 PUSH2 0x1BAC JUMP JUMPDEST PUSH1 0x0 PUSH1 0x20 DUP3 DUP5 SUB SLT ISZERO PUSH2 0x17B4 JUMPI PUSH1 0x0 DUP1 REVERT JUMPDEST DUP2 MLOAD PUSH2 0x12B1 DUP2 PUSH2 0x1BAC JUMP JUMPDEST PUSH1 0x0 PUSH1 0x20 DUP3 DUP5 SUB SLT ISZERO PUSH2 0x17D1 JUMPI PUSH1 0x0 DUP1 REVERT JUMPDEST DUP2 CALLDATALOAD PUSH8 0xFFFFFFFFFFFFFFFF DUP2 GT ISZERO PUSH2 0x17E8 JUMPI PUSH1 0x0 DUP1 REVERT JUMPDEST DUP3 ADD PUSH1 0x1F DUP2 ADD DUP5 SGT PUSH2 0x17F9 JUMPI PUSH1 0x0 DUP1 REVERT JUMPDEST PUSH2 0x9F4 DUP5 DUP3 CALLDATALOAD PUSH1 0x20 DUP5 ADD PUSH2 0x1599 JUMP JUMPDEST PUSH1 0x0 PUSH1 0x20 DUP3 DUP5 SUB SLT ISZERO PUSH2 0x181A JUMPI PUSH1 0x0 DUP1 REVERT JUMPDEST POP CALLDATALOAD SWAP2 SWAP1 POP JUMP JUMPDEST PUSH1 0x0 DUP1 PUSH1 0x0 PUSH1 0x60 DUP5 DUP7 SUB SLT ISZERO PUSH2 0x1836 JUMPI PUSH1 0x0 DUP1 REVERT JUMPDEST DUP4 CALLDATALOAD SWAP3 POP PUSH1 0x20 DUP5 ADD CALLDATALOAD PUSH2 0x1848 DUP2 PUSH2 0x1B94 JUMP JUMPDEST SWAP2 POP PUSH1 0x40 DUP5 ADD CALLDATALOAD PUSH1 0x1 PUSH1 0x1 PUSH1 0x60 SHL SUB DUP2 AND DUP2 EQ PUSH2 0x1864 JUMPI PUSH1 0x0 DUP1 REVERT JUMPDEST DUP1 SWAP2 POP POP SWAP3 POP SWAP3 POP SWAP3 JUMP JUMPDEST PUSH1 0x0 DUP1 PUSH1 0x40 DUP4 DUP6 SUB SLT ISZERO PUSH2 0x1882 JUMPI PUSH1 0x0 DUP1 REVERT JUMPDEST POP POP DUP1 CALLDATALOAD SWAP3 PUSH1 0x20 SWAP1 SWAP2 ADD CALLDATALOAD SWAP2 POP JUMP JUMPDEST PUSH1 0x0 DUP2 MLOAD DUP1 DUP5 MSTORE PUSH1 0x20 DUP1 DUP6 ADD SWAP5 POP DUP1 DUP5 ADD PUSH1 0x0 JUMPDEST DUP4 DUP2 LT ISZERO PUSH2 0x18DE JUMPI DUP2 MLOAD DUP1 MLOAD PUSH1 0x1 PUSH1 0x1 PUSH1 0xA0 SHL SUB AND DUP9 MSTORE DUP4 ADD MLOAD PUSH1 0x1 PUSH1 0x1 PUSH1 0x60 SHL SUB AND DUP4 DUP9 ADD MSTORE PUSH1 0x40 SWAP1 SWAP7 ADD SWAP6 SWAP1 DUP3 ADD SWAP1 PUSH1 0x1 ADD PUSH2 0x18A5 JUMP JUMPDEST POP SWAP5 SWAP6 SWAP5 POP POP POP POP POP JUMP JUMPDEST PUSH1 0x0 DUP2 MLOAD DUP1 DUP5 MSTORE PUSH2 0x1901 DUP2 PUSH1 0x20 DUP7 ADD PUSH1 0x20 DUP7 ADD PUSH2 0x1AA6 JUMP JUMPDEST PUSH1 0x1F ADD PUSH1 0x1F NOT AND SWAP3 SWAP1 SWAP3 ADD PUSH1 0x20 ADD SWAP3 SWAP2 POP POP JUMP JUMPDEST PUSH1 0x0 DUP4 MLOAD PUSH2 0x1927 DUP2 DUP5 PUSH1 0x20 DUP9 ADD PUSH2 0x1AA6 JUMP JUMPDEST DUP4 MLOAD SWAP1 DUP4 ADD SWAP1 PUSH2 0x193B DUP2 DUP4 PUSH1 0x20 DUP9 ADD PUSH2 0x1AA6 JUMP JUMPDEST ADD SWAP5 SWAP4 POP POP POP POP JUMP JUMPDEST PUSH1 0x1 PUSH1 0x1 PUSH1 0xA0 SHL SUB DUP6 DUP2 AND DUP3 MSTORE DUP5 AND PUSH1 0x20 DUP3 ADD MSTORE PUSH1 0x40 DUP2 ADD DUP4 SWAP1 MSTORE PUSH1 0x80 PUSH1 0x60 DUP3 ADD DUP2 SWAP1 MSTORE PUSH1 0x0 SWAP1 PUSH2 0x1977 SWAP1 DUP4 ADD DUP5 PUSH2 0x18E9 JUMP JUMPDEST SWAP7 SWAP6 POP POP POP POP POP POP JUMP JUMPDEST PUSH1 0x20 DUP2 MSTORE PUSH1 0x0 PUSH2 0x12B1 PUSH1 0x20 DUP4 ADD DUP5 PUSH2 0x1891 JUMP JUMPDEST PUSH1 0x20 DUP2 MSTORE PUSH1 0x0 PUSH2 0x12B1 PUSH1 0x20 DUP4 ADD DUP5 PUSH2 0x18E9 JUMP JUMPDEST PUSH1 0x20 DUP1 DUP3 MSTORE PUSH1 0x32 SWAP1 DUP3 ADD MSTORE PUSH32 0x4552433732313A207472616E7366657220746F206E6F6E204552433732315265 PUSH1 0x40 DUP3 ADD MSTORE PUSH18 0x31B2B4BB32B91034B6B83632B6B2B73A32B9 PUSH1 0x71 SHL PUSH1 0x60 DUP3 ADD MSTORE PUSH1 0x80 ADD SWAP1 JUMP JUMPDEST PUSH1 0x20 DUP1 DUP3 MSTORE PUSH1 0x31 SWAP1 DUP3 ADD MSTORE PUSH32 0x4552433732313A207472616E736665722063616C6C6572206973206E6F74206F PUSH1 0x40 DUP3 ADD MSTORE PUSH17 0x1DDB995C881B9BDC88185C1C1C9BDD9959 PUSH1 0x7A SHL PUSH1 0x60 DUP3 ADD MSTORE PUSH1 0x80 ADD SWAP1 JUMP JUMPDEST DUP3 DUP2 MSTORE PUSH1 0x40 PUSH1 0x20 DUP3 ADD MSTORE PUSH1 0x0 PUSH2 0x9F4 PUSH1 0x40 DUP4 ADD DUP5 PUSH2 0x1891 JUMP JUMPDEST PUSH1 0x0 DUP3 NOT DUP3 GT ISZERO PUSH2 0x1A76 JUMPI PUSH2 0x1A76 PUSH2 0x1B3C JUMP JUMPDEST POP ADD SWAP1 JUMP JUMPDEST PUSH1 0x0 DUP3 PUSH2 0x1A8A JUMPI PUSH2 0x1A8A PUSH2 0x1B52 JUMP JUMPDEST POP DIV SWAP1 JUMP JUMPDEST PUSH1 0x0 DUP3 DUP3 LT ISZERO PUSH2 0x1AA1 JUMPI PUSH2 0x1AA1 PUSH2 0x1B3C JUMP JUMPDEST POP SUB SWAP1 JUMP JUMPDEST PUSH1 0x0 JUMPDEST DUP4 DUP2 LT ISZERO PUSH2 0x1AC1 JUMPI DUP2 DUP2 ADD MLOAD DUP4 DUP3 ADD MSTORE PUSH1 0x20 ADD PUSH2 0x1AA9 JUMP JUMPDEST DUP4 DUP2 GT ISZERO PUSH2 0x654 JUMPI POP POP PUSH1 0x0 SWAP2 ADD MSTORE JUMP JUMPDEST PUSH1 0x1 DUP2 DUP2 SHR SWAP1 DUP3 AND DUP1 PUSH2 0x1AE6 JUMPI PUSH1 0x7F DUP3 AND SWAP2 POP JUMPDEST PUSH1 0x20 DUP3 LT DUP2 EQ ISZERO PUSH2 0x1B07 JUMPI PUSH4 0x4E487B71 PUSH1 0xE0 SHL PUSH1 0x0 MSTORE PUSH1 0x22 PUSH1 0x4 MSTORE PUSH1 0x24 PUSH1 0x0 REVERT JUMPDEST POP SWAP2 SWAP1 POP JUMP JUMPDEST PUSH1 0x0 PUSH1 0x0 NOT DUP3 EQ ISZERO PUSH2 0x1B21 JUMPI PUSH2 0x1B21 PUSH2 0x1B3C JUMP JUMPDEST POP PUSH1 0x1 ADD SWAP1 JUMP JUMPDEST PUSH1 0x0 DUP3 PUSH2 0x1B37 JUMPI PUSH2 0x1B37 PUSH2 0x1B52 JUMP JUMPDEST POP MOD SWAP1 JUMP JUMPDEST PUSH4 0x4E487B71 PUSH1 0xE0 SHL PUSH1 0x0 MSTORE PUSH1 0x11 PUSH1 0x4 MSTORE PUSH1 0x24 PUSH1 0x0 REVERT JUMPDEST PUSH4 0x4E487B71 PUSH1 0xE0 SHL PUSH1 0x0 MSTORE PUSH1 0x12 PUSH1 0x4 MSTORE PUSH1 0x24 PUSH1 0x0 REVERT JUMPDEST PUSH4 0x4E487B71 PUSH1 0xE0 SHL PUSH1 0x0 MSTORE PUSH1 0x32 PUSH1 0x4 MSTORE PUSH1 0x24 PUSH1 0x0 REVERT JUMPDEST PUSH4 0x4E487B71 PUSH1 0xE0 SHL PUSH1 0x0 MSTORE PUSH1 0x41 PUSH1 0x4 MSTORE PUSH1 0x24 PUSH1 0x0 REVERT JUMPDEST PUSH1 0x1 PUSH1 0x1 PUSH1 0xA0 SHL SUB DUP2 AND DUP2 EQ PUSH2 0x1BA9 JUMPI PUSH1 0x0 DUP1 REVERT JUMPDEST POP JUMP JUMPDEST PUSH1 0x1 PUSH1 0x1 PUSH1 0xE0 SHL SUB NOT DUP2 AND DUP2 EQ PUSH2 0x1BA9 JUMPI PUSH1 0x0 DUP1 REVERT INVALID LOG2 PUSH5 0x6970667358 0x22 SLT KECCAK256 0xCC 0xE1 0xBF LOG2 SWAP2 0x2C ORIGIN GAS 0xD DUP15 DUP10 0xF9 0xB5 SUB DUP1 DUP16 0xDB PUSH17 0x83FC984FB17B4E9029CA9375847F64736F PUSH13 0x63430008070033000000000000 "
		},
		"gasEstimates": {
			"creation": {
				"codeDepositCost": "1432000",
				"executionCost": "infinite",
				"totalCost": "infinite"
			},
			"external": {
				"approve(address,uint256)": "infinite",
				"balanceOf(address)": "2628",
				"createToken(string)": "infinite",
				"getApproved(uint256)": "4821",
				"getRaribleV2Royalties(uint256)": "infinite",
				"isApprovedForAll(address,address)": "infinite",
				"name()": "infinite",
				"ownerOf(uint256)": "2579",
				"royalties(uint256,uint256)": "4849",
				"safeTransferFrom(address,address,uint256)": "infinite",
				"safeTransferFrom(address,address,uint256,bytes)": "infinite",
				"setApprovalForAll(address,bool)": "26702",
				"setRoyalties(uint256,address,uint96)": "infinite",
				"setapprove(address)": "24599",
				"supportsInterface(bytes4)": "534",
				"symbol()": "infinite",
				"tokenURI(uint256)": "infinite",
				"transferFrom(address,address,uint256)": "infinite"
			}
		},
		"methodIdentifiers": {
			"approve(address,uint256)": "095ea7b3",
			"balanceOf(address)": "70a08231",
			"createToken(string)": "45576f94",
			"getApproved(uint256)": "081812fc",
			"getRaribleV2Royalties(uint256)": "cad96cca",
			"isApprovedForAll(address,address)": "e985e9c5",
			"name()": "06fdde03",
			"ownerOf(uint256)": "6352211e",
			"royalties(uint256,uint256)": "8924af74",
			"safeTransferFrom(address,address,uint256)": "42842e0e",
			"safeTransferFrom(address,address,uint256,bytes)": "b88d4fde",
			"setApprovalForAll(address,bool)": "a22cb465",
			"setRoyalties(uint256,address,uint96)": "143094db",
			"setapprove(address)": "05dfae8b",
			"supportsInterface(bytes4)": "01ffc9a7",
			"symbol()": "95d89b41",
			"tokenURI(uint256)": "c87b56dd",
			"transferFrom(address,address,uint256)": "23b872dd"
		}
	},
	"abi": [
		{
			"inputs": [],
			"stateMutability": "nonpayable",
			"type": "constructor"
		},
		{
			"anonymous": false,
			"inputs": [
				{
					"indexed": true,
					"internalType": "address",
					"name": "owner",
					"type": "address"
				},
				{
					"indexed": true,
					"internalType": "address",
					"name": "approved",
					"type": "address"
				},
				{
					"indexed": true,
					"internalType": "uint256",
					"name": "tokenId",
					"type": "uint256"
				}
			],
			"name": "Approval",
			"type": "event"
		},
		{
			"anonymous": false,
			"inputs": [
				{
					"indexed": true,
					"internalType": "address",
					"name": "owner",
					"type": "address"
				},
				{
					"indexed": true,
					"internalType": "address",
					"name": "operator",
					"type": "address"
				},
				{
					"indexed": false,
					"internalType": "bool",
					"name": "approved",
					"type": "bool"
				}
			],
			"name": "ApprovalForAll",
			"type": "event"
		},
		{
			"anonymous": false,
			"inputs": [
				{
					"indexed": false,
					"internalType": "uint256",
					"name": "tokenId",
					"type": "uint256"
				},
				{
					"components": [
						{
							"internalType": "address payable",
							"name": "account",
							"type": "address"
						},
						{
							"internalType": "uint96",
							"name": "value",
							"type": "uint96"
						}
					],
					"indexed": false,
					"internalType": "struct LibPart.Part[]",
					"name": "royalties",
					"type": "tuple[]"
				}
			],
			"name": "RoyaltiesSet",
			"type": "event"
		},
		{
			"anonymous": false,
			"inputs": [
				{
					"indexed": true,
					"internalType": "address",
					"name": "from",
					"type": "address"
				},
				{
					"indexed": true,
					"internalType": "address",
					"name": "to",
					"type": "address"
				},
				{
					"indexed": true,
					"internalType": "uint256",
					"name": "tokenId",
					"type": "uint256"
				}
			],
			"name": "Transfer",
			"type": "event"
		},
		{
			"inputs": [
				{
					"internalType": "address",
					"name": "to",
					"type": "address"
				},
				{
					"internalType": "uint256",
					"name": "tokenId",
					"type": "uint256"
				}
			],
			"name": "approve",
			"outputs": [],
			"stateMutability": "nonpayable",
			"type": "function"
		},
		{
			"inputs": [
				{
					"internalType": "address",
					"name": "owner",
					"type": "address"
				}
			],
			"name": "balanceOf",
			"outputs": [
				{
					"internalType": "uint256",
					"name": "",
					"type": "uint256"
				}
			],
			"stateMutability": "view",
			"type": "function"
		},
		{
			"inputs": [
				{
					"internalType": "string",
					"name": "tokenURI",
					"type": "string"
				}
			],
			"name": "createToken",
			"outputs": [
				{
					"internalType": "uint256",
					"name": "",
					"type": "uint256"
				}
			],
			"stateMutability": "nonpayable",
			"type": "function"
		},
		{
			"inputs": [
				{
					"internalType": "uint256",
					"name": "tokenId",
					"type": "uint256"
				}
			],
			"name": "getApproved",
			"outputs": [
				{
					"internalType": "address",
					"name": "",
					"type": "address"
				}
			],
			"stateMutability": "view",
			"type": "function"
		},
		{
			"inputs": [
				{
					"internalType": "uint256",
					"name": "id",
					"type": "uint256"
				}
			],
			"name": "getRaribleV2Royalties",
			"outputs": [
				{
					"components": [
						{
							"internalType": "address payable",
							"name": "account",
							"type": "address"
						},
						{
							"internalType": "uint96",
							"name": "value",
							"type": "uint96"
						}
					],
					"internalType": "struct LibPart.Part[]",
					"name": "",
					"type": "tuple[]"
				}
			],
			"stateMutability": "view",
			"type": "function"
		},
		{
			"inputs": [
				{
					"internalType": "address",
					"name": "owner",
					"type": "address"
				},
				{
					"internalType": "address",
					"name": "operator",
					"type": "address"
				}
			],
			"name": "isApprovedForAll",
			"outputs": [
				{
					"internalType": "bool",
					"name": "",
					"type": "bool"
				}
			],
			"stateMutability": "view",
			"type": "function"
		},
		{
			"inputs": [],
			"name": "name",
			"outputs": [
				{
					"internalType": "string",
					"name": "",
					"type": "string"
				}
			],
			"stateMutability": "view",
			"type": "function"
		},
		{
			"inputs": [
				{
					"internalType": "uint256",
					"name": "tokenId",
					"type": "uint256"
				}
			],
			"name": "ownerOf",
			"outputs": [
				{
					"internalType": "address",
					"name": "",
					"type": "address"
				}
			],
			"stateMutability": "view",
			"type": "function"
		},
		{
			"inputs": [
				{
					"internalType": "uint256",
					"name": "",
					"type": "uint256"
				},
				{
					"internalType": "uint256",
					"name": "",
					"type": "uint256"
				}
			],
			"name": "royalties",
			"outputs": [
				{
					"internalType": "address payable",
					"name": "account",
					"type": "address"
				},
				{
					"internalType": "uint96",
					"name": "value",
					"type": "uint96"
				}
			],
			"stateMutability": "view",
			"type": "function"
		},
		{
			"inputs": [
				{
					"internalType": "address",
					"name": "from",
					"type": "address"
				},
				{
					"internalType": "address",
					"name": "to",
					"type": "address"
				},
				{
					"internalType": "uint256",
					"name": "tokenId",
					"type": "uint256"
				}
			],
			"name": "safeTransferFrom",
			"outputs": [],
			"stateMutability": "nonpayable",
			"type": "function"
		},
		{
			"inputs": [
				{
					"internalType": "address",
					"name": "from",
					"type": "address"
				},
				{
					"internalType": "address",
					"name": "to",
					"type": "address"
				},
				{
					"internalType": "uint256",
					"name": "tokenId",
					"type": "uint256"
				},
				{
					"internalType": "bytes",
					"name": "_data",
					"type": "bytes"
				}
			],
			"name": "safeTransferFrom",
			"outputs": [],
			"stateMutability": "nonpayable",
			"type": "function"
		},
		{
			"inputs": [
				{
					"internalType": "address",
					"name": "operator",
					"type": "address"
				},
				{
					"internalType": "bool",
					"name": "approved",
					"type": "bool"
				}
			],
			"name": "setApprovalForAll",
			"outputs": [],
			"stateMutability": "nonpayable",
			"type": "function"
		},
		{
			"inputs": [
				{
					"internalType": "uint256",
					"name": "_tokenId",
					"type": "uint256"
				},
				{
					"internalType": "address payable",
					"name": "_royaltiesReceipientAddress",
					"type": "address"
				},
				{
					"internalType": "uint96",
					"name": "_percentageBasisPoints",
					"type": "uint96"
				}
			],
			"name": "setRoyalties",
			"outputs": [],
			"stateMutability": "nonpayable",
			"type": "function"
		},
		{
			"inputs": [
				{
					"internalType": "address",
					"name": "marketplaceAddress",
					"type": "address"
				}
			],
			"name": "setapprove",
			"outputs": [],
			"stateMutability": "nonpayable",
			"type": "function"
		},
		{
			"inputs": [
				{
					"internalType": "bytes4",
					"name": "interfaceId",
					"type": "bytes4"
				}
			],
			"name": "supportsInterface",
			"outputs": [
				{
					"internalType": "bool",
					"name": "",
					"type": "bool"
				}
			],
			"stateMutability": "view",
			"type": "function"
		},
		{
			"inputs": [],
			"name": "symbol",
			"outputs": [
				{
					"internalType": "string",
					"name": "",
					"type": "string"
				}
			],
			"stateMutability": "view",
			"type": "function"
		},
		{
			"inputs": [
				{
					"internalType": "uint256",
					"name": "tokenId",
					"type": "uint256"
				}
			],
			"name": "tokenURI",
			"outputs": [
				{
					"internalType": "string",
					"name": "",
					"type": "string"
				}
			],
			"stateMutability": "view",
			"type": "function"
		},
		{
			"inputs": [
				{
					"internalType": "address",
					"name": "from",
					"type": "address"
				},
				{
					"internalType": "address",
					"name": "to",
					"type": "address"
				},
				{
					"internalType": "uint256",
					"name": "tokenId",
					"type": "uint256"
				}
			],
			"name": "transferFrom",
			"outputs": [],
			"stateMutability": "nonpayable",
			"type": "function"
		}
	]
}