{
  "_format": "hh-sol-artifact-1",
  "contractName": "NFTMarket",
  "sourceName": "contracts/Market.sol",
  "abi": [
    {
      "inputs": [],
      "stateMutability": "nonpayable",
      "type": "constructor"
    },
    {
      "anonymous": false,
      "inputs": [
        {
          "indexed": true,
          "internalType": "address",
          "name": "owner",
          "type": "address"
        },
        {
          "indexed": true,
          "internalType": "address",
          "name": "approved",
          "type": "address"
        },
        {
          "indexed": true,
          "internalType": "uint256",
          "name": "tokenId",
          "type": "uint256"
        }
      ],
      "name": "Approval",
      "type": "event"
    },
    {
      "anonymous": false,
      "inputs": [
        {
          "indexed": true,
          "internalType": "address",
          "name": "owner",
          "type": "address"
        },
        {
          "indexed": true,
          "internalType": "address",
          "name": "operator",
          "type": "address"
        },
        {
          "indexed": false,
          "internalType": "bool",
          "name": "approved",
          "type": "bool"
        }
      ],
      "name": "ApprovalForAll",
      "type": "event"
    },
    {
      "anonymous": false,
      "inputs": [
        {
          "indexed": false,
          "internalType": "address",
          "name": "tokenAddress",
          "type": "address"
        },
        {
          "indexed": false,
          "internalType": "uint256",
          "name": "tokenId",
          "type": "uint256"
        },
        {
          "indexed": false,
          "internalType": "address",
          "name": "seller",
          "type": "address"
        },
        {
          "indexed": false,
          "internalType": "uint256",
          "name": "minBid",
          "type": "uint256"
        },
        {
          "indexed": false,
          "internalType": "uint256",
          "name": "endDate",
          "type": "uint256"
        }
      ],
      "name": "AuctionCreated",
      "type": "event"
    },
    {
      "anonymous": false,
      "inputs": [
        {
          "indexed": true,
          "internalType": "uint256",
          "name": "itemId",
          "type": "uint256"
        },
        {
          "indexed": true,
          "internalType": "address",
          "name": "nftContract",
          "type": "address"
        },
        {
          "indexed": true,
          "internalType": "uint256",
          "name": "tokenId",
          "type": "uint256"
        },
        {
          "indexed": false,
          "internalType": "address",
          "name": "seller",
          "type": "address"
        },
        {
          "indexed": false,
          "internalType": "address",
          "name": "owner",
          "type": "address"
        },
        {
          "indexed": false,
          "internalType": "uint256",
          "name": "price",
          "type": "uint256"
        },
        {
          "indexed": false,
          "internalType": "bool",
          "name": "sold",
          "type": "bool"
        }
      ],
      "name": "MarketItemCreated",
      "type": "event"
    },
    {
      "anonymous": false,
      "inputs": [
        {
          "indexed": false,
          "internalType": "uint256",
          "name": "tokenId",
          "type": "uint256"
        },
        {
          "components": [
            {
              "internalType": "address payable",
              "name": "account",
              "type": "address"
            },
            {
              "internalType": "uint96",
              "name": "value",
              "type": "uint96"
            }
          ],
          "indexed": false,
          "internalType": "struct LibPart.Part[]",
          "name": "royalties",
          "type": "tuple[]"
        }
      ],
      "name": "RoyaltiesSet",
      "type": "event"
    },
    {
      "anonymous": false,
      "inputs": [
        {
          "indexed": true,
          "internalType": "address",
          "name": "from",
          "type": "address"
        },
        {
          "indexed": true,
          "internalType": "address",
          "name": "to",
          "type": "address"
        },
        {
          "indexed": true,
          "internalType": "uint256",
          "name": "tokenId",
          "type": "uint256"
        }
      ],
      "name": "Transfer",
      "type": "event"
    },
    {
      "inputs": [
        {
          "internalType": "address",
          "name": "to",
          "type": "address"
        },
        {
          "internalType": "uint256",
          "name": "tokenId",
          "type": "uint256"
        }
      ],
      "name": "approve",
      "outputs": [],
      "stateMutability": "nonpayable",
      "type": "function"
    },
    {
      "inputs": [
        {
          "internalType": "address",
          "name": "",
          "type": "address"
        },
        {
          "internalType": "uint256",
          "name": "",
          "type": "uint256"
        }
      ],
      "name": "auctions",
      "outputs": [
        {
          "internalType": "address payable",
          "name": "seller",
          "type": "address"
        },
        {
          "internalType": "uint256",
          "name": "minBid",
          "type": "uint256"
        },
        {
          "internalType": "uint256",
          "name": "endDate",
          "type": "uint256"
        },
        {
          "internalType": "address payable",
          "name": "highestBidAddress",
          "type": "address"
        },
        {
          "internalType": "uint256",
          "name": "highestBidAmount",
          "type": "uint256"
        }
      ],
      "stateMutability": "view",
      "type": "function"
    },
    {
      "inputs": [
        {
          "internalType": "address",
          "name": "owner",
          "type": "address"
        }
      ],
      "name": "balanceOf",
      "outputs": [
        {
          "internalType": "uint256",
          "name": "",
          "type": "uint256"
        }
      ],
      "stateMutability": "view",
      "type": "function"
    },
    {
      "inputs": [
        {
          "internalType": "address",
          "name": "_tokenAddress",
          "type": "address"
        },
        {
          "internalType": "uint256",
          "name": "_tokenId",
          "type": "uint256"
        }
      ],
      "name": "closeBid",
      "outputs": [],
      "stateMutability": "nonpayable",
      "type": "function"
    },
    {
      "inputs": [
        {
          "internalType": "address",
          "name": "_tokenAddress",
          "type": "address"
        },
        {
          "internalType": "uint256",
          "name": "_tokenId",
          "type": "uint256"
        },
        {
          "internalType": "uint256",
          "name": "_minBid",
          "type": "uint256"
        }
      ],
      "name": "createAuction",
      "outputs": [],
      "stateMutability": "nonpayable",
      "type": "function"
    },
    {
      "inputs": [
        {
          "internalType": "address",
          "name": "_tokenAddress",
          "type": "address"
        },
        {
          "internalType": "uint256",
          "name": "_tokenId",
          "type": "uint256"
        }
      ],
      "name": "createBid",
      "outputs": [],
      "stateMutability": "payable",
      "type": "function"
    },
    {
      "inputs": [
        {
          "internalType": "address",
          "name": "nftContract",
          "type": "address"
        },
        {
          "internalType": "uint256",
          "name": "tokenId",
          "type": "uint256"
        },
        {
          "internalType": "uint256",
          "name": "price",
          "type": "uint256"
        }
      ],
      "name": "createMarketItem",
      "outputs": [],
      "stateMutability": "payable",
      "type": "function"
    },
    {
      "inputs": [
        {
          "internalType": "address",
          "name": "nftContract",
          "type": "address"
        },
        {
          "internalType": "uint256",
          "name": "itemId",
          "type": "uint256"
        }
      ],
      "name": "createMarketSale",
      "outputs": [],
      "stateMutability": "payable",
      "type": "function"
    },
    {
      "inputs": [],
      "name": "fetchItemsCreated",
      "outputs": [
        {
          "components": [
            {
              "internalType": "uint256",
              "name": "itemId",
              "type": "uint256"
            },
            {
              "internalType": "address",
              "name": "nftContract",
              "type": "address"
            },
            {
              "internalType": "uint256",
              "name": "tokenId",
              "type": "uint256"
            },
            {
              "internalType": "address payable",
              "name": "seller",
              "type": "address"
            },
            {
              "internalType": "address payable",
              "name": "owner",
              "type": "address"
            },
            {
              "internalType": "uint256",
              "name": "price",
              "type": "uint256"
            },
            {
              "internalType": "bool",
              "name": "sold",
              "type": "bool"
            }
          ],
          "internalType": "struct NFTMarket.MarketItem[]",
          "name": "",
          "type": "tuple[]"
        }
      ],
      "stateMutability": "view",
      "type": "function"
    },
    {
      "inputs": [],
      "name": "fetchMarketItems",
      "outputs": [
        {
          "components": [
            {
              "internalType": "uint256",
              "name": "itemId",
              "type": "uint256"
            },
            {
              "internalType": "address",
              "name": "nftContract",
              "type": "address"
            },
            {
              "internalType": "uint256",
              "name": "tokenId",
              "type": "uint256"
            },
            {
              "internalType": "address payable",
              "name": "seller",
              "type": "address"
            },
            {
              "internalType": "address payable",
              "name": "owner",
              "type": "address"
            },
            {
              "internalType": "uint256",
              "name": "price",
              "type": "uint256"
            },
            {
              "internalType": "bool",
              "name": "sold",
              "type": "bool"
            }
          ],
          "internalType": "struct NFTMarket.MarketItem[]",
          "name": "",
          "type": "tuple[]"
        }
      ],
      "stateMutability": "view",
      "type": "function"
    },
    {
      "inputs": [],
      "name": "fetchMyNFTs",
      "outputs": [
        {
          "components": [
            {
              "internalType": "uint256",
              "name": "itemId",
              "type": "uint256"
            },
            {
              "internalType": "address",
              "name": "nftContract",
              "type": "address"
            },
            {
              "internalType": "uint256",
              "name": "tokenId",
              "type": "uint256"
            },
            {
              "internalType": "address payable",
              "name": "seller",
              "type": "address"
            },
            {
              "internalType": "address payable",
              "name": "owner",
              "type": "address"
            },
            {
              "internalType": "uint256",
              "name": "price",
              "type": "uint256"
            },
            {
              "internalType": "bool",
              "name": "sold",
              "type": "bool"
            }
          ],
          "internalType": "struct NFTMarket.MarketItem[]",
          "name": "",
          "type": "tuple[]"
        }
      ],
      "stateMutability": "view",
      "type": "function"
    },
    {
      "inputs": [
        {
          "internalType": "uint256",
          "name": "tokenId",
          "type": "uint256"
        }
      ],
      "name": "getApproved",
      "outputs": [
        {
          "internalType": "address",
          "name": "",
          "type": "address"
        }
      ],
      "stateMutability": "view",
      "type": "function"
    },
    {
      "inputs": [],
      "name": "getListingPrice",
      "outputs": [
        {
          "internalType": "uint256",
          "name": "",
          "type": "uint256"
        }
      ],
      "stateMutability": "view",
      "type": "function"
    },
    {
      "inputs": [
        {
          "internalType": "uint256",
          "name": "id",
          "type": "uint256"
        }
      ],
      "name": "getRaribleV2Royalties",
      "outputs": [
        {
          "components": [
            {
              "internalType": "address payable",
              "name": "account",
              "type": "address"
            },
            {
              "internalType": "uint96",
              "name": "value",
              "type": "uint96"
            }
          ],
          "internalType": "struct LibPart.Part[]",
          "name": "",
          "type": "tuple[]"
        }
      ],
      "stateMutability": "view",
      "type": "function"
    },
    {
      "inputs": [
        {
          "internalType": "address",
          "name": "owner",
          "type": "address"
        },
        {
          "internalType": "address",
          "name": "operator",
          "type": "address"
        }
      ],
      "name": "isApprovedForAll",
      "outputs": [
        {
          "internalType": "bool",
          "name": "",
          "type": "bool"
        }
      ],
      "stateMutability": "view",
      "type": "function"
    },
    {
      "inputs": [
        {
          "internalType": "address",
          "name": "_to",
          "type": "address"
        }
      ],
      "name": "mint",
      "outputs": [],
      "stateMutability": "nonpayable",
      "type": "function"
    },
    {
      "inputs": [],
      "name": "name",
      "outputs": [
        {
          "internalType": "string",
          "name": "",
          "type": "string"
        }
      ],
      "stateMutability": "view",
      "type": "function"
    },
    {
      "inputs": [
        {
          "internalType": "uint256",
          "name": "tokenId",
          "type": "uint256"
        }
      ],
      "name": "ownerOf",
      "outputs": [
        {
          "internalType": "address",
          "name": "",
          "type": "address"
        }
      ],
      "stateMutability": "view",
      "type": "function"
    },
    {
      "inputs": [
        {
          "internalType": "uint256",
          "name": "",
          "type": "uint256"
        },
        {
          "internalType": "uint256",
          "name": "",
          "type": "uint256"
        }
      ],
      "name": "royalties",
      "outputs": [
        {
          "internalType": "address payable",
          "name": "account",
          "type": "address"
        },
        {
          "internalType": "uint96",
          "name": "value",
          "type": "uint96"
        }
      ],
      "stateMutability": "view",
      "type": "function"
    },
    {
      "inputs": [
        {
          "internalType": "address",
          "name": "from",
          "type": "address"
        },
        {
          "internalType": "address",
          "name": "to",
          "type": "address"
        },
        {
          "internalType": "uint256",
          "name": "tokenId",
          "type": "uint256"
        }
      ],
      "name": "safeTransferFrom",
      "outputs": [],
      "stateMutability": "nonpayable",
      "type": "function"
    },
    {
      "inputs": [
        {
          "internalType": "address",
          "name": "from",
          "type": "address"
        },
        {
          "internalType": "address",
          "name": "to",
          "type": "address"
        },
        {
          "internalType": "uint256",
          "name": "tokenId",
          "type": "uint256"
        },
        {
          "internalType": "bytes",
          "name": "_data",
          "type": "bytes"
        }
      ],
      "name": "safeTransferFrom",
      "outputs": [],
      "stateMutability": "nonpayable",
      "type": "function"
    },
    {
      "inputs": [
        {
          "internalType": "address",
          "name": "operator",
          "type": "address"
        },
        {
          "internalType": "bool",
          "name": "approved",
          "type": "bool"
        }
      ],
      "name": "setApprovalForAll",
      "outputs": [],
      "stateMutability": "nonpayable",
      "type": "function"
    },
    {
      "inputs": [
        {
          "internalType": "uint256",
          "name": "_tokenId",
          "type": "uint256"
        },
        {
          "internalType": "address payable",
          "name": "_royaltiesReceipientAddress",
          "type": "address"
        },
        {
          "internalType": "uint96",
          "name": "_percentageBasisPoints",
          "type": "uint96"
        }
      ],
      "name": "setRoyalties",
      "outputs": [],
      "stateMutability": "nonpayable",
      "type": "function"
    },
    {
      "inputs": [
        {
          "internalType": "bytes4",
          "name": "interfaceId",
          "type": "bytes4"
        }
      ],
      "name": "supportsInterface",
      "outputs": [
        {
          "internalType": "bool",
          "name": "",
          "type": "bool"
        }
      ],
      "stateMutability": "view",
      "type": "function"
    },
    {
      "inputs": [],
      "name": "symbol",
      "outputs": [
        {
          "internalType": "string",
          "name": "",
          "type": "string"
        }
      ],
      "stateMutability": "view",
      "type": "function"
    },
    {
      "inputs": [
        {
          "internalType": "uint256",
          "name": "tokenId",
          "type": "uint256"
        }
      ],
      "name": "tokenURI",
      "outputs": [
        {
          "internalType": "string",
          "name": "",
          "type": "string"
        }
      ],
      "stateMutability": "view",
      "type": "function"
    },
    {
      "inputs": [
        {
          "internalType": "address",
          "name": "from",
          "type": "address"
        },
        {
          "internalType": "address",
          "name": "to",
          "type": "address"
        },
        {
          "internalType": "uint256",
          "name": "tokenId",
          "type": "uint256"
        }
      ],
      "name": "transferFrom",
      "outputs": [],
      "stateMutability": "nonpayable",
      "type": "function"
    }
  ],
  "bytecode": "0x6080604052670de0b6b3a7640000600d553480156200001d57600080fd5b506040518060400160405280600a81526020017f526f79616c74794e4654000000000000000000000000000000000000000000008152506040518060400160405280600381526020017f524f5900000000000000000000000000000000000000000000000000000000008152508160009080519060200190620000a29291906200010d565b508060019080519060200190620000bb9291906200010d565b505050600160068190555033600c60006101000a81548173ffffffffffffffffffffffffffffffffffffffff021916908373ffffffffffffffffffffffffffffffffffffffff16021790555062000222565b8280546200011b90620001bd565b90600052602060002090601f0160209004810192826200013f57600085556200018b565b82601f106200015a57805160ff19168380011785556200018b565b828001600101855582156200018b579182015b828111156200018a5782518255916020019190600101906200016d565b5b5090506200019a91906200019e565b5090565b5b80821115620001b95760008160009055506001016200019f565b5090565b60006002820490506001821680620001d657607f821691505b60208210811415620001ed57620001ec620001f3565b5b50919050565b7f4e487b7100000000000000000000000000000000000000000000000000000000600052602260045260246000fd5b61555380620002326000396000f3fe60806040526004361061019c5760003560e01c80636a627842116100ec578063b88d4fde1161008a578063cad96cca11610064578063cad96cca146105c4578063e554a5ff14610601578063e985e9c51461062a578063f064c32e146106675761019c565b8063b88d4fde14610542578063c23b139e1461056b578063c87b56dd146105875761019c565b80638924af74116100c65780638924af741461048757806395d89b41146104c5578063a22cb465146104f0578063abb94051146105195761019c565b80636a6278421461040557806370a082311461042e57806370a7eba91461046b5761019c565b8063143094db1161015957806342842e0e1161013357806342842e0e1461034257806344f91c1e1461036b57806358eb2df5146103ac5780636352211e146103c85761019c565b8063143094db146102c5578063202e3740146102ee57806323b872dd146103195761019c565b806301ffc9a7146101a157806306fdde03146101de578063081812fc14610209578063095ea7b3146102465780630f08efe01461026f57806312e855851461029a575b600080fd5b3480156101ad57600080fd5b506101c860048036038101906101c39190613cc3565b610692565b6040516101d59190614676565b60405180910390f35b3480156101ea57600080fd5b506101f36106fb565b6040516102009190614691565b60405180910390f35b34801561021557600080fd5b50610230600480360381019061022b9190613d15565b61078d565b60405161023d9190614449565b60405180910390f35b34801561025257600080fd5b5061026d60048036038101906102689190613c38565b610812565b005b34801561027b57600080fd5b5061028461092a565b6040516102919190614632565b60405180910390f35b3480156102a657600080fd5b506102af610c40565b6040516102bc91906149d3565b60405180910390f35b3480156102d157600080fd5b506102ec60048036038101906102e79190613d3e565b610c4a565b005b3480156102fa57600080fd5b50610303610dbb565b6040516103109190614632565b60405180910390f35b34801561032557600080fd5b50610340600480360381019061033b9190613b32565b611155565b005b34801561034e57600080fd5b5061036960048036038101906103649190613b32565b6111b5565b005b34801561037757600080fd5b50610392600480360381019061038d9190613c38565b6111d5565b6040516103a3959493929190614464565b60405180910390f35b6103c660048036038101906103c19190613c74565b611258565b005b3480156103d457600080fd5b506103ef60048036038101906103ea9190613d15565b6115bd565b6040516103fc9190614449565b60405180910390f35b34801561041157600080fd5b5061042c60048036038101906104279190613acd565b61166f565b005b34801561043a57600080fd5b5061045560048036038101906104509190613acd565b61168f565b60405161046291906149d3565b60405180910390f35b61048560048036038101906104809190613c38565b611747565b005b34801561049357600080fd5b506104ae60048036038101906104a99190613d8d565b61193f565b6040516104bc9291906144b7565b60405180910390f35b3480156104d157600080fd5b506104da6119b4565b6040516104e79190614691565b60405180910390f35b3480156104fc57600080fd5b5061051760048036038101906105129190613bfc565b611a46565b005b34801561052557600080fd5b50610540600480360381019061053b9190613c74565b611a5c565b005b34801561054e57600080fd5b5061056960048036038101906105649190613b81565b611c6a565b005b61058560048036038101906105809190613c38565b611ccc565b005b34801561059357600080fd5b506105ae60048036038101906105a99190613d15565b611f86565b6040516105bb9190614691565b60405180910390f35b3480156105d057600080fd5b506105eb60048036038101906105e69190613d15565b61202d565b6040516105f89190614654565b60405180910390f35b34801561060d57600080fd5b5061062860048036038101906106239190613c38565b61212f565b005b34801561063657600080fd5b50610651600480360381019061064c9190613af6565b612530565b60405161065e9190614676565b60405180910390f35b34801561067357600080fd5b5061067c6125c4565b6040516106899190614632565b60405180910390f35b60006344c74bcc60e01b7bffffffffffffffffffffffffffffffffffffffffffffffffffffffff1916827bffffffffffffffffffffffffffffffffffffffffffffffffffffffff191614156106ea57600190506106f6565b6106f38261295e565b90505b919050565b60606000805461070a90614cfa565b80601f016020809104026020016040519081016040528092919081815260200182805461073690614cfa565b80156107835780601f1061075857610100808354040283529160200191610783565b820191906000526020600020905b81548152906001019060200180831161076657829003601f168201915b5050505050905090565b600061079882612a40565b6107d7576040517f08c379a00000000000000000000000000000000000000000000000000000000081526004016107ce90614853565b60405180910390fd5b6004600083815260200190815260200160002060009054906101000a900473ffffffffffffffffffffffffffffffffffffffff169050919050565b600061081d826115bd565b90508073ffffffffffffffffffffffffffffffffffffffff168373ffffffffffffffffffffffffffffffffffffffff16141561088e576040517f08c379a0000000000000000000000000000000000000000000000000000000008152600401610885906148d3565b60405180910390fd5b8073ffffffffffffffffffffffffffffffffffffffff166108ad612aac565b73ffffffffffffffffffffffffffffffffffffffff1614806108dc57506108db816108d6612aac565b612530565b5b61091b576040517f08c379a000000000000000000000000000000000000000000000000000000000815260040161091290614793565b60405180910390fd5b6109258383612ab4565b505050565b606060006109386009612b6d565b90506000610946600a612b6d565b6109506009612b6d565b61095a9190614bb0565b90506000808267ffffffffffffffff81111561099f577f4e487b7100000000000000000000000000000000000000000000000000000000600052604160045260246000fd5b6040519080825280602002602001820160405280156109d857816020015b6109c5613913565b8152602001906001900390816109bd5790505b50905060005b84811015610c3557600073ffffffffffffffffffffffffffffffffffffffff16600e6000600184610a0f9190614b29565b815260200190815260200160002060040160009054906101000a900473ffffffffffffffffffffffffffffffffffffffff1673ffffffffffffffffffffffffffffffffffffffff161415610c22576000600182610a6c9190614b29565b90506000600e60008381526020019081526020016000209050806040518060e0016040529081600082015481526020016001820160009054906101000a900473ffffffffffffffffffffffffffffffffffffffff1673ffffffffffffffffffffffffffffffffffffffff1673ffffffffffffffffffffffffffffffffffffffff168152602001600282015481526020016003820160009054906101000a900473ffffffffffffffffffffffffffffffffffffffff1673ffffffffffffffffffffffffffffffffffffffff1673ffffffffffffffffffffffffffffffffffffffff1681526020016004820160009054906101000a900473ffffffffffffffffffffffffffffffffffffffff1673ffffffffffffffffffffffffffffffffffffffff1673ffffffffffffffffffffffffffffffffffffffff168152602001600582015481526020016006820160009054906101000a900460ff161515151581525050848681518110610c05577f4e487b7100000000000000000000000000000000000000000000000000000000600052603260045260246000fd5b6020026020010181905250600185610c1d9190614b29565b945050505b8080610c2d90614d5d565b9150506109de565b508094505050505090565b6000600d54905090565b6000600167ffffffffffffffff811115610c8d577f4e487b7100000000000000000000000000000000000000000000000000000000600052604160045260246000fd5b604051908082528060200260200182016040528015610cc657816020015b610cb3613994565b815260200190600190039081610cab5790505b5090508181600081518110610d04577f4e487b7100000000000000000000000000000000000000000000000000000000600052603260045260246000fd5b6020026020010151602001906bffffffffffffffffffffffff1690816bffffffffffffffffffffffff16815250508281600081518110610d6d577f4e487b7100000000000000000000000000000000000000000000000000000000600052603260045260246000fd5b60200260200101516000019073ffffffffffffffffffffffffffffffffffffffff16908173ffffffffffffffffffffffffffffffffffffffff1681525050610db58482612b7b565b50505050565b60606000610dc96009612b6d565b905060008060005b83811015610e72573373ffffffffffffffffffffffffffffffffffffffff16600e6000600184610e019190614b29565b815260200190815260200160002060040160009054906101000a900473ffffffffffffffffffffffffffffffffffffffff1673ffffffffffffffffffffffffffffffffffffffff161415610e5f57600183610e5c9190614b29565b92505b8080610e6a90614d5d565b915050610dd1565b5060008267ffffffffffffffff811115610eb5577f4e487b7100000000000000000000000000000000000000000000000000000000600052604160045260246000fd5b604051908082528060200260200182016040528015610eee57816020015b610edb613913565b815260200190600190039081610ed35790505b50905060005b8481101561114a573373ffffffffffffffffffffffffffffffffffffffff16600e6000600184610f249190614b29565b815260200190815260200160002060040160009054906101000a900473ffffffffffffffffffffffffffffffffffffffff1673ffffffffffffffffffffffffffffffffffffffff161415611137576000600182610f819190614b29565b90506000600e60008381526020019081526020016000209050806040518060e0016040529081600082015481526020016001820160009054906101000a900473ffffffffffffffffffffffffffffffffffffffff1673ffffffffffffffffffffffffffffffffffffffff1673ffffffffffffffffffffffffffffffffffffffff168152602001600282015481526020016003820160009054906101000a900473ffffffffffffffffffffffffffffffffffffffff1673ffffffffffffffffffffffffffffffffffffffff1673ffffffffffffffffffffffffffffffffffffffff1681526020016004820160009054906101000a900473ffffffffffffffffffffffffffffffffffffffff1673ffffffffffffffffffffffffffffffffffffffff1673ffffffffffffffffffffffffffffffffffffffff168152602001600582015481526020016006820160009054906101000a900460ff16151515158152505084868151811061111a577f4e487b7100000000000000000000000000000000000000000000000000000000600052603260045260246000fd5b60200260200101819052506001856111329190614b29565b945050505b808061114290614d5d565b915050610ef4565b508094505050505090565b611166611160612aac565b82612dec565b6111a5576040517f08c379a000000000000000000000000000000000000000000000000000000000815260040161119c90614913565b60405180910390fd5b6111b0838383612eca565b505050565b6111d083838360405180602001604052806000815250611c6a565b505050565b6007602052816000526040600020602052806000526040600020600091509150508060000160009054906101000a900473ffffffffffffffffffffffffffffffffffffffff16908060010154908060020154908060030160009054906101000a900473ffffffffffffffffffffffffffffffffffffffff16908060040154905085565b6002600654141561129e576040517f08c379a000000000000000000000000000000000000000000000000000000000815260040161129590614933565b60405180910390fd5b6002600681905550600081116112e9576040517f08c379a00000000000000000000000000000000000000000000000000000000081526004016112e090614953565b60405180910390fd5b600d5434101561132e576040517f08c379a0000000000000000000000000000000000000000000000000000000008152600401611325906148f3565b60405180910390fd5b6113386009613126565b60006113446009612b6d565b90506040518060e001604052808281526020018573ffffffffffffffffffffffffffffffffffffffff1681526020018481526020013373ffffffffffffffffffffffffffffffffffffffff168152602001600073ffffffffffffffffffffffffffffffffffffffff16815260200183815260200160001515815250600e60008381526020019081526020016000206000820151816000015560208201518160010160006101000a81548173ffffffffffffffffffffffffffffffffffffffff021916908373ffffffffffffffffffffffffffffffffffffffff1602179055506040820151816002015560608201518160030160006101000a81548173ffffffffffffffffffffffffffffffffffffffff021916908373ffffffffffffffffffffffffffffffffffffffff16021790555060808201518160040160006101000a81548173ffffffffffffffffffffffffffffffffffffffff021916908373ffffffffffffffffffffffffffffffffffffffff16021790555060a0820151816005015560c08201518160060160006101000a81548160ff0219169083151502179055509050508373ffffffffffffffffffffffffffffffffffffffff166323b872dd3330866040518463ffffffff1660e01b815260040161152593929190614517565b600060405180830381600087803b15801561153f57600080fd5b505af1158015611553573d6000803e3d6000fd5b50505050828473ffffffffffffffffffffffffffffffffffffffff16827f045dfa01dcba2b36aba1d3dc4a874f4b0c5d2fbeb8d2c4b34a7d88c8d8f929d13360008760006040516115a7949392919061454e565b60405180910390a4506001600681905550505050565b6000806002600084815260200190815260200160002060009054906101000a900473ffffffffffffffffffffffffffffffffffffffff169050600073ffffffffffffffffffffffffffffffffffffffff168173ffffffffffffffffffffffffffffffffffffffff161415611666576040517f08c379a000000000000000000000000000000000000000000000000000000000815260040161165d906147f3565b60405180910390fd5b80915050919050565b6116828161167d600b612b6d565b61313c565b61168c600b613126565b50565b60008073ffffffffffffffffffffffffffffffffffffffff168273ffffffffffffffffffffffffffffffffffffffff161415611700576040517f08c379a00000000000000000000000000000000000000000000000000000000081526004016116f7906147d3565b60405180910390fd5b600360008373ffffffffffffffffffffffffffffffffffffffff1673ffffffffffffffffffffffffffffffffffffffff168152602001908152602001600020549050919050565b6000600760008473ffffffffffffffffffffffffffffffffffffffff1673ffffffffffffffffffffffffffffffffffffffff168152602001908152602001600020600083815260200190815260200160002090506000816002015414156117e3576040517f08c379a00000000000000000000000000000000000000000000000000000000081526004016117da906149b3565b60405180910390fd5b428160020154101561182a576040517f08c379a0000000000000000000000000000000000000000000000000000000008152600401611821906146b3565b60405180910390fd5b3481600401541080156118405750348160010154105b61187f576040517f08c379a0000000000000000000000000000000000000000000000000000000008152600401611876906147b3565b60405180910390fd5b8060030160009054906101000a900473ffffffffffffffffffffffffffffffffffffffff1673ffffffffffffffffffffffffffffffffffffffff166108fc82600401549081150290604051600060405180830381858888f193505050501580156118ed573d6000803e3d6000fd5b50338160030160006101000a81548173ffffffffffffffffffffffffffffffffffffffff021916908373ffffffffffffffffffffffffffffffffffffffff160217905550348160040181905550505050565b6008602052816000526040600020818154811061195b57600080fd5b90600052602060002001600091509150508060000160009054906101000a900473ffffffffffffffffffffffffffffffffffffffff16908060000160149054906101000a90046bffffffffffffffffffffffff16905082565b6060600180546119c390614cfa565b80601f01602080910402602001604051908101604052809291908181526020018280546119ef90614cfa565b8015611a3c5780601f10611a1157610100808354040283529160200191611a3c565b820191906000526020600020905b815481529060010190602001808311611a1f57829003601f168201915b5050505050905090565b611a58611a51612aac565b838361330a565b5050565b6000600760008573ffffffffffffffffffffffffffffffffffffffff1673ffffffffffffffffffffffffffffffffffffffff168152602001908152602001600020600084815260200190815260200160002090506000816002015414611af7576040517f08c379a0000000000000000000000000000000000000000000000000000000008152600401611aee90614993565b60405180910390fd5b8373ffffffffffffffffffffffffffffffffffffffff166323b872dd3330866040518463ffffffff1660e01b8152600401611b3493929190614517565b600060405180830381600087803b158015611b4e57600080fd5b505af1158015611b62573d6000803e3d6000fd5b50505050338160000160006101000a81548173ffffffffffffffffffffffffffffffffffffffff021916908373ffffffffffffffffffffffffffffffffffffffff16021790555081816001018190555062093a8042611bc19190614b29565b816002018190555060008160030160006101000a81548173ffffffffffffffffffffffffffffffffffffffff021916908373ffffffffffffffffffffffffffffffffffffffff160217905550600081600401819055507feeb8a66f59ee07b48e9116047f8bd98f651e4c76f74f3daf44ce1d592130bccc8484338562093a8042611c4b9190614b29565b604051611c5c9594939291906145df565b60405180910390a150505050565b611c7b611c75612aac565b83612dec565b611cba576040517f08c379a0000000000000000000000000000000000000000000000000000000008152600401611cb190614913565b60405180910390fd5b611cc684848484613477565b50505050565b60026006541415611d12576040517f08c379a0000000000000000000000000000000000000000000000000000000008152600401611d0990614933565b60405180910390fd5b60026006819055506000600e60008381526020019081526020016000206005015490506000600e600084815260200190815260200160002060020154905081341015611d93576040517f08c379a0000000000000000000000000000000000000000000000000000000008152600401611d8a90614813565b60405180910390fd5b600e600084815260200190815260200160002060030160009054906101000a900473ffffffffffffffffffffffffffffffffffffffff1673ffffffffffffffffffffffffffffffffffffffff166108fc349081150290604051600060405180830381858888f19350505050158015611e0f573d6000803e3d6000fd5b508373ffffffffffffffffffffffffffffffffffffffff166323b872dd3033846040518463ffffffff1660e01b8152600401611e4d93929190614517565b600060405180830381600087803b158015611e6757600080fd5b505af1158015611e7b573d6000803e3d6000fd5b5050505033600e600085815260200190815260200160002060040160006101000a81548173ffffffffffffffffffffffffffffffffffffffff021916908373ffffffffffffffffffffffffffffffffffffffff1602179055506001600e600085815260200190815260200160002060060160006101000a81548160ff021916908315150217905550611f0d600a613126565b600c60009054906101000a900473ffffffffffffffffffffffffffffffffffffffff1673ffffffffffffffffffffffffffffffffffffffff166108fc600d549081150290604051600060405180830381858888f19350505050158015611f77573d6000803e3d6000fd5b50505060016006819055505050565b6060611f9182612a40565b611fd0576040517f08c379a0000000000000000000000000000000000000000000000000000000008152600401611fc7906148b3565b60405180910390fd5b6000611fda6134d3565b90506000815111611ffa5760405180602001604052806000815250612025565b8061200484613510565b604051602001612015929190614425565b6040516020818303038152906040525b915050919050565b606060086000838152602001908152602001600020805480602002602001604051908101604052809291908181526020016000905b82821015612124578382906000526020600020016040518060400160405290816000820160009054906101000a900473ffffffffffffffffffffffffffffffffffffffff1673ffffffffffffffffffffffffffffffffffffffff1673ffffffffffffffffffffffffffffffffffffffff1681526020016000820160149054906101000a90046bffffffffffffffffffffffff166bffffffffffffffffffffffff166bffffffffffffffffffffffff168152505081526020019060010190612062565b505050509050919050565b6000600760008473ffffffffffffffffffffffffffffffffffffffff1673ffffffffffffffffffffffffffffffffffffffff168152602001908152602001600020600083815260200190815260200160002090506000816002015414156121cb576040517f08c379a00000000000000000000000000000000000000000000000000000000081526004016121c2906149b3565b60405180910390fd5b42816002015410612211576040517f08c379a000000000000000000000000000000000000000000000000000000000815260040161220890614873565b60405180910390fd5b60008160040154141561236f578273ffffffffffffffffffffffffffffffffffffffff166323b872dd308360000160009054906101000a900473ffffffffffffffffffffffffffffffffffffffff16856040518463ffffffff1660e01b815260040161227f939291906144e0565b600060405180830381600087803b15801561229957600080fd5b505af11580156122ad573d6000803e3d6000fd5b50505050600760008473ffffffffffffffffffffffffffffffffffffffff1673ffffffffffffffffffffffffffffffffffffffff1681526020019081526020016000206000838152602001908152602001600020600080820160006101000a81549073ffffffffffffffffffffffffffffffffffffffff0219169055600182016000905560028201600090556003820160006101000a81549073ffffffffffffffffffffffffffffffffffffffff02191690556004820160009055505061252b565b8060000160009054906101000a900473ffffffffffffffffffffffffffffffffffffffff1673ffffffffffffffffffffffffffffffffffffffff166108fc82600401549081150290604051600060405180830381858888f193505050501580156123dd573d6000803e3d6000fd5b508273ffffffffffffffffffffffffffffffffffffffff166323b872dd308360030160009054906101000a900473ffffffffffffffffffffffffffffffffffffffff16856040518463ffffffff1660e01b815260040161243f939291906144e0565b600060405180830381600087803b15801561245957600080fd5b505af115801561246d573d6000803e3d6000fd5b50505050600760008473ffffffffffffffffffffffffffffffffffffffff1673ffffffffffffffffffffffffffffffffffffffff1681526020019081526020016000206000838152602001908152602001600020600080820160006101000a81549073ffffffffffffffffffffffffffffffffffffffff0219169055600182016000905560028201600090556003820160006101000a81549073ffffffffffffffffffffffffffffffffffffffff0219169055600482016000905550505b505050565b6000600560008473ffffffffffffffffffffffffffffffffffffffff1673ffffffffffffffffffffffffffffffffffffffff16815260200190815260200160002060008373ffffffffffffffffffffffffffffffffffffffff1673ffffffffffffffffffffffffffffffffffffffff16815260200190815260200160002060009054906101000a900460ff16905092915050565b606060006125d26009612b6d565b905060008060005b8381101561267b573373ffffffffffffffffffffffffffffffffffffffff16600e600060018461260a9190614b29565b815260200190815260200160002060030160009054906101000a900473ffffffffffffffffffffffffffffffffffffffff1673ffffffffffffffffffffffffffffffffffffffff161415612668576001836126659190614b29565b92505b808061267390614d5d565b9150506125da565b5060008267ffffffffffffffff8111156126be577f4e487b7100000000000000000000000000000000000000000000000000000000600052604160045260246000fd5b6040519080825280602002602001820160405280156126f757816020015b6126e4613913565b8152602001906001900390816126dc5790505b50905060005b84811015612953573373ffffffffffffffffffffffffffffffffffffffff16600e600060018461272d9190614b29565b815260200190815260200160002060030160009054906101000a900473ffffffffffffffffffffffffffffffffffffffff1673ffffffffffffffffffffffffffffffffffffffff16141561294057600060018261278a9190614b29565b90506000600e60008381526020019081526020016000209050806040518060e0016040529081600082015481526020016001820160009054906101000a900473ffffffffffffffffffffffffffffffffffffffff1673ffffffffffffffffffffffffffffffffffffffff1673ffffffffffffffffffffffffffffffffffffffff168152602001600282015481526020016003820160009054906101000a900473ffffffffffffffffffffffffffffffffffffffff1673ffffffffffffffffffffffffffffffffffffffff1673ffffffffffffffffffffffffffffffffffffffff1681526020016004820160009054906101000a900473ffffffffffffffffffffffffffffffffffffffff1673ffffffffffffffffffffffffffffffffffffffff1673ffffffffffffffffffffffffffffffffffffffff168152602001600582015481526020016006820160009054906101000a900460ff161515151581525050848681518110612923577f4e487b7100000000000000000000000000000000000000000000000000000000600052603260045260246000fd5b602002602001018190525060018561293b9190614b29565b945050505b808061294b90614d5d565b9150506126fd565b508094505050505090565b60007f80ac58cd000000000000000000000000000000000000000000000000000000007bffffffffffffffffffffffffffffffffffffffffffffffffffffffff1916827bffffffffffffffffffffffffffffffffffffffffffffffffffffffff19161480612a2957507f5b5e139f000000000000000000000000000000000000000000000000000000007bffffffffffffffffffffffffffffffffffffffffffffffffffffffff1916827bffffffffffffffffffffffffffffffffffffffffffffffffffffffff1916145b80612a395750612a38826136bd565b5b9050919050565b60008073ffffffffffffffffffffffffffffffffffffffff166002600084815260200190815260200160002060009054906101000a900473ffffffffffffffffffffffffffffffffffffffff1673ffffffffffffffffffffffffffffffffffffffff1614159050919050565b600033905090565b816004600083815260200190815260200160002060006101000a81548173ffffffffffffffffffffffffffffffffffffffff021916908373ffffffffffffffffffffffffffffffffffffffff160217905550808273ffffffffffffffffffffffffffffffffffffffff16612b27836115bd565b73ffffffffffffffffffffffffffffffffffffffff167f8c5be1e5ebec7d5bd14f71427d1e84f3dd0314c0f7b2291e5b200ac8c7c3b92560405160405180910390a45050565b600081600001549050919050565b60005b8151811015612ddd57600073ffffffffffffffffffffffffffffffffffffffff16828281518110612bd8577f4e487b7100000000000000000000000000000000000000000000000000000000600052603260045260246000fd5b60200260200101516000015173ffffffffffffffffffffffffffffffffffffffff161415612c3b576040517f08c379a0000000000000000000000000000000000000000000000000000000008152600401612c3290614973565b60405180910390fd5b6000828281518110612c76577f4e487b7100000000000000000000000000000000000000000000000000000000600052603260045260246000fd5b6020026020010151602001516bffffffffffffffffffffffff161415612cd1576040517f08c379a0000000000000000000000000000000000000000000000000000000008152600401612cc890614773565b60405180910390fd5b60086000848152602001908152602001600020828281518110612d1d577f4e487b7100000000000000000000000000000000000000000000000000000000600052603260045260246000fd5b60200260200101519080600181540180825580915050600190039060005260206000200160009091909190915060008201518160000160006101000a81548173ffffffffffffffffffffffffffffffffffffffff021916908373ffffffffffffffffffffffffffffffffffffffff16021790555060208201518160000160146101000a8154816bffffffffffffffffffffffff02191690836bffffffffffffffffffffffff16021790555050508080612dd590614d5d565b915050612b7e565b50612de88282613727565b5050565b6000612df782612a40565b612e36576040517f08c379a0000000000000000000000000000000000000000000000000000000008152600401612e2d90614753565b60405180910390fd5b6000612e41836115bd565b90508073ffffffffffffffffffffffffffffffffffffffff168473ffffffffffffffffffffffffffffffffffffffff161480612eb057508373ffffffffffffffffffffffffffffffffffffffff16612e988461078d565b73ffffffffffffffffffffffffffffffffffffffff16145b80612ec15750612ec08185612530565b5b91505092915050565b8273ffffffffffffffffffffffffffffffffffffffff16612eea826115bd565b73ffffffffffffffffffffffffffffffffffffffff1614612f40576040517f08c379a0000000000000000000000000000000000000000000000000000000008152600401612f3790614893565b60405180910390fd5b600073ffffffffffffffffffffffffffffffffffffffff168273ffffffffffffffffffffffffffffffffffffffff161415612fb0576040517f08c379a0000000000000000000000000000000000000000000000000000000008152600401612fa790614713565b60405180910390fd5b612fbb838383613764565b612fc6600082612ab4565b6001600360008573ffffffffffffffffffffffffffffffffffffffff1673ffffffffffffffffffffffffffffffffffffffff16815260200190815260200160002060008282546130169190614bb0565b925050819055506001600360008473ffffffffffffffffffffffffffffffffffffffff1673ffffffffffffffffffffffffffffffffffffffff168152602001908152602001600020600082825461306d9190614b29565b92505081905550816002600083815260200190815260200160002060006101000a81548173ffffffffffffffffffffffffffffffffffffffff021916908373ffffffffffffffffffffffffffffffffffffffff160217905550808273ffffffffffffffffffffffffffffffffffffffff168473ffffffffffffffffffffffffffffffffffffffff167fddf252ad1be2c89b69c2b068fc378daa952ba7f163c4a11628f55a4df523b3ef60405160405180910390a4505050565b6001816000016000828254019250508190555050565b600073ffffffffffffffffffffffffffffffffffffffff168273ffffffffffffffffffffffffffffffffffffffff1614156131ac576040517f08c379a00000000000000000000000000000000000000000000000000000000081526004016131a390614833565b60405180910390fd5b6131b581612a40565b156131f5576040517f08c379a00000000000000000000000000000000000000000000000000000000081526004016131ec906146f3565b60405180910390fd5b61320160008383613764565b6001600360008473ffffffffffffffffffffffffffffffffffffffff1673ffffffffffffffffffffffffffffffffffffffff16815260200190815260200160002060008282546132519190614b29565b92505081905550816002600083815260200190815260200160002060006101000a81548173ffffffffffffffffffffffffffffffffffffffff021916908373ffffffffffffffffffffffffffffffffffffffff160217905550808273ffffffffffffffffffffffffffffffffffffffff16600073ffffffffffffffffffffffffffffffffffffffff167fddf252ad1be2c89b69c2b068fc378daa952ba7f163c4a11628f55a4df523b3ef60405160405180910390a45050565b8173ffffffffffffffffffffffffffffffffffffffff168373ffffffffffffffffffffffffffffffffffffffff161415613379576040517f08c379a000000000000000000000000000000000000000000000000000000000815260040161337090614733565b60405180910390fd5b80600560008573ffffffffffffffffffffffffffffffffffffffff1673ffffffffffffffffffffffffffffffffffffffff16815260200190815260200160002060008473ffffffffffffffffffffffffffffffffffffffff1673ffffffffffffffffffffffffffffffffffffffff16815260200190815260200160002060006101000a81548160ff0219169083151502179055508173ffffffffffffffffffffffffffffffffffffffff168373ffffffffffffffffffffffffffffffffffffffff167f17307eab39ab6107e8899845ad3d59bd9653f200f220920489ca2b5937696c318360405161346a9190614676565b60405180910390a3505050565b613482848484612eca565b61348e84848484613769565b6134cd576040517f08c379a00000000000000000000000000000000000000000000000000000000081526004016134c4906146d3565b60405180910390fd5b50505050565b60606040518060400160405280601f81526020017f68747470733a2f2f6578616d706c65646f6d61696e2f6d657461646174612f00815250905090565b60606000821415613558576040518060400160405280600181526020017f300000000000000000000000000000000000000000000000000000000000000081525090506136b8565b600082905060005b6000821461358a57808061357390614d5d565b915050600a826135839190614b7f565b9150613560565b60008167ffffffffffffffff8111156135cc577f4e487b7100000000000000000000000000000000000000000000000000000000600052604160045260246000fd5b6040519080825280601f01601f1916602001820160405280156135fe5781602001600182028036833780820191505090505b5090505b600085146136b1576001826136179190614bb0565b9150600a856136269190614da6565b60306136329190614b29565b60f81b81838151811061366e577f4e487b7100000000000000000000000000000000000000000000000000000000600052603260045260246000fd5b60200101907effffffffffffffffffffffffffffffffffffffffffffffffffffffffffffff1916908160001a905350600a856136aa9190614b7f565b9450613602565b8093505050505b919050565b60007f01ffc9a7000000000000000000000000000000000000000000000000000000007bffffffffffffffffffffffffffffffffffffffffffffffffffffffff1916827bffffffffffffffffffffffffffffffffffffffffffffffffffffffff1916149050919050565b7f3fa96d7b6bcbfe71ef171666d84db3cf52fa2d1c8afdb1cc8e486177f208b7df82826040516137589291906149ee565b60405180910390a15050565b505050565b600061378a8473ffffffffffffffffffffffffffffffffffffffff16613900565b156138f3578373ffffffffffffffffffffffffffffffffffffffff1663150b7a026137b3612aac565b8786866040518563ffffffff1660e01b81526004016137d59493929190614593565b602060405180830381600087803b1580156137ef57600080fd5b505af192505050801561382057506040513d601f19601f8201168201806040525081019061381d9190613cec565b60015b6138a3573d8060008114613850576040519150601f19603f3d011682016040523d82523d6000602084013e613855565b606091505b5060008151141561389b576040517f08c379a0000000000000000000000000000000000000000000000000000000008152600401613892906146d3565b60405180910390fd5b805181602001fd5b63150b7a0260e01b7bffffffffffffffffffffffffffffffffffffffffffffffffffffffff1916817bffffffffffffffffffffffffffffffffffffffffffffffffffffffff1916149150506138f8565b600190505b949350505050565b600080823b905060008111915050919050565b6040518060e0016040528060008152602001600073ffffffffffffffffffffffffffffffffffffffff16815260200160008152602001600073ffffffffffffffffffffffffffffffffffffffff168152602001600073ffffffffffffffffffffffffffffffffffffffff168152602001600081526020016000151581525090565b6040518060400160405280600073ffffffffffffffffffffffffffffffffffffffff16815260200160006bffffffffffffffffffffffff1681525090565b60006139e56139e084614a43565b614a1e565b9050828152602081018484840111156139fd57600080fd5b613a08848285614cb8565b509392505050565b600081359050613a1f81615493565b92915050565b600081359050613a34816154aa565b92915050565b600081359050613a49816154c1565b92915050565b600081359050613a5e816154d8565b92915050565b600081519050613a73816154d8565b92915050565b600082601f830112613a8a57600080fd5b8135613a9a8482602086016139d2565b91505092915050565b600081359050613ab2816154ef565b92915050565b600081359050613ac781615506565b92915050565b600060208284031215613adf57600080fd5b6000613aed84828501613a10565b91505092915050565b60008060408385031215613b0957600080fd5b6000613b1785828601613a10565b9250506020613b2885828601613a10565b9150509250929050565b600080600060608486031215613b4757600080fd5b6000613b5586828701613a10565b9350506020613b6686828701613a10565b9250506040613b7786828701613aa3565b9150509250925092565b60008060008060808587031215613b9757600080fd5b6000613ba587828801613a10565b9450506020613bb687828801613a10565b9350506040613bc787828801613aa3565b925050606085013567ffffffffffffffff811115613be457600080fd5b613bf087828801613a79565b91505092959194509250565b60008060408385031215613c0f57600080fd5b6000613c1d85828601613a10565b9250506020613c2e85828601613a3a565b9150509250929050565b60008060408385031215613c4b57600080fd5b6000613c5985828601613a10565b9250506020613c6a85828601613aa3565b9150509250929050565b600080600060608486031215613c8957600080fd5b6000613c9786828701613a10565b9350506020613ca886828701613aa3565b9250506040613cb986828701613aa3565b9150509250925092565b600060208284031215613cd557600080fd5b6000613ce384828501613a4f565b91505092915050565b600060208284031215613cfe57600080fd5b6000613d0c84828501613a64565b91505092915050565b600060208284031215613d2757600080fd5b6000613d3584828501613aa3565b91505092915050565b600080600060608486031215613d5357600080fd5b6000613d6186828701613aa3565b9350506020613d7286828701613a25565b9250506040613d8386828701613ab8565b9150509250925092565b60008060408385031215613da057600080fd5b6000613dae85828601613aa3565b9250506020613dbf85828601613aa3565b9150509250929050565b6000613dd5838361432c565b60e08301905092915050565b6000613ded83836143ba565b60408301905092915050565b613e0281614c82565b82525050565b613e1181614bf6565b82525050565b613e2081614bf6565b82525050565b613e2f81614be4565b82525050565b613e3e81614be4565b82525050565b6000613e4f82614a94565b613e598185614ada565b9350613e6483614a74565b8060005b83811015613e95578151613e7c8882613dc9565b9750613e8783614ac0565b925050600181019050613e68565b5085935050505092915050565b6000613ead82614a9f565b613eb78185614aeb565b9350613ec283614a84565b8060005b83811015613ef3578151613eda8882613de1565b9750613ee583614acd565b925050600181019050613ec6565b5085935050505092915050565b613f0981614c08565b82525050565b613f1881614c08565b82525050565b6000613f2982614aaa565b613f338185614afc565b9350613f43818560208601614cc7565b613f4c81614e93565b840191505092915050565b6000613f6282614ab5565b613f6c8185614b0d565b9350613f7c818560208601614cc7565b613f8581614e93565b840191505092915050565b6000613f9b82614ab5565b613fa58185614b1e565b9350613fb5818560208601614cc7565b80840191505092915050565b6000613fce601383614b0d565b9150613fd982614ea4565b602082019050919050565b6000613ff1603283614b0d565b9150613ffc82614ecd565b604082019050919050565b6000614014601c83614b0d565b915061401f82614f1c565b602082019050919050565b6000614037602483614b0d565b915061404282614f45565b604082019050919050565b600061405a601983614b0d565b915061406582614f94565b602082019050919050565b600061407d602c83614b0d565b915061408882614fbd565b604082019050919050565b60006140a0602083614b0d565b91506140ab8261500c565b602082019050919050565b60006140c3603883614b0d565b91506140ce82615035565b604082019050919050565b60006140e6601583614b0d565b91506140f182615084565b602082019050919050565b6000614109602a83614b0d565b9150614114826150ad565b604082019050919050565b600061412c602983614b0d565b9150614137826150fc565b604082019050919050565b600061414f604083614b0d565b915061415a8261514b565b604082019050919050565b6000614172602083614b0d565b915061417d8261519a565b602082019050919050565b6000614195602c83614b0d565b91506141a0826151c3565b604082019050919050565b60006141b8601883614b0d565b91506141c382615212565b602082019050919050565b60006141db602983614b0d565b91506141e68261523b565b604082019050919050565b60006141fe602f83614b0d565b91506142098261528a565b604082019050919050565b6000614221602183614b0d565b915061422c826152d9565b604082019050919050565b6000614244602483614b0d565b915061424f82615328565b604082019050919050565b6000614267603183614b0d565b915061427282615377565b604082019050919050565b600061428a601f83614b0d565b9150614295826153c6565b602082019050919050565b60006142ad601c83614b0d565b91506142b8826153ef565b602082019050919050565b60006142d0601b83614b0d565b91506142db82615418565b602082019050919050565b60006142f3601583614b0d565b91506142fe82615441565b602082019050919050565b6000614316601683614b0d565b91506143218261546a565b602082019050919050565b60e08201600082015161434260008501826143e9565b5060208201516143556020850182613e26565b50604082015161436860408501826143e9565b50606082015161437b6060850182613e08565b50608082015161438e6080850182613e08565b5060a08201516143a160a08501826143e9565b5060c08201516143b460c0850182613f00565b50505050565b6040820160008201516143d06000850182613e08565b5060208201516143e36020850182614407565b50505050565b6143f281614c60565b82525050565b61440181614c60565b82525050565b61441081614c6a565b82525050565b61441f81614c6a565b82525050565b60006144318285613f90565b915061443d8284613f90565b91508190509392505050565b600060208201905061445e6000830184613e35565b92915050565b600060a0820190506144796000830188613e17565b61448660208301876143f8565b61449360408301866143f8565b6144a06060830185613e17565b6144ad60808301846143f8565b9695505050505050565b60006040820190506144cc6000830185613e17565b6144d96020830184614416565b9392505050565b60006060820190506144f56000830186613e35565b6145026020830185613df9565b61450f60408301846143f8565b949350505050565b600060608201905061452c6000830186613e35565b6145396020830185613e35565b61454660408301846143f8565b949350505050565b60006080820190506145636000830187613e35565b6145706020830186613e35565b61457d60408301856143f8565b61458a6060830184613f0f565b95945050505050565b60006080820190506145a86000830187613e35565b6145b56020830186613e35565b6145c260408301856143f8565b81810360608301526145d48184613f1e565b905095945050505050565b600060a0820190506145f46000830188613e35565b61460160208301876143f8565b61460e6040830186613e35565b61461b60608301856143f8565b61462860808301846143f8565b9695505050505050565b6000602082019050818103600083015261464c8184613e44565b905092915050565b6000602082019050818103600083015261466e8184613ea2565b905092915050565b600060208201905061468b6000830184613f0f565b92915050565b600060208201905081810360008301526146ab8184613f57565b905092915050565b600060208201905081810360008301526146cc81613fc1565b9050919050565b600060208201905081810360008301526146ec81613fe4565b9050919050565b6000602082019050818103600083015261470c81614007565b9050919050565b6000602082019050818103600083015261472c8161402a565b9050919050565b6000602082019050818103600083015261474c8161404d565b9050919050565b6000602082019050818103600083015261476c81614070565b9050919050565b6000602082019050818103600083015261478c81614093565b9050919050565b600060208201905081810360008301526147ac816140b6565b9050919050565b600060208201905081810360008301526147cc816140d9565b9050919050565b600060208201905081810360008301526147ec816140fc565b9050919050565b6000602082019050818103600083015261480c8161411f565b9050919050565b6000602082019050818103600083015261482c81614142565b9050919050565b6000602082019050818103600083015261484c81614165565b9050919050565b6000602082019050818103600083015261486c81614188565b9050919050565b6000602082019050818103600083015261488c816141ab565b9050919050565b600060208201905081810360008301526148ac816141ce565b9050919050565b600060208201905081810360008301526148cc816141f1565b9050919050565b600060208201905081810360008301526148ec81614214565b9050919050565b6000602082019050818103600083015261490c81614237565b9050919050565b6000602082019050818103600083015261492c8161425a565b9050919050565b6000602082019050818103600083015261494c8161427d565b9050919050565b6000602082019050818103600083015261496c816142a0565b9050919050565b6000602082019050818103600083015261498c816142c3565b9050919050565b600060208201905081810360008301526149ac816142e6565b9050919050565b600060208201905081810360008301526149cc81614309565b9050919050565b60006020820190506149e860008301846143f8565b92915050565b6000604082019050614a0360008301856143f8565b8181036020830152614a158184613ea2565b90509392505050565b6000614a28614a39565b9050614a348282614d2c565b919050565b6000604051905090565b600067ffffffffffffffff821115614a5e57614a5d614e64565b5b614a6782614e93565b9050602081019050919050565b6000819050602082019050919050565b6000819050602082019050919050565b600081519050919050565b600081519050919050565b600081519050919050565b600081519050919050565b6000602082019050919050565b6000602082019050919050565b600082825260208201905092915050565b600082825260208201905092915050565b600082825260208201905092915050565b600082825260208201905092915050565b600081905092915050565b6000614b3482614c60565b9150614b3f83614c60565b9250827fffffffffffffffffffffffffffffffffffffffffffffffffffffffffffffffff03821115614b7457614b73614dd7565b5b828201905092915050565b6000614b8a82614c60565b9150614b9583614c60565b925082614ba557614ba4614e06565b5b828204905092915050565b6000614bbb82614c60565b9150614bc683614c60565b925082821015614bd957614bd8614dd7565b5b828203905092915050565b6000614bef82614c40565b9050919050565b6000614c0182614c40565b9050919050565b60008115159050919050565b60007fffffffff0000000000000000000000000000000000000000000000000000000082169050919050565b600073ffffffffffffffffffffffffffffffffffffffff82169050919050565b6000819050919050565b60006bffffffffffffffffffffffff82169050919050565b6000614c8d82614c94565b9050919050565b6000614c9f82614ca6565b9050919050565b6000614cb182614c40565b9050919050565b82818337600083830152505050565b60005b83811015614ce5578082015181840152602081019050614cca565b83811115614cf4576000848401525b50505050565b60006002820490506001821680614d1257607f821691505b60208210811415614d2657614d25614e35565b5b50919050565b614d3582614e93565b810181811067ffffffffffffffff82111715614d5457614d53614e64565b5b80604052505050565b6000614d6882614c60565b91507fffffffffffffffffffffffffffffffffffffffffffffffffffffffffffffffff821415614d9b57614d9a614dd7565b5b600182019050919050565b6000614db182614c60565b9150614dbc83614c60565b925082614dcc57614dcb614e06565b5b828206905092915050565b7f4e487b7100000000000000000000000000000000000000000000000000000000600052601160045260246000fd5b7f4e487b7100000000000000000000000000000000000000000000000000000000600052601260045260246000fd5b7f4e487b7100000000000000000000000000000000000000000000000000000000600052602260045260246000fd5b7f4e487b7100000000000000000000000000000000000000000000000000000000600052604160045260246000fd5b6000601f19601f8301169050919050565b7f61756374696f6e2069732066696e697368656400000000000000000000000000600082015250565b7f4552433732313a207472616e7366657220746f206e6f6e20455243373231526560008201527f63656976657220696d706c656d656e7465720000000000000000000000000000602082015250565b7f4552433732313a20746f6b656e20616c7265616479206d696e74656400000000600082015250565b7f4552433732313a207472616e7366657220746f20746865207a65726f2061646460008201527f7265737300000000000000000000000000000000000000000000000000000000602082015250565b7f4552433732313a20617070726f766520746f2063616c6c657200000000000000600082015250565b7f4552433732313a206f70657261746f7220717565727920666f72206e6f6e657860008201527f697374656e7420746f6b656e0000000000000000000000000000000000000000602082015250565b7f526f79616c74792076616c75652073686f756c6420626520706f736974697665600082015250565b7f4552433732313a20617070726f76652063616c6c6572206973206e6f74206f7760008201527f6e6572206e6f7220617070726f76656420666f7220616c6c0000000000000000602082015250565b7f62696420616d6f756e7420697320746f6f206c6f770000000000000000000000600082015250565b7f4552433732313a2062616c616e636520717565727920666f7220746865207a6560008201527f726f206164647265737300000000000000000000000000000000000000000000602082015250565b7f4552433732313a206f776e657220717565727920666f72206e6f6e657869737460008201527f656e7420746f6b656e0000000000000000000000000000000000000000000000602082015250565b7f506c65617365207375626d6974207468652061736b696e67207072696365206960008201527f6e206f7264657220746f20636f6d706c65746520746865207075726368617365602082015250565b7f4552433732313a206d696e7420746f20746865207a65726f2061646472657373600082015250565b7f4552433732313a20617070726f76656420717565727920666f72206e6f6e657860008201527f697374656e7420746f6b656e0000000000000000000000000000000000000000602082015250565b7f61756374696f6e20686173206e6f742066696e69736865640000000000000000600082015250565b7f4552433732313a207472616e73666572206f6620746f6b656e2074686174206960008201527f73206e6f74206f776e0000000000000000000000000000000000000000000000602082015250565b7f4552433732314d657461646174613a2055524920717565727920666f72206e6f60008201527f6e6578697374656e7420746f6b656e0000000000000000000000000000000000602082015250565b7f4552433732313a20617070726f76616c20746f2063757272656e74206f776e6560008201527f7200000000000000000000000000000000000000000000000000000000000000602082015250565b7f5072696365206d75737420626520657175616c20746f206c697374696e67207060008201527f7269636500000000000000000000000000000000000000000000000000000000602082015250565b7f4552433732313a207472616e736665722063616c6c6572206973206e6f74206f60008201527f776e6572206e6f7220617070726f766564000000000000000000000000000000602082015250565b7f5265656e7472616e637947756172643a207265656e7472616e742063616c6c00600082015250565b7f5072696365206d757374206265206174206c6561737420312077656900000000600082015250565b7f526563697069656e742073686f756c642062652070726573656e740000000000600082015250565b7f61756374696f6e20616c72656164792065786973740000000000000000000000600082015250565b7f61756374696f6e20646f6573206e6f7420657869737400000000000000000000600082015250565b61549c81614be4565b81146154a757600080fd5b50565b6154b381614bf6565b81146154be57600080fd5b50565b6154ca81614c08565b81146154d557600080fd5b50565b6154e181614c14565b81146154ec57600080fd5b50565b6154f881614c60565b811461550357600080fd5b50565b61550f81614c6a565b811461551a57600080fd5b5056fea26469706673582212207819de900733367c93f8acd601da2c4f039baaa1e26d9cd95bc9650b240f3f3164736f6c63430008040033",
  "linkReferences": {},
  "deployedLinkReferences": {}
}