{
  "_format": "hh-sol-artifact-1",
  "contractName": "RoyaltyNFT",
  "sourceName": "contracts/RaribleRoyaltyERC721.sol",
  "abi": [
    {
      "anonymous": false,
      "inputs": [
        {
          "indexed": false,
          "internalType": "uint256",
          "name": "tokenId",
          "type": "uint256"
        },
        {
          "components": [
            {
              "internalType": "address payable",
              "name": "account",
              "type": "address"
            },
            {
              "internalType": "uint96",
              "name": "value",
              "type": "uint96"
            }
          ],
          "indexed": false,
          "internalType": "struct LibPart.Part[]",
          "name": "royalties",
          "type": "tuple[]"
        }
      ],
      "name": "RoyaltiesSet",
      "type": "event"
    },
    {
      "inputs": [
        {
          "internalType": "uint256",
          "name": "id",
          "type": "uint256"
        }
      ],
      "name": "getRaribleV2Royalties",
      "outputs": [
        {
          "components": [
            {
              "internalType": "address payable",
              "name": "account",
              "type": "address"
            },
            {
              "internalType": "uint96",
              "name": "value",
              "type": "uint96"
            }
          ],
          "internalType": "struct LibPart.Part[]",
          "name": "",
          "type": "tuple[]"
        }
      ],
      "stateMutability": "view",
      "type": "function"
    },
    {
      "inputs": [
        {
          "internalType": "uint256",
          "name": "",
          "type": "uint256"
        },
        {
          "internalType": "uint256",
          "name": "",
          "type": "uint256"
        }
      ],
      "name": "royalties",
      "outputs": [
        {
          "internalType": "address payable",
          "name": "account",
          "type": "address"
        },
        {
          "internalType": "uint96",
          "name": "value",
          "type": "uint96"
        }
      ],
      "stateMutability": "view",
      "type": "function"
    },
    {
      "inputs": [
        {
          "internalType": "uint256",
          "name": "_tokenId",
          "type": "uint256"
        },
        {
          "internalType": "address payable",
          "name": "_royaltiesReceipientAddress",
          "type": "address"
        },
        {
          "internalType": "uint96",
          "name": "_percentageBasisPoints",
          "type": "uint96"
        }
      ],
      "name": "setRoyalties",
      "outputs": [],
      "stateMutability": "nonpayable",
      "type": "function"
    }
  ],
  "bytecode": "0x608060405234801561001057600080fd5b50610b5c806100206000396000f3fe608060405234801561001057600080fd5b50600436106100415760003560e01c8063143094db146100465780638924af7414610062578063cad96cca14610093575b600080fd5b610060600480360381019061005b91906106fd565b6100c3565b005b61007c6004803603810190610077919061074c565b610234565b60405161008a9291906108be565b60405180910390f35b6100ad60048036038101906100a891906106d4565b6102a9565b6040516100ba91906108e7565b60405180910390f35b6000600167ffffffffffffffff811115610106577f4e487b7100000000000000000000000000000000000000000000000000000000600052604160045260246000fd5b60405190808252806020026020018201604052801561013f57816020015b61012c610657565b8152602001906001900390816101245790505b509050818160008151811061017d577f4e487b7100000000000000000000000000000000000000000000000000000000600052603260045260246000fd5b6020026020010151602001906bffffffffffffffffffffffff1690816bffffffffffffffffffffffff168152505082816000815181106101e6577f4e487b7100000000000000000000000000000000000000000000000000000000600052603260045260246000fd5b60200260200101516000019073ffffffffffffffffffffffffffffffffffffffff16908173ffffffffffffffffffffffffffffffffffffffff168152505061022e84826103aa565b50505050565b6000602052816000526040600020818154811061025057600080fd5b90600052602060002001600091509150508060000160009054906101000a900473ffffffffffffffffffffffffffffffffffffffff16908060000160149054906101000a90046bffffffffffffffffffffffff16905082565b6060600080838152602001908152602001600020805480602002602001604051908101604052809291908181526020016000905b8282101561039f578382906000526020600020016040518060400160405290816000820160009054906101000a900473ffffffffffffffffffffffffffffffffffffffff1673ffffffffffffffffffffffffffffffffffffffff1673ffffffffffffffffffffffffffffffffffffffff1681526020016000820160149054906101000a90046bffffffffffffffffffffffff166bffffffffffffffffffffffff166bffffffffffffffffffffffff1681525050815260200190600101906102dd565b505050509050919050565b60005b815181101561060b57600073ffffffffffffffffffffffffffffffffffffffff16828281518110610407577f4e487b7100000000000000000000000000000000000000000000000000000000600052603260045260246000fd5b60200260200101516000015173ffffffffffffffffffffffffffffffffffffffff16141561046a576040517f08c379a000000000000000000000000000000000000000000000000000000000815260040161046190610929565b60405180910390fd5b60008282815181106104a5577f4e487b7100000000000000000000000000000000000000000000000000000000600052603260045260246000fd5b6020026020010151602001516bffffffffffffffffffffffff161415610500576040517f08c379a00000000000000000000000000000000000000000000000000000000081526004016104f790610909565b60405180910390fd5b60008084815260200190815260200160002082828151811061054b577f4e487b7100000000000000000000000000000000000000000000000000000000600052603260045260246000fd5b60200260200101519080600181540180825580915050600190039060005260206000200160009091909190915060008201518160000160006101000a81548173ffffffffffffffffffffffffffffffffffffffff021916908373ffffffffffffffffffffffffffffffffffffffff16021790555060208201518160000160146101000a8154816bffffffffffffffffffffffff02191690836bffffffffffffffffffffffff1602179055505050808061060390610a17565b9150506103ad565b50610616828261061a565b5050565b7f3fa96d7b6bcbfe71ef171666d84db3cf52fa2d1c8afdb1cc8e486177f208b7df828260405161064b929190610949565b60405180910390a15050565b6040518060400160405280600073ffffffffffffffffffffffffffffffffffffffff16815260200160006bffffffffffffffffffffffff1681525090565b6000813590506106a481610ae1565b92915050565b6000813590506106b981610af8565b92915050565b6000813590506106ce81610b0f565b92915050565b6000602082840312156106e657600080fd5b60006106f4848285016106aa565b91505092915050565b60008060006060848603121561071257600080fd5b6000610720868287016106aa565b935050602061073186828701610695565b9250506040610742868287016106bf565b9150509250925092565b6000806040838503121561075f57600080fd5b600061076d858286016106aa565b925050602061077e858286016106aa565b9150509250929050565b60006107948383610862565b60408301905092915050565b6107a9816109c3565b82525050565b6107b8816109c3565b82525050565b60006107c982610989565b6107d381856109a1565b93506107de83610979565b8060005b8381101561080f5781516107f68882610788565b975061080183610994565b9250506001810190506107e2565b5085935050505092915050565b60006108296020836109b2565b915061083482610a8f565b602082019050919050565b600061084c601b836109b2565b915061085782610ab8565b602082019050919050565b60408201600082015161087860008501826107a0565b50602082015161088b60208501826108a0565b50505050565b61089a816109f5565b82525050565b6108a9816109ff565b82525050565b6108b8816109ff565b82525050565b60006040820190506108d360008301856107af565b6108e060208301846108af565b9392505050565b6000602082019050818103600083015261090181846107be565b905092915050565b600060208201905081810360008301526109228161081c565b9050919050565b600060208201905081810360008301526109428161083f565b9050919050565b600060408201905061095e6000830185610891565b818103602083015261097081846107be565b90509392505050565b6000819050602082019050919050565b600081519050919050565b6000602082019050919050565b600082825260208201905092915050565b600082825260208201905092915050565b60006109ce826109d5565b9050919050565b600073ffffffffffffffffffffffffffffffffffffffff82169050919050565b6000819050919050565b60006bffffffffffffffffffffffff82169050919050565b6000610a22826109f5565b91507fffffffffffffffffffffffffffffffffffffffffffffffffffffffffffffffff821415610a5557610a54610a60565b5b600182019050919050565b7f4e487b7100000000000000000000000000000000000000000000000000000000600052601160045260246000fd5b7f526f79616c74792076616c75652073686f756c6420626520706f736974697665600082015250565b7f526563697069656e742073686f756c642062652070726573656e740000000000600082015250565b610aea816109c3565b8114610af557600080fd5b50565b610b01816109f5565b8114610b0c57600080fd5b50565b610b18816109ff565b8114610b2357600080fd5b5056fea26469706673582212209e0a1c56d88ad04596d175396e1b162a3068dccd33d9eb3e2a729e758a29915a64736f6c63430008040033",
  "linkReferences": {},
  "deployedLinkReferences": {}
}